{
  "address": "0xF9415f121F91aceA937Ffb566F3aAc02eb55b23B",
  "abi": [
    {
      "inputs": [],
      "name": "AccountAlreadyOwnsOneToken",
      "type": "error"
    },
    {
      "inputs": [],
      "name": "CantChallengeInvalidAccount",
      "type": "error"
    },
    {
      "inputs": [],
      "name": "ChallangeAlreadyActive",
      "type": "error"
    },
    {
      "inputs": [],
      "name": "ErrorAccountNotValid",
      "type": "error"
    },
    {
      "inputs": [],
      "name": "ErrorAccountSolidified",
      "type": "error"
    },
    {
      "inputs": [],
      "name": "ErrorAlreadyVoted",
      "type": "error"
    },
    {
      "inputs": [],
      "name": "ErrorChallangeAlreadyExecuted",
      "type": "error"
    },
    {
      "inputs": [],
      "name": "ErrorChallangeNotActive",
      "type": "error"
    },
    {
      "inputs": [],
      "name": "ErrorVoteNotFound",
      "type": "error"
    },
    {
      "inputs": [],
      "name": "ErrorVoteOnOwnChallenge",
      "type": "error"
    },
    {
      "inputs": [],
      "name": "ErrorVoterCantVote",
      "type": "error"
    },
    {
      "inputs": [],
      "name": "ErrorVoterValid",
      "type": "error"
    },
    {
      "inputs": [],
      "name": "ErrorVotingPeriodEnded",
      "type": "error"
    },
    {
      "inputs": [],
      "name": "ErrorVoucherIsValid",
      "type": "error"
    },
    {
      "inputs": [],
      "name": "ErrorVoucherNotValid",
      "type": "error"
    },
    {
      "inputs": [
        {
          "internalType": "uint256",
          "name": "prod1",
          "type": "uint256"
        }
      ],
      "name": "PRBMath__MulDivFixedPointOverflow",
      "type": "error"
    },
    {
      "inputs": [
        {
          "internalType": "uint256",
          "name": "prod1",
          "type": "uint256"
        },
        {
          "internalType": "uint256",
          "name": "denominator",
          "type": "uint256"
        }
      ],
      "name": "PRBMath__MulDivOverflow",
      "type": "error"
    },
    {
      "inputs": [],
      "name": "UnexpectedExecutedCondition",
      "type": "error"
    },
    {
      "inputs": [],
      "name": "VoucherNoLongerInvalid",
      "type": "error"
    },
    {
      "anonymous": false,
      "inputs": [
        {
          "indexed": true,
          "internalType": "address",
          "name": "owner",
          "type": "address"
        },
        {
          "indexed": true,
          "internalType": "address",
          "name": "approved",
          "type": "address"
        },
        {
          "indexed": true,
          "internalType": "uint256",
          "name": "tokenId",
          "type": "uint256"
        }
      ],
      "name": "Approval",
      "type": "event"
    },
    {
      "anonymous": false,
      "inputs": [
        {
          "indexed": true,
          "internalType": "address",
          "name": "owner",
          "type": "address"
        },
        {
          "indexed": true,
          "internalType": "address",
          "name": "operator",
          "type": "address"
        },
        {
          "indexed": false,
          "internalType": "bool",
          "name": "approved",
          "type": "bool"
        }
      ],
      "name": "ApprovalForAll",
      "type": "event"
    },
    {
      "anonymous": false,
      "inputs": [
        {
          "indexed": true,
          "internalType": "uint256",
          "name": "tokenId",
          "type": "uint256"
        }
      ],
      "name": "ChallengeEvent",
      "type": "event"
    },
    {
      "anonymous": false,
      "inputs": [
        {
          "indexed": false,
          "internalType": "uint256",
          "name": "tokenId",
          "type": "uint256"
        },
        {
          "indexed": false,
          "internalType": "int8",
          "name": "outcome",
          "type": "int8"
        }
      ],
      "name": "ChallengeExecuted",
      "type": "event"
    },
    {
      "anonymous": false,
      "inputs": [
        {
          "indexed": false,
          "internalType": "uint8",
          "name": "version",
          "type": "uint8"
        }
      ],
      "name": "Initialized",
      "type": "event"
    },
    {
      "anonymous": false,
      "inputs": [
        {
          "indexed": true,
          "internalType": "uint256",
          "name": "tokenId",
          "type": "uint256"
        }
      ],
      "name": "InvalidatedAccountEvent",
      "type": "event"
    },
    {
      "anonymous": false,
      "inputs": [
        {
          "indexed": true,
          "internalType": "uint256",
          "name": "tokenId",
          "type": "uint256"
        }
      ],
      "name": "InvalidatedByChallenge",
      "type": "event"
    },
    {
      "anonymous": false,
      "inputs": [
        {
          "indexed": true,
          "internalType": "uint256",
          "name": "tokenId",
          "type": "uint256"
        }
      ],
      "name": "InvalidatedByInvalidVoucher",
      "type": "event"
    },
    {
      "anonymous": false,
      "inputs": [
        {
          "indexed": true,
          "internalType": "uint256",
          "name": "tokenId",
          "type": "uint256"
        },
        {
          "indexed": true,
          "internalType": "uint256",
          "name": "voterTokenId",
          "type": "uint256"
        }
      ],
      "name": "InvalidatedVoteEvent",
      "type": "event"
    },
    {
      "anonymous": false,
      "inputs": [
        {
          "indexed": true,
          "internalType": "address",
          "name": "from",
          "type": "address"
        },
        {
          "indexed": true,
          "internalType": "address",
          "name": "to",
          "type": "address"
        },
        {
          "indexed": true,
          "internalType": "uint256",
          "name": "tokenId",
          "type": "uint256"
        }
      ],
      "name": "Transfer",
      "type": "event"
    },
    {
      "anonymous": false,
      "inputs": [
        {
          "indexed": true,
          "internalType": "uint256",
          "name": "voterTokenId",
          "type": "uint256"
        },
        {
          "indexed": false,
          "internalType": "uint256",
          "name": "tokenId",
          "type": "uint256"
        },
        {
          "indexed": false,
          "internalType": "int8",
          "name": "vote",
          "type": "int8"
        }
      ],
      "name": "VoteEvent",
      "type": "event"
    },
    {
      "anonymous": false,
      "inputs": [
        {
          "indexed": false,
          "internalType": "uint256",
          "name": "newEndDate",
          "type": "uint256"
        }
      ],
      "name": "VotingPeriodExtendedEvent",
      "type": "event"
    },
    {
      "anonymous": false,
      "inputs": [
        {
          "indexed": true,
          "internalType": "uint256",
          "name": "from",
          "type": "uint256"
        },
        {
          "indexed": true,
          "internalType": "uint256",
          "name": "to",
          "type": "uint256"
        },
        {
          "indexed": false,
          "internalType": "string",
          "name": "personCid",
          "type": "string"
        }
      ],
      "name": "VouchEvent",
      "type": "event"
    },
    {
      "inputs": [],
      "name": "FOUNDERS_VOUCHER",
      "outputs": [
        {
          "internalType": "uint256",
          "name": "",
          "type": "uint256"
        }
      ],
      "stateMutability": "view",
      "type": "function"
    },
    {
      "inputs": [],
      "name": "PENDING_PERIOD",
      "outputs": [
        {
          "internalType": "uint256",
          "name": "",
          "type": "uint256"
        }
      ],
      "stateMutability": "view",
      "type": "function"
    },
    {
      "inputs": [],
      "name": "QUIET_ENDING_PERIOD",
      "outputs": [
        {
          "internalType": "uint256",
          "name": "",
          "type": "uint256"
        }
      ],
      "stateMutability": "view",
      "type": "function"
    },
    {
      "inputs": [],
      "name": "VOTING_PERIOD",
      "outputs": [
        {
          "internalType": "uint256",
          "name": "",
          "type": "uint256"
        }
      ],
      "stateMutability": "view",
      "type": "function"
    },
    {
      "inputs": [],
      "name": "_nEntries",
      "outputs": [
        {
          "internalType": "uint256",
          "name": "",
          "type": "uint256"
        }
      ],
      "stateMutability": "view",
      "type": "function"
    },
    {
      "inputs": [
        {
          "internalType": "address",
          "name": "to",
          "type": "address"
        },
        {
          "internalType": "uint256",
          "name": "tokenId",
          "type": "uint256"
        }
      ],
      "name": "approve",
      "outputs": [],
      "stateMutability": "nonpayable",
      "type": "function"
    },
    {
      "inputs": [
        {
          "internalType": "address",
          "name": "account",
          "type": "address"
        }
      ],
      "name": "balanceOf",
      "outputs": [
        {
          "internalType": "uint256",
          "name": "balance",
          "type": "uint256"
        }
      ],
      "stateMutability": "view",
      "type": "function"
    },
    {
      "inputs": [
        {
          "internalType": "uint256",
          "name": "voterTokenId",
          "type": "uint256"
        },
        {
          "internalType": "uint256",
          "name": "challengedTokenId",
          "type": "uint256"
        }
      ],
      "name": "canVote",
      "outputs": [
        {
          "internalType": "bool",
          "name": "",
          "type": "bool"
        }
      ],
      "stateMutability": "view",
      "type": "function"
    },
    {
      "inputs": [
        {
          "internalType": "uint256",
          "name": "_tokenId",
          "type": "uint256"
        }
      ],
      "name": "challenge",
      "outputs": [],
      "stateMutability": "nonpayable",
      "type": "function"
    },
    {
      "inputs": [
        {
          "internalType": "uint256",
          "name": "_tokenId",
          "type": "uint256"
        }
      ],
      "name": "executeVote",
      "outputs": [],
      "stateMutability": "nonpayable",
      "type": "function"
    },
    {
      "inputs": [
        {
          "internalType": "uint256",
          "name": "tokenId",
          "type": "uint256"
        }
      ],
      "name": "getAccount",
      "outputs": [
        {
          "components": [
            {
              "internalType": "address",
              "name": "account",
              "type": "address"
            },
            {
              "internalType": "uint256",
              "name": "voucher",
              "type": "uint256"
            },
            {
              "internalType": "bool",
              "name": "valid",
              "type": "bool"
            },
            {
              "internalType": "uint256",
              "name": "timesChallenged",
              "type": "uint256"
            }
          ],
          "internalType": "struct Registry.Account",
          "name": "",
          "type": "tuple"
        }
      ],
      "stateMutability": "view",
      "type": "function"
    },
    {
      "inputs": [
        {
          "internalType": "uint256",
          "name": "",
          "type": "uint256"
        }
      ],
      "name": "getApproved",
      "outputs": [
        {
          "internalType": "address",
          "name": "operator",
          "type": "address"
        }
      ],
      "stateMutability": "view",
      "type": "function"
    },
    {
      "inputs": [
        {
          "internalType": "uint256",
          "name": "tokenId",
          "type": "uint256"
        }
      ],
      "name": "getChallenge",
      "outputs": [
        {
          "internalType": "uint256",
          "name": "creationDate",
          "type": "uint256"
        },
        {
          "internalType": "uint256",
          "name": "endDate",
          "type": "uint256"
        },
        {
          "internalType": "int8",
          "name": "lastOutcome",
          "type": "int8"
        },
        {
          "internalType": "uint256",
          "name": "nVoted",
          "type": "uint256"
        },
        {
          "internalType": "uint256",
          "name": "nFor",
          "type": "uint256"
        },
        {
          "internalType": "bool",
          "name": "executed",
          "type": "bool"
        }
      ],
      "stateMutability": "view",
      "type": "function"
    },
    {
      "inputs": [
        {
          "internalType": "uint256",
          "name": "tokenId",
          "type": "uint256"
        },
        {
          "internalType": "uint256",
          "name": "voterTokenId",
          "type": "uint256"
        }
      ],
      "name": "getChallengeVote",
      "outputs": [
        {
          "internalType": "int8",
          "name": "",
          "type": "int8"
        }
      ],
      "stateMutability": "view",
      "type": "function"
    },
    {
      "inputs": [
        {
          "internalType": "uint256",
          "name": "tokenId",
          "type": "uint256"
        },
        {
          "internalType": "uint256",
          "name": "challengeIndex",
          "type": "uint256"
        }
      ],
      "name": "getSpecificChallenge",
      "outputs": [
        {
          "internalType": "uint256",
          "name": "creationDate",
          "type": "uint256"
        },
        {
          "internalType": "uint256",
          "name": "endDate",
          "type": "uint256"
        },
        {
          "internalType": "int8",
          "name": "lastOutcome",
          "type": "int8"
        },
        {
          "internalType": "uint256",
          "name": "nVoted",
          "type": "uint256"
        },
        {
          "internalType": "uint256",
          "name": "nFor",
          "type": "uint256"
        },
        {
          "internalType": "bool",
          "name": "executed",
          "type": "bool"
        }
      ],
      "stateMutability": "view",
      "type": "function"
    },
    {
      "inputs": [
        {
          "internalType": "uint256",
          "name": "tokenId",
          "type": "uint256"
        },
        {
          "internalType": "uint256",
          "name": "voterTokenId",
          "type": "uint256"
        },
        {
          "internalType": "uint256",
          "name": "challengeIndex",
          "type": "uint256"
        }
      ],
      "name": "getSpecificChallengeVote",
      "outputs": [
        {
          "internalType": "int8",
          "name": "",
          "type": "int8"
        }
      ],
      "stateMutability": "view",
      "type": "function"
    },
    {
      "inputs": [
        {
          "internalType": "uint256",
          "name": "tokenId",
          "type": "uint256"
        }
      ],
      "name": "getTokenPersonCid",
      "outputs": [
        {
          "internalType": "string",
          "name": "",
          "type": "string"
        }
      ],
      "stateMutability": "view",
      "type": "function"
    },
    {
      "inputs": [
        {
          "internalType": "uint256",
          "name": "tokenId",
          "type": "uint256"
        }
      ],
      "name": "getTokenVouch",
      "outputs": [
        {
          "components": [
            {
              "internalType": "string",
              "name": "personCid",
              "type": "string"
            },
            {
              "internalType": "uint256",
              "name": "vouchDate",
              "type": "uint256"
            }
          ],
          "internalType": "struct Registry.Vouch",
          "name": "",
          "type": "tuple"
        }
      ],
      "stateMutability": "view",
      "type": "function"
    },
    {
      "inputs": [
        {
          "internalType": "uint256",
          "name": "_tokenId",
          "type": "uint256"
        }
      ],
      "name": "getTotalVoters",
      "outputs": [
        {
          "internalType": "uint256",
          "name": "",
          "type": "uint256"
        }
      ],
      "stateMutability": "view",
      "type": "function"
    },
    {
      "inputs": [
        {
          "internalType": "uint256",
          "name": "voucherTokenId",
          "type": "uint256"
        }
      ],
      "name": "getVoucherVouchesNumber",
      "outputs": [
        {
          "internalType": "uint256",
          "name": "",
          "type": "uint256"
        }
      ],
      "stateMutability": "view",
      "type": "function"
    },
    {
      "inputs": [
        {
          "internalType": "string",
          "name": "__symbol",
          "type": "string"
        },
        {
          "internalType": "string",
          "name": "__name",
          "type": "string"
        },
        {
          "internalType": "address[]",
          "name": "addresses",
          "type": "address[]"
        },
        {
          "internalType": "string[]",
          "name": "foundersCids",
          "type": "string[]"
        }
      ],
      "name": "initRegistry",
      "outputs": [],
      "stateMutability": "nonpayable",
      "type": "function"
    },
    {
      "inputs": [
        {
          "internalType": "uint256",
          "name": "tokenId",
          "type": "uint256"
        }
      ],
      "name": "invalidateInvalidVoucher",
      "outputs": [],
      "stateMutability": "nonpayable",
      "type": "function"
    },
    {
      "inputs": [
        {
          "internalType": "uint256",
          "name": "_tokenId",
          "type": "uint256"
        },
        {
          "internalType": "uint256",
          "name": "_voterTokenId",
          "type": "uint256"
        }
      ],
      "name": "invalidateVote",
      "outputs": [],
      "stateMutability": "nonpayable",
      "type": "function"
    },
    {
      "inputs": [
        {
          "internalType": "address",
          "name": "",
          "type": "address"
        },
        {
          "internalType": "address",
          "name": "",
          "type": "address"
        }
      ],
      "name": "isApprovedForAll",
      "outputs": [
        {
          "internalType": "bool",
          "name": "",
          "type": "bool"
        }
      ],
      "stateMutability": "view",
      "type": "function"
    },
    {
      "inputs": [
        {
          "internalType": "uint256",
          "name": "tokenId",
          "type": "uint256"
        }
      ],
      "name": "isSolidified",
      "outputs": [
        {
          "internalType": "bool",
          "name": "",
          "type": "bool"
        }
      ],
      "stateMutability": "view",
      "type": "function"
    },
    {
      "inputs": [],
      "name": "name",
      "outputs": [
        {
          "internalType": "string",
          "name": "",
          "type": "string"
        }
      ],
      "stateMutability": "view",
      "type": "function"
    },
    {
      "inputs": [
        {
          "internalType": "uint256",
          "name": "tokenId",
          "type": "uint256"
        }
      ],
      "name": "ownerOf",
      "outputs": [
        {
          "internalType": "address",
          "name": "owner",
          "type": "address"
        }
      ],
      "stateMutability": "view",
      "type": "function"
    },
    {
      "inputs": [
        {
          "internalType": "address",
          "name": "from",
          "type": "address"
        },
        {
          "internalType": "address",
          "name": "to",
          "type": "address"
        },
        {
          "internalType": "uint256",
          "name": "tokenId",
          "type": "uint256"
        }
      ],
      "name": "safeTransferFrom",
      "outputs": [],
      "stateMutability": "nonpayable",
      "type": "function"
    },
    {
      "inputs": [
        {
          "internalType": "address",
          "name": "from",
          "type": "address"
        },
        {
          "internalType": "address",
          "name": "to",
          "type": "address"
        },
        {
          "internalType": "uint256",
          "name": "tokenId",
          "type": "uint256"
        },
        {
          "internalType": "bytes",
          "name": "data",
          "type": "bytes"
        }
      ],
      "name": "safeTransferFrom",
      "outputs": [],
      "stateMutability": "nonpayable",
      "type": "function"
    },
    {
      "inputs": [
        {
          "internalType": "address",
          "name": "operator",
          "type": "address"
        },
        {
          "internalType": "bool",
          "name": "approved",
          "type": "bool"
        }
      ],
      "name": "setApprovalForAll",
      "outputs": [],
      "stateMutability": "nonpayable",
      "type": "function"
    },
    {
      "inputs": [
        {
          "internalType": "bytes4",
          "name": "interfaceId",
          "type": "bytes4"
        }
      ],
      "name": "supportsInterface",
      "outputs": [
        {
          "internalType": "bool",
          "name": "",
          "type": "bool"
        }
      ],
      "stateMutability": "view",
      "type": "function"
    },
    {
      "inputs": [],
      "name": "symbol",
      "outputs": [
        {
          "internalType": "string",
          "name": "",
          "type": "string"
        }
      ],
      "stateMutability": "view",
      "type": "function"
    },
    {
      "inputs": [
        {
          "internalType": "address",
          "name": "owner",
          "type": "address"
        }
      ],
      "name": "tokenIdOf",
      "outputs": [
        {
          "internalType": "uint256",
          "name": "",
          "type": "uint256"
        }
      ],
      "stateMutability": "view",
      "type": "function"
    },
    {
      "inputs": [
        {
          "internalType": "uint256",
          "name": "tokenId",
          "type": "uint256"
        }
      ],
      "name": "tokenURI",
      "outputs": [
        {
          "internalType": "string",
          "name": "",
          "type": "string"
        }
      ],
      "stateMutability": "view",
      "type": "function"
    },
    {
      "inputs": [],
      "name": "totalSupply",
      "outputs": [
        {
          "internalType": "uint256",
          "name": "",
          "type": "uint256"
        }
      ],
      "stateMutability": "view",
      "type": "function"
    },
    {
      "inputs": [
        {
          "internalType": "address",
          "name": "from",
          "type": "address"
        },
        {
          "internalType": "address",
          "name": "to",
          "type": "address"
        },
        {
          "internalType": "uint256",
          "name": "tokenId",
          "type": "uint256"
        }
      ],
      "name": "transferFrom",
      "outputs": [],
      "stateMutability": "nonpayable",
      "type": "function"
    },
    {
      "inputs": [
        {
          "internalType": "uint256",
          "name": "_tokenId",
          "type": "uint256"
        },
        {
          "internalType": "int8",
          "name": "_vote",
          "type": "int8"
        }
      ],
      "name": "vote",
      "outputs": [],
      "stateMutability": "nonpayable",
      "type": "function"
    },
    {
      "inputs": [
        {
          "internalType": "address",
          "name": "account",
          "type": "address"
        },
        {
          "internalType": "string",
          "name": "personCid",
          "type": "string"
        }
      ],
      "name": "vouch",
      "outputs": [],
      "stateMutability": "nonpayable",
      "type": "function"
    }
  ],
  "transactionHash": "0x6f920c847cfdc9bc713dce4a8d23005120669dd0a006a1b07108c895d883dfd3",
  "args": [],
  "numDeployments": 1,
  "solcInputHash": "7a5b3db0f6f27b20ad8b62fcee2d804a",
  "bytecode": "0x608060405234801561001057600080fd5b5061238e806100206000396000f3fe608060405234801561001057600080fd5b50600436106102325760003560e01c8063773c02d411610130578063b88d4fde116100b8578063e985e9c51161007c578063e985e9c5146105a1578063ee650248146105b7578063ef233c0b146105ca578063f98a4eca146105dd578063fe131778146105f057600080fd5b8063b88d4fde14610496578063c87b56dd146104ab578063ce88b145146104be578063d61255f31461057b578063d9eeebed1461058e57600080fd5b806395d89b41116100ff57806395d89b41146104505780639a48962014610458578063a22cb4651461046b578063ab82d9a014610479578063b1610d7e1461048c57600080fd5b8063773c02d4146103fa57806382c0833b1461040d57806384864be714610420578063912dac061461042a57600080fd5b80632333bc72116101be57806343d3a4c11161018257806343d3a4c11461038e5780635d1f0a31146103a15780635e3bee73146103c15780636352211e146103d457806370a08231146103e757600080fd5b80632333bc721461034c57806323b872dd1461035f5780633c823b6b146103725780633fb1a8361461037b57806342842e0e1461035f57600080fd5b80630c104878116102055780630c104878146102af578063130a8d80146102c2578063173ac141146102e257806318160ddd146102f95780631bdd4b741461030157600080fd5b806301ffc9a71461023757806306fdde0314610260578063081812fc14610275578063095ea7b31461029b575b600080fd5b61024b610245366004611ed9565b50600090565b60405190151581526020015b60405180910390f35b6102686105fa565b6040516102579190612175565b61028361024536600461202e565b6040516001600160a01b039091168152602001610257565b6102ad6102a9366004611eaf565b5050565b005b6102ad6102bd366004611e5c565b61068c565b6102d56102d036600461202e565b6106f7565b6040516102579190612188565b6102eb60085481565b604051908152602001610257565b6102eb6107e4565b61031461030f36600461202e565b6107f4565b60408051968752602087019590955260009390930b9385019390935260608401526080830191909152151560a082015260c001610257565b6102ad61035a366004611f20565b61089c565b6102ad61036d366004611d7a565b505050565b6102eb60001981565b61026861038936600461202e565b610a80565b6102eb61039c36600461202e565b610b43565b6102eb6103af36600461202e565b60009081526003602052604090205490565b6103146103cf36600461206c565b610b87565b6102836103e236600461202e565b610bff565b6102eb6103f5366004611d2c565b610c1e565b6102eb610408366004611d2c565b610c29565b61024b61041b36600461202e565b610c47565b6102eb6202a30081565b61043d6104383660046120ee565b610cdb565b60405160009190910b8152602001610257565b610268610d2b565b6102ad61046636600461202e565b610d3a565b6102ad6102a9366004611e25565b6102ad61048736600461202e565b610dab565b6102eb6213c68081565b6102ad6104a4366004611db6565b5050505050565b6102686104b936600461202e565b610eaf565b61053d6104cc36600461202e565b6040805160808082018352600080835260208084018290528385018290526060938401829052948152600485528390208351918201845280546001600160a01b03168252600181015494820194909452600284015460ff161515928101929092526003909201549181019190915290565b604051610257919081516001600160a01b03168152602080830151908201526040808301511515908201526060918201519181019190915260800190565b61043d61058936600461206c565b610fb5565b6102ad61059c36600461206c565b611046565b61024b6105af366004611d47565b600092915050565b6102ad6105c5366004612047565b61105e565b61024b6105d836600461206c565b61120e565b6102ad6105eb36600461202e565b6112c3565b6102eb62ed4e0081565b6060600280546106099061226a565b80601f01602080910402602001604051908101604052809291908181526020018280546106359061226a565b80156106825780601f1061065757610100808354040283529160200191610682565b820191906000526020600020905b81548152906001019060200180831161066557829003601f168201915b5050505050905090565b60006106ae335b6001600160a01b031660009081526005602052604090205490565b90506106f1818585858080601f0160208091040260200160405190810160405280939291908181526020018383808284376000920191909152506112da92505050565b50505050565b60408051808201825260608152600060208083018290528482526004815283822060019081015480845260038352858420878552909101909152908390208351808501909452805492939192829082906107509061226a565b80601f016020809104026020016040519081016040528092919081815260200182805461077c9061226a565b80156107c95780601f1061079e576101008083540402835291602001916107c9565b820191906000526020600020905b8154815290600101906020018083116107ac57829003601f168201915b50505050508152602001600182015481525050915050919050565b60006107ef60075490565b905090565b6000818152600460208190526040808320600301549051635e3bee7360e01b815291820184905260248201819052829182918291829182913090635e3bee739060440160c06040518083038186803b15801561084f57600080fd5b505afa158015610863573d6000803e3d6000fd5b505050506040513d601f19601f82011682018060405250810190610887919061208e565b949d939c50919a509850965090945092505050565b600054610100900460ff16158080156108bc5750600054600160ff909116105b806108d65750303b1580156108d6575060005460ff166001145b61093e5760405162461bcd60e51b815260206004820152602e60248201527f496e697469616c697a61626c653a20636f6e747261637420697320616c72656160448201526d191e481a5b9a5d1a585b1a5e995960921b60648201526084015b60405180910390fd5b6000805460ff191660011790558015610961576000805461ff0019166101001790555b8451610974906001906020880190611b27565b508351610988906002906020870190611b27565b506000600781905560088190555b83518160ff161015610a3357600019600081905260046020527fd8c80a9840ed58f33f2186a8fbc29ecd8c3610d196f1da047301bd51988eb95e805460ff191660011790558451610a219190869060ff85169081106109f7576109f761230c565b6020026020010151858460ff1681518110610a1457610a1461230c565b60200260200101516112da565b80610a2b816122c0565b915050610996565b5080156104a4576000805461ff0019169055604051600181527f7f26b83ff96e1f2b6a682f133852f6798a09c465da95921460cefb38474024989060200160405180910390a15050505050565b60008181526004602090815260408083206001908101548085526003845282852086865290910190925290912080546060929190610abd9061226a565b80601f0160208091040260200160405190810160405280929190818152602001828054610ae99061226a565b8015610b365780601f10610b0b57610100808354040283529160200191610b36565b820191906000526020600020905b815481529060010190602001808311610b1957829003601f168201915b5050505050915050919050565b600081815260046020908152604080832060010154808452600390925282208054600019831415610b7f578154610b7c90600190612227565b90505b949350505050565b6000806000806000806000600660008a81526020019081526020016000208881548110610bb657610bb661230c565b600091825260208220600691909102016001810154600282015482546004840154600590940154929e919d50610100810490940b9b50919950975060ff90911695509350505050565b6000818152600460205260408120546001600160a01b03165b92915050565b6000610c188261147e565b6001600160a01b038116600090815260056020526040812054610c18565b6000818152600460209081526040808320815160808101835281546001600160a01b03168152600180830154828601819052600284015460ff16151583860152600393840154606084015286529184528285208686528201909352908320015482811580610cc15750610cbd62ed4e008361220f565b4211155b905080158015610cd2575082604001515b95945050505050565b6000838152600660205260408120805482919084908110610cfe57610cfe61230c565b6000918252602080832087845260036006909302019190910190526040812054900b9150505b9392505050565b6060600180546106099061226a565b6000818152600460205260408082206001015480835291206002015460ff1615610d77576040516306425d3f60e21b815260040160405180910390fd5b60405182907f946ccf7529d18d55b60565307325eaa52971532b461c039424db6a003d5791d690600090a26102a9826114cf565b610db481610c47565b15610dd257604051631994e32160e31b815260040160405180910390fd5b60008181526004602052604090206002015460ff16610e0457604051633c1391fd60e11b815260040160405180910390fd5b6000610e0f826115a9565b600181015490915015610e355760405163d92060f360e01b815260040160405180910390fd5b805460ff1615610e5857604051634dc137dd60e11b815260040160405180910390fd5b4260018201819055610e6e906213c6809061220f565b6002820155805461ff00191661ff0017815560405182907ffb4749a8bf40d9d3f0fbe28026fedbe06dc90952eba3759c2b3ec0a7d5697f3190600090a25050565b600081815260046020908152604080832060019081015480855260038452828520868652909101909252822080546060939190610eeb9061226a565b80601f0160208091040260200160405190810160405280929190818152602001828054610f179061226a565b8015610f645780601f10610f3957610100808354040283529160200191610f64565b820191906000526020600020905b815481529060010190602001808311610f4757829003601f168201915b5050505050905060405180604001604052806007815260200166697066733a2f2f60c81b81525081604051602001610f9d929190612146565b60405160208183030381529060405292505050919050565b6000828152600460208190526040808320600301549051634896d60360e11b8152918201859052602482018490526044820181905290309063912dac069060640160206040518083038186803b15801561100e57600080fd5b505afa158015611022573d6000803e3d6000fd5b505050506040513d601f19601f82011682018060405250810190610b7f9190611f03565b6000611051836115a9565b905061036d838284611628565b600061106933610693565b90506000611076846115a9565b905080600101546000141561109e57604051631eb4f4e760e01b815260040160405180910390fd5b805460ff16156110c157604051630a23827760e11b815260040160405180910390fd5b80600201544211156110e6576040516335c84aeb60e21b815260040160405180910390fd5b6110f0828561120e565b61110d57604051637cd1a64960e11b815260040160405180910390fd5b6000828152600382016020526040812054810b900b1561114057604051638601a09560e01b815260040160405180910390fd5b8260000b60011461115357600019611156565b60015b60008381526003830160205260408120805492820b60ff1660ff19909316929092179091556004820180546001929061119090849061220f565b90915550506001600084900b146111a85760006111ab565b60015b60ff168160050160008282546111c1919061220f565b909155505060408051858152600085900b602082015283917fbdc899ff9789426dec6b3c3bc128ed8cc0a9b248c274dd93cfdb3709e5a2125e910160405180910390a26106f18185611711565b60008183141561122057506000610c18565b8261122d57506000610c18565b6000828152600460205260408082206001015480835291206002015460ff166112695760405163b0b9da2d60e01b815260040160405180910390fd5b60008481526004602052604081206001015482148061128757508185145b60008681526004602052604090206002015490915060ff1680156112a85750805b156112b857600192505050610c18565b506000949350505050565b60006112ce826115a9565b90506102a98183611711565b60006112e461195b565b60008581526004602052604090206002015490915060ff166113195760405163119ab1c960e11b815260040160405180910390fd5b6001600160a01b038316600090815260056020526040902054156113505760405163cb502ef160e01b815260040160405180910390fd5b600084815260036020908152604080832084845260018101835292208451909161137e918391870190611b27565b5042600182810191909155600084815260046020908152604080832080546001600160a01b0319166001600160a01b038b1690811782558186018c90556002909101805460ff19168617905583526005909152812085905583548491906113e690849061220f565b92505081905550600160076000828254611400919061220f565b909155505060405183906001600160a01b038716906000907fddf252ad1be2c89b69c2b068fc378daa952ba7f163c4a11628f55a4df523b3ef908290a482867fcd7f391a9646e0ab41ec2096f1d380febcdd775905c957ec790ab3738f9fdd788660405161146e9190612175565b60405180910390a3505050505050565b6001600160a01b03811660009081526005602052604081205480158015906114b7575060008181526004602052604090206002015460ff165b6114c25760006114c5565b60015b60ff169392505050565b6000818152600460205260409020600281015460ff16611502576040516392c9b59960e01b815260040160405180910390fd5b60028101805460ff1916905580546001600160a01b0316600090815260056020908152604080832083905583546001600160a01b031916845560018085015484526003909252822080549192909161155b908490612227565b925050819055506001600760008282546115759190612227565b909155505060405182907f8401ed0b52520270ffba65c5383931fc1c6e30b27e1fc692d871d4f669d1f1ea90600090a25050565b6000818152600460205260408120600301546115c681600161220f565b600084815260066020526040902054146115f25760008381526006602052604081208054600101815590525b60008381526006602052604090208054829081106116125761161261230c565b9060005260206000209060060201915050919050565b6000818152600383016020526040812054810b900b61165a576040516359dc302960e01b815260040160405180910390fd5b60008181526004602052604090206002015460ff161561168d57604051635c2a53c560e11b815260040160405180910390fd5b60018260040160008282546116a29190612227565b90915550506000818152600383016020526040812054810b900b600114156116df5760018260050160008282546116d99190612227565b90915550505b604051819084907f6a5de386c49c7e87d450f082eace65d7329e7123bdf11460295f7747adad110590600090a3505050565b6000806000808560040154111561176457611761611756611747670de0b6b3a7640000886004015461197690919063ffffffff16565b670de0b6b3a764000090611982565b600587015490611976565b90505b60006706f05b59d3b2000082101561177e57600019611781565b60015b8654909150600082810b610100909204810b900b14611833578554600082810b60ff166101000261ff001990921691909117875560028701546117c5904290612227565b90506202a3008110156118315760006117e1826202a300612227565b88600201546117f0919061220f565b90507f5073bec5c188828181e51012e5967fbdac7312bd400b8120cf3dcb0b8ee0f11e8160405161182391815260200190565b60405180910390a160028801555b505b8560020154421161187657600061184986610b43565b905061186e61186361174783670de0b6b3a7640000611976565b600589015490611976565b93505061187e565b600193508192505b60006706f05b59d3b200008410156118985760001961189b565b60015b9050600081900b600114156118e2576040516001955086907fa3b99cec0cd3a7ee24ec2a54714e340cc9a7116aa4b0ff7730371682cb47f58090600090a26118e2866114cf565b84156119525760408051878152600083900b60208201527f4e4d413658c729b8cf2dee49da9d98754c99a09654d209ce00244648febc1e54910160405180910390a1865460ff19166001178755600086815260046020526040812060030180549161194c836122a5565b91905055505b50505050505050565b600060086000815461196c906122a5565b9182905550919050565b6000610d248383611997565b6000610d2483670de0b6b3a764000084611a59565b60008080600019848609848602925082811083820303915050670de0b6b3a764000081106119db5760405163698d9a0160e11b815260048101829052602401610935565b600080670de0b6b3a76400008688099150506706f05b59d3b1ffff811182611a155780670de0b6b3a7640000850401945050505050610c18565b620400008285030493909111909103600160ee1b02919091177faccb18165bd6fe31ae1cf318dc5b51eee0e1ba569b88cd74c1773b91fac106690201905092915050565b600080806000198587098587029250828110838203039150508060001415611a9457838281611a8a57611a8a6122f6565b0492505050610d24565b838110611abe57604051631dcf306360e21b81526004810182905260248101859052604401610935565b60008486880960026001871981018816978890046003810283188082028403028082028403028082028403028082028403028082028403029081029092039091026000889003889004909101858311909403939093029303949094049190911702949350505050565b828054611b339061226a565b90600052602060002090601f016020900481019282611b555760008555611b9b565b82601f10611b6e57805160ff1916838001178555611b9b565b82800160010185558215611b9b579182015b82811115611b9b578251825591602001919060010190611b80565b50611ba7929150611bab565b5090565b5b80821115611ba75760008155600101611bac565b80356001600160a01b0381168114611bd757600080fd5b919050565b600082601f830112611bed57600080fd5b81356020611c02611bfd836121eb565b6121ba565b80838252828201915082860187848660051b8901011115611c2257600080fd5b6000805b86811015611c6557823567ffffffffffffffff811115611c44578283fd5b611c528b88838d0101611cbc565b8652509385019391850191600101611c26565b509198975050505050505050565b60008083601f840112611c8557600080fd5b50813567ffffffffffffffff811115611c9d57600080fd5b602083019150836020828501011115611cb557600080fd5b9250929050565b600082601f830112611ccd57600080fd5b813567ffffffffffffffff811115611ce757611ce7612322565b611cfa601f8201601f19166020016121ba565b818152846020838601011115611d0f57600080fd5b816020850160208301376000918101602001919091529392505050565b600060208284031215611d3e57600080fd5b610d2482611bc0565b60008060408385031215611d5a57600080fd5b611d6383611bc0565b9150611d7160208401611bc0565b90509250929050565b600080600060608486031215611d8f57600080fd5b611d9884611bc0565b9250611da660208501611bc0565b9150604084013590509250925092565b600080600080600060808688031215611dce57600080fd5b611dd786611bc0565b9450611de560208701611bc0565b935060408601359250606086013567ffffffffffffffff811115611e0857600080fd5b611e1488828901611c73565b969995985093965092949392505050565b60008060408385031215611e3857600080fd5b611e4183611bc0565b91506020830135611e5181612338565b809150509250929050565b600080600060408486031215611e7157600080fd5b611e7a84611bc0565b9250602084013567ffffffffffffffff811115611e9657600080fd5b611ea286828701611c73565b9497909650939450505050565b60008060408385031215611ec257600080fd5b611ecb83611bc0565b946020939093013593505050565b600060208284031215611eeb57600080fd5b81356001600160e01b031981168114610d2457600080fd5b600060208284031215611f1557600080fd5b8151610d2481612349565b60008060008060808587031215611f3657600080fd5b843567ffffffffffffffff80821115611f4e57600080fd5b611f5a88838901611cbc565b9550602091508187013581811115611f7157600080fd5b611f7d89828a01611cbc565b955050604087013581811115611f9257600080fd5b8701601f81018913611fa357600080fd5b8035611fb1611bfd826121eb565b8082825285820191508584018c878560051b8701011115611fd157600080fd5b600094505b83851015611ffb57611fe781611bc0565b835260019490940193918601918601611fd6565b509650505050606087013591508082111561201557600080fd5b5061202287828801611bdc565b91505092959194509250565b60006020828403121561204057600080fd5b5035919050565b6000806040838503121561205a57600080fd5b823591506020830135611e5181612349565b6000806040838503121561207f57600080fd5b50508035926020909101359150565b60008060008060008060c087890312156120a757600080fd5b865195506020870151945060408701516120c081612349565b80945050606087015192506080870151915060a08701516120e081612338565b809150509295509295509295565b60008060006060848603121561210357600080fd5b505081359360208301359350604090920135919050565b6000815180845261213281602086016020860161223e565b601f01601f19169290920160200192915050565b6000835161215881846020880161223e565b83519083019061216c81836020880161223e565b01949350505050565b602081526000610d24602083018461211a565b6020815260008251604060208401526121a4606084018261211a565b9050602084015160408401528091505092915050565b604051601f8201601f1916810167ffffffffffffffff811182821017156121e3576121e3612322565b604052919050565b600067ffffffffffffffff82111561220557612205612322565b5060051b60200190565b60008219821115612222576122226122e0565b500190565b600082821015612239576122396122e0565b500390565b60005b83811015612259578181015183820152602001612241565b838111156106f15750506000910152565b600181811c9082168061227e57607f821691505b6020821081141561229f57634e487b7160e01b600052602260045260246000fd5b50919050565b60006000198214156122b9576122b96122e0565b5060010190565b600060ff821660ff8114156122d7576122d76122e0565b60010192915050565b634e487b7160e01b600052601160045260246000fd5b634e487b7160e01b600052601260045260246000fd5b634e487b7160e01b600052603260045260246000fd5b634e487b7160e01b600052604160045260246000fd5b801515811461234657600080fd5b50565b8060000b811461234657600080fdfea264697066735822122065bb9f252b43b1b856e38db1ebdb660713a1120a0a8287609f311e94a946c4bc64736f6c63430008060033",
  "devdoc": {
    "kind": "dev",
    "methods": {
      "approve(address,uint256)": {
        "details": "Gives permission to `to` to transfer `tokenId` token to another account. The approval is cleared when the token is transferred. Only a single account can be approved at a time, so approving the zero address clears previous approvals. Requirements: - The caller must own the token or be an approved operator. - `tokenId` must exist. Emits an {Approval} event."
      },
      "name()": {
        "details": "Returns the token collection name."
      },
      "ownerOf(uint256)": {
        "details": "Returns the owner of the `tokenId` token. Requirements: - `tokenId` must exist."
      },
      "safeTransferFrom(address,address,uint256)": {
        "details": "Safely transfers `tokenId` token from `from` to `to`, checking first that contract recipients are aware of the ERC721 protocol to prevent tokens from being forever locked. Requirements: - `from` cannot be the zero address. - `to` cannot be the zero address. - `tokenId` token must exist and be owned by `from`. - If the caller is not `from`, it must have been allowed to move this token by either {approve} or {setApprovalForAll}. - If `to` refers to a smart contract, it must implement {IERC721Receiver-onERC721Received}, which is called upon a safe transfer. Emits a {Transfer} event."
      },
      "safeTransferFrom(address,address,uint256,bytes)": {
        "details": "Safely transfers `tokenId` token from `from` to `to`. Requirements: - `from` cannot be the zero address. - `to` cannot be the zero address. - `tokenId` token must exist and be owned by `from`. - If the caller is not `from`, it must be approved to move this token by either {approve} or {setApprovalForAll}. - If `to` refers to a smart contract, it must implement {IERC721Receiver-onERC721Received}, which is called upon a safe transfer. Emits a {Transfer} event."
      },
      "setApprovalForAll(address,bool)": {
        "details": "Approve or remove `operator` as an operator for the caller. Operators can call {transferFrom} or {safeTransferFrom} for any token owned by the caller. Requirements: - The `operator` cannot be the caller. Emits an {ApprovalForAll} event."
      },
      "supportsInterface(bytes4)": {
        "details": "Returns true if this contract implements the interface defined by `interfaceId`. See the corresponding https://eips.ethereum.org/EIPS/eip-165#how-interfaces-are-identified[EIP section] to learn more about how these ids are created. This function call must use less than 30 000 gas."
      },
      "symbol()": {
        "details": "Returns the token collection symbol."
      },
      "tokenURI(uint256)": {
        "details": "Returns the Uniform Resource Identifier (URI) for `tokenId` token."
      },
      "transferFrom(address,address,uint256)": {
        "details": "Transfers `tokenId` token from `from` to `to`. WARNING: Note that the caller is responsible to confirm that the recipient is capable of receiving ERC721 or else they may be permanently lost. Usage of {safeTransferFrom} prevents loss, though the caller must understand this adds an external call which potentially creates a reentrancy vulnerability. Requirements: - `from` cannot be the zero address. - `to` cannot be the zero address. - `tokenId` token must be owned by `from`. - If the caller is not `from`, it must be approved to move this token by either {approve} or {setApprovalForAll}. Emits a {Transfer} event."
      }
    },
    "title": "Registry",
    "version": 1
  },
  "userdoc": {
    "errors": {
      "ErrorAccountSolidified()": [
        {
          "notice": "Errors "
        }
      ],
      "PRBMath__MulDivFixedPointOverflow(uint256)": [
        {
          "notice": "Emitted when the result overflows uint256."
        }
      ],
      "PRBMath__MulDivOverflow(uint256,uint256)": [
        {
          "notice": "Emitted when the result overflows uint256."
        }
      ]
    },
    "kind": "user",
    "methods": {
      "canVote(uint256,uint256)": {
        "notice": "A tokenId can vote if - The voter account is valid - AND either - voterTokenId was vouched by voucherTokenId (which is the voucher of the challenged tokenId) - OR the voterTokenId is the voucherTokenId themselves.  The FOUNDERS_VOUCHER can, in theory vote on founders challenges, but no address owns that  token and so no problem "
      },
      "initRegistry(string,string,address[],string[])": {
        "notice": "Constructor "
      },
      "vouch(address,string)": {
        "notice": "The msgSender must be a valid account in the registry and vouch for the provided account and personCid pair"
      }
    },
    "version": 1
  },
  "storageLayout": {
    "storage": [
      {
        "astId": 86,
        "contract": "contracts/Registry.sol:Registry",
        "label": "_initialized",
        "offset": 0,
        "slot": "0",
        "type": "t_uint8"
      },
      {
        "astId": 89,
        "contract": "contracts/Registry.sol:Registry",
        "label": "_initializing",
        "offset": 1,
        "slot": "0",
        "type": "t_bool"
      },
      {
        "astId": 2105,
        "contract": "contracts/Registry.sol:Registry",
        "label": "_symbol",
        "offset": 0,
        "slot": "1",
        "type": "t_string_storage"
      },
      {
        "astId": 2107,
        "contract": "contracts/Registry.sol:Registry",
        "label": "_name",
        "offset": 0,
        "slot": "2",
        "type": "t_string_storage"
      },
      {
        "astId": 2151,
        "contract": "contracts/Registry.sol:Registry",
        "label": "vouches",
        "offset": 0,
        "slot": "3",
        "type": "t_mapping(t_uint256,t_struct(Vouches)2120_storage)"
      },
      {
        "astId": 2157,
        "contract": "contracts/Registry.sol:Registry",
        "label": "accounts",
        "offset": 0,
        "slot": "4",
        "type": "t_mapping(t_uint256,t_struct(Account)2129_storage)"
      },
      {
        "astId": 2161,
        "contract": "contracts/Registry.sol:Registry",
        "label": "owned",
        "offset": 0,
        "slot": "5",
        "type": "t_mapping(t_address,t_uint256)"
      },
      {
        "astId": 2167,
        "contract": "contracts/Registry.sol:Registry",
        "label": "challenges",
        "offset": 0,
        "slot": "6",
        "type": "t_mapping(t_uint256,t_array(t_struct(Challenge)2146_storage)dyn_storage)"
      },
      {
        "astId": 2169,
        "contract": "contracts/Registry.sol:Registry",
        "label": "__totalSupply",
        "offset": 0,
        "slot": "7",
        "type": "t_uint256"
      },
      {
        "astId": 2171,
        "contract": "contracts/Registry.sol:Registry",
        "label": "_nEntries",
        "offset": 0,
        "slot": "8",
        "type": "t_uint256"
      }
    ],
    "types": {
      "t_address": {
        "encoding": "inplace",
        "label": "address",
        "numberOfBytes": "20"
      },
      "t_array(t_struct(Challenge)2146_storage)dyn_storage": {
        "base": "t_struct(Challenge)2146_storage",
        "encoding": "dynamic_array",
        "label": "struct Registry.Challenge[]",
        "numberOfBytes": "32"
      },
      "t_bool": {
        "encoding": "inplace",
        "label": "bool",
        "numberOfBytes": "1"
      },
      "t_int8": {
        "encoding": "inplace",
        "label": "int8",
        "numberOfBytes": "1"
      },
      "t_mapping(t_address,t_uint256)": {
        "encoding": "mapping",
        "key": "t_address",
        "label": "mapping(address => uint256)",
        "numberOfBytes": "32",
        "value": "t_uint256"
      },
      "t_mapping(t_uint256,t_array(t_struct(Challenge)2146_storage)dyn_storage)": {
        "encoding": "mapping",
        "key": "t_uint256",
        "label": "mapping(uint256 => struct Registry.Challenge[])",
        "numberOfBytes": "32",
        "value": "t_array(t_struct(Challenge)2146_storage)dyn_storage"
      },
      "t_mapping(t_uint256,t_int8)": {
        "encoding": "mapping",
        "key": "t_uint256",
        "label": "mapping(uint256 => int8)",
        "numberOfBytes": "32",
        "value": "t_int8"
      },
      "t_mapping(t_uint256,t_struct(Account)2129_storage)": {
        "encoding": "mapping",
        "key": "t_uint256",
        "label": "mapping(uint256 => struct Registry.Account)",
        "numberOfBytes": "32",
        "value": "t_struct(Account)2129_storage"
      },
      "t_mapping(t_uint256,t_struct(Vouch)2112_storage)": {
        "encoding": "mapping",
        "key": "t_uint256",
        "label": "mapping(uint256 => struct Registry.Vouch)",
        "numberOfBytes": "32",
        "value": "t_struct(Vouch)2112_storage"
      },
      "t_mapping(t_uint256,t_struct(Vouches)2120_storage)": {
        "encoding": "mapping",
        "key": "t_uint256",
        "label": "mapping(uint256 => struct Registry.Vouches)",
        "numberOfBytes": "32",
        "value": "t_struct(Vouches)2120_storage"
      },
      "t_string_storage": {
        "encoding": "bytes",
        "label": "string",
        "numberOfBytes": "32"
      },
      "t_struct(Account)2129_storage": {
        "encoding": "inplace",
        "label": "struct Registry.Account",
        "members": [
          {
            "astId": 2122,
            "contract": "contracts/Registry.sol:Registry",
            "label": "account",
            "offset": 0,
            "slot": "0",
            "type": "t_address"
          },
          {
            "astId": 2124,
            "contract": "contracts/Registry.sol:Registry",
            "label": "voucher",
            "offset": 0,
            "slot": "1",
            "type": "t_uint256"
          },
          {
            "astId": 2126,
            "contract": "contracts/Registry.sol:Registry",
            "label": "valid",
            "offset": 0,
            "slot": "2",
            "type": "t_bool"
          },
          {
            "astId": 2128,
            "contract": "contracts/Registry.sol:Registry",
            "label": "timesChallenged",
            "offset": 0,
            "slot": "3",
            "type": "t_uint256"
          }
        ],
        "numberOfBytes": "128"
      },
      "t_struct(Challenge)2146_storage": {
        "encoding": "inplace",
        "label": "struct Registry.Challenge",
        "members": [
          {
            "astId": 2131,
            "contract": "contracts/Registry.sol:Registry",
            "label": "executed",
            "offset": 0,
            "slot": "0",
            "type": "t_bool"
          },
          {
            "astId": 2133,
            "contract": "contracts/Registry.sol:Registry",
            "label": "lastOutcome",
            "offset": 1,
            "slot": "0",
            "type": "t_int8"
          },
          {
            "astId": 2135,
            "contract": "contracts/Registry.sol:Registry",
            "label": "creationDate",
            "offset": 0,
            "slot": "1",
            "type": "t_uint256"
          },
          {
            "astId": 2137,
            "contract": "contracts/Registry.sol:Registry",
            "label": "endDate",
            "offset": 0,
            "slot": "2",
            "type": "t_uint256"
          },
          {
            "astId": 2141,
            "contract": "contracts/Registry.sol:Registry",
            "label": "votes",
            "offset": 0,
            "slot": "3",
            "type": "t_mapping(t_uint256,t_int8)"
          },
          {
            "astId": 2143,
            "contract": "contracts/Registry.sol:Registry",
            "label": "nVoted",
            "offset": 0,
            "slot": "4",
            "type": "t_uint256"
          },
          {
            "astId": 2145,
            "contract": "contracts/Registry.sol:Registry",
            "label": "nFor",
            "offset": 0,
            "slot": "5",
            "type": "t_uint256"
          }
        ],
        "numberOfBytes": "192"
      },
      "t_struct(Vouch)2112_storage": {
        "encoding": "inplace",
        "label": "struct Registry.Vouch",
        "members": [
          {
            "astId": 2109,
            "contract": "contracts/Registry.sol:Registry",
            "label": "personCid",
            "offset": 0,
            "slot": "0",
            "type": "t_string_storage"
          },
          {
            "astId": 2111,
            "contract": "contracts/Registry.sol:Registry",
            "label": "vouchDate",
            "offset": 0,
            "slot": "1",
            "type": "t_uint256"
          }
        ],
        "numberOfBytes": "64"
      },
      "t_struct(Vouches)2120_storage": {
        "encoding": "inplace",
        "label": "struct Registry.Vouches",
        "members": [
          {
            "astId": 2114,
            "contract": "contracts/Registry.sol:Registry",
            "label": "number",
            "offset": 0,
            "slot": "0",
            "type": "t_uint256"
          },
          {
            "astId": 2119,
            "contract": "contracts/Registry.sol:Registry",
            "label": "vouches",
            "offset": 0,
            "slot": "1",
            "type": "t_mapping(t_uint256,t_struct(Vouch)2112_storage)"
          }
        ],
        "numberOfBytes": "64"
      },
      "t_uint256": {
        "encoding": "inplace",
        "label": "uint256",
        "numberOfBytes": "32"
      },
      "t_uint8": {
        "encoding": "inplace",
        "label": "uint8",
        "numberOfBytes": "1"
      }
    }
  }
}