{"contracts/Registry.sol":{"Registry":{"abi":[{"inputs":[],"name":"AccountAlreadyOwnsOneToken","type":"error"},{"inputs":[],"name":"CantChallengeInvalidAccount","type":"error"},{"inputs":[],"name":"ChallangeAlreadyActive","type":"error"},{"inputs":[],"name":"ErrorAccountNotValid","type":"error"},{"inputs":[],"name":"ErrorAccountSolidified","type":"error"},{"inputs":[],"name":"ErrorAlreadyVoted","type":"error"},{"inputs":[],"name":"ErrorChallangeAlreadyExecuted","type":"error"},{"inputs":[],"name":"ErrorChallangeNotActive","type":"error"},{"inputs":[],"name":"ErrorVoteNotFound","type":"error"},{"inputs":[],"name":"ErrorVoterCantVote","type":"error"},{"inputs":[],"name":"ErrorVoterValid","type":"error"},{"inputs":[],"name":"ErrorVotingPeriodEnded","type":"error"},{"inputs":[],"name":"ErrorVoucherIsValid","type":"error"},{"inputs":[],"name":"ErrorVoucherNotValid","type":"error"},{"inputs":[{"internalType":"uint256","name":"prod1","type":"uint256"}],"name":"PRBMath__MulDivFixedPointOverflow","type":"error"},{"inputs":[{"internalType":"uint256","name":"prod1","type":"uint256"},{"internalType":"uint256","name":"denominator","type":"uint256"}],"name":"PRBMath__MulDivOverflow","type":"error"},{"inputs":[],"name":"UnexpectedExecutedCondition","type":"error"},{"inputs":[],"name":"VoucherNoLongerInvalid","type":"error"},{"anonymous":false,"inputs":[{"indexed":true,"internalType":"address","name":"owner","type":"address"},{"indexed":true,"internalType":"address","name":"approved","type":"address"},{"indexed":true,"internalType":"uint256","name":"tokenId","type":"uint256"}],"name":"Approval","type":"event"},{"anonymous":false,"inputs":[{"indexed":true,"internalType":"address","name":"owner","type":"address"},{"indexed":true,"internalType":"address","name":"operator","type":"address"},{"indexed":false,"internalType":"bool","name":"approved","type":"bool"}],"name":"ApprovalForAll","type":"event"},{"anonymous":false,"inputs":[{"indexed":true,"internalType":"uint256","name":"tokenId","type":"uint256"}],"name":"ChallengeEvent","type":"event"},{"anonymous":false,"inputs":[{"indexed":false,"internalType":"uint256","name":"tokenId","type":"uint256"},{"indexed":false,"internalType":"int8","name":"outcome","type":"int8"}],"name":"ChallengeExecuted","type":"event"},{"anonymous":false,"inputs":[{"indexed":false,"internalType":"uint8","name":"version","type":"uint8"}],"name":"Initialized","type":"event"},{"anonymous":false,"inputs":[{"indexed":true,"internalType":"uint256","name":"tokenId","type":"uint256"}],"name":"InvalidatedAccountEvent","type":"event"},{"anonymous":false,"inputs":[{"indexed":true,"internalType":"uint256","name":"tokenId","type":"uint256"}],"name":"InvalidatedByChallenge","type":"event"},{"anonymous":false,"inputs":[{"indexed":true,"internalType":"uint256","name":"tokenId","type":"uint256"}],"name":"InvalidatedByInvalidVoucher","type":"event"},{"anonymous":false,"inputs":[{"indexed":true,"internalType":"uint256","name":"tokenId","type":"uint256"},{"indexed":true,"internalType":"uint256","name":"voterTokenId","type":"uint256"}],"name":"InvalidatedVoteEvent","type":"event"},{"anonymous":false,"inputs":[{"indexed":true,"internalType":"address","name":"from","type":"address"},{"indexed":true,"internalType":"address","name":"to","type":"address"},{"indexed":true,"internalType":"uint256","name":"tokenId","type":"uint256"}],"name":"Transfer","type":"event"},{"anonymous":false,"inputs":[{"indexed":true,"internalType":"uint256","name":"voterTokenId","type":"uint256"},{"indexed":false,"internalType":"uint256","name":"tokenId","type":"uint256"},{"indexed":false,"internalType":"int8","name":"vote","type":"int8"}],"name":"VoteEvent","type":"event"},{"anonymous":false,"inputs":[{"indexed":false,"internalType":"uint256","name":"newEndDate","type":"uint256"}],"name":"VotingPeriodExtendedEvent","type":"event"},{"anonymous":false,"inputs":[{"indexed":true,"internalType":"uint256","name":"from","type":"uint256"},{"indexed":true,"internalType":"uint256","name":"to","type":"uint256"},{"indexed":false,"internalType":"string","name":"personCid","type":"string"}],"name":"VouchEvent","type":"event"},{"inputs":[],"name":"FOUNDERS_VOUCHER","outputs":[{"internalType":"uint256","name":"","type":"uint256"}],"stateMutability":"view","type":"function"},{"inputs":[],"name":"PENDING_PERIOD","outputs":[{"internalType":"uint256","name":"","type":"uint256"}],"stateMutability":"view","type":"function"},{"inputs":[],"name":"QUIET_ENDING_PERIOD","outputs":[{"internalType":"uint256","name":"","type":"uint256"}],"stateMutability":"view","type":"function"},{"inputs":[],"name":"VOTING_PERIOD","outputs":[{"internalType":"uint256","name":"","type":"uint256"}],"stateMutability":"view","type":"function"},{"inputs":[],"name":"_nEntries","outputs":[{"internalType":"uint256","name":"","type":"uint256"}],"stateMutability":"view","type":"function"},{"inputs":[{"internalType":"address","name":"to","type":"address"},{"internalType":"uint256","name":"tokenId","type":"uint256"}],"name":"approve","outputs":[],"stateMutability":"nonpayable","type":"function"},{"inputs":[{"internalType":"address","name":"account","type":"address"}],"name":"balanceOf","outputs":[{"internalType":"uint256","name":"balance","type":"uint256"}],"stateMutability":"view","type":"function"},{"inputs":[{"internalType":"uint256","name":"voterTokenId","type":"uint256"},{"internalType":"uint256","name":"challengedTokenId","type":"uint256"}],"name":"canVote","outputs":[{"internalType":"bool","name":"","type":"bool"}],"stateMutability":"view","type":"function"},{"inputs":[{"internalType":"uint256","name":"_tokenId","type":"uint256"}],"name":"challenge","outputs":[],"stateMutability":"nonpayable","type":"function"},{"inputs":[{"internalType":"uint256","name":"_tokenId","type":"uint256"}],"name":"executeVote","outputs":[],"stateMutability":"nonpayable","type":"function"},{"inputs":[{"internalType":"uint256","name":"tokenId","type":"uint256"}],"name":"getAccount","outputs":[{"components":[{"internalType":"address","name":"account","type":"address"},{"internalType":"uint256","name":"voucher","type":"uint256"},{"internalType":"bool","name":"valid","type":"bool"},{"internalType":"uint256","name":"timesChallenged","type":"uint256"}],"internalType":"struct Registry.Account","name":"","type":"tuple"}],"stateMutability":"view","type":"function"},{"inputs":[{"internalType":"uint256","name":"","type":"uint256"}],"name":"getApproved","outputs":[{"internalType":"address","name":"operator","type":"address"}],"stateMutability":"view","type":"function"},{"inputs":[{"internalType":"uint256","name":"tokenId","type":"uint256"}],"name":"getChallenge","outputs":[{"internalType":"uint256","name":"creationDate","type":"uint256"},{"internalType":"uint256","name":"endDate","type":"uint256"},{"internalType":"int8","name":"lastOutcome","type":"int8"},{"internalType":"uint256","name":"nVoted","type":"uint256"},{"internalType":"uint256","name":"nFor","type":"uint256"},{"internalType":"bool","name":"executed","type":"bool"}],"stateMutability":"view","type":"function"},{"inputs":[{"internalType":"uint256","name":"tokenId","type":"uint256"},{"internalType":"uint256","name":"voterTokenId","type":"uint256"}],"name":"getChallengeVote","outputs":[{"internalType":"int8","name":"","type":"int8"}],"stateMutability":"view","type":"function"},{"inputs":[{"internalType":"uint256","name":"tokenId","type":"uint256"},{"internalType":"uint256","name":"challengeIndex","type":"uint256"}],"name":"getSpecificChallenge","outputs":[{"internalType":"uint256","name":"creationDate","type":"uint256"},{"internalType":"uint256","name":"endDate","type":"uint256"},{"internalType":"int8","name":"lastOutcome","type":"int8"},{"internalType":"uint256","name":"nVoted","type":"uint256"},{"internalType":"uint256","name":"nFor","type":"uint256"},{"internalType":"bool","name":"executed","type":"bool"}],"stateMutability":"view","type":"function"},{"inputs":[{"internalType":"uint256","name":"tokenId","type":"uint256"},{"internalType":"uint256","name":"voterTokenId","type":"uint256"},{"internalType":"uint256","name":"challengeIndex","type":"uint256"}],"name":"getSpecificChallengeVote","outputs":[{"internalType":"int8","name":"","type":"int8"}],"stateMutability":"view","type":"function"},{"inputs":[{"internalType":"uint256","name":"tokenId","type":"uint256"}],"name":"getTokenPersonCid","outputs":[{"internalType":"string","name":"","type":"string"}],"stateMutability":"view","type":"function"},{"inputs":[{"internalType":"uint256","name":"tokenId","type":"uint256"}],"name":"getTokenVouch","outputs":[{"components":[{"internalType":"string","name":"personCid","type":"string"},{"internalType":"uint256","name":"vouchDate","type":"uint256"}],"internalType":"struct Registry.Vouch","name":"","type":"tuple"}],"stateMutability":"view","type":"function"},{"inputs":[{"internalType":"uint256","name":"_tokenId","type":"uint256"}],"name":"getTotalVoters","outputs":[{"internalType":"uint256","name":"","type":"uint256"}],"stateMutability":"view","type":"function"},{"inputs":[{"internalType":"uint256","name":"voucherTokenId","type":"uint256"}],"name":"getVoucherVouchesNumber","outputs":[{"internalType":"uint256","name":"","type":"uint256"}],"stateMutability":"view","type":"function"},{"inputs":[{"internalType":"string","name":"__symbol","type":"string"},{"internalType":"string","name":"__name","type":"string"},{"internalType":"address[]","name":"addresses","type":"address[]"},{"internalType":"string[]","name":"foundersCids","type":"string[]"},{"internalType":"string","name":"_statementCid","type":"string"}],"name":"initRegistry","outputs":[],"stateMutability":"nonpayable","type":"function"},{"inputs":[{"internalType":"uint256","name":"tokenId","type":"uint256"}],"name":"invalidateInvalidVoucher","outputs":[],"stateMutability":"nonpayable","type":"function"},{"inputs":[{"internalType":"uint256","name":"_tokenId","type":"uint256"},{"internalType":"uint256","name":"_voterTokenId","type":"uint256"}],"name":"invalidateVote","outputs":[],"stateMutability":"nonpayable","type":"function"},{"inputs":[{"internalType":"address","name":"","type":"address"},{"internalType":"address","name":"","type":"address"}],"name":"isApprovedForAll","outputs":[{"internalType":"bool","name":"","type":"bool"}],"stateMutability":"view","type":"function"},{"inputs":[{"internalType":"uint256","name":"tokenId","type":"uint256"}],"name":"isSolidified","outputs":[{"internalType":"bool","name":"","type":"bool"}],"stateMutability":"view","type":"function"},{"inputs":[],"name":"name","outputs":[{"internalType":"string","name":"","type":"string"}],"stateMutability":"view","type":"function"},{"inputs":[{"internalType":"uint256","name":"tokenId","type":"uint256"}],"name":"ownerOf","outputs":[{"internalType":"address","name":"owner","type":"address"}],"stateMutability":"view","type":"function"},{"inputs":[{"internalType":"address","name":"from","type":"address"},{"internalType":"address","name":"to","type":"address"},{"internalType":"uint256","name":"tokenId","type":"uint256"}],"name":"safeTransferFrom","outputs":[],"stateMutability":"nonpayable","type":"function"},{"inputs":[{"internalType":"address","name":"from","type":"address"},{"internalType":"address","name":"to","type":"address"},{"internalType":"uint256","name":"tokenId","type":"uint256"},{"internalType":"bytes","name":"data","type":"bytes"}],"name":"safeTransferFrom","outputs":[],"stateMutability":"nonpayable","type":"function"},{"inputs":[{"internalType":"address","name":"operator","type":"address"},{"internalType":"bool","name":"approved","type":"bool"}],"name":"setApprovalForAll","outputs":[],"stateMutability":"nonpayable","type":"function"},{"inputs":[],"name":"statementCid","outputs":[{"internalType":"string","name":"","type":"string"}],"stateMutability":"view","type":"function"},{"inputs":[{"internalType":"bytes4","name":"interfaceId","type":"bytes4"}],"name":"supportsInterface","outputs":[{"internalType":"bool","name":"","type":"bool"}],"stateMutability":"view","type":"function"},{"inputs":[],"name":"symbol","outputs":[{"internalType":"string","name":"","type":"string"}],"stateMutability":"view","type":"function"},{"inputs":[{"internalType":"address","name":"owner","type":"address"}],"name":"tokenIdOf","outputs":[{"internalType":"uint256","name":"","type":"uint256"}],"stateMutability":"view","type":"function"},{"inputs":[{"internalType":"uint256","name":"tokenId","type":"uint256"}],"name":"tokenURI","outputs":[{"internalType":"string","name":"","type":"string"}],"stateMutability":"view","type":"function"},{"inputs":[],"name":"totalSupply","outputs":[{"internalType":"uint256","name":"","type":"uint256"}],"stateMutability":"view","type":"function"},{"inputs":[{"internalType":"address","name":"from","type":"address"},{"internalType":"address","name":"to","type":"address"},{"internalType":"uint256","name":"tokenId","type":"uint256"}],"name":"transferFrom","outputs":[],"stateMutability":"nonpayable","type":"function"},{"inputs":[{"internalType":"uint256","name":"_tokenId","type":"uint256"},{"internalType":"int8","name":"_vote","type":"int8"}],"name":"vote","outputs":[],"stateMutability":"nonpayable","type":"function"},{"inputs":[{"internalType":"address","name":"account","type":"address"},{"internalType":"string","name":"personCid","type":"string"}],"name":"vouch","outputs":[],"stateMutability":"nonpayable","type":"function"}],"evm":{"bytecode":{"linkReferences":{},"object":"608060405234801561001057600080fd5b5061247d806100206000396000f3fe608060405234801561001057600080fd5b506004361061023d5760003560e01c8063773c02d41161013b578063b88d4fde116100b8578063e985e9c51161007c578063e985e9c5146105b4578063ee650248146105ca578063ef233c0b146105dd578063f98a4eca146105f0578063fe1317781461060357600080fd5b8063b88d4fde146104a9578063c87b56dd146104be578063ce88b145146104d1578063d61255f31461058e578063d9eeebed146105a157600080fd5b806395d89b41116100ff57806395d89b41146104635780639a4896201461046b578063a22cb4651461047e578063ab82d9a01461048c578063b1610d7e1461049f57600080fd5b8063773c02d4146103fa57806382c0833b1461040d57806384864be714610420578063912dac061461042a578063925ea2ed1461045057600080fd5b806323b872dd116101c957806343d3a4c11161018d57806343d3a4c11461038e5780635d1f0a31146103a15780635e3bee73146103c15780636352211e146103d457806370a08231146103e757600080fd5b806323b872dd14610357578063385cf11d1461036a5780633c823b6b146103725780633fb1a8361461037b57806342842e0e1461035757600080fd5b80630c104878116102105780630c104878146102ba578063130a8d80146102cd578063173ac141146102ed57806318160ddd146103045780631bdd4b741461030c57600080fd5b806301ffc9a71461024257806306fdde031461026b578063081812fc14610280578063095ea7b3146102a6575b600080fd5b610256610250366004612004565b50600090565b60405190151581526020015b60405180910390f35b61027361060d565b6040516102629190612264565b61028e61025036600461211d565b6040516001600160a01b039091168152602001610262565b6102b86102b4366004611fda565b5050565b005b6102b86102c8366004611f87565b61069f565b6102e06102db36600461211d565b61070a565b6040516102629190612277565b6102f660095481565b604051908152602001610262565b6102f66107f7565b61031f61031a36600461211d565b610807565b60408051968752602087019590955260009390930b9385019390935260608401526080830191909152151560a082015260c001610262565b6102b8610365366004611ea5565b505050565b6102736108af565b6102f660001981565b61027361038936600461211d565b61093d565b6102f661039c36600461211d565b610a00565b6102f66103af36600461211d565b60009081526004602052604090205490565b61031f6103cf36600461215b565b610a44565b61028e6103e236600461211d565b610abc565b6102f66103f5366004611e57565b610adb565b6102f6610408366004611e57565b610ae6565b61025661041b36600461211d565b610b04565b6102f66202a30081565b61043d6104383660046121dd565b610b9a565b60405160009190910b8152602001610262565b6102b861045e36600461204b565b610bea565b610273610de4565b6102b861047936600461211d565b610df3565b6102b86102b4366004611f50565b6102b861049a36600461211d565b610e64565b6102f66213c68081565b6102b86104b7366004611ee1565b5050505050565b6102736104cc36600461211d565b610f68565b6105506104df36600461211d565b6040805160808082018352600080835260208084018290528385018290526060938401829052948152600585528390208351918201845280546001600160a01b03168252600181015494820194909452600284015460ff161515928101929092526003909201549181019190915290565b604051610262919081516001600160a01b03168152602080830151908201526040808301511515908201526060918201519181019190915260800190565b61043d61059c36600461215b565b61106e565b6102b86105af36600461215b565b6110fd565b6102566105c2366004611e72565b600092915050565b6102b86105d8366004612136565b611115565b6102566105eb36600461215b565b6112c5565b6102b86105fe36600461211d565b61137a565b6102f662ed4e0081565b60606003805461061c90612359565b80601f016020809104026020016040519081016040528092919081815260200182805461064890612359565b80156106955780601f1061066a57610100808354040283529160200191610695565b820191906000526020600020905b81548152906001019060200180831161067857829003601f168201915b5050505050905090565b60006106c1335b6001600160a01b031660009081526006602052604090205490565b9050610704818585858080601f01602080910402602001604051908101604052809392919081815260200183838082843760009201919091525061139192505050565b50505050565b604080518082018252606081526000602080830182905284825260058152838220600190810154808452600483528584208785529091019091529083902083518085019094528054929391928290829061076390612359565b80601f016020809104026020016040519081016040528092919081815260200182805461078f90612359565b80156107dc5780601f106107b1576101008083540402835291602001916107dc565b820191906000526020600020905b8154815290600101906020018083116107bf57829003601f168201915b50505050508152602001600182015481525050915050919050565b600061080260085490565b905090565b600081815260056020526040808220600301549051635e3bee7360e01b8152600481018490526024810182905282918291829182918291903090635e3bee739060440160c06040518083038186803b15801561086257600080fd5b505afa158015610876573d6000803e3d6000fd5b505050506040513d601f19601f8201168201806040525081019061089a919061217d565b949d939c50919a509850965090945092505050565b600180546108bc90612359565b80601f01602080910402602001604051908101604052809291908181526020018280546108e890612359565b80156109355780601f1061090a57610100808354040283529160200191610935565b820191906000526020600020905b81548152906001019060200180831161091857829003601f168201915b505050505081565b6000818152600560209081526040808320600190810154808552600484528285208686529091019092529091208054606092919061097a90612359565b80601f01602080910402602001604051908101604052809291908181526020018280546109a690612359565b80156109f35780601f106109c8576101008083540402835291602001916109f3565b820191906000526020600020905b8154815290600101906020018083116109d657829003601f168201915b5050505050915050919050565b600081815260056020908152604080832060010154808452600490925282208054600019831415610a3c578154610a3990600190612316565b90505b949350505050565b6000806000806000806000600760008a81526020019081526020016000208881548110610a7357610a736123fb565b600091825260208220600691909102016001810154600282015482546004840154600590940154929e919d50610100810490940b9b50919950975060ff90911695509350505050565b6000818152600560205260408120546001600160a01b03165b92915050565b6000610ad582611535565b6001600160a01b038116600090815260066020526040812054610ad5565b6000818152600560209081526040808320815160808101835281546001600160a01b03168152600180830154828601819052600284015460ff161515838601526003909301546060830152918552600484528285208686528201909352908320015482811580610b805750610b7c62ed4e00836122fe565b4211155b905080158015610b91575082604001515b95945050505050565b6000838152600760205260408120805482919084908110610bbd57610bbd6123fb565b6000918252602080832087845260036006909302019190910190526040812054900b9150505b9392505050565b600054610100900460ff1615808015610c0a5750600054600160ff909116105b80610c245750303b158015610c24575060005460ff166001145b610c8c5760405162461bcd60e51b815260206004820152602e60248201527f496e697469616c697a61626c653a20636f6e747261637420697320616c72656160448201526d191e481a5b9a5d1a585b1a5e995960921b60648201526084015b60405180910390fd5b6000805460ff191660011790558015610caf576000805461ff0019166101001790555b8151610cc2906001906020850190611bde565b508551610cd6906002906020890190611bde565b508451610cea906003906020880190611bde565b506000600881905560098190555b84518160ff161015610d9557600019600081905260056020527f2e8de2577e7c560a9913fd732cd5ba1f61f809b10c283800da9499091ac562a7805460ff191660011790558551610d839190879060ff8516908110610d5957610d596123fb565b6020026020010151868460ff1681518110610d7657610d766123fb565b6020026020010151611391565b80610d8d816123af565b915050610cf8565b508015610ddc576000805461ff0019169055604051600181527f7f26b83ff96e1f2b6a682f133852f6798a09c465da95921460cefb38474024989060200160405180910390a15b505050505050565b60606002805461061c90612359565b6000818152600560205260408082206001015480835291206002015460ff1615610e30576040516306425d3f60e21b815260040160405180910390fd5b60405182907f946ccf7529d18d55b60565307325eaa52971532b461c039424db6a003d5791d690600090a26102b482611586565b610e6d81610b04565b15610e8b57604051631994e32160e31b815260040160405180910390fd5b60008181526005602052604090206002015460ff16610ebd57604051633c1391fd60e11b815260040160405180910390fd5b6000610ec882611660565b600181015490915015610eee5760405163d92060f360e01b815260040160405180910390fd5b805460ff1615610f1157604051634dc137dd60e11b815260040160405180910390fd5b4260018201819055610f27906213c680906122fe565b6002820155805461ff00191661ff0017815560405182907ffb4749a8bf40d9d3f0fbe28026fedbe06dc90952eba3759c2b3ec0a7d5697f3190600090a25050565b600081815260056020908152604080832060019081015480855260048452828520868652909101909252822080546060939190610fa490612359565b80601f0160208091040260200160405190810160405280929190818152602001828054610fd090612359565b801561101d5780601f10610ff25761010080835404028352916020019161101d565b820191906000526020600020905b81548152906001019060200180831161100057829003601f168201915b5050505050905060405180604001604052806007815260200166697066733a2f2f60c81b81525081604051602001611056929190612235565b60405160208183030381529060405292505050919050565b600082815260056020526040808220600301549051634896d60360e11b8152600481018590526024810184905260448101829052309063912dac069060640160206040518083038186803b1580156110c557600080fd5b505afa1580156110d9573d6000803e3d6000fd5b505050506040513d601f19601f82011682018060405250810190610a3c919061202e565b600061110883611660565b90506103658382846116df565b6000611120336106a6565b9050600061112d84611660565b905080600101546000141561115557604051631eb4f4e760e01b815260040160405180910390fd5b805460ff161561117857604051630a23827760e11b815260040160405180910390fd5b806002015442111561119d576040516335c84aeb60e21b815260040160405180910390fd5b6111a782856112c5565b6111c457604051637cd1a64960e11b815260040160405180910390fd5b6000828152600382016020526040812054810b900b156111f757604051638601a09560e01b815260040160405180910390fd5b8260000b60011461120a5760001961120d565b60015b60008381526003830160205260408120805492820b60ff1660ff1990931692909217909155600482018054600192906112479084906122fe565b90915550506001600084900b1461125f576000611262565b60015b60ff1681600501600082825461127891906122fe565b909155505060408051858152600085900b602082015283917fbdc899ff9789426dec6b3c3bc128ed8cc0a9b248c274dd93cfdb3709e5a2125e910160405180910390a261070481856117c8565b6000818314156112d757506000610ad5565b826112e457506000610ad5565b6000828152600560205260408082206001015480835291206002015460ff166113205760405163b0b9da2d60e01b815260040160405180910390fd5b60008481526005602052604081206001015482148061133e57508185145b60008681526005602052604090206002015490915060ff16801561135f5750805b1561136f57600192505050610ad5565b506000949350505050565b600061138582611660565b90506102b481836117c8565b600061139b611a12565b60008581526005602052604090206002015490915060ff166113d05760405163119ab1c960e11b815260040160405180910390fd5b6001600160a01b038316600090815260066020526040902054156114075760405163cb502ef160e01b815260040160405180910390fd5b6000848152600460209081526040808320848452600181018352922084519091611435918391870190611bde565b5042600182810191909155600084815260056020908152604080832080546001600160a01b0319166001600160a01b038b1690811782558186018c90556002909101805460ff191686179055835260069091528120859055835484919061149d9084906122fe565b925050819055506001600860008282546114b791906122fe565b909155505060405183906001600160a01b038716906000907fddf252ad1be2c89b69c2b068fc378daa952ba7f163c4a11628f55a4df523b3ef908290a482867fcd7f391a9646e0ab41ec2096f1d380febcdd775905c957ec790ab3738f9fdd78866040516115259190612264565b60405180910390a3505050505050565b6001600160a01b038116600090815260066020526040812054801580159061156e575060008181526005602052604090206002015460ff165b61157957600061157c565b60015b60ff169392505050565b6000818152600560205260409020600281015460ff166115b9576040516392c9b59960e01b815260040160405180910390fd5b60028101805460ff1916905580546001600160a01b0316600090815260066020908152604080832083905583546001600160a01b0319168455600180850154845260049092528220805491929091611612908490612316565b9250508190555060016008600082825461162c9190612316565b909155505060405182907f8401ed0b52520270ffba65c5383931fc1c6e30b27e1fc692d871d4f669d1f1ea90600090a25050565b60008181526005602052604081206003015461167d8160016122fe565b600084815260076020526040902054146116a95760008381526007602052604081208054600101815590525b60008381526007602052604090208054829081106116c9576116c96123fb565b9060005260206000209060060201915050919050565b6000818152600383016020526040812054810b900b611711576040516359dc302960e01b815260040160405180910390fd5b60008181526005602052604090206002015460ff161561174457604051635c2a53c560e11b815260040160405180910390fd5b60018260040160008282546117599190612316565b90915550506000818152600383016020526040812054810b900b600114156117965760018260050160008282546117909190612316565b90915550505b604051819084907f6a5de386c49c7e87d450f082eace65d7329e7123bdf11460295f7747adad110590600090a3505050565b6000806000808560040154111561181b5761181861180d6117fe670de0b6b3a76400008860040154611a2d90919063ffffffff16565b670de0b6b3a764000090611a39565b600587015490611a2d565b90505b60006706f05b59d3b2000082101561183557600019611838565b60015b8654909150600082810b610100909204810b900b146118ea578554600082810b60ff166101000261ff0019909216919091178755600287015461187c904290612316565b90506202a3008110156118e8576000611898826202a300612316565b88600201546118a791906122fe565b90507f5073bec5c188828181e51012e5967fbdac7312bd400b8120cf3dcb0b8ee0f11e816040516118da91815260200190565b60405180910390a160028801555b505b8560020154421161192d57600061190086610a00565b905061192561191a6117fe83670de0b6b3a7640000611a2d565b600589015490611a2d565b935050611935565b600193508192505b60006706f05b59d3b2000084101561194f57600019611952565b60015b9050600081900b60011415611999576040516001955086907fa3b99cec0cd3a7ee24ec2a54714e340cc9a7116aa4b0ff7730371682cb47f58090600090a261199986611586565b8415611a095760408051878152600083900b60208201527f4e4d413658c729b8cf2dee49da9d98754c99a09654d209ce00244648febc1e54910160405180910390a1865460ff191660011787556000868152600560205260408120600301805491611a0383612394565b91905055505b50505050505050565b6000600960008154611a2390612394565b9182905550919050565b6000610be38383611a4e565b6000610be383670de0b6b3a764000084611b10565b60008080600019848609848602925082811083820303915050670de0b6b3a76400008110611a925760405163698d9a0160e11b815260048101829052602401610c83565b600080670de0b6b3a76400008688099150506706f05b59d3b1ffff811182611acc5780670de0b6b3a7640000850401945050505050610ad5565b620400008285030493909111909103600160ee1b02919091177faccb18165bd6fe31ae1cf318dc5b51eee0e1ba569b88cd74c1773b91fac106690201905092915050565b600080806000198587098587029250828110838203039150508060001415611b4b57838281611b4157611b416123e5565b0492505050610be3565b838110611b7557604051631dcf306360e21b81526004810182905260248101859052604401610c83565b60008486880960026001871981018816978890046003810283188082028403028082028403028082028403028082028403028082028403029081029092039091026000889003889004909101858311909403939093029303949094049190911702949350505050565b828054611bea90612359565b90600052602060002090601f016020900481019282611c0c5760008555611c52565b82601f10611c2557805160ff1916838001178555611c52565b82800160010185558215611c52579182015b82811115611c52578251825591602001919060010190611c37565b50611c5e929150611c62565b5090565b5b80821115611c5e5760008155600101611c63565b80356001600160a01b0381168114611c8e57600080fd5b919050565b600082601f830112611ca457600080fd5b81356020611cb9611cb4836122da565b6122a9565b80838252828201915082860187848660051b8901011115611cd957600080fd5b60005b85811015611cff57611ced82611c77565b84529284019290840190600101611cdc565b5090979650505050505050565b600082601f830112611d1d57600080fd5b81356020611d2d611cb4836122da565b80838252828201915082860187848660051b8901011115611d4d57600080fd5b6000805b86811015611d9057823567ffffffffffffffff811115611d6f578283fd5b611d7d8b88838d0101611de7565b8652509385019391850191600101611d51565b509198975050505050505050565b60008083601f840112611db057600080fd5b50813567ffffffffffffffff811115611dc857600080fd5b602083019150836020828501011115611de057600080fd5b9250929050565b600082601f830112611df857600080fd5b813567ffffffffffffffff811115611e1257611e12612411565b611e25601f8201601f19166020016122a9565b818152846020838601011115611e3a57600080fd5b816020850160208301376000918101602001919091529392505050565b600060208284031215611e6957600080fd5b610be382611c77565b60008060408385031215611e8557600080fd5b611e8e83611c77565b9150611e9c60208401611c77565b90509250929050565b600080600060608486031215611eba57600080fd5b611ec384611c77565b9250611ed160208501611c77565b9150604084013590509250925092565b600080600080600060808688031215611ef957600080fd5b611f0286611c77565b9450611f1060208701611c77565b935060408601359250606086013567ffffffffffffffff811115611f3357600080fd5b611f3f88828901611d9e565b969995985093965092949392505050565b60008060408385031215611f6357600080fd5b611f6c83611c77565b91506020830135611f7c81612427565b809150509250929050565b600080600060408486031215611f9c57600080fd5b611fa584611c77565b9250602084013567ffffffffffffffff811115611fc157600080fd5b611fcd86828701611d9e565b9497909650939450505050565b60008060408385031215611fed57600080fd5b611ff683611c77565b946020939093013593505050565b60006020828403121561201657600080fd5b81356001600160e01b031981168114610be357600080fd5b60006020828403121561204057600080fd5b8151610be381612438565b600080600080600060a0868803121561206357600080fd5b853567ffffffffffffffff8082111561207b57600080fd5b61208789838a01611de7565b9650602088013591508082111561209d57600080fd5b6120a989838a01611de7565b955060408801359150808211156120bf57600080fd5b6120cb89838a01611c93565b945060608801359150808211156120e157600080fd5b6120ed89838a01611d0c565b9350608088013591508082111561210357600080fd5b5061211088828901611de7565b9150509295509295909350565b60006020828403121561212f57600080fd5b5035919050565b6000806040838503121561214957600080fd5b823591506020830135611f7c81612438565b6000806040838503121561216e57600080fd5b50508035926020909101359150565b60008060008060008060c0878903121561219657600080fd5b865195506020870151945060408701516121af81612438565b80945050606087015192506080870151915060a08701516121cf81612427565b809150509295509295509295565b6000806000606084860312156121f257600080fd5b505081359360208301359350604090920135919050565b6000815180845261222181602086016020860161232d565b601f01601f19169290920160200192915050565b6000835161224781846020880161232d565b83519083019061225b81836020880161232d565b01949350505050565b602081526000610be36020830184612209565b6020815260008251604060208401526122936060840182612209565b9050602084015160408401528091505092915050565b604051601f8201601f1916810167ffffffffffffffff811182821017156122d2576122d2612411565b604052919050565b600067ffffffffffffffff8211156122f4576122f4612411565b5060051b60200190565b60008219821115612311576123116123cf565b500190565b600082821015612328576123286123cf565b500390565b60005b83811015612348578181015183820152602001612330565b838111156107045750506000910152565b600181811c9082168061236d57607f821691505b6020821081141561238e57634e487b7160e01b600052602260045260246000fd5b50919050565b60006000198214156123a8576123a86123cf565b5060010190565b600060ff821660ff8114156123c6576123c66123cf565b60010192915050565b634e487b7160e01b600052601160045260246000fd5b634e487b7160e01b600052601260045260246000fd5b634e487b7160e01b600052603260045260246000fd5b634e487b7160e01b600052604160045260246000fd5b801515811461243557600080fd5b50565b8060000b811461243557600080fdfea26469706673582212200d477bd8466bb3e90b23a28c68c94602da1c89ab4307eb917b6efa7065c5ab2064736f6c63430008060033","opcodes":"PUSH1 0x80 PUSH1 0x40 MSTORE CALLVALUE DUP1 ISZERO PUSH2 0x10 JUMPI PUSH1 0x0 DUP1 REVERT JUMPDEST POP PUSH2 0x247D DUP1 PUSH2 0x20 PUSH1 0x0 CODECOPY PUSH1 0x0 RETURN INVALID PUSH1 0x80 PUSH1 0x40 MSTORE CALLVALUE DUP1 ISZERO PUSH2 0x10 JUMPI PUSH1 0x0 DUP1 REVERT JUMPDEST POP PUSH1 0x4 CALLDATASIZE LT PUSH2 0x23D JUMPI PUSH1 0x0 CALLDATALOAD PUSH1 0xE0 SHR DUP1 PUSH4 0x773C02D4 GT PUSH2 0x13B JUMPI DUP1 PUSH4 0xB88D4FDE GT PUSH2 0xB8 JUMPI DUP1 PUSH4 0xE985E9C5 GT PUSH2 0x7C JUMPI DUP1 PUSH4 0xE985E9C5 EQ PUSH2 0x5B4 JUMPI DUP1 PUSH4 0xEE650248 EQ PUSH2 0x5CA JUMPI DUP1 PUSH4 0xEF233C0B EQ PUSH2 0x5DD JUMPI DUP1 PUSH4 0xF98A4ECA EQ PUSH2 0x5F0 JUMPI DUP1 PUSH4 0xFE131778 EQ PUSH2 0x603 JUMPI PUSH1 0x0 DUP1 REVERT JUMPDEST DUP1 PUSH4 0xB88D4FDE EQ PUSH2 0x4A9 JUMPI DUP1 PUSH4 0xC87B56DD EQ PUSH2 0x4BE JUMPI DUP1 PUSH4 0xCE88B145 EQ PUSH2 0x4D1 JUMPI DUP1 PUSH4 0xD61255F3 EQ PUSH2 0x58E JUMPI DUP1 PUSH4 0xD9EEEBED EQ PUSH2 0x5A1 JUMPI PUSH1 0x0 DUP1 REVERT JUMPDEST DUP1 PUSH4 0x95D89B41 GT PUSH2 0xFF JUMPI DUP1 PUSH4 0x95D89B41 EQ PUSH2 0x463 JUMPI DUP1 PUSH4 0x9A489620 EQ PUSH2 0x46B JUMPI DUP1 PUSH4 0xA22CB465 EQ PUSH2 0x47E JUMPI DUP1 PUSH4 0xAB82D9A0 EQ PUSH2 0x48C JUMPI DUP1 PUSH4 0xB1610D7E EQ PUSH2 0x49F JUMPI PUSH1 0x0 DUP1 REVERT JUMPDEST DUP1 PUSH4 0x773C02D4 EQ PUSH2 0x3FA JUMPI DUP1 PUSH4 0x82C0833B EQ PUSH2 0x40D JUMPI DUP1 PUSH4 0x84864BE7 EQ PUSH2 0x420 JUMPI DUP1 PUSH4 0x912DAC06 EQ PUSH2 0x42A JUMPI DUP1 PUSH4 0x925EA2ED EQ PUSH2 0x450 JUMPI PUSH1 0x0 DUP1 REVERT JUMPDEST DUP1 PUSH4 0x23B872DD GT PUSH2 0x1C9 JUMPI DUP1 PUSH4 0x43D3A4C1 GT PUSH2 0x18D JUMPI DUP1 PUSH4 0x43D3A4C1 EQ PUSH2 0x38E JUMPI DUP1 PUSH4 0x5D1F0A31 EQ PUSH2 0x3A1 JUMPI DUP1 PUSH4 0x5E3BEE73 EQ PUSH2 0x3C1 JUMPI DUP1 PUSH4 0x6352211E EQ PUSH2 0x3D4 JUMPI DUP1 PUSH4 0x70A08231 EQ PUSH2 0x3E7 JUMPI PUSH1 0x0 DUP1 REVERT JUMPDEST DUP1 PUSH4 0x23B872DD EQ PUSH2 0x357 JUMPI DUP1 PUSH4 0x385CF11D EQ PUSH2 0x36A JUMPI DUP1 PUSH4 0x3C823B6B EQ PUSH2 0x372 JUMPI DUP1 PUSH4 0x3FB1A836 EQ PUSH2 0x37B JUMPI DUP1 PUSH4 0x42842E0E EQ PUSH2 0x357 JUMPI PUSH1 0x0 DUP1 REVERT JUMPDEST DUP1 PUSH4 0xC104878 GT PUSH2 0x210 JUMPI DUP1 PUSH4 0xC104878 EQ PUSH2 0x2BA JUMPI DUP1 PUSH4 0x130A8D80 EQ PUSH2 0x2CD JUMPI DUP1 PUSH4 0x173AC141 EQ PUSH2 0x2ED JUMPI DUP1 PUSH4 0x18160DDD EQ PUSH2 0x304 JUMPI DUP1 PUSH4 0x1BDD4B74 EQ PUSH2 0x30C JUMPI PUSH1 0x0 DUP1 REVERT JUMPDEST DUP1 PUSH4 0x1FFC9A7 EQ PUSH2 0x242 JUMPI DUP1 PUSH4 0x6FDDE03 EQ PUSH2 0x26B JUMPI DUP1 PUSH4 0x81812FC EQ PUSH2 0x280 JUMPI DUP1 PUSH4 0x95EA7B3 EQ PUSH2 0x2A6 JUMPI JUMPDEST PUSH1 0x0 DUP1 REVERT JUMPDEST PUSH2 0x256 PUSH2 0x250 CALLDATASIZE PUSH1 0x4 PUSH2 0x2004 JUMP JUMPDEST POP PUSH1 0x0 SWAP1 JUMP JUMPDEST PUSH1 0x40 MLOAD SWAP1 ISZERO ISZERO DUP2 MSTORE PUSH1 0x20 ADD JUMPDEST PUSH1 0x40 MLOAD DUP1 SWAP2 SUB SWAP1 RETURN JUMPDEST PUSH2 0x273 PUSH2 0x60D JUMP JUMPDEST PUSH1 0x40 MLOAD PUSH2 0x262 SWAP2 SWAP1 PUSH2 0x2264 JUMP JUMPDEST PUSH2 0x28E PUSH2 0x250 CALLDATASIZE PUSH1 0x4 PUSH2 0x211D JUMP JUMPDEST PUSH1 0x40 MLOAD PUSH1 0x1 PUSH1 0x1 PUSH1 0xA0 SHL SUB SWAP1 SWAP2 AND DUP2 MSTORE PUSH1 0x20 ADD PUSH2 0x262 JUMP JUMPDEST PUSH2 0x2B8 PUSH2 0x2B4 CALLDATASIZE PUSH1 0x4 PUSH2 0x1FDA JUMP JUMPDEST POP POP JUMP JUMPDEST STOP JUMPDEST PUSH2 0x2B8 PUSH2 0x2C8 CALLDATASIZE PUSH1 0x4 PUSH2 0x1F87 JUMP JUMPDEST PUSH2 0x69F JUMP JUMPDEST PUSH2 0x2E0 PUSH2 0x2DB CALLDATASIZE PUSH1 0x4 PUSH2 0x211D JUMP JUMPDEST PUSH2 0x70A JUMP JUMPDEST PUSH1 0x40 MLOAD PUSH2 0x262 SWAP2 SWAP1 PUSH2 0x2277 JUMP JUMPDEST PUSH2 0x2F6 PUSH1 0x9 SLOAD DUP2 JUMP JUMPDEST PUSH1 0x40 MLOAD SWAP1 DUP2 MSTORE PUSH1 0x20 ADD PUSH2 0x262 JUMP JUMPDEST PUSH2 0x2F6 PUSH2 0x7F7 JUMP JUMPDEST PUSH2 0x31F PUSH2 0x31A CALLDATASIZE PUSH1 0x4 PUSH2 0x211D JUMP JUMPDEST PUSH2 0x807 JUMP JUMPDEST PUSH1 0x40 DUP1 MLOAD SWAP7 DUP8 MSTORE PUSH1 0x20 DUP8 ADD SWAP6 SWAP1 SWAP6 MSTORE PUSH1 0x0 SWAP4 SWAP1 SWAP4 SIGNEXTEND SWAP4 DUP6 ADD SWAP4 SWAP1 SWAP4 MSTORE PUSH1 0x60 DUP5 ADD MSTORE PUSH1 0x80 DUP4 ADD SWAP2 SWAP1 SWAP2 MSTORE ISZERO ISZERO PUSH1 0xA0 DUP3 ADD MSTORE PUSH1 0xC0 ADD PUSH2 0x262 JUMP JUMPDEST PUSH2 0x2B8 PUSH2 0x365 CALLDATASIZE PUSH1 0x4 PUSH2 0x1EA5 JUMP JUMPDEST POP POP POP JUMP JUMPDEST PUSH2 0x273 PUSH2 0x8AF JUMP JUMPDEST PUSH2 0x2F6 PUSH1 0x0 NOT DUP2 JUMP JUMPDEST PUSH2 0x273 PUSH2 0x389 CALLDATASIZE PUSH1 0x4 PUSH2 0x211D JUMP JUMPDEST PUSH2 0x93D JUMP JUMPDEST PUSH2 0x2F6 PUSH2 0x39C CALLDATASIZE PUSH1 0x4 PUSH2 0x211D JUMP JUMPDEST PUSH2 0xA00 JUMP JUMPDEST PUSH2 0x2F6 PUSH2 0x3AF CALLDATASIZE PUSH1 0x4 PUSH2 0x211D JUMP JUMPDEST PUSH1 0x0 SWAP1 DUP2 MSTORE PUSH1 0x4 PUSH1 0x20 MSTORE PUSH1 0x40 SWAP1 KECCAK256 SLOAD SWAP1 JUMP JUMPDEST PUSH2 0x31F PUSH2 0x3CF CALLDATASIZE PUSH1 0x4 PUSH2 0x215B JUMP JUMPDEST PUSH2 0xA44 JUMP JUMPDEST PUSH2 0x28E PUSH2 0x3E2 CALLDATASIZE PUSH1 0x4 PUSH2 0x211D JUMP JUMPDEST PUSH2 0xABC JUMP JUMPDEST PUSH2 0x2F6 PUSH2 0x3F5 CALLDATASIZE PUSH1 0x4 PUSH2 0x1E57 JUMP JUMPDEST PUSH2 0xADB JUMP JUMPDEST PUSH2 0x2F6 PUSH2 0x408 CALLDATASIZE PUSH1 0x4 PUSH2 0x1E57 JUMP JUMPDEST PUSH2 0xAE6 JUMP JUMPDEST PUSH2 0x256 PUSH2 0x41B CALLDATASIZE PUSH1 0x4 PUSH2 0x211D JUMP JUMPDEST PUSH2 0xB04 JUMP JUMPDEST PUSH2 0x2F6 PUSH3 0x2A300 DUP2 JUMP JUMPDEST PUSH2 0x43D PUSH2 0x438 CALLDATASIZE PUSH1 0x4 PUSH2 0x21DD JUMP JUMPDEST PUSH2 0xB9A JUMP JUMPDEST PUSH1 0x40 MLOAD PUSH1 0x0 SWAP2 SWAP1 SWAP2 SIGNEXTEND DUP2 MSTORE PUSH1 0x20 ADD PUSH2 0x262 JUMP JUMPDEST PUSH2 0x2B8 PUSH2 0x45E CALLDATASIZE PUSH1 0x4 PUSH2 0x204B JUMP JUMPDEST PUSH2 0xBEA JUMP JUMPDEST PUSH2 0x273 PUSH2 0xDE4 JUMP JUMPDEST PUSH2 0x2B8 PUSH2 0x479 CALLDATASIZE PUSH1 0x4 PUSH2 0x211D JUMP JUMPDEST PUSH2 0xDF3 JUMP JUMPDEST PUSH2 0x2B8 PUSH2 0x2B4 CALLDATASIZE PUSH1 0x4 PUSH2 0x1F50 JUMP JUMPDEST PUSH2 0x2B8 PUSH2 0x49A CALLDATASIZE PUSH1 0x4 PUSH2 0x211D JUMP JUMPDEST PUSH2 0xE64 JUMP JUMPDEST PUSH2 0x2F6 PUSH3 0x13C680 DUP2 JUMP JUMPDEST PUSH2 0x2B8 PUSH2 0x4B7 CALLDATASIZE PUSH1 0x4 PUSH2 0x1EE1 JUMP JUMPDEST POP POP POP POP POP JUMP JUMPDEST PUSH2 0x273 PUSH2 0x4CC CALLDATASIZE PUSH1 0x4 PUSH2 0x211D JUMP JUMPDEST PUSH2 0xF68 JUMP JUMPDEST PUSH2 0x550 PUSH2 0x4DF CALLDATASIZE PUSH1 0x4 PUSH2 0x211D JUMP JUMPDEST PUSH1 0x40 DUP1 MLOAD PUSH1 0x80 DUP1 DUP3 ADD DUP4 MSTORE PUSH1 0x0 DUP1 DUP4 MSTORE PUSH1 0x20 DUP1 DUP5 ADD DUP3 SWAP1 MSTORE DUP4 DUP6 ADD DUP3 SWAP1 MSTORE PUSH1 0x60 SWAP4 DUP5 ADD DUP3 SWAP1 MSTORE SWAP5 DUP2 MSTORE PUSH1 0x5 DUP6 MSTORE DUP4 SWAP1 KECCAK256 DUP4 MLOAD SWAP2 DUP3 ADD DUP5 MSTORE DUP1 SLOAD PUSH1 0x1 PUSH1 0x1 PUSH1 0xA0 SHL SUB AND DUP3 MSTORE PUSH1 0x1 DUP2 ADD SLOAD SWAP5 DUP3 ADD SWAP5 SWAP1 SWAP5 MSTORE PUSH1 0x2 DUP5 ADD SLOAD PUSH1 0xFF AND ISZERO ISZERO SWAP3 DUP2 ADD SWAP3 SWAP1 SWAP3 MSTORE PUSH1 0x3 SWAP1 SWAP3 ADD SLOAD SWAP2 DUP2 ADD SWAP2 SWAP1 SWAP2 MSTORE SWAP1 JUMP JUMPDEST PUSH1 0x40 MLOAD PUSH2 0x262 SWAP2 SWAP1 DUP2 MLOAD PUSH1 0x1 PUSH1 0x1 PUSH1 0xA0 SHL SUB AND DUP2 MSTORE PUSH1 0x20 DUP1 DUP4 ADD MLOAD SWAP1 DUP3 ADD MSTORE PUSH1 0x40 DUP1 DUP4 ADD MLOAD ISZERO ISZERO SWAP1 DUP3 ADD MSTORE PUSH1 0x60 SWAP2 DUP3 ADD MLOAD SWAP2 DUP2 ADD SWAP2 SWAP1 SWAP2 MSTORE PUSH1 0x80 ADD SWAP1 JUMP JUMPDEST PUSH2 0x43D PUSH2 0x59C CALLDATASIZE PUSH1 0x4 PUSH2 0x215B JUMP JUMPDEST PUSH2 0x106E JUMP JUMPDEST PUSH2 0x2B8 PUSH2 0x5AF CALLDATASIZE PUSH1 0x4 PUSH2 0x215B JUMP JUMPDEST PUSH2 0x10FD JUMP JUMPDEST PUSH2 0x256 PUSH2 0x5C2 CALLDATASIZE PUSH1 0x4 PUSH2 0x1E72 JUMP JUMPDEST PUSH1 0x0 SWAP3 SWAP2 POP POP JUMP JUMPDEST PUSH2 0x2B8 PUSH2 0x5D8 CALLDATASIZE PUSH1 0x4 PUSH2 0x2136 JUMP JUMPDEST PUSH2 0x1115 JUMP JUMPDEST PUSH2 0x256 PUSH2 0x5EB CALLDATASIZE PUSH1 0x4 PUSH2 0x215B JUMP JUMPDEST PUSH2 0x12C5 JUMP JUMPDEST PUSH2 0x2B8 PUSH2 0x5FE CALLDATASIZE PUSH1 0x4 PUSH2 0x211D JUMP JUMPDEST PUSH2 0x137A JUMP JUMPDEST PUSH2 0x2F6 PUSH3 0xED4E00 DUP2 JUMP JUMPDEST PUSH1 0x60 PUSH1 0x3 DUP1 SLOAD PUSH2 0x61C SWAP1 PUSH2 0x2359 JUMP JUMPDEST DUP1 PUSH1 0x1F ADD PUSH1 0x20 DUP1 SWAP2 DIV MUL PUSH1 0x20 ADD PUSH1 0x40 MLOAD SWAP1 DUP2 ADD PUSH1 0x40 MSTORE DUP1 SWAP3 SWAP2 SWAP1 DUP2 DUP2 MSTORE PUSH1 0x20 ADD DUP3 DUP1 SLOAD PUSH2 0x648 SWAP1 PUSH2 0x2359 JUMP JUMPDEST DUP1 ISZERO PUSH2 0x695 JUMPI DUP1 PUSH1 0x1F LT PUSH2 0x66A JUMPI PUSH2 0x100 DUP1 DUP4 SLOAD DIV MUL DUP4 MSTORE SWAP2 PUSH1 0x20 ADD SWAP2 PUSH2 0x695 JUMP JUMPDEST DUP3 ADD SWAP2 SWAP1 PUSH1 0x0 MSTORE PUSH1 0x20 PUSH1 0x0 KECCAK256 SWAP1 JUMPDEST DUP2 SLOAD DUP2 MSTORE SWAP1 PUSH1 0x1 ADD SWAP1 PUSH1 0x20 ADD DUP1 DUP4 GT PUSH2 0x678 JUMPI DUP3 SWAP1 SUB PUSH1 0x1F AND DUP3 ADD SWAP2 JUMPDEST POP POP POP POP POP SWAP1 POP SWAP1 JUMP JUMPDEST PUSH1 0x0 PUSH2 0x6C1 CALLER JUMPDEST PUSH1 0x1 PUSH1 0x1 PUSH1 0xA0 SHL SUB AND PUSH1 0x0 SWAP1 DUP2 MSTORE PUSH1 0x6 PUSH1 0x20 MSTORE PUSH1 0x40 SWAP1 KECCAK256 SLOAD SWAP1 JUMP JUMPDEST SWAP1 POP PUSH2 0x704 DUP2 DUP6 DUP6 DUP6 DUP1 DUP1 PUSH1 0x1F ADD PUSH1 0x20 DUP1 SWAP2 DIV MUL PUSH1 0x20 ADD PUSH1 0x40 MLOAD SWAP1 DUP2 ADD PUSH1 0x40 MSTORE DUP1 SWAP4 SWAP3 SWAP2 SWAP1 DUP2 DUP2 MSTORE PUSH1 0x20 ADD DUP4 DUP4 DUP1 DUP3 DUP5 CALLDATACOPY PUSH1 0x0 SWAP3 ADD SWAP2 SWAP1 SWAP2 MSTORE POP PUSH2 0x1391 SWAP3 POP POP POP JUMP JUMPDEST POP POP POP POP JUMP JUMPDEST PUSH1 0x40 DUP1 MLOAD DUP1 DUP3 ADD DUP3 MSTORE PUSH1 0x60 DUP2 MSTORE PUSH1 0x0 PUSH1 0x20 DUP1 DUP4 ADD DUP3 SWAP1 MSTORE DUP5 DUP3 MSTORE PUSH1 0x5 DUP2 MSTORE DUP4 DUP3 KECCAK256 PUSH1 0x1 SWAP1 DUP2 ADD SLOAD DUP1 DUP5 MSTORE PUSH1 0x4 DUP4 MSTORE DUP6 DUP5 KECCAK256 DUP8 DUP6 MSTORE SWAP1 SWAP2 ADD SWAP1 SWAP2 MSTORE SWAP1 DUP4 SWAP1 KECCAK256 DUP4 MLOAD DUP1 DUP6 ADD SWAP1 SWAP5 MSTORE DUP1 SLOAD SWAP3 SWAP4 SWAP2 SWAP3 DUP3 SWAP1 DUP3 SWAP1 PUSH2 0x763 SWAP1 PUSH2 0x2359 JUMP JUMPDEST DUP1 PUSH1 0x1F ADD PUSH1 0x20 DUP1 SWAP2 DIV MUL PUSH1 0x20 ADD PUSH1 0x40 MLOAD SWAP1 DUP2 ADD PUSH1 0x40 MSTORE DUP1 SWAP3 SWAP2 SWAP1 DUP2 DUP2 MSTORE PUSH1 0x20 ADD DUP3 DUP1 SLOAD PUSH2 0x78F SWAP1 PUSH2 0x2359 JUMP JUMPDEST DUP1 ISZERO PUSH2 0x7DC JUMPI DUP1 PUSH1 0x1F LT PUSH2 0x7B1 JUMPI PUSH2 0x100 DUP1 DUP4 SLOAD DIV MUL DUP4 MSTORE SWAP2 PUSH1 0x20 ADD SWAP2 PUSH2 0x7DC JUMP JUMPDEST DUP3 ADD SWAP2 SWAP1 PUSH1 0x0 MSTORE PUSH1 0x20 PUSH1 0x0 KECCAK256 SWAP1 JUMPDEST DUP2 SLOAD DUP2 MSTORE SWAP1 PUSH1 0x1 ADD SWAP1 PUSH1 0x20 ADD DUP1 DUP4 GT PUSH2 0x7BF JUMPI DUP3 SWAP1 SUB PUSH1 0x1F AND DUP3 ADD SWAP2 JUMPDEST POP POP POP POP POP DUP2 MSTORE PUSH1 0x20 ADD PUSH1 0x1 DUP3 ADD SLOAD DUP2 MSTORE POP POP SWAP2 POP POP SWAP2 SWAP1 POP JUMP JUMPDEST PUSH1 0x0 PUSH2 0x802 PUSH1 0x8 SLOAD SWAP1 JUMP JUMPDEST SWAP1 POP SWAP1 JUMP JUMPDEST PUSH1 0x0 DUP2 DUP2 MSTORE PUSH1 0x5 PUSH1 0x20 MSTORE PUSH1 0x40 DUP1 DUP3 KECCAK256 PUSH1 0x3 ADD SLOAD SWAP1 MLOAD PUSH4 0x5E3BEE73 PUSH1 0xE0 SHL DUP2 MSTORE PUSH1 0x4 DUP2 ADD DUP5 SWAP1 MSTORE PUSH1 0x24 DUP2 ADD DUP3 SWAP1 MSTORE DUP3 SWAP2 DUP3 SWAP2 DUP3 SWAP2 DUP3 SWAP2 DUP3 SWAP2 SWAP1 ADDRESS SWAP1 PUSH4 0x5E3BEE73 SWAP1 PUSH1 0x44 ADD PUSH1 0xC0 PUSH1 0x40 MLOAD DUP1 DUP4 SUB DUP2 DUP7 DUP1 EXTCODESIZE ISZERO DUP1 ISZERO PUSH2 0x862 JUMPI PUSH1 0x0 DUP1 REVERT JUMPDEST POP GAS STATICCALL ISZERO DUP1 ISZERO PUSH2 0x876 JUMPI RETURNDATASIZE PUSH1 0x0 DUP1 RETURNDATACOPY RETURNDATASIZE PUSH1 0x0 REVERT JUMPDEST POP POP POP POP PUSH1 0x40 MLOAD RETURNDATASIZE PUSH1 0x1F NOT PUSH1 0x1F DUP3 ADD AND DUP3 ADD DUP1 PUSH1 0x40 MSTORE POP DUP2 ADD SWAP1 PUSH2 0x89A SWAP2 SWAP1 PUSH2 0x217D JUMP JUMPDEST SWAP5 SWAP14 SWAP4 SWAP13 POP SWAP2 SWAP11 POP SWAP9 POP SWAP7 POP SWAP1 SWAP5 POP SWAP3 POP POP POP JUMP JUMPDEST PUSH1 0x1 DUP1 SLOAD PUSH2 0x8BC SWAP1 PUSH2 0x2359 JUMP JUMPDEST DUP1 PUSH1 0x1F ADD PUSH1 0x20 DUP1 SWAP2 DIV MUL PUSH1 0x20 ADD PUSH1 0x40 MLOAD SWAP1 DUP2 ADD PUSH1 0x40 MSTORE DUP1 SWAP3 SWAP2 SWAP1 DUP2 DUP2 MSTORE PUSH1 0x20 ADD DUP3 DUP1 SLOAD PUSH2 0x8E8 SWAP1 PUSH2 0x2359 JUMP JUMPDEST DUP1 ISZERO PUSH2 0x935 JUMPI DUP1 PUSH1 0x1F LT PUSH2 0x90A JUMPI PUSH2 0x100 DUP1 DUP4 SLOAD DIV MUL DUP4 MSTORE SWAP2 PUSH1 0x20 ADD SWAP2 PUSH2 0x935 JUMP JUMPDEST DUP3 ADD SWAP2 SWAP1 PUSH1 0x0 MSTORE PUSH1 0x20 PUSH1 0x0 KECCAK256 SWAP1 JUMPDEST DUP2 SLOAD DUP2 MSTORE SWAP1 PUSH1 0x1 ADD SWAP1 PUSH1 0x20 ADD DUP1 DUP4 GT PUSH2 0x918 JUMPI DUP3 SWAP1 SUB PUSH1 0x1F AND DUP3 ADD SWAP2 JUMPDEST POP POP POP POP POP DUP2 JUMP JUMPDEST PUSH1 0x0 DUP2 DUP2 MSTORE PUSH1 0x5 PUSH1 0x20 SWAP1 DUP2 MSTORE PUSH1 0x40 DUP1 DUP4 KECCAK256 PUSH1 0x1 SWAP1 DUP2 ADD SLOAD DUP1 DUP6 MSTORE PUSH1 0x4 DUP5 MSTORE DUP3 DUP6 KECCAK256 DUP7 DUP7 MSTORE SWAP1 SWAP2 ADD SWAP1 SWAP3 MSTORE SWAP1 SWAP2 KECCAK256 DUP1 SLOAD PUSH1 0x60 SWAP3 SWAP2 SWAP1 PUSH2 0x97A SWAP1 PUSH2 0x2359 JUMP JUMPDEST DUP1 PUSH1 0x1F ADD PUSH1 0x20 DUP1 SWAP2 DIV MUL PUSH1 0x20 ADD PUSH1 0x40 MLOAD SWAP1 DUP2 ADD PUSH1 0x40 MSTORE DUP1 SWAP3 SWAP2 SWAP1 DUP2 DUP2 MSTORE PUSH1 0x20 ADD DUP3 DUP1 SLOAD PUSH2 0x9A6 SWAP1 PUSH2 0x2359 JUMP JUMPDEST DUP1 ISZERO PUSH2 0x9F3 JUMPI DUP1 PUSH1 0x1F LT PUSH2 0x9C8 JUMPI PUSH2 0x100 DUP1 DUP4 SLOAD DIV MUL DUP4 MSTORE SWAP2 PUSH1 0x20 ADD SWAP2 PUSH2 0x9F3 JUMP JUMPDEST DUP3 ADD SWAP2 SWAP1 PUSH1 0x0 MSTORE PUSH1 0x20 PUSH1 0x0 KECCAK256 SWAP1 JUMPDEST DUP2 SLOAD DUP2 MSTORE SWAP1 PUSH1 0x1 ADD SWAP1 PUSH1 0x20 ADD DUP1 DUP4 GT PUSH2 0x9D6 JUMPI DUP3 SWAP1 SUB PUSH1 0x1F AND DUP3 ADD SWAP2 JUMPDEST POP POP POP POP POP SWAP2 POP POP SWAP2 SWAP1 POP JUMP JUMPDEST PUSH1 0x0 DUP2 DUP2 MSTORE PUSH1 0x5 PUSH1 0x20 SWAP1 DUP2 MSTORE PUSH1 0x40 DUP1 DUP4 KECCAK256 PUSH1 0x1 ADD SLOAD DUP1 DUP5 MSTORE PUSH1 0x4 SWAP1 SWAP3 MSTORE DUP3 KECCAK256 DUP1 SLOAD PUSH1 0x0 NOT DUP4 EQ ISZERO PUSH2 0xA3C JUMPI DUP2 SLOAD PUSH2 0xA39 SWAP1 PUSH1 0x1 SWAP1 PUSH2 0x2316 JUMP JUMPDEST SWAP1 POP JUMPDEST SWAP5 SWAP4 POP POP POP POP JUMP JUMPDEST PUSH1 0x0 DUP1 PUSH1 0x0 DUP1 PUSH1 0x0 DUP1 PUSH1 0x0 PUSH1 0x7 PUSH1 0x0 DUP11 DUP2 MSTORE PUSH1 0x20 ADD SWAP1 DUP2 MSTORE PUSH1 0x20 ADD PUSH1 0x0 KECCAK256 DUP9 DUP2 SLOAD DUP2 LT PUSH2 0xA73 JUMPI PUSH2 0xA73 PUSH2 0x23FB JUMP JUMPDEST PUSH1 0x0 SWAP2 DUP3 MSTORE PUSH1 0x20 DUP3 KECCAK256 PUSH1 0x6 SWAP2 SWAP1 SWAP2 MUL ADD PUSH1 0x1 DUP2 ADD SLOAD PUSH1 0x2 DUP3 ADD SLOAD DUP3 SLOAD PUSH1 0x4 DUP5 ADD SLOAD PUSH1 0x5 SWAP1 SWAP5 ADD SLOAD SWAP3 SWAP15 SWAP2 SWAP14 POP PUSH2 0x100 DUP2 DIV SWAP1 SWAP5 SIGNEXTEND SWAP12 POP SWAP2 SWAP10 POP SWAP8 POP PUSH1 0xFF SWAP1 SWAP2 AND SWAP6 POP SWAP4 POP POP POP POP JUMP JUMPDEST PUSH1 0x0 DUP2 DUP2 MSTORE PUSH1 0x5 PUSH1 0x20 MSTORE PUSH1 0x40 DUP2 KECCAK256 SLOAD PUSH1 0x1 PUSH1 0x1 PUSH1 0xA0 SHL SUB AND JUMPDEST SWAP3 SWAP2 POP POP JUMP JUMPDEST PUSH1 0x0 PUSH2 0xAD5 DUP3 PUSH2 0x1535 JUMP JUMPDEST PUSH1 0x1 PUSH1 0x1 PUSH1 0xA0 SHL SUB DUP2 AND PUSH1 0x0 SWAP1 DUP2 MSTORE PUSH1 0x6 PUSH1 0x20 MSTORE PUSH1 0x40 DUP2 KECCAK256 SLOAD PUSH2 0xAD5 JUMP JUMPDEST PUSH1 0x0 DUP2 DUP2 MSTORE PUSH1 0x5 PUSH1 0x20 SWAP1 DUP2 MSTORE PUSH1 0x40 DUP1 DUP4 KECCAK256 DUP2 MLOAD PUSH1 0x80 DUP2 ADD DUP4 MSTORE DUP2 SLOAD PUSH1 0x1 PUSH1 0x1 PUSH1 0xA0 SHL SUB AND DUP2 MSTORE PUSH1 0x1 DUP1 DUP4 ADD SLOAD DUP3 DUP7 ADD DUP2 SWAP1 MSTORE PUSH1 0x2 DUP5 ADD SLOAD PUSH1 0xFF AND ISZERO ISZERO DUP4 DUP7 ADD MSTORE PUSH1 0x3 SWAP1 SWAP4 ADD SLOAD PUSH1 0x60 DUP4 ADD MSTORE SWAP2 DUP6 MSTORE PUSH1 0x4 DUP5 MSTORE DUP3 DUP6 KECCAK256 DUP7 DUP7 MSTORE DUP3 ADD SWAP1 SWAP4 MSTORE SWAP1 DUP4 KECCAK256 ADD SLOAD DUP3 DUP2 ISZERO DUP1 PUSH2 0xB80 JUMPI POP PUSH2 0xB7C PUSH3 0xED4E00 DUP4 PUSH2 0x22FE JUMP JUMPDEST TIMESTAMP GT ISZERO JUMPDEST SWAP1 POP DUP1 ISZERO DUP1 ISZERO PUSH2 0xB91 JUMPI POP DUP3 PUSH1 0x40 ADD MLOAD JUMPDEST SWAP6 SWAP5 POP POP POP POP POP JUMP JUMPDEST PUSH1 0x0 DUP4 DUP2 MSTORE PUSH1 0x7 PUSH1 0x20 MSTORE PUSH1 0x40 DUP2 KECCAK256 DUP1 SLOAD DUP3 SWAP2 SWAP1 DUP5 SWAP1 DUP2 LT PUSH2 0xBBD JUMPI PUSH2 0xBBD PUSH2 0x23FB JUMP JUMPDEST PUSH1 0x0 SWAP2 DUP3 MSTORE PUSH1 0x20 DUP1 DUP4 KECCAK256 DUP8 DUP5 MSTORE PUSH1 0x3 PUSH1 0x6 SWAP1 SWAP4 MUL ADD SWAP2 SWAP1 SWAP2 ADD SWAP1 MSTORE PUSH1 0x40 DUP2 KECCAK256 SLOAD SWAP1 SIGNEXTEND SWAP2 POP POP JUMPDEST SWAP4 SWAP3 POP POP POP JUMP JUMPDEST PUSH1 0x0 SLOAD PUSH2 0x100 SWAP1 DIV PUSH1 0xFF AND ISZERO DUP1 DUP1 ISZERO PUSH2 0xC0A JUMPI POP PUSH1 0x0 SLOAD PUSH1 0x1 PUSH1 0xFF SWAP1 SWAP2 AND LT JUMPDEST DUP1 PUSH2 0xC24 JUMPI POP ADDRESS EXTCODESIZE ISZERO DUP1 ISZERO PUSH2 0xC24 JUMPI POP PUSH1 0x0 SLOAD PUSH1 0xFF AND PUSH1 0x1 EQ JUMPDEST PUSH2 0xC8C JUMPI PUSH1 0x40 MLOAD PUSH3 0x461BCD PUSH1 0xE5 SHL DUP2 MSTORE PUSH1 0x20 PUSH1 0x4 DUP3 ADD MSTORE PUSH1 0x2E PUSH1 0x24 DUP3 ADD MSTORE PUSH32 0x496E697469616C697A61626C653A20636F6E747261637420697320616C726561 PUSH1 0x44 DUP3 ADD MSTORE PUSH14 0x191E481A5B9A5D1A585B1A5E9959 PUSH1 0x92 SHL PUSH1 0x64 DUP3 ADD MSTORE PUSH1 0x84 ADD JUMPDEST PUSH1 0x40 MLOAD DUP1 SWAP2 SUB SWAP1 REVERT JUMPDEST PUSH1 0x0 DUP1 SLOAD PUSH1 0xFF NOT AND PUSH1 0x1 OR SWAP1 SSTORE DUP1 ISZERO PUSH2 0xCAF JUMPI PUSH1 0x0 DUP1 SLOAD PUSH2 0xFF00 NOT AND PUSH2 0x100 OR SWAP1 SSTORE JUMPDEST DUP2 MLOAD PUSH2 0xCC2 SWAP1 PUSH1 0x1 SWAP1 PUSH1 0x20 DUP6 ADD SWAP1 PUSH2 0x1BDE JUMP JUMPDEST POP DUP6 MLOAD PUSH2 0xCD6 SWAP1 PUSH1 0x2 SWAP1 PUSH1 0x20 DUP10 ADD SWAP1 PUSH2 0x1BDE JUMP JUMPDEST POP DUP5 MLOAD PUSH2 0xCEA SWAP1 PUSH1 0x3 SWAP1 PUSH1 0x20 DUP9 ADD SWAP1 PUSH2 0x1BDE JUMP JUMPDEST POP PUSH1 0x0 PUSH1 0x8 DUP2 SWAP1 SSTORE PUSH1 0x9 DUP2 SWAP1 SSTORE JUMPDEST DUP5 MLOAD DUP2 PUSH1 0xFF AND LT ISZERO PUSH2 0xD95 JUMPI PUSH1 0x0 NOT PUSH1 0x0 DUP2 SWAP1 MSTORE PUSH1 0x5 PUSH1 0x20 MSTORE PUSH32 0x2E8DE2577E7C560A9913FD732CD5BA1F61F809B10C283800DA9499091AC562A7 DUP1 SLOAD PUSH1 0xFF NOT AND PUSH1 0x1 OR SWAP1 SSTORE DUP6 MLOAD PUSH2 0xD83 SWAP2 SWAP1 DUP8 SWAP1 PUSH1 0xFF DUP6 AND SWAP1 DUP2 LT PUSH2 0xD59 JUMPI PUSH2 0xD59 PUSH2 0x23FB JUMP JUMPDEST PUSH1 0x20 MUL PUSH1 0x20 ADD ADD MLOAD DUP7 DUP5 PUSH1 0xFF AND DUP2 MLOAD DUP2 LT PUSH2 0xD76 JUMPI PUSH2 0xD76 PUSH2 0x23FB JUMP JUMPDEST PUSH1 0x20 MUL PUSH1 0x20 ADD ADD MLOAD PUSH2 0x1391 JUMP JUMPDEST DUP1 PUSH2 0xD8D DUP2 PUSH2 0x23AF JUMP JUMPDEST SWAP2 POP POP PUSH2 0xCF8 JUMP JUMPDEST POP DUP1 ISZERO PUSH2 0xDDC JUMPI PUSH1 0x0 DUP1 SLOAD PUSH2 0xFF00 NOT AND SWAP1 SSTORE PUSH1 0x40 MLOAD PUSH1 0x1 DUP2 MSTORE PUSH32 0x7F26B83FF96E1F2B6A682F133852F6798A09C465DA95921460CEFB3847402498 SWAP1 PUSH1 0x20 ADD PUSH1 0x40 MLOAD DUP1 SWAP2 SUB SWAP1 LOG1 JUMPDEST POP POP POP POP POP POP JUMP JUMPDEST PUSH1 0x60 PUSH1 0x2 DUP1 SLOAD PUSH2 0x61C SWAP1 PUSH2 0x2359 JUMP JUMPDEST PUSH1 0x0 DUP2 DUP2 MSTORE PUSH1 0x5 PUSH1 0x20 MSTORE PUSH1 0x40 DUP1 DUP3 KECCAK256 PUSH1 0x1 ADD SLOAD DUP1 DUP4 MSTORE SWAP2 KECCAK256 PUSH1 0x2 ADD SLOAD PUSH1 0xFF AND ISZERO PUSH2 0xE30 JUMPI PUSH1 0x40 MLOAD PUSH4 0x6425D3F PUSH1 0xE2 SHL DUP2 MSTORE PUSH1 0x4 ADD PUSH1 0x40 MLOAD DUP1 SWAP2 SUB SWAP1 REVERT JUMPDEST PUSH1 0x40 MLOAD DUP3 SWAP1 PUSH32 0x946CCF7529D18D55B60565307325EAA52971532B461C039424DB6A003D5791D6 SWAP1 PUSH1 0x0 SWAP1 LOG2 PUSH2 0x2B4 DUP3 PUSH2 0x1586 JUMP JUMPDEST PUSH2 0xE6D DUP2 PUSH2 0xB04 JUMP JUMPDEST ISZERO PUSH2 0xE8B JUMPI PUSH1 0x40 MLOAD PUSH4 0x1994E321 PUSH1 0xE3 SHL DUP2 MSTORE PUSH1 0x4 ADD PUSH1 0x40 MLOAD DUP1 SWAP2 SUB SWAP1 REVERT JUMPDEST PUSH1 0x0 DUP2 DUP2 MSTORE PUSH1 0x5 PUSH1 0x20 MSTORE PUSH1 0x40 SWAP1 KECCAK256 PUSH1 0x2 ADD SLOAD PUSH1 0xFF AND PUSH2 0xEBD JUMPI PUSH1 0x40 MLOAD PUSH4 0x3C1391FD PUSH1 0xE1 SHL DUP2 MSTORE PUSH1 0x4 ADD PUSH1 0x40 MLOAD DUP1 SWAP2 SUB SWAP1 REVERT JUMPDEST PUSH1 0x0 PUSH2 0xEC8 DUP3 PUSH2 0x1660 JUMP JUMPDEST PUSH1 0x1 DUP2 ADD SLOAD SWAP1 SWAP2 POP ISZERO PUSH2 0xEEE JUMPI PUSH1 0x40 MLOAD PUSH4 0xD92060F3 PUSH1 0xE0 SHL DUP2 MSTORE PUSH1 0x4 ADD PUSH1 0x40 MLOAD DUP1 SWAP2 SUB SWAP1 REVERT JUMPDEST DUP1 SLOAD PUSH1 0xFF AND ISZERO PUSH2 0xF11 JUMPI PUSH1 0x40 MLOAD PUSH4 0x4DC137DD PUSH1 0xE1 SHL DUP2 MSTORE PUSH1 0x4 ADD PUSH1 0x40 MLOAD DUP1 SWAP2 SUB SWAP1 REVERT JUMPDEST TIMESTAMP PUSH1 0x1 DUP3 ADD DUP2 SWAP1 SSTORE PUSH2 0xF27 SWAP1 PUSH3 0x13C680 SWAP1 PUSH2 0x22FE JUMP JUMPDEST PUSH1 0x2 DUP3 ADD SSTORE DUP1 SLOAD PUSH2 0xFF00 NOT AND PUSH2 0xFF00 OR DUP2 SSTORE PUSH1 0x40 MLOAD DUP3 SWAP1 PUSH32 0xFB4749A8BF40D9D3F0FBE28026FEDBE06DC90952EBA3759C2B3EC0A7D5697F31 SWAP1 PUSH1 0x0 SWAP1 LOG2 POP POP JUMP JUMPDEST PUSH1 0x0 DUP2 DUP2 MSTORE PUSH1 0x5 PUSH1 0x20 SWAP1 DUP2 MSTORE PUSH1 0x40 DUP1 DUP4 KECCAK256 PUSH1 0x1 SWAP1 DUP2 ADD SLOAD DUP1 DUP6 MSTORE PUSH1 0x4 DUP5 MSTORE DUP3 DUP6 KECCAK256 DUP7 DUP7 MSTORE SWAP1 SWAP2 ADD SWAP1 SWAP3 MSTORE DUP3 KECCAK256 DUP1 SLOAD PUSH1 0x60 SWAP4 SWAP2 SWAP1 PUSH2 0xFA4 SWAP1 PUSH2 0x2359 JUMP JUMPDEST DUP1 PUSH1 0x1F ADD PUSH1 0x20 DUP1 SWAP2 DIV MUL PUSH1 0x20 ADD PUSH1 0x40 MLOAD SWAP1 DUP2 ADD PUSH1 0x40 MSTORE DUP1 SWAP3 SWAP2 SWAP1 DUP2 DUP2 MSTORE PUSH1 0x20 ADD DUP3 DUP1 SLOAD PUSH2 0xFD0 SWAP1 PUSH2 0x2359 JUMP JUMPDEST DUP1 ISZERO PUSH2 0x101D JUMPI DUP1 PUSH1 0x1F LT PUSH2 0xFF2 JUMPI PUSH2 0x100 DUP1 DUP4 SLOAD DIV MUL DUP4 MSTORE SWAP2 PUSH1 0x20 ADD SWAP2 PUSH2 0x101D JUMP JUMPDEST DUP3 ADD SWAP2 SWAP1 PUSH1 0x0 MSTORE PUSH1 0x20 PUSH1 0x0 KECCAK256 SWAP1 JUMPDEST DUP2 SLOAD DUP2 MSTORE SWAP1 PUSH1 0x1 ADD SWAP1 PUSH1 0x20 ADD DUP1 DUP4 GT PUSH2 0x1000 JUMPI DUP3 SWAP1 SUB PUSH1 0x1F AND DUP3 ADD SWAP2 JUMPDEST POP POP POP POP POP SWAP1 POP PUSH1 0x40 MLOAD DUP1 PUSH1 0x40 ADD PUSH1 0x40 MSTORE DUP1 PUSH1 0x7 DUP2 MSTORE PUSH1 0x20 ADD PUSH7 0x697066733A2F2F PUSH1 0xC8 SHL DUP2 MSTORE POP DUP2 PUSH1 0x40 MLOAD PUSH1 0x20 ADD PUSH2 0x1056 SWAP3 SWAP2 SWAP1 PUSH2 0x2235 JUMP JUMPDEST PUSH1 0x40 MLOAD PUSH1 0x20 DUP2 DUP4 SUB SUB DUP2 MSTORE SWAP1 PUSH1 0x40 MSTORE SWAP3 POP POP POP SWAP2 SWAP1 POP JUMP JUMPDEST PUSH1 0x0 DUP3 DUP2 MSTORE PUSH1 0x5 PUSH1 0x20 MSTORE PUSH1 0x40 DUP1 DUP3 KECCAK256 PUSH1 0x3 ADD SLOAD SWAP1 MLOAD PUSH4 0x4896D603 PUSH1 0xE1 SHL DUP2 MSTORE PUSH1 0x4 DUP2 ADD DUP6 SWAP1 MSTORE PUSH1 0x24 DUP2 ADD DUP5 SWAP1 MSTORE PUSH1 0x44 DUP2 ADD DUP3 SWAP1 MSTORE ADDRESS SWAP1 PUSH4 0x912DAC06 SWAP1 PUSH1 0x64 ADD PUSH1 0x20 PUSH1 0x40 MLOAD DUP1 DUP4 SUB DUP2 DUP7 DUP1 EXTCODESIZE ISZERO DUP1 ISZERO PUSH2 0x10C5 JUMPI PUSH1 0x0 DUP1 REVERT JUMPDEST POP GAS STATICCALL ISZERO DUP1 ISZERO PUSH2 0x10D9 JUMPI RETURNDATASIZE PUSH1 0x0 DUP1 RETURNDATACOPY RETURNDATASIZE PUSH1 0x0 REVERT JUMPDEST POP POP POP POP PUSH1 0x40 MLOAD RETURNDATASIZE PUSH1 0x1F NOT PUSH1 0x1F DUP3 ADD AND DUP3 ADD DUP1 PUSH1 0x40 MSTORE POP DUP2 ADD SWAP1 PUSH2 0xA3C SWAP2 SWAP1 PUSH2 0x202E JUMP JUMPDEST PUSH1 0x0 PUSH2 0x1108 DUP4 PUSH2 0x1660 JUMP JUMPDEST SWAP1 POP PUSH2 0x365 DUP4 DUP3 DUP5 PUSH2 0x16DF JUMP JUMPDEST PUSH1 0x0 PUSH2 0x1120 CALLER PUSH2 0x6A6 JUMP JUMPDEST SWAP1 POP PUSH1 0x0 PUSH2 0x112D DUP5 PUSH2 0x1660 JUMP JUMPDEST SWAP1 POP DUP1 PUSH1 0x1 ADD SLOAD PUSH1 0x0 EQ ISZERO PUSH2 0x1155 JUMPI PUSH1 0x40 MLOAD PUSH4 0x1EB4F4E7 PUSH1 0xE0 SHL DUP2 MSTORE PUSH1 0x4 ADD PUSH1 0x40 MLOAD DUP1 SWAP2 SUB SWAP1 REVERT JUMPDEST DUP1 SLOAD PUSH1 0xFF AND ISZERO PUSH2 0x1178 JUMPI PUSH1 0x40 MLOAD PUSH4 0xA238277 PUSH1 0xE1 SHL DUP2 MSTORE PUSH1 0x4 ADD PUSH1 0x40 MLOAD DUP1 SWAP2 SUB SWAP1 REVERT JUMPDEST DUP1 PUSH1 0x2 ADD SLOAD TIMESTAMP GT ISZERO PUSH2 0x119D JUMPI PUSH1 0x40 MLOAD PUSH4 0x35C84AEB PUSH1 0xE2 SHL DUP2 MSTORE PUSH1 0x4 ADD PUSH1 0x40 MLOAD DUP1 SWAP2 SUB SWAP1 REVERT JUMPDEST PUSH2 0x11A7 DUP3 DUP6 PUSH2 0x12C5 JUMP JUMPDEST PUSH2 0x11C4 JUMPI PUSH1 0x40 MLOAD PUSH4 0x7CD1A649 PUSH1 0xE1 SHL DUP2 MSTORE PUSH1 0x4 ADD PUSH1 0x40 MLOAD DUP1 SWAP2 SUB SWAP1 REVERT JUMPDEST PUSH1 0x0 DUP3 DUP2 MSTORE PUSH1 0x3 DUP3 ADD PUSH1 0x20 MSTORE PUSH1 0x40 DUP2 KECCAK256 SLOAD DUP2 SIGNEXTEND SWAP1 SIGNEXTEND ISZERO PUSH2 0x11F7 JUMPI PUSH1 0x40 MLOAD PUSH4 0x8601A095 PUSH1 0xE0 SHL DUP2 MSTORE PUSH1 0x4 ADD PUSH1 0x40 MLOAD DUP1 SWAP2 SUB SWAP1 REVERT JUMPDEST DUP3 PUSH1 0x0 SIGNEXTEND PUSH1 0x1 EQ PUSH2 0x120A JUMPI PUSH1 0x0 NOT PUSH2 0x120D JUMP JUMPDEST PUSH1 0x1 JUMPDEST PUSH1 0x0 DUP4 DUP2 MSTORE PUSH1 0x3 DUP4 ADD PUSH1 0x20 MSTORE PUSH1 0x40 DUP2 KECCAK256 DUP1 SLOAD SWAP3 DUP3 SIGNEXTEND PUSH1 0xFF AND PUSH1 0xFF NOT SWAP1 SWAP4 AND SWAP3 SWAP1 SWAP3 OR SWAP1 SWAP2 SSTORE PUSH1 0x4 DUP3 ADD DUP1 SLOAD PUSH1 0x1 SWAP3 SWAP1 PUSH2 0x1247 SWAP1 DUP5 SWAP1 PUSH2 0x22FE JUMP JUMPDEST SWAP1 SWAP2 SSTORE POP POP PUSH1 0x1 PUSH1 0x0 DUP5 SWAP1 SIGNEXTEND EQ PUSH2 0x125F JUMPI PUSH1 0x0 PUSH2 0x1262 JUMP JUMPDEST PUSH1 0x1 JUMPDEST PUSH1 0xFF AND DUP2 PUSH1 0x5 ADD PUSH1 0x0 DUP3 DUP3 SLOAD PUSH2 0x1278 SWAP2 SWAP1 PUSH2 0x22FE JUMP JUMPDEST SWAP1 SWAP2 SSTORE POP POP PUSH1 0x40 DUP1 MLOAD DUP6 DUP2 MSTORE PUSH1 0x0 DUP6 SWAP1 SIGNEXTEND PUSH1 0x20 DUP3 ADD MSTORE DUP4 SWAP2 PUSH32 0xBDC899FF9789426DEC6B3C3BC128ED8CC0A9B248C274DD93CFDB3709E5A2125E SWAP2 ADD PUSH1 0x40 MLOAD DUP1 SWAP2 SUB SWAP1 LOG2 PUSH2 0x704 DUP2 DUP6 PUSH2 0x17C8 JUMP JUMPDEST PUSH1 0x0 DUP2 DUP4 EQ ISZERO PUSH2 0x12D7 JUMPI POP PUSH1 0x0 PUSH2 0xAD5 JUMP JUMPDEST DUP3 PUSH2 0x12E4 JUMPI POP PUSH1 0x0 PUSH2 0xAD5 JUMP JUMPDEST PUSH1 0x0 DUP3 DUP2 MSTORE PUSH1 0x5 PUSH1 0x20 MSTORE PUSH1 0x40 DUP1 DUP3 KECCAK256 PUSH1 0x1 ADD SLOAD DUP1 DUP4 MSTORE SWAP2 KECCAK256 PUSH1 0x2 ADD SLOAD PUSH1 0xFF AND PUSH2 0x1320 JUMPI PUSH1 0x40 MLOAD PUSH4 0xB0B9DA2D PUSH1 0xE0 SHL DUP2 MSTORE PUSH1 0x4 ADD PUSH1 0x40 MLOAD DUP1 SWAP2 SUB SWAP1 REVERT JUMPDEST PUSH1 0x0 DUP5 DUP2 MSTORE PUSH1 0x5 PUSH1 0x20 MSTORE PUSH1 0x40 DUP2 KECCAK256 PUSH1 0x1 ADD SLOAD DUP3 EQ DUP1 PUSH2 0x133E JUMPI POP DUP2 DUP6 EQ JUMPDEST PUSH1 0x0 DUP7 DUP2 MSTORE PUSH1 0x5 PUSH1 0x20 MSTORE PUSH1 0x40 SWAP1 KECCAK256 PUSH1 0x2 ADD SLOAD SWAP1 SWAP2 POP PUSH1 0xFF AND DUP1 ISZERO PUSH2 0x135F JUMPI POP DUP1 JUMPDEST ISZERO PUSH2 0x136F JUMPI PUSH1 0x1 SWAP3 POP POP POP PUSH2 0xAD5 JUMP JUMPDEST POP PUSH1 0x0 SWAP5 SWAP4 POP POP POP POP JUMP JUMPDEST PUSH1 0x0 PUSH2 0x1385 DUP3 PUSH2 0x1660 JUMP JUMPDEST SWAP1 POP PUSH2 0x2B4 DUP2 DUP4 PUSH2 0x17C8 JUMP JUMPDEST PUSH1 0x0 PUSH2 0x139B PUSH2 0x1A12 JUMP JUMPDEST PUSH1 0x0 DUP6 DUP2 MSTORE PUSH1 0x5 PUSH1 0x20 MSTORE PUSH1 0x40 SWAP1 KECCAK256 PUSH1 0x2 ADD SLOAD SWAP1 SWAP2 POP PUSH1 0xFF AND PUSH2 0x13D0 JUMPI PUSH1 0x40 MLOAD PUSH4 0x119AB1C9 PUSH1 0xE1 SHL DUP2 MSTORE PUSH1 0x4 ADD PUSH1 0x40 MLOAD DUP1 SWAP2 SUB SWAP1 REVERT JUMPDEST PUSH1 0x1 PUSH1 0x1 PUSH1 0xA0 SHL SUB DUP4 AND PUSH1 0x0 SWAP1 DUP2 MSTORE PUSH1 0x6 PUSH1 0x20 MSTORE PUSH1 0x40 SWAP1 KECCAK256 SLOAD ISZERO PUSH2 0x1407 JUMPI PUSH1 0x40 MLOAD PUSH4 0xCB502EF1 PUSH1 0xE0 SHL DUP2 MSTORE PUSH1 0x4 ADD PUSH1 0x40 MLOAD DUP1 SWAP2 SUB SWAP1 REVERT JUMPDEST PUSH1 0x0 DUP5 DUP2 MSTORE PUSH1 0x4 PUSH1 0x20 SWAP1 DUP2 MSTORE PUSH1 0x40 DUP1 DUP4 KECCAK256 DUP5 DUP5 MSTORE PUSH1 0x1 DUP2 ADD DUP4 MSTORE SWAP3 KECCAK256 DUP5 MLOAD SWAP1 SWAP2 PUSH2 0x1435 SWAP2 DUP4 SWAP2 DUP8 ADD SWAP1 PUSH2 0x1BDE JUMP JUMPDEST POP TIMESTAMP PUSH1 0x1 DUP3 DUP2 ADD SWAP2 SWAP1 SWAP2 SSTORE PUSH1 0x0 DUP5 DUP2 MSTORE PUSH1 0x5 PUSH1 0x20 SWAP1 DUP2 MSTORE PUSH1 0x40 DUP1 DUP4 KECCAK256 DUP1 SLOAD PUSH1 0x1 PUSH1 0x1 PUSH1 0xA0 SHL SUB NOT AND PUSH1 0x1 PUSH1 0x1 PUSH1 0xA0 SHL SUB DUP12 AND SWAP1 DUP2 OR DUP3 SSTORE DUP2 DUP7 ADD DUP13 SWAP1 SSTORE PUSH1 0x2 SWAP1 SWAP2 ADD DUP1 SLOAD PUSH1 0xFF NOT AND DUP7 OR SWAP1 SSTORE DUP4 MSTORE PUSH1 0x6 SWAP1 SWAP2 MSTORE DUP2 KECCAK256 DUP6 SWAP1 SSTORE DUP4 SLOAD DUP5 SWAP2 SWAP1 PUSH2 0x149D SWAP1 DUP5 SWAP1 PUSH2 0x22FE JUMP JUMPDEST SWAP3 POP POP DUP2 SWAP1 SSTORE POP PUSH1 0x1 PUSH1 0x8 PUSH1 0x0 DUP3 DUP3 SLOAD PUSH2 0x14B7 SWAP2 SWAP1 PUSH2 0x22FE JUMP JUMPDEST SWAP1 SWAP2 SSTORE POP POP PUSH1 0x40 MLOAD DUP4 SWAP1 PUSH1 0x1 PUSH1 0x1 PUSH1 0xA0 SHL SUB DUP8 AND SWAP1 PUSH1 0x0 SWAP1 PUSH32 0xDDF252AD1BE2C89B69C2B068FC378DAA952BA7F163C4A11628F55A4DF523B3EF SWAP1 DUP3 SWAP1 LOG4 DUP3 DUP7 PUSH32 0xCD7F391A9646E0AB41EC2096F1D380FEBCDD775905C957EC790AB3738F9FDD78 DUP7 PUSH1 0x40 MLOAD PUSH2 0x1525 SWAP2 SWAP1 PUSH2 0x2264 JUMP JUMPDEST PUSH1 0x40 MLOAD DUP1 SWAP2 SUB SWAP1 LOG3 POP POP POP POP POP POP JUMP JUMPDEST PUSH1 0x1 PUSH1 0x1 PUSH1 0xA0 SHL SUB DUP2 AND PUSH1 0x0 SWAP1 DUP2 MSTORE PUSH1 0x6 PUSH1 0x20 MSTORE PUSH1 0x40 DUP2 KECCAK256 SLOAD DUP1 ISZERO DUP1 ISZERO SWAP1 PUSH2 0x156E JUMPI POP PUSH1 0x0 DUP2 DUP2 MSTORE PUSH1 0x5 PUSH1 0x20 MSTORE PUSH1 0x40 SWAP1 KECCAK256 PUSH1 0x2 ADD SLOAD PUSH1 0xFF AND JUMPDEST PUSH2 0x1579 JUMPI PUSH1 0x0 PUSH2 0x157C JUMP JUMPDEST PUSH1 0x1 JUMPDEST PUSH1 0xFF AND SWAP4 SWAP3 POP POP POP JUMP JUMPDEST PUSH1 0x0 DUP2 DUP2 MSTORE PUSH1 0x5 PUSH1 0x20 MSTORE PUSH1 0x40 SWAP1 KECCAK256 PUSH1 0x2 DUP2 ADD SLOAD PUSH1 0xFF AND PUSH2 0x15B9 JUMPI PUSH1 0x40 MLOAD PUSH4 0x92C9B599 PUSH1 0xE0 SHL DUP2 MSTORE PUSH1 0x4 ADD PUSH1 0x40 MLOAD DUP1 SWAP2 SUB SWAP1 REVERT JUMPDEST PUSH1 0x2 DUP2 ADD DUP1 SLOAD PUSH1 0xFF NOT AND SWAP1 SSTORE DUP1 SLOAD PUSH1 0x1 PUSH1 0x1 PUSH1 0xA0 SHL SUB AND PUSH1 0x0 SWAP1 DUP2 MSTORE PUSH1 0x6 PUSH1 0x20 SWAP1 DUP2 MSTORE PUSH1 0x40 DUP1 DUP4 KECCAK256 DUP4 SWAP1 SSTORE DUP4 SLOAD PUSH1 0x1 PUSH1 0x1 PUSH1 0xA0 SHL SUB NOT AND DUP5 SSTORE PUSH1 0x1 DUP1 DUP6 ADD SLOAD DUP5 MSTORE PUSH1 0x4 SWAP1 SWAP3 MSTORE DUP3 KECCAK256 DUP1 SLOAD SWAP2 SWAP3 SWAP1 SWAP2 PUSH2 0x1612 SWAP1 DUP5 SWAP1 PUSH2 0x2316 JUMP JUMPDEST SWAP3 POP POP DUP2 SWAP1 SSTORE POP PUSH1 0x1 PUSH1 0x8 PUSH1 0x0 DUP3 DUP3 SLOAD PUSH2 0x162C SWAP2 SWAP1 PUSH2 0x2316 JUMP JUMPDEST SWAP1 SWAP2 SSTORE POP POP PUSH1 0x40 MLOAD DUP3 SWAP1 PUSH32 0x8401ED0B52520270FFBA65C5383931FC1C6E30B27E1FC692D871D4F669D1F1EA SWAP1 PUSH1 0x0 SWAP1 LOG2 POP POP JUMP JUMPDEST PUSH1 0x0 DUP2 DUP2 MSTORE PUSH1 0x5 PUSH1 0x20 MSTORE PUSH1 0x40 DUP2 KECCAK256 PUSH1 0x3 ADD SLOAD PUSH2 0x167D DUP2 PUSH1 0x1 PUSH2 0x22FE JUMP JUMPDEST PUSH1 0x0 DUP5 DUP2 MSTORE PUSH1 0x7 PUSH1 0x20 MSTORE PUSH1 0x40 SWAP1 KECCAK256 SLOAD EQ PUSH2 0x16A9 JUMPI PUSH1 0x0 DUP4 DUP2 MSTORE PUSH1 0x7 PUSH1 0x20 MSTORE PUSH1 0x40 DUP2 KECCAK256 DUP1 SLOAD PUSH1 0x1 ADD DUP2 SSTORE SWAP1 MSTORE JUMPDEST PUSH1 0x0 DUP4 DUP2 MSTORE PUSH1 0x7 PUSH1 0x20 MSTORE PUSH1 0x40 SWAP1 KECCAK256 DUP1 SLOAD DUP3 SWAP1 DUP2 LT PUSH2 0x16C9 JUMPI PUSH2 0x16C9 PUSH2 0x23FB JUMP JUMPDEST SWAP1 PUSH1 0x0 MSTORE PUSH1 0x20 PUSH1 0x0 KECCAK256 SWAP1 PUSH1 0x6 MUL ADD SWAP2 POP POP SWAP2 SWAP1 POP JUMP JUMPDEST PUSH1 0x0 DUP2 DUP2 MSTORE PUSH1 0x3 DUP4 ADD PUSH1 0x20 MSTORE PUSH1 0x40 DUP2 KECCAK256 SLOAD DUP2 SIGNEXTEND SWAP1 SIGNEXTEND PUSH2 0x1711 JUMPI PUSH1 0x40 MLOAD PUSH4 0x59DC3029 PUSH1 0xE0 SHL DUP2 MSTORE PUSH1 0x4 ADD PUSH1 0x40 MLOAD DUP1 SWAP2 SUB SWAP1 REVERT JUMPDEST PUSH1 0x0 DUP2 DUP2 MSTORE PUSH1 0x5 PUSH1 0x20 MSTORE PUSH1 0x40 SWAP1 KECCAK256 PUSH1 0x2 ADD SLOAD PUSH1 0xFF AND ISZERO PUSH2 0x1744 JUMPI PUSH1 0x40 MLOAD PUSH4 0x5C2A53C5 PUSH1 0xE1 SHL DUP2 MSTORE PUSH1 0x4 ADD PUSH1 0x40 MLOAD DUP1 SWAP2 SUB SWAP1 REVERT JUMPDEST PUSH1 0x1 DUP3 PUSH1 0x4 ADD PUSH1 0x0 DUP3 DUP3 SLOAD PUSH2 0x1759 SWAP2 SWAP1 PUSH2 0x2316 JUMP JUMPDEST SWAP1 SWAP2 SSTORE POP POP PUSH1 0x0 DUP2 DUP2 MSTORE PUSH1 0x3 DUP4 ADD PUSH1 0x20 MSTORE PUSH1 0x40 DUP2 KECCAK256 SLOAD DUP2 SIGNEXTEND SWAP1 SIGNEXTEND PUSH1 0x1 EQ ISZERO PUSH2 0x1796 JUMPI PUSH1 0x1 DUP3 PUSH1 0x5 ADD PUSH1 0x0 DUP3 DUP3 SLOAD PUSH2 0x1790 SWAP2 SWAP1 PUSH2 0x2316 JUMP JUMPDEST SWAP1 SWAP2 SSTORE POP POP JUMPDEST PUSH1 0x40 MLOAD DUP2 SWAP1 DUP5 SWAP1 PUSH32 0x6A5DE386C49C7E87D450F082EACE65D7329E7123BDF11460295F7747ADAD1105 SWAP1 PUSH1 0x0 SWAP1 LOG3 POP POP POP JUMP JUMPDEST PUSH1 0x0 DUP1 PUSH1 0x0 DUP1 DUP6 PUSH1 0x4 ADD SLOAD GT ISZERO PUSH2 0x181B JUMPI PUSH2 0x1818 PUSH2 0x180D PUSH2 0x17FE PUSH8 0xDE0B6B3A7640000 DUP9 PUSH1 0x4 ADD SLOAD PUSH2 0x1A2D SWAP1 SWAP2 SWAP1 PUSH4 0xFFFFFFFF AND JUMP JUMPDEST PUSH8 0xDE0B6B3A7640000 SWAP1 PUSH2 0x1A39 JUMP JUMPDEST PUSH1 0x5 DUP8 ADD SLOAD SWAP1 PUSH2 0x1A2D JUMP JUMPDEST SWAP1 POP JUMPDEST PUSH1 0x0 PUSH8 0x6F05B59D3B20000 DUP3 LT ISZERO PUSH2 0x1835 JUMPI PUSH1 0x0 NOT PUSH2 0x1838 JUMP JUMPDEST PUSH1 0x1 JUMPDEST DUP7 SLOAD SWAP1 SWAP2 POP PUSH1 0x0 DUP3 DUP2 SIGNEXTEND PUSH2 0x100 SWAP1 SWAP3 DIV DUP2 SIGNEXTEND SWAP1 SIGNEXTEND EQ PUSH2 0x18EA JUMPI DUP6 SLOAD PUSH1 0x0 DUP3 DUP2 SIGNEXTEND PUSH1 0xFF AND PUSH2 0x100 MUL PUSH2 0xFF00 NOT SWAP1 SWAP3 AND SWAP2 SWAP1 SWAP2 OR DUP8 SSTORE PUSH1 0x2 DUP8 ADD SLOAD PUSH2 0x187C SWAP1 TIMESTAMP SWAP1 PUSH2 0x2316 JUMP JUMPDEST SWAP1 POP PUSH3 0x2A300 DUP2 LT ISZERO PUSH2 0x18E8 JUMPI PUSH1 0x0 PUSH2 0x1898 DUP3 PUSH3 0x2A300 PUSH2 0x2316 JUMP JUMPDEST DUP9 PUSH1 0x2 ADD SLOAD PUSH2 0x18A7 SWAP2 SWAP1 PUSH2 0x22FE JUMP JUMPDEST SWAP1 POP PUSH32 0x5073BEC5C188828181E51012E5967FBDAC7312BD400B8120CF3DCB0B8EE0F11E DUP2 PUSH1 0x40 MLOAD PUSH2 0x18DA SWAP2 DUP2 MSTORE PUSH1 0x20 ADD SWAP1 JUMP JUMPDEST PUSH1 0x40 MLOAD DUP1 SWAP2 SUB SWAP1 LOG1 PUSH1 0x2 DUP9 ADD SSTORE JUMPDEST POP JUMPDEST DUP6 PUSH1 0x2 ADD SLOAD TIMESTAMP GT PUSH2 0x192D JUMPI PUSH1 0x0 PUSH2 0x1900 DUP7 PUSH2 0xA00 JUMP JUMPDEST SWAP1 POP PUSH2 0x1925 PUSH2 0x191A PUSH2 0x17FE DUP4 PUSH8 0xDE0B6B3A7640000 PUSH2 0x1A2D JUMP JUMPDEST PUSH1 0x5 DUP10 ADD SLOAD SWAP1 PUSH2 0x1A2D JUMP JUMPDEST SWAP4 POP POP PUSH2 0x1935 JUMP JUMPDEST PUSH1 0x1 SWAP4 POP DUP2 SWAP3 POP JUMPDEST PUSH1 0x0 PUSH8 0x6F05B59D3B20000 DUP5 LT ISZERO PUSH2 0x194F JUMPI PUSH1 0x0 NOT PUSH2 0x1952 JUMP JUMPDEST PUSH1 0x1 JUMPDEST SWAP1 POP PUSH1 0x0 DUP2 SWAP1 SIGNEXTEND PUSH1 0x1 EQ ISZERO PUSH2 0x1999 JUMPI PUSH1 0x40 MLOAD PUSH1 0x1 SWAP6 POP DUP7 SWAP1 PUSH32 0xA3B99CEC0CD3A7EE24EC2A54714E340CC9A7116AA4B0FF7730371682CB47F580 SWAP1 PUSH1 0x0 SWAP1 LOG2 PUSH2 0x1999 DUP7 PUSH2 0x1586 JUMP JUMPDEST DUP5 ISZERO PUSH2 0x1A09 JUMPI PUSH1 0x40 DUP1 MLOAD DUP8 DUP2 MSTORE PUSH1 0x0 DUP4 SWAP1 SIGNEXTEND PUSH1 0x20 DUP3 ADD MSTORE PUSH32 0x4E4D413658C729B8CF2DEE49DA9D98754C99A09654D209CE00244648FEBC1E54 SWAP2 ADD PUSH1 0x40 MLOAD DUP1 SWAP2 SUB SWAP1 LOG1 DUP7 SLOAD PUSH1 0xFF NOT AND PUSH1 0x1 OR DUP8 SSTORE PUSH1 0x0 DUP7 DUP2 MSTORE PUSH1 0x5 PUSH1 0x20 MSTORE PUSH1 0x40 DUP2 KECCAK256 PUSH1 0x3 ADD DUP1 SLOAD SWAP2 PUSH2 0x1A03 DUP4 PUSH2 0x2394 JUMP JUMPDEST SWAP2 SWAP1 POP SSTORE POP JUMPDEST POP POP POP POP POP POP POP JUMP JUMPDEST PUSH1 0x0 PUSH1 0x9 PUSH1 0x0 DUP2 SLOAD PUSH2 0x1A23 SWAP1 PUSH2 0x2394 JUMP JUMPDEST SWAP2 DUP3 SWAP1 SSTORE POP SWAP2 SWAP1 POP JUMP JUMPDEST PUSH1 0x0 PUSH2 0xBE3 DUP4 DUP4 PUSH2 0x1A4E JUMP JUMPDEST PUSH1 0x0 PUSH2 0xBE3 DUP4 PUSH8 0xDE0B6B3A7640000 DUP5 PUSH2 0x1B10 JUMP JUMPDEST PUSH1 0x0 DUP1 DUP1 PUSH1 0x0 NOT DUP5 DUP7 MULMOD DUP5 DUP7 MUL SWAP3 POP DUP3 DUP2 LT DUP4 DUP3 SUB SUB SWAP2 POP POP PUSH8 0xDE0B6B3A7640000 DUP2 LT PUSH2 0x1A92 JUMPI PUSH1 0x40 MLOAD PUSH4 0x698D9A01 PUSH1 0xE1 SHL DUP2 MSTORE PUSH1 0x4 DUP2 ADD DUP3 SWAP1 MSTORE PUSH1 0x24 ADD PUSH2 0xC83 JUMP JUMPDEST PUSH1 0x0 DUP1 PUSH8 0xDE0B6B3A7640000 DUP7 DUP9 MULMOD SWAP2 POP POP PUSH8 0x6F05B59D3B1FFFF DUP2 GT DUP3 PUSH2 0x1ACC JUMPI DUP1 PUSH8 0xDE0B6B3A7640000 DUP6 DIV ADD SWAP5 POP POP POP POP POP PUSH2 0xAD5 JUMP JUMPDEST PUSH3 0x40000 DUP3 DUP6 SUB DIV SWAP4 SWAP1 SWAP2 GT SWAP1 SWAP2 SUB PUSH1 0x1 PUSH1 0xEE SHL MUL SWAP2 SWAP1 SWAP2 OR PUSH32 0xACCB18165BD6FE31AE1CF318DC5B51EEE0E1BA569B88CD74C1773B91FAC10669 MUL ADD SWAP1 POP SWAP3 SWAP2 POP POP JUMP JUMPDEST PUSH1 0x0 DUP1 DUP1 PUSH1 0x0 NOT DUP6 DUP8 MULMOD DUP6 DUP8 MUL SWAP3 POP DUP3 DUP2 LT DUP4 DUP3 SUB SUB SWAP2 POP POP DUP1 PUSH1 0x0 EQ ISZERO PUSH2 0x1B4B JUMPI DUP4 DUP3 DUP2 PUSH2 0x1B41 JUMPI PUSH2 0x1B41 PUSH2 0x23E5 JUMP JUMPDEST DIV SWAP3 POP POP POP PUSH2 0xBE3 JUMP JUMPDEST DUP4 DUP2 LT PUSH2 0x1B75 JUMPI PUSH1 0x40 MLOAD PUSH4 0x1DCF3063 PUSH1 0xE2 SHL DUP2 MSTORE PUSH1 0x4 DUP2 ADD DUP3 SWAP1 MSTORE PUSH1 0x24 DUP2 ADD DUP6 SWAP1 MSTORE PUSH1 0x44 ADD PUSH2 0xC83 JUMP JUMPDEST PUSH1 0x0 DUP5 DUP7 DUP9 MULMOD PUSH1 0x2 PUSH1 0x1 DUP8 NOT DUP2 ADD DUP9 AND SWAP8 DUP9 SWAP1 DIV PUSH1 0x3 DUP2 MUL DUP4 XOR DUP1 DUP3 MUL DUP5 SUB MUL DUP1 DUP3 MUL DUP5 SUB MUL DUP1 DUP3 MUL DUP5 SUB MUL DUP1 DUP3 MUL DUP5 SUB MUL DUP1 DUP3 MUL DUP5 SUB MUL SWAP1 DUP2 MUL SWAP1 SWAP3 SUB SWAP1 SWAP2 MUL PUSH1 0x0 DUP9 SWAP1 SUB DUP9 SWAP1 DIV SWAP1 SWAP2 ADD DUP6 DUP4 GT SWAP1 SWAP5 SUB SWAP4 SWAP1 SWAP4 MUL SWAP4 SUB SWAP5 SWAP1 SWAP5 DIV SWAP2 SWAP1 SWAP2 OR MUL SWAP5 SWAP4 POP POP POP POP JUMP JUMPDEST DUP3 DUP1 SLOAD PUSH2 0x1BEA SWAP1 PUSH2 0x2359 JUMP JUMPDEST SWAP1 PUSH1 0x0 MSTORE PUSH1 0x20 PUSH1 0x0 KECCAK256 SWAP1 PUSH1 0x1F ADD PUSH1 0x20 SWAP1 DIV DUP2 ADD SWAP3 DUP3 PUSH2 0x1C0C JUMPI PUSH1 0x0 DUP6 SSTORE PUSH2 0x1C52 JUMP JUMPDEST DUP3 PUSH1 0x1F LT PUSH2 0x1C25 JUMPI DUP1 MLOAD PUSH1 0xFF NOT AND DUP4 DUP1 ADD OR DUP6 SSTORE PUSH2 0x1C52 JUMP JUMPDEST DUP3 DUP1 ADD PUSH1 0x1 ADD DUP6 SSTORE DUP3 ISZERO PUSH2 0x1C52 JUMPI SWAP2 DUP3 ADD JUMPDEST DUP3 DUP2 GT ISZERO PUSH2 0x1C52 JUMPI DUP3 MLOAD DUP3 SSTORE SWAP2 PUSH1 0x20 ADD SWAP2 SWAP1 PUSH1 0x1 ADD SWAP1 PUSH2 0x1C37 JUMP JUMPDEST POP PUSH2 0x1C5E SWAP3 SWAP2 POP PUSH2 0x1C62 JUMP JUMPDEST POP SWAP1 JUMP JUMPDEST JUMPDEST DUP1 DUP3 GT ISZERO PUSH2 0x1C5E JUMPI PUSH1 0x0 DUP2 SSTORE PUSH1 0x1 ADD PUSH2 0x1C63 JUMP JUMPDEST DUP1 CALLDATALOAD PUSH1 0x1 PUSH1 0x1 PUSH1 0xA0 SHL SUB DUP2 AND DUP2 EQ PUSH2 0x1C8E JUMPI PUSH1 0x0 DUP1 REVERT JUMPDEST SWAP2 SWAP1 POP JUMP JUMPDEST PUSH1 0x0 DUP3 PUSH1 0x1F DUP4 ADD SLT PUSH2 0x1CA4 JUMPI PUSH1 0x0 DUP1 REVERT JUMPDEST DUP2 CALLDATALOAD PUSH1 0x20 PUSH2 0x1CB9 PUSH2 0x1CB4 DUP4 PUSH2 0x22DA JUMP JUMPDEST PUSH2 0x22A9 JUMP JUMPDEST DUP1 DUP4 DUP3 MSTORE DUP3 DUP3 ADD SWAP2 POP DUP3 DUP7 ADD DUP8 DUP5 DUP7 PUSH1 0x5 SHL DUP10 ADD ADD GT ISZERO PUSH2 0x1CD9 JUMPI PUSH1 0x0 DUP1 REVERT JUMPDEST PUSH1 0x0 JUMPDEST DUP6 DUP2 LT ISZERO PUSH2 0x1CFF JUMPI PUSH2 0x1CED DUP3 PUSH2 0x1C77 JUMP JUMPDEST DUP5 MSTORE SWAP3 DUP5 ADD SWAP3 SWAP1 DUP5 ADD SWAP1 PUSH1 0x1 ADD PUSH2 0x1CDC JUMP JUMPDEST POP SWAP1 SWAP8 SWAP7 POP POP POP POP POP POP POP JUMP JUMPDEST PUSH1 0x0 DUP3 PUSH1 0x1F DUP4 ADD SLT PUSH2 0x1D1D JUMPI PUSH1 0x0 DUP1 REVERT JUMPDEST DUP2 CALLDATALOAD PUSH1 0x20 PUSH2 0x1D2D PUSH2 0x1CB4 DUP4 PUSH2 0x22DA JUMP JUMPDEST DUP1 DUP4 DUP3 MSTORE DUP3 DUP3 ADD SWAP2 POP DUP3 DUP7 ADD DUP8 DUP5 DUP7 PUSH1 0x5 SHL DUP10 ADD ADD GT ISZERO PUSH2 0x1D4D JUMPI PUSH1 0x0 DUP1 REVERT JUMPDEST PUSH1 0x0 DUP1 JUMPDEST DUP7 DUP2 LT ISZERO PUSH2 0x1D90 JUMPI DUP3 CALLDATALOAD PUSH8 0xFFFFFFFFFFFFFFFF DUP2 GT ISZERO PUSH2 0x1D6F JUMPI DUP3 DUP4 REVERT JUMPDEST PUSH2 0x1D7D DUP12 DUP9 DUP4 DUP14 ADD ADD PUSH2 0x1DE7 JUMP JUMPDEST DUP7 MSTORE POP SWAP4 DUP6 ADD SWAP4 SWAP2 DUP6 ADD SWAP2 PUSH1 0x1 ADD PUSH2 0x1D51 JUMP JUMPDEST POP SWAP2 SWAP9 SWAP8 POP POP POP POP POP POP POP POP JUMP JUMPDEST PUSH1 0x0 DUP1 DUP4 PUSH1 0x1F DUP5 ADD SLT PUSH2 0x1DB0 JUMPI PUSH1 0x0 DUP1 REVERT JUMPDEST POP DUP2 CALLDATALOAD PUSH8 0xFFFFFFFFFFFFFFFF DUP2 GT ISZERO PUSH2 0x1DC8 JUMPI PUSH1 0x0 DUP1 REVERT JUMPDEST PUSH1 0x20 DUP4 ADD SWAP2 POP DUP4 PUSH1 0x20 DUP3 DUP6 ADD ADD GT ISZERO PUSH2 0x1DE0 JUMPI PUSH1 0x0 DUP1 REVERT JUMPDEST SWAP3 POP SWAP3 SWAP1 POP JUMP JUMPDEST PUSH1 0x0 DUP3 PUSH1 0x1F DUP4 ADD SLT PUSH2 0x1DF8 JUMPI PUSH1 0x0 DUP1 REVERT JUMPDEST DUP2 CALLDATALOAD PUSH8 0xFFFFFFFFFFFFFFFF DUP2 GT ISZERO PUSH2 0x1E12 JUMPI PUSH2 0x1E12 PUSH2 0x2411 JUMP JUMPDEST PUSH2 0x1E25 PUSH1 0x1F DUP3 ADD PUSH1 0x1F NOT AND PUSH1 0x20 ADD PUSH2 0x22A9 JUMP JUMPDEST DUP2 DUP2 MSTORE DUP5 PUSH1 0x20 DUP4 DUP7 ADD ADD GT ISZERO PUSH2 0x1E3A JUMPI PUSH1 0x0 DUP1 REVERT JUMPDEST DUP2 PUSH1 0x20 DUP6 ADD PUSH1 0x20 DUP4 ADD CALLDATACOPY PUSH1 0x0 SWAP2 DUP2 ADD PUSH1 0x20 ADD SWAP2 SWAP1 SWAP2 MSTORE SWAP4 SWAP3 POP POP POP JUMP JUMPDEST PUSH1 0x0 PUSH1 0x20 DUP3 DUP5 SUB SLT ISZERO PUSH2 0x1E69 JUMPI PUSH1 0x0 DUP1 REVERT JUMPDEST PUSH2 0xBE3 DUP3 PUSH2 0x1C77 JUMP JUMPDEST PUSH1 0x0 DUP1 PUSH1 0x40 DUP4 DUP6 SUB SLT ISZERO PUSH2 0x1E85 JUMPI PUSH1 0x0 DUP1 REVERT JUMPDEST PUSH2 0x1E8E DUP4 PUSH2 0x1C77 JUMP JUMPDEST SWAP2 POP PUSH2 0x1E9C PUSH1 0x20 DUP5 ADD PUSH2 0x1C77 JUMP JUMPDEST SWAP1 POP SWAP3 POP SWAP3 SWAP1 POP JUMP JUMPDEST PUSH1 0x0 DUP1 PUSH1 0x0 PUSH1 0x60 DUP5 DUP7 SUB SLT ISZERO PUSH2 0x1EBA JUMPI PUSH1 0x0 DUP1 REVERT JUMPDEST PUSH2 0x1EC3 DUP5 PUSH2 0x1C77 JUMP JUMPDEST SWAP3 POP PUSH2 0x1ED1 PUSH1 0x20 DUP6 ADD PUSH2 0x1C77 JUMP JUMPDEST SWAP2 POP PUSH1 0x40 DUP5 ADD CALLDATALOAD SWAP1 POP SWAP3 POP SWAP3 POP SWAP3 JUMP JUMPDEST PUSH1 0x0 DUP1 PUSH1 0x0 DUP1 PUSH1 0x0 PUSH1 0x80 DUP7 DUP9 SUB SLT ISZERO PUSH2 0x1EF9 JUMPI PUSH1 0x0 DUP1 REVERT JUMPDEST PUSH2 0x1F02 DUP7 PUSH2 0x1C77 JUMP JUMPDEST SWAP5 POP PUSH2 0x1F10 PUSH1 0x20 DUP8 ADD PUSH2 0x1C77 JUMP JUMPDEST SWAP4 POP PUSH1 0x40 DUP7 ADD CALLDATALOAD SWAP3 POP PUSH1 0x60 DUP7 ADD CALLDATALOAD PUSH8 0xFFFFFFFFFFFFFFFF DUP2 GT ISZERO PUSH2 0x1F33 JUMPI PUSH1 0x0 DUP1 REVERT JUMPDEST PUSH2 0x1F3F DUP9 DUP3 DUP10 ADD PUSH2 0x1D9E JUMP JUMPDEST SWAP7 SWAP10 SWAP6 SWAP9 POP SWAP4 SWAP7 POP SWAP3 SWAP5 SWAP4 SWAP3 POP POP POP JUMP JUMPDEST PUSH1 0x0 DUP1 PUSH1 0x40 DUP4 DUP6 SUB SLT ISZERO PUSH2 0x1F63 JUMPI PUSH1 0x0 DUP1 REVERT JUMPDEST PUSH2 0x1F6C DUP4 PUSH2 0x1C77 JUMP JUMPDEST SWAP2 POP PUSH1 0x20 DUP4 ADD CALLDATALOAD PUSH2 0x1F7C DUP2 PUSH2 0x2427 JUMP JUMPDEST DUP1 SWAP2 POP POP SWAP3 POP SWAP3 SWAP1 POP JUMP JUMPDEST PUSH1 0x0 DUP1 PUSH1 0x0 PUSH1 0x40 DUP5 DUP7 SUB SLT ISZERO PUSH2 0x1F9C JUMPI PUSH1 0x0 DUP1 REVERT JUMPDEST PUSH2 0x1FA5 DUP5 PUSH2 0x1C77 JUMP JUMPDEST SWAP3 POP PUSH1 0x20 DUP5 ADD CALLDATALOAD PUSH8 0xFFFFFFFFFFFFFFFF DUP2 GT ISZERO PUSH2 0x1FC1 JUMPI PUSH1 0x0 DUP1 REVERT JUMPDEST PUSH2 0x1FCD DUP7 DUP3 DUP8 ADD PUSH2 0x1D9E JUMP JUMPDEST SWAP5 SWAP8 SWAP1 SWAP7 POP SWAP4 SWAP5 POP POP POP POP JUMP JUMPDEST PUSH1 0x0 DUP1 PUSH1 0x40 DUP4 DUP6 SUB SLT ISZERO PUSH2 0x1FED JUMPI PUSH1 0x0 DUP1 REVERT JUMPDEST PUSH2 0x1FF6 DUP4 PUSH2 0x1C77 JUMP JUMPDEST SWAP5 PUSH1 0x20 SWAP4 SWAP1 SWAP4 ADD CALLDATALOAD SWAP4 POP POP POP JUMP JUMPDEST PUSH1 0x0 PUSH1 0x20 DUP3 DUP5 SUB SLT ISZERO PUSH2 0x2016 JUMPI PUSH1 0x0 DUP1 REVERT JUMPDEST DUP2 CALLDATALOAD PUSH1 0x1 PUSH1 0x1 PUSH1 0xE0 SHL SUB NOT DUP2 AND DUP2 EQ PUSH2 0xBE3 JUMPI PUSH1 0x0 DUP1 REVERT JUMPDEST PUSH1 0x0 PUSH1 0x20 DUP3 DUP5 SUB SLT ISZERO PUSH2 0x2040 JUMPI PUSH1 0x0 DUP1 REVERT JUMPDEST DUP2 MLOAD PUSH2 0xBE3 DUP2 PUSH2 0x2438 JUMP JUMPDEST PUSH1 0x0 DUP1 PUSH1 0x0 DUP1 PUSH1 0x0 PUSH1 0xA0 DUP7 DUP9 SUB SLT ISZERO PUSH2 0x2063 JUMPI PUSH1 0x0 DUP1 REVERT JUMPDEST DUP6 CALLDATALOAD PUSH8 0xFFFFFFFFFFFFFFFF DUP1 DUP3 GT ISZERO PUSH2 0x207B JUMPI PUSH1 0x0 DUP1 REVERT JUMPDEST PUSH2 0x2087 DUP10 DUP4 DUP11 ADD PUSH2 0x1DE7 JUMP JUMPDEST SWAP7 POP PUSH1 0x20 DUP9 ADD CALLDATALOAD SWAP2 POP DUP1 DUP3 GT ISZERO PUSH2 0x209D JUMPI PUSH1 0x0 DUP1 REVERT JUMPDEST PUSH2 0x20A9 DUP10 DUP4 DUP11 ADD PUSH2 0x1DE7 JUMP JUMPDEST SWAP6 POP PUSH1 0x40 DUP9 ADD CALLDATALOAD SWAP2 POP DUP1 DUP3 GT ISZERO PUSH2 0x20BF JUMPI PUSH1 0x0 DUP1 REVERT JUMPDEST PUSH2 0x20CB DUP10 DUP4 DUP11 ADD PUSH2 0x1C93 JUMP JUMPDEST SWAP5 POP PUSH1 0x60 DUP9 ADD CALLDATALOAD SWAP2 POP DUP1 DUP3 GT ISZERO PUSH2 0x20E1 JUMPI PUSH1 0x0 DUP1 REVERT JUMPDEST PUSH2 0x20ED DUP10 DUP4 DUP11 ADD PUSH2 0x1D0C JUMP JUMPDEST SWAP4 POP PUSH1 0x80 DUP9 ADD CALLDATALOAD SWAP2 POP DUP1 DUP3 GT ISZERO PUSH2 0x2103 JUMPI PUSH1 0x0 DUP1 REVERT JUMPDEST POP PUSH2 0x2110 DUP9 DUP3 DUP10 ADD PUSH2 0x1DE7 JUMP JUMPDEST SWAP2 POP POP SWAP3 SWAP6 POP SWAP3 SWAP6 SWAP1 SWAP4 POP JUMP JUMPDEST PUSH1 0x0 PUSH1 0x20 DUP3 DUP5 SUB SLT ISZERO PUSH2 0x212F JUMPI PUSH1 0x0 DUP1 REVERT JUMPDEST POP CALLDATALOAD SWAP2 SWAP1 POP JUMP JUMPDEST PUSH1 0x0 DUP1 PUSH1 0x40 DUP4 DUP6 SUB SLT ISZERO PUSH2 0x2149 JUMPI PUSH1 0x0 DUP1 REVERT JUMPDEST DUP3 CALLDATALOAD SWAP2 POP PUSH1 0x20 DUP4 ADD CALLDATALOAD PUSH2 0x1F7C DUP2 PUSH2 0x2438 JUMP JUMPDEST PUSH1 0x0 DUP1 PUSH1 0x40 DUP4 DUP6 SUB SLT ISZERO PUSH2 0x216E JUMPI PUSH1 0x0 DUP1 REVERT JUMPDEST POP POP DUP1 CALLDATALOAD SWAP3 PUSH1 0x20 SWAP1 SWAP2 ADD CALLDATALOAD SWAP2 POP JUMP JUMPDEST PUSH1 0x0 DUP1 PUSH1 0x0 DUP1 PUSH1 0x0 DUP1 PUSH1 0xC0 DUP8 DUP10 SUB SLT ISZERO PUSH2 0x2196 JUMPI PUSH1 0x0 DUP1 REVERT JUMPDEST DUP7 MLOAD SWAP6 POP PUSH1 0x20 DUP8 ADD MLOAD SWAP5 POP PUSH1 0x40 DUP8 ADD MLOAD PUSH2 0x21AF DUP2 PUSH2 0x2438 JUMP JUMPDEST DUP1 SWAP5 POP POP PUSH1 0x60 DUP8 ADD MLOAD SWAP3 POP PUSH1 0x80 DUP8 ADD MLOAD SWAP2 POP PUSH1 0xA0 DUP8 ADD MLOAD PUSH2 0x21CF DUP2 PUSH2 0x2427 JUMP JUMPDEST DUP1 SWAP2 POP POP SWAP3 SWAP6 POP SWAP3 SWAP6 POP SWAP3 SWAP6 JUMP JUMPDEST PUSH1 0x0 DUP1 PUSH1 0x0 PUSH1 0x60 DUP5 DUP7 SUB SLT ISZERO PUSH2 0x21F2 JUMPI PUSH1 0x0 DUP1 REVERT JUMPDEST POP POP DUP2 CALLDATALOAD SWAP4 PUSH1 0x20 DUP4 ADD CALLDATALOAD SWAP4 POP PUSH1 0x40 SWAP1 SWAP3 ADD CALLDATALOAD SWAP2 SWAP1 POP JUMP JUMPDEST PUSH1 0x0 DUP2 MLOAD DUP1 DUP5 MSTORE PUSH2 0x2221 DUP2 PUSH1 0x20 DUP7 ADD PUSH1 0x20 DUP7 ADD PUSH2 0x232D JUMP JUMPDEST PUSH1 0x1F ADD PUSH1 0x1F NOT AND SWAP3 SWAP1 SWAP3 ADD PUSH1 0x20 ADD SWAP3 SWAP2 POP POP JUMP JUMPDEST PUSH1 0x0 DUP4 MLOAD PUSH2 0x2247 DUP2 DUP5 PUSH1 0x20 DUP9 ADD PUSH2 0x232D JUMP JUMPDEST DUP4 MLOAD SWAP1 DUP4 ADD SWAP1 PUSH2 0x225B DUP2 DUP4 PUSH1 0x20 DUP9 ADD PUSH2 0x232D JUMP JUMPDEST ADD SWAP5 SWAP4 POP POP POP POP JUMP JUMPDEST PUSH1 0x20 DUP2 MSTORE PUSH1 0x0 PUSH2 0xBE3 PUSH1 0x20 DUP4 ADD DUP5 PUSH2 0x2209 JUMP JUMPDEST PUSH1 0x20 DUP2 MSTORE PUSH1 0x0 DUP3 MLOAD PUSH1 0x40 PUSH1 0x20 DUP5 ADD MSTORE PUSH2 0x2293 PUSH1 0x60 DUP5 ADD DUP3 PUSH2 0x2209 JUMP JUMPDEST SWAP1 POP PUSH1 0x20 DUP5 ADD MLOAD PUSH1 0x40 DUP5 ADD MSTORE DUP1 SWAP2 POP POP SWAP3 SWAP2 POP POP JUMP JUMPDEST PUSH1 0x40 MLOAD PUSH1 0x1F DUP3 ADD PUSH1 0x1F NOT AND DUP2 ADD PUSH8 0xFFFFFFFFFFFFFFFF DUP2 GT DUP3 DUP3 LT OR ISZERO PUSH2 0x22D2 JUMPI PUSH2 0x22D2 PUSH2 0x2411 JUMP JUMPDEST PUSH1 0x40 MSTORE SWAP2 SWAP1 POP JUMP JUMPDEST PUSH1 0x0 PUSH8 0xFFFFFFFFFFFFFFFF DUP3 GT ISZERO PUSH2 0x22F4 JUMPI PUSH2 0x22F4 PUSH2 0x2411 JUMP JUMPDEST POP PUSH1 0x5 SHL PUSH1 0x20 ADD SWAP1 JUMP JUMPDEST PUSH1 0x0 DUP3 NOT DUP3 GT ISZERO PUSH2 0x2311 JUMPI PUSH2 0x2311 PUSH2 0x23CF JUMP JUMPDEST POP ADD SWAP1 JUMP JUMPDEST PUSH1 0x0 DUP3 DUP3 LT ISZERO PUSH2 0x2328 JUMPI PUSH2 0x2328 PUSH2 0x23CF JUMP JUMPDEST POP SUB SWAP1 JUMP JUMPDEST PUSH1 0x0 JUMPDEST DUP4 DUP2 LT ISZERO PUSH2 0x2348 JUMPI DUP2 DUP2 ADD MLOAD DUP4 DUP3 ADD MSTORE PUSH1 0x20 ADD PUSH2 0x2330 JUMP JUMPDEST DUP4 DUP2 GT ISZERO PUSH2 0x704 JUMPI POP POP PUSH1 0x0 SWAP2 ADD MSTORE JUMP JUMPDEST PUSH1 0x1 DUP2 DUP2 SHR SWAP1 DUP3 AND DUP1 PUSH2 0x236D JUMPI PUSH1 0x7F DUP3 AND SWAP2 POP JUMPDEST PUSH1 0x20 DUP3 LT DUP2 EQ ISZERO PUSH2 0x238E JUMPI PUSH4 0x4E487B71 PUSH1 0xE0 SHL PUSH1 0x0 MSTORE PUSH1 0x22 PUSH1 0x4 MSTORE PUSH1 0x24 PUSH1 0x0 REVERT JUMPDEST POP SWAP2 SWAP1 POP JUMP JUMPDEST PUSH1 0x0 PUSH1 0x0 NOT DUP3 EQ ISZERO PUSH2 0x23A8 JUMPI PUSH2 0x23A8 PUSH2 0x23CF JUMP JUMPDEST POP PUSH1 0x1 ADD SWAP1 JUMP JUMPDEST PUSH1 0x0 PUSH1 0xFF DUP3 AND PUSH1 0xFF DUP2 EQ ISZERO PUSH2 0x23C6 JUMPI PUSH2 0x23C6 PUSH2 0x23CF JUMP JUMPDEST PUSH1 0x1 ADD SWAP3 SWAP2 POP POP JUMP JUMPDEST PUSH4 0x4E487B71 PUSH1 0xE0 SHL PUSH1 0x0 MSTORE PUSH1 0x11 PUSH1 0x4 MSTORE PUSH1 0x24 PUSH1 0x0 REVERT JUMPDEST PUSH4 0x4E487B71 PUSH1 0xE0 SHL PUSH1 0x0 MSTORE PUSH1 0x12 PUSH1 0x4 MSTORE PUSH1 0x24 PUSH1 0x0 REVERT JUMPDEST PUSH4 0x4E487B71 PUSH1 0xE0 SHL PUSH1 0x0 MSTORE PUSH1 0x32 PUSH1 0x4 MSTORE PUSH1 0x24 PUSH1 0x0 REVERT JUMPDEST PUSH4 0x4E487B71 PUSH1 0xE0 SHL PUSH1 0x0 MSTORE PUSH1 0x41 PUSH1 0x4 MSTORE PUSH1 0x24 PUSH1 0x0 REVERT JUMPDEST DUP1 ISZERO ISZERO DUP2 EQ PUSH2 0x2435 JUMPI PUSH1 0x0 DUP1 REVERT JUMPDEST POP JUMP JUMPDEST DUP1 PUSH1 0x0 SIGNEXTEND DUP2 EQ PUSH2 0x2435 JUMPI PUSH1 0x0 DUP1 REVERT INVALID LOG2 PUSH5 0x6970667358 0x22 SLT KECCAK256 0xD SELFBALANCE PUSH28 0xD8466BB3E90B23A28C68C94602DA1C89AB4307EB917B6EFA7065C5AB KECCAK256 PUSH5 0x736F6C6343 STOP ADDMOD MOD STOP CALLER "},"methodIdentifiers":{"FOUNDERS_VOUCHER()":"3c823b6b","PENDING_PERIOD()":"fe131778","QUIET_ENDING_PERIOD()":"84864be7","VOTING_PERIOD()":"b1610d7e","_nEntries()":"173ac141","approve(address,uint256)":"095ea7b3","balanceOf(address)":"70a08231","canVote(uint256,uint256)":"ef233c0b","challenge(uint256)":"ab82d9a0","executeVote(uint256)":"f98a4eca","getAccount(uint256)":"ce88b145","getApproved(uint256)":"081812fc","getChallenge(uint256)":"1bdd4b74","getChallengeVote(uint256,uint256)":"d61255f3","getSpecificChallenge(uint256,uint256)":"5e3bee73","getSpecificChallengeVote(uint256,uint256,uint256)":"912dac06","getTokenPersonCid(uint256)":"3fb1a836","getTokenVouch(uint256)":"130a8d80","getTotalVoters(uint256)":"43d3a4c1","getVoucherVouchesNumber(uint256)":"5d1f0a31","initRegistry(string,string,address[],string[],string)":"925ea2ed","invalidateInvalidVoucher(uint256)":"9a489620","invalidateVote(uint256,uint256)":"d9eeebed","isApprovedForAll(address,address)":"e985e9c5","isSolidified(uint256)":"82c0833b","name()":"06fdde03","ownerOf(uint256)":"6352211e","safeTransferFrom(address,address,uint256)":"42842e0e","safeTransferFrom(address,address,uint256,bytes)":"b88d4fde","setApprovalForAll(address,bool)":"a22cb465","statementCid()":"385cf11d","supportsInterface(bytes4)":"01ffc9a7","symbol()":"95d89b41","tokenIdOf(address)":"773c02d4","tokenURI(uint256)":"c87b56dd","totalSupply()":"18160ddd","transferFrom(address,address,uint256)":"23b872dd","vote(uint256,int8)":"ee650248","vouch(address,string)":"0c104878"}}}}}