{"contracts/Registry.sol":{"Registry":{"abi":[{"inputs":[{"internalType":"string","name":"__symbol","type":"string"},{"internalType":"string","name":"__name","type":"string"},{"internalType":"address[]","name":"addresses","type":"address[]"},{"internalType":"string[]","name":"foundersCids","type":"string[]"}],"stateMutability":"nonpayable","type":"constructor"},{"inputs":[],"name":"AccountAlreadyOwnsOneToken","type":"error"},{"inputs":[],"name":"CantChallengeInvalidAccount","type":"error"},{"inputs":[],"name":"ChallangeAlreadyActive","type":"error"},{"inputs":[],"name":"ErrorAccountNotValid","type":"error"},{"inputs":[],"name":"ErrorAccountSolidified","type":"error"},{"inputs":[],"name":"ErrorAlreadyVoted","type":"error"},{"inputs":[],"name":"ErrorChallangeAlreadyExecuted","type":"error"},{"inputs":[],"name":"ErrorChallangeNotActive","type":"error"},{"inputs":[],"name":"ErrorVoteNotFound","type":"error"},{"inputs":[],"name":"ErrorVoteOnOwnChallenge","type":"error"},{"inputs":[],"name":"ErrorVoterCantVote","type":"error"},{"inputs":[],"name":"ErrorVoterValid","type":"error"},{"inputs":[],"name":"ErrorVotingPeriodEnded","type":"error"},{"inputs":[],"name":"ErrorVoucherIsValid","type":"error"},{"inputs":[],"name":"ErrorVoucherNotValid","type":"error"},{"inputs":[{"internalType":"uint256","name":"prod1","type":"uint256"}],"name":"PRBMath__MulDivFixedPointOverflow","type":"error"},{"inputs":[{"internalType":"uint256","name":"prod1","type":"uint256"},{"internalType":"uint256","name":"denominator","type":"uint256"}],"name":"PRBMath__MulDivOverflow","type":"error"},{"inputs":[],"name":"UnexpectedExecutedCondition","type":"error"},{"inputs":[],"name":"VoucherNoLongerInvalid","type":"error"},{"anonymous":false,"inputs":[{"indexed":true,"internalType":"address","name":"owner","type":"address"},{"indexed":true,"internalType":"address","name":"approved","type":"address"},{"indexed":true,"internalType":"uint256","name":"tokenId","type":"uint256"}],"name":"Approval","type":"event"},{"anonymous":false,"inputs":[{"indexed":true,"internalType":"address","name":"owner","type":"address"},{"indexed":true,"internalType":"address","name":"operator","type":"address"},{"indexed":false,"internalType":"bool","name":"approved","type":"bool"}],"name":"ApprovalForAll","type":"event"},{"anonymous":false,"inputs":[{"indexed":true,"internalType":"uint256","name":"tokenId","type":"uint256"}],"name":"ChallengeEvent","type":"event"},{"anonymous":false,"inputs":[{"indexed":false,"internalType":"uint256","name":"tokenId","type":"uint256"},{"indexed":false,"internalType":"int8","name":"outcome","type":"int8"}],"name":"ChallengeExecuted","type":"event"},{"anonymous":false,"inputs":[{"indexed":true,"internalType":"uint256","name":"tokenId","type":"uint256"}],"name":"InvalidatedAccountEvent","type":"event"},{"anonymous":false,"inputs":[{"indexed":true,"internalType":"uint256","name":"tokenId","type":"uint256"}],"name":"InvalidatedByChallenge","type":"event"},{"anonymous":false,"inputs":[{"indexed":true,"internalType":"uint256","name":"tokenId","type":"uint256"}],"name":"InvalidatedByInvalidVoucher","type":"event"},{"anonymous":false,"inputs":[{"indexed":true,"internalType":"uint256","name":"tokenId","type":"uint256"},{"indexed":true,"internalType":"uint256","name":"voterTokenId","type":"uint256"}],"name":"InvalidatedVoteEvent","type":"event"},{"anonymous":false,"inputs":[{"indexed":true,"internalType":"address","name":"from","type":"address"},{"indexed":true,"internalType":"address","name":"to","type":"address"},{"indexed":true,"internalType":"uint256","name":"tokenId","type":"uint256"}],"name":"Transfer","type":"event"},{"anonymous":false,"inputs":[{"indexed":true,"internalType":"uint256","name":"voterTokenId","type":"uint256"},{"indexed":false,"internalType":"uint256","name":"tokenId","type":"uint256"},{"indexed":false,"internalType":"int8","name":"vote","type":"int8"}],"name":"VoteEvent","type":"event"},{"anonymous":false,"inputs":[{"indexed":false,"internalType":"uint256","name":"newEndDate","type":"uint256"}],"name":"VotingPeriodExtendedEvent","type":"event"},{"anonymous":false,"inputs":[{"indexed":true,"internalType":"uint256","name":"from","type":"uint256"},{"indexed":true,"internalType":"uint256","name":"to","type":"uint256"},{"indexed":false,"internalType":"string","name":"personCid","type":"string"}],"name":"VouchEvent","type":"event"},{"inputs":[],"name":"FOUNDERS_VOUCHER","outputs":[{"internalType":"uint256","name":"","type":"uint256"}],"stateMutability":"view","type":"function"},{"inputs":[],"name":"PENDING_PERIOD","outputs":[{"internalType":"uint256","name":"","type":"uint256"}],"stateMutability":"view","type":"function"},{"inputs":[],"name":"QUIET_ENDING_PERIOD","outputs":[{"internalType":"uint256","name":"","type":"uint256"}],"stateMutability":"view","type":"function"},{"inputs":[],"name":"VOTING_PERIOD","outputs":[{"internalType":"uint256","name":"","type":"uint256"}],"stateMutability":"view","type":"function"},{"inputs":[],"name":"_nEntries","outputs":[{"internalType":"uint256","name":"","type":"uint256"}],"stateMutability":"view","type":"function"},{"inputs":[{"internalType":"address","name":"to","type":"address"},{"internalType":"uint256","name":"tokenId","type":"uint256"}],"name":"approve","outputs":[],"stateMutability":"nonpayable","type":"function"},{"inputs":[{"internalType":"address","name":"account","type":"address"}],"name":"balanceOf","outputs":[{"internalType":"uint256","name":"balance","type":"uint256"}],"stateMutability":"view","type":"function"},{"inputs":[{"internalType":"uint256","name":"voterTokenId","type":"uint256"},{"internalType":"uint256","name":"challengedTokenId","type":"uint256"}],"name":"canVote","outputs":[{"internalType":"bool","name":"","type":"bool"}],"stateMutability":"view","type":"function"},{"inputs":[{"internalType":"uint256","name":"_tokenId","type":"uint256"}],"name":"challenge","outputs":[],"stateMutability":"nonpayable","type":"function"},{"inputs":[{"internalType":"uint256","name":"_tokenId","type":"uint256"}],"name":"executeVote","outputs":[],"stateMutability":"nonpayable","type":"function"},{"inputs":[{"internalType":"uint256","name":"tokenId","type":"uint256"}],"name":"getAccount","outputs":[{"components":[{"internalType":"address","name":"account","type":"address"},{"internalType":"uint256","name":"voucher","type":"uint256"},{"internalType":"bool","name":"valid","type":"bool"},{"internalType":"uint256","name":"timesChallenged","type":"uint256"}],"internalType":"struct Registry.Account","name":"","type":"tuple"}],"stateMutability":"view","type":"function"},{"inputs":[{"internalType":"uint256","name":"","type":"uint256"}],"name":"getApproved","outputs":[{"internalType":"address","name":"operator","type":"address"}],"stateMutability":"view","type":"function"},{"inputs":[{"internalType":"uint256","name":"tokenId","type":"uint256"}],"name":"getChallenge","outputs":[{"internalType":"uint256","name":"creationDate","type":"uint256"},{"internalType":"uint256","name":"endDate","type":"uint256"},{"internalType":"int8","name":"lastOutcome","type":"int8"},{"internalType":"uint256","name":"nVoted","type":"uint256"},{"internalType":"uint256","name":"nFor","type":"uint256"},{"internalType":"bool","name":"executed","type":"bool"}],"stateMutability":"view","type":"function"},{"inputs":[{"internalType":"uint256","name":"tokenId","type":"uint256"},{"internalType":"uint256","name":"voterTokenId","type":"uint256"}],"name":"getChallengeVote","outputs":[{"internalType":"int8","name":"","type":"int8"}],"stateMutability":"view","type":"function"},{"inputs":[{"internalType":"uint256","name":"tokenId","type":"uint256"},{"internalType":"uint256","name":"challengeIndex","type":"uint256"}],"name":"getSpecificChallenge","outputs":[{"internalType":"uint256","name":"creationDate","type":"uint256"},{"internalType":"uint256","name":"endDate","type":"uint256"},{"internalType":"int8","name":"lastOutcome","type":"int8"},{"internalType":"uint256","name":"nVoted","type":"uint256"},{"internalType":"uint256","name":"nFor","type":"uint256"},{"internalType":"bool","name":"executed","type":"bool"}],"stateMutability":"view","type":"function"},{"inputs":[{"internalType":"uint256","name":"tokenId","type":"uint256"},{"internalType":"uint256","name":"voterTokenId","type":"uint256"},{"internalType":"uint256","name":"challengeIndex","type":"uint256"}],"name":"getSpecificChallengeVote","outputs":[{"internalType":"int8","name":"","type":"int8"}],"stateMutability":"view","type":"function"},{"inputs":[{"internalType":"uint256","name":"tokenId","type":"uint256"}],"name":"getTokenPersonCid","outputs":[{"internalType":"string","name":"","type":"string"}],"stateMutability":"view","type":"function"},{"inputs":[{"internalType":"uint256","name":"tokenId","type":"uint256"}],"name":"getTokenVouch","outputs":[{"components":[{"internalType":"string","name":"personCid","type":"string"},{"internalType":"uint256","name":"vouchDate","type":"uint256"}],"internalType":"struct Registry.Vouch","name":"","type":"tuple"}],"stateMutability":"view","type":"function"},{"inputs":[{"internalType":"uint256","name":"_tokenId","type":"uint256"}],"name":"getTotalVoters","outputs":[{"internalType":"uint256","name":"","type":"uint256"}],"stateMutability":"view","type":"function"},{"inputs":[{"internalType":"uint256","name":"voucherTokenId","type":"uint256"}],"name":"getVoucherVouchesNumber","outputs":[{"internalType":"uint256","name":"","type":"uint256"}],"stateMutability":"view","type":"function"},{"inputs":[{"internalType":"uint256","name":"tokenId","type":"uint256"}],"name":"invalidateInvalidVoucher","outputs":[],"stateMutability":"nonpayable","type":"function"},{"inputs":[{"internalType":"uint256","name":"_tokenId","type":"uint256"},{"internalType":"uint256","name":"_voterTokenId","type":"uint256"}],"name":"invalidateVote","outputs":[],"stateMutability":"nonpayable","type":"function"},{"inputs":[{"internalType":"address","name":"","type":"address"},{"internalType":"address","name":"","type":"address"}],"name":"isApprovedForAll","outputs":[{"internalType":"bool","name":"","type":"bool"}],"stateMutability":"view","type":"function"},{"inputs":[{"internalType":"uint256","name":"tokenId","type":"uint256"}],"name":"isSolidified","outputs":[{"internalType":"bool","name":"","type":"bool"}],"stateMutability":"view","type":"function"},{"inputs":[],"name":"name","outputs":[{"internalType":"string","name":"","type":"string"}],"stateMutability":"view","type":"function"},{"inputs":[{"internalType":"uint256","name":"tokenId","type":"uint256"}],"name":"ownerOf","outputs":[{"internalType":"address","name":"owner","type":"address"}],"stateMutability":"view","type":"function"},{"inputs":[{"internalType":"address","name":"from","type":"address"},{"internalType":"address","name":"to","type":"address"},{"internalType":"uint256","name":"tokenId","type":"uint256"}],"name":"safeTransferFrom","outputs":[],"stateMutability":"nonpayable","type":"function"},{"inputs":[{"internalType":"address","name":"from","type":"address"},{"internalType":"address","name":"to","type":"address"},{"internalType":"uint256","name":"tokenId","type":"uint256"},{"internalType":"bytes","name":"data","type":"bytes"}],"name":"safeTransferFrom","outputs":[],"stateMutability":"nonpayable","type":"function"},{"inputs":[{"internalType":"address","name":"operator","type":"address"},{"internalType":"bool","name":"approved","type":"bool"}],"name":"setApprovalForAll","outputs":[],"stateMutability":"nonpayable","type":"function"},{"inputs":[{"internalType":"bytes4","name":"interfaceId","type":"bytes4"}],"name":"supportsInterface","outputs":[{"internalType":"bool","name":"","type":"bool"}],"stateMutability":"view","type":"function"},{"inputs":[],"name":"symbol","outputs":[{"internalType":"string","name":"","type":"string"}],"stateMutability":"view","type":"function"},{"inputs":[{"internalType":"address","name":"owner","type":"address"}],"name":"tokenIdOf","outputs":[{"internalType":"uint256","name":"","type":"uint256"}],"stateMutability":"view","type":"function"},{"inputs":[{"internalType":"uint256","name":"tokenId","type":"uint256"}],"name":"tokenURI","outputs":[{"internalType":"string","name":"","type":"string"}],"stateMutability":"view","type":"function"},{"inputs":[],"name":"totalSupply","outputs":[{"internalType":"uint256","name":"","type":"uint256"}],"stateMutability":"view","type":"function"},{"inputs":[{"internalType":"address","name":"from","type":"address"},{"internalType":"address","name":"to","type":"address"},{"internalType":"uint256","name":"tokenId","type":"uint256"}],"name":"transferFrom","outputs":[],"stateMutability":"nonpayable","type":"function"},{"inputs":[{"internalType":"uint256","name":"_tokenId","type":"uint256"},{"internalType":"int8","name":"_vote","type":"int8"}],"name":"vote","outputs":[],"stateMutability":"nonpayable","type":"function"},{"inputs":[{"internalType":"address","name":"account","type":"address"},{"internalType":"string","name":"personCid","type":"string"}],"name":"vouch","outputs":[],"stateMutability":"nonpayable","type":"function"}],"devdoc":{"kind":"dev","methods":{"approve(address,uint256)":{"details":"Gives permission to `to` to transfer `tokenId` token to another account. The approval is cleared when the token is transferred. Only a single account can be approved at a time, so approving the zero address clears previous approvals. Requirements: - The caller must own the token or be an approved operator. - `tokenId` must exist. Emits an {Approval} event."},"name()":{"details":"Returns the token collection name."},"ownerOf(uint256)":{"details":"Returns the owner of the `tokenId` token. Requirements: - `tokenId` must exist."},"safeTransferFrom(address,address,uint256)":{"details":"Safely transfers `tokenId` token from `from` to `to`, checking first that contract recipients are aware of the ERC721 protocol to prevent tokens from being forever locked. Requirements: - `from` cannot be the zero address. - `to` cannot be the zero address. - `tokenId` token must exist and be owned by `from`. - If the caller is not `from`, it must have been allowed to move this token by either {approve} or {setApprovalForAll}. - If `to` refers to a smart contract, it must implement {IERC721Receiver-onERC721Received}, which is called upon a safe transfer. Emits a {Transfer} event."},"safeTransferFrom(address,address,uint256,bytes)":{"details":"Safely transfers `tokenId` token from `from` to `to`. Requirements: - `from` cannot be the zero address. - `to` cannot be the zero address. - `tokenId` token must exist and be owned by `from`. - If the caller is not `from`, it must be approved to move this token by either {approve} or {setApprovalForAll}. - If `to` refers to a smart contract, it must implement {IERC721Receiver-onERC721Received}, which is called upon a safe transfer. Emits a {Transfer} event."},"setApprovalForAll(address,bool)":{"details":"Approve or remove `operator` as an operator for the caller. Operators can call {transferFrom} or {safeTransferFrom} for any token owned by the caller. Requirements: - The `operator` cannot be the caller. Emits an {ApprovalForAll} event."},"supportsInterface(bytes4)":{"details":"Returns true if this contract implements the interface defined by `interfaceId`. See the corresponding https://eips.ethereum.org/EIPS/eip-165#how-interfaces-are-identified[EIP section] to learn more about how these ids are created. This function call must use less than 30 000 gas."},"symbol()":{"details":"Returns the token collection symbol."},"tokenURI(uint256)":{"details":"Returns the Uniform Resource Identifier (URI) for `tokenId` token."},"transferFrom(address,address,uint256)":{"details":"Transfers `tokenId` token from `from` to `to`. WARNING: Note that the caller is responsible to confirm that the recipient is capable of receiving ERC721 or else they may be permanently lost. Usage of {safeTransferFrom} prevents loss, though the caller must understand this adds an external call which potentially creates a reentrancy vulnerability. Requirements: - `from` cannot be the zero address. - `to` cannot be the zero address. - `tokenId` token must be owned by `from`. - If the caller is not `from`, it must be approved to move this token by either {approve} or {setApprovalForAll}. Emits a {Transfer} event."}},"title":"Registry","version":1},"evm":{"bytecode":{"linkReferences":{},"object":"62ed4e006000556213c6806001556202a30060025560001960035560c06040526007608081905266697066733a2f2f60c81b60a09081526200004591600491906200031e565b503480156200005357600080fd5b506040516200270c3803806200270c8339810160408190526200007691620004d9565b83516200008b9060059060208701906200031e565b508251620000a19060069060208601906200031e565b506000600b819055600c8190555b82518160ff1610156200014657600380546000908152600860205260409020600201805460ff19166001179055548351620001319190859060ff8516908110620000fd57620000fd62000778565b6020026020010151848460ff16815181106200011d576200011d62000778565b60200260200101516200015160201b60201c565b806200013d816200073f565b915050620000af565b5050505050620007a4565b60006200015d62000301565b60008581526008602052604090206002015490915060ff16620001935760405163119ab1c960e11b815260040160405180910390fd5b6001600160a01b03831660009081526009602052604090205415620001cb5760405163cb502ef160e01b815260040160405180910390fd5b6000848152600760209081526040808320848452600181018352922084519091620001fb9183918701906200031e565b5042600182810191909155600084815260086020908152604080832080546001600160a01b0319166001600160a01b038b1690811782558186018c90556002909101805460ff19168617905583526009909152812085905583548491906200026590849062000696565b925050819055506001600b600082825462000281919062000696565b909155505060405183906001600160a01b038716906000907fddf252ad1be2c89b69c2b068fc378daa952ba7f163c4a11628f55a4df523b3ef908290a482867fcd7f391a9646e0ab41ec2096f1d380febcdd775905c957ec790ab3738f9fdd7886604051620002f1919062000608565b60405180910390a3505050505050565b6000600c60008154620003149062000721565b9182905550919050565b8280546200032c90620006e4565b90600052602060002090601f0160209004810192826200035057600085556200039b565b82601f106200036b57805160ff19168380011785556200039b565b828001600101855582156200039b579182015b828111156200039b5782518255916020019190600101906200037e565b50620003a9929150620003ad565b5090565b5b80821115620003a95760008155600101620003ae565b600082601f830112620003d657600080fd5b81516020620003ef620003e98362000670565b6200063d565b80838252828201915082860187848660051b89010111156200041057600080fd5b6000805b86811015620004575782516001600160401b0381111562000433578283fd5b620004438b88838d010162000465565b865250938501939185019160010162000414565b509198975050505050505050565b600082601f8301126200047757600080fd5b81516001600160401b038111156200049357620004936200078e565b620004a8601f8201601f19166020016200063d565b818152846020838601011115620004be57600080fd5b620004d1826020830160208701620006b1565b949350505050565b60008060008060808587031215620004f057600080fd5b84516001600160401b03808211156200050857600080fd5b620005168883890162000465565b95506020915081870151818111156200052e57600080fd5b6200053c89828a0162000465565b9550506040870151818111156200055257600080fd5b8701601f810189136200056457600080fd5b805162000575620003e98262000670565b8082825285820191508584018c878560051b87010111156200059657600080fd5b600094505b83851015620005d15780516001600160a01b0381168114620005bc57600080fd5b8352600194909401939186019186016200059b565b5060608b0151909750945050505080821115620005ed57600080fd5b50620005fc87828801620003c4565b91505092959194509250565b602081526000825180602084015262000629816040850160208701620006b1565b601f01601f19169190910160400192915050565b604051601f8201601f191681016001600160401b03811182821017156200066857620006686200078e565b604052919050565b60006001600160401b038211156200068c576200068c6200078e565b5060051b60200190565b60008219821115620006ac57620006ac62000762565b500190565b60005b83811015620006ce578181015183820152602001620006b4565b83811115620006de576000848401525b50505050565b600181811c90821680620006f957607f821691505b602082108114156200071b57634e487b7160e01b600052602260045260246000fd5b50919050565b600060001982141562000738576200073862000762565b5060010190565b600060ff821660ff81141562000759576200075962000762565b60010192915050565b634e487b7160e01b600052601160045260246000fd5b634e487b7160e01b600052603260045260246000fd5b634e487b7160e01b600052604160045260246000fd5b611f5880620007b46000396000f3fe608060405234801561001057600080fd5b50600436106102275760003560e01c8063773c02d411610130578063b88d4fde116100b8578063e985e9c51161007c578063e985e9c514610581578063ee65024814610597578063ef233c0b146105aa578063f98a4eca146105bd578063fe131778146105d057600080fd5b8063b88d4fde14610476578063c87b56dd1461048b578063ce88b1451461049e578063d61255f31461055b578063d9eeebed1461056e57600080fd5b806395d89b41116100ff57806395d89b41146104315780639a48962014610439578063a22cb4651461044c578063ab82d9a01461045a578063b1610d7e1461046d57600080fd5b8063773c02d4146103dc57806382c0833b146103ef57806384864be714610402578063912dac061461040b57600080fd5b806323b872dd116101b357806343d3a4c11161018257806343d3a4c1146103705780635d1f0a31146103835780635e3bee73146103a35780636352211e146103b657806370a08231146103c957600080fd5b806323b872dd146103415780633c823b6b146103545780633fb1a8361461035d57806342842e0e1461034157600080fd5b80630c104878116101fa5780630c104878146102a4578063130a8d80146102b7578063173ac141146102d757806318160ddd146102ee5780631bdd4b74146102f657600080fd5b806301ffc9a71461022c57806306fdde0314610255578063081812fc1461026a578063095ea7b314610290575b600080fd5b61024061023a366004611bb1565b50600090565b60405190151581526020015b60405180910390f35b61025d6105d9565b60405161024c9190611dca565b61027861023a366004611bf8565b6040516001600160a01b03909116815260200161024c565b6102a261029e366004611b87565b5050565b005b6102a26102b2366004611b34565b61066b565b6102ca6102c5366004611bf8565b6106d6565b60405161024c9190611ddd565b6102e0600c5481565b60405190815260200161024c565b6102e06107c3565b610309610304366004611bf8565b6107d3565b60408051968752602087019590955260009390930b9385019390935260608401526080830191909152151560a082015260c00161024c565b6102a261034f366004611a52565b505050565b6102e060035481565b61025d61036b366004611bf8565b61087b565b6102e061037e366004611bf8565b61093e565b6102e0610391366004611bf8565b60009081526007602052604090205490565b6103096103b1366004611c36565b610982565b6102786103c4366004611bf8565b6109fa565b6102e06103d7366004611a04565b610a19565b6102e06103ea366004611a04565b610a24565b6102406103fd366004611bf8565b610a42565b6102e060025481565b61041e610419366004611cb8565b610ad8565b60405160009190910b815260200161024c565b61025d610b28565b6102a2610447366004611bf8565b610b37565b6102a261029e366004611afd565b6102a2610468366004611bf8565b610ba8565b6102e060015481565b6102a2610484366004611a8e565b5050505050565b61025d610499366004611bf8565b610ca9565b61051d6104ac366004611bf8565b6040805160808082018352600080835260208084018290528385018290526060938401829052948152600885528390208351918201845280546001600160a01b03168252600181015494820194909452600284015460ff161515928101929092526003909201549181019190915290565b60405161024c919081516001600160a01b03168152602080830151908201526040808301511515908201526060918201519181019190915260800190565b61041e610569366004611c36565b610d91565b6102a261057c366004611c36565b610e20565b61024061058f366004611a1f565b600092915050565b6102a26105a5366004611c11565b610e38565b6102406105b8366004611c36565b610fe8565b6102a26105cb366004611bf8565b61109d565b6102e060005481565b6060600680546105e890611e6a565b80601f016020809104026020016040519081016040528092919081815260200182805461061490611e6a565b80156106615780601f1061063657610100808354040283529160200191610661565b820191906000526020600020905b81548152906001019060200180831161064457829003601f168201915b5050505050905090565b600061068d335b6001600160a01b031660009081526009602052604090205490565b90506106d0818585858080601f0160208091040260200160405190810160405280939291908181526020018383808284376000920191909152506110b492505050565b50505050565b604080518082018252606081526000602080830182905284825260088152838220600190810154808452600783528584208785529091019091529083902083518085019094528054929391928290829061072f90611e6a565b80601f016020809104026020016040519081016040528092919081815260200182805461075b90611e6a565b80156107a85780601f1061077d576101008083540402835291602001916107a8565b820191906000526020600020905b81548152906001019060200180831161078b57829003601f168201915b50505050508152602001600182015481525050915050919050565b60006107ce600b5490565b905090565b600081815260086020526040808220600301549051635e3bee7360e01b8152600481018490526024810182905282918291829182918291903090635e3bee739060440160c06040518083038186803b15801561082e57600080fd5b505afa158015610842573d6000803e3d6000fd5b505050506040513d601f19601f820116820180604052508101906108669190611c58565b949d939c50919a509850965090945092505050565b600081815260086020908152604080832060019081015480855260078452828520868652909101909252909120805460609291906108b890611e6a565b80601f01602080910402602001604051908101604052809291908181526020018280546108e490611e6a565b80156109315780601f1061090657610100808354040283529160200191610931565b820191906000526020600020905b81548152906001019060200180831161091457829003601f168201915b5050505050915050919050565b60008181526008602090815260408083206001015480845260079092528220805460035483141561097a57815461097790600190611e27565b90505b949350505050565b6000806000806000806000600a60008a815260200190815260200160002088815481106109b1576109b1611eec565b600091825260208220600691909102016001810154600282015482546004840154600590940154929e919d50610100810490940b9b50919950975060ff90911695509350505050565b6000818152600860205260408120546001600160a01b03165b92915050565b6000610a1382611258565b6001600160a01b038116600090815260096020526040812054610a13565b6000818152600860209081526040808320815160808101835281546001600160a01b03168152600180830154828601819052600284015460ff161515838601526003909301546060830152918552600784528285208686528201909352908320015482811580610abe5750600054610aba9083611e0f565b4211155b905080158015610acf575082604001515b95945050505050565b6000838152600a60205260408120805482919084908110610afb57610afb611eec565b6000918252602080832087845260036006909302019190910190526040812054900b9150505b9392505050565b6060600580546105e890611e6a565b6000818152600860205260408082206001015480835291206002015460ff1615610b74576040516306425d3f60e21b815260040160405180910390fd5b60405182907f946ccf7529d18d55b60565307325eaa52971532b461c039424db6a003d5791d690600090a261029e826112a9565b610bb181610a42565b15610bcf57604051631994e32160e31b815260040160405180910390fd5b60008181526008602052604090206002015460ff16610c0157604051633c1391fd60e11b815260040160405180910390fd5b6000610c0c82611383565b600181015490915015610c325760405163d92060f360e01b815260040160405180910390fd5b805460ff1615610c5557604051634dc137dd60e11b815260040160405180910390fd5b42600180830182905554610c6891611e0f565b6002820155805461ff00191661ff0017815560405182907ffb4749a8bf40d9d3f0fbe28026fedbe06dc90952eba3759c2b3ec0a7d5697f3190600090a25050565b600081815260086020908152604080832060019081015480855260078452828520868652909101909252822080546060939190610ce590611e6a565b80601f0160208091040260200160405190810160405280929190818152602001828054610d1190611e6a565b8015610d5e5780601f10610d3357610100808354040283529160200191610d5e565b820191906000526020600020905b815481529060010190602001808311610d4157829003601f168201915b50505050509050600481604051602001610d79929190611d2c565b60405160208183030381529060405292505050919050565b600082815260086020526040808220600301549051634896d60360e11b8152600481018590526024810184905260448101829052309063912dac069060640160206040518083038186803b158015610de857600080fd5b505afa158015610dfc573d6000803e3d6000fd5b505050506040513d601f19601f8201168201806040525081019061097a9190611bdb565b6000610e2b83611383565b905061034f838284611402565b6000610e4333610672565b90506000610e5084611383565b9050806001015460001415610e7857604051631eb4f4e760e01b815260040160405180910390fd5b805460ff1615610e9b57604051630a23827760e11b815260040160405180910390fd5b8060020154421115610ec0576040516335c84aeb60e21b815260040160405180910390fd5b610eca8285610fe8565b610ee757604051637cd1a64960e11b815260040160405180910390fd5b6000828152600382016020526040812054810b900b15610f1a57604051638601a09560e01b815260040160405180910390fd5b8260000b600114610f2d57600019610f30565b60015b60008381526003830160205260408120805492820b60ff1660ff199093169290921790915560048201805460019290610f6a908490611e0f565b90915550506001600084900b14610f82576000610f85565b60015b60ff16816005016000828254610f9b9190611e0f565b909155505060408051858152600085900b602082015283917fbdc899ff9789426dec6b3c3bc128ed8cc0a9b248c274dd93cfdb3709e5a2125e910160405180910390a26106d081856114eb565b600081831415610ffa57506000610a13565b8261100757506000610a13565b6000828152600860205260408082206001015480835291206002015460ff166110435760405163b0b9da2d60e01b815260040160405180910390fd5b60008481526008602052604081206001015482148061106157508185145b60008681526008602052604090206002015490915060ff1680156110825750805b1561109257600192505050610a13565b506000949350505050565b60006110a882611383565b905061029e81836114eb565b60006110be611735565b60008581526008602052604090206002015490915060ff166110f35760405163119ab1c960e11b815260040160405180910390fd5b6001600160a01b0383166000908152600960205260409020541561112a5760405163cb502ef160e01b815260040160405180910390fd5b6000848152600760209081526040808320848452600181018352922084519091611158918391870190611906565b5042600182810191909155600084815260086020908152604080832080546001600160a01b0319166001600160a01b038b1690811782558186018c90556002909101805460ff19168617905583526009909152812085905583548491906111c0908490611e0f565b925050819055506001600b60008282546111da9190611e0f565b909155505060405183906001600160a01b038716906000907fddf252ad1be2c89b69c2b068fc378daa952ba7f163c4a11628f55a4df523b3ef908290a482867fcd7f391a9646e0ab41ec2096f1d380febcdd775905c957ec790ab3738f9fdd78866040516112489190611dca565b60405180910390a3505050505050565b6001600160a01b0381166000908152600960205260408120548015801590611291575060008181526008602052604090206002015460ff165b61129c57600061129f565b60015b60ff169392505050565b6000818152600860205260409020600281015460ff166112dc576040516392c9b59960e01b815260040160405180910390fd5b60028101805460ff1916905580546001600160a01b0316600090815260096020908152604080832083905583546001600160a01b0319168455600180850154845260079092528220805491929091611335908490611e27565b925050819055506001600b600082825461134f9190611e27565b909155505060405182907f8401ed0b52520270ffba65c5383931fc1c6e30b27e1fc692d871d4f669d1f1ea90600090a25050565b6000818152600860205260408120600301546113a0816001611e0f565b6000848152600a6020526040902054146113cc576000838152600a602052604081208054600101815590525b6000838152600a602052604090208054829081106113ec576113ec611eec565b9060005260206000209060060201915050919050565b6000818152600383016020526040812054810b900b611434576040516359dc302960e01b815260040160405180910390fd5b60008181526008602052604090206002015460ff161561146757604051635c2a53c560e11b815260040160405180910390fd5b600182600401600082825461147c9190611e27565b90915550506000818152600383016020526040812054810b900b600114156114b95760018260050160008282546114b39190611e27565b90915550505b604051819084907f6a5de386c49c7e87d450f082eace65d7329e7123bdf11460295f7747adad110590600090a3505050565b6000806000808560040154111561153e5761153b611530611521670de0b6b3a7640000886004015461175090919063ffffffff16565b670de0b6b3a76400009061175c565b600587015490611750565b90505b60006706f05b59d3b200008210156115585760001961155b565b60015b8654909150600082810b610100909204810b900b1461160d578554600082810b60ff166101000261ff0019909216919091178755600287015461159f904290611e27565b905060025481101561160b576000816002546115bb9190611e27565b88600201546115ca9190611e0f565b90507f5073bec5c188828181e51012e5967fbdac7312bd400b8120cf3dcb0b8ee0f11e816040516115fd91815260200190565b60405180910390a160028801555b505b856002015442116116505760006116238661093e565b905061164861163d61152183670de0b6b3a7640000611750565b600589015490611750565b935050611658565b600193508192505b60006706f05b59d3b2000084101561167257600019611675565b60015b9050600081900b600114156116bc576040516001955086907fa3b99cec0cd3a7ee24ec2a54714e340cc9a7116aa4b0ff7730371682cb47f58090600090a26116bc866112a9565b841561172c5760408051878152600083900b60208201527f4e4d413658c729b8cf2dee49da9d98754c99a09654d209ce00244648febc1e54910160405180910390a1865460ff19166001178755600086815260086020526040812060030180549161172683611ea5565b91905055505b50505050505050565b6000600c6000815461174690611ea5565b9182905550919050565b6000610b218383611771565b6000610b2183670de0b6b3a764000084611838565b60008080600019848609848602925082811083820303915050670de0b6b3a764000081106117ba5760405163698d9a0160e11b8152600481018290526024015b60405180910390fd5b600080670de0b6b3a76400008688099150506706f05b59d3b1ffff8111826117f45780670de0b6b3a7640000850401945050505050610a13565b620400008285030493909111909103600160ee1b02919091177faccb18165bd6fe31ae1cf318dc5b51eee0e1ba569b88cd74c1773b91fac106690201905092915050565b6000808060001985870985870292508281108382030391505080600014156118735783828161186957611869611ed6565b0492505050610b21565b83811061189d57604051631dcf306360e21b815260048101829052602481018590526044016117b1565b60008486880960026001871981018816978890046003810283188082028403028082028403028082028403028082028403028082028403029081029092039091026000889003889004909101858311909403939093029303949094049190911702949350505050565b82805461191290611e6a565b90600052602060002090601f016020900481019282611934576000855561197a565b82601f1061194d57805160ff191683800117855561197a565b8280016001018555821561197a579182015b8281111561197a57825182559160200191906001019061195f565b5061198692915061198a565b5090565b5b80821115611986576000815560010161198b565b80356001600160a01b03811681146119b657600080fd5b919050565b60008083601f8401126119cd57600080fd5b50813567ffffffffffffffff8111156119e557600080fd5b6020830191508360208285010111156119fd57600080fd5b9250929050565b600060208284031215611a1657600080fd5b610b218261199f565b60008060408385031215611a3257600080fd5b611a3b8361199f565b9150611a496020840161199f565b90509250929050565b600080600060608486031215611a6757600080fd5b611a708461199f565b9250611a7e6020850161199f565b9150604084013590509250925092565b600080600080600060808688031215611aa657600080fd5b611aaf8661199f565b9450611abd6020870161199f565b935060408601359250606086013567ffffffffffffffff811115611ae057600080fd5b611aec888289016119bb565b969995985093965092949392505050565b60008060408385031215611b1057600080fd5b611b198361199f565b91506020830135611b2981611f02565b809150509250929050565b600080600060408486031215611b4957600080fd5b611b528461199f565b9250602084013567ffffffffffffffff811115611b6e57600080fd5b611b7a868287016119bb565b9497909650939450505050565b60008060408385031215611b9a57600080fd5b611ba38361199f565b946020939093013593505050565b600060208284031215611bc357600080fd5b81356001600160e01b031981168114610b2157600080fd5b600060208284031215611bed57600080fd5b8151610b2181611f13565b600060208284031215611c0a57600080fd5b5035919050565b60008060408385031215611c2457600080fd5b823591506020830135611b2981611f13565b60008060408385031215611c4957600080fd5b50508035926020909101359150565b60008060008060008060c08789031215611c7157600080fd5b86519550602087015194506040870151611c8a81611f13565b80945050606087015192506080870151915060a0870151611caa81611f02565b809150509295509295509295565b600080600060608486031215611ccd57600080fd5b505081359360208301359350604090920135919050565b60008151808452611cfc816020860160208601611e3e565b601f01601f19169290920160200192915050565b60008151611d22818560208601611e3e565b9290920192915050565b600080845481600182811c915080831680611d4857607f831692505b6020808410821415611d6857634e487b7160e01b86526022600452602486fd5b818015611d7c5760018114611d8d57611dba565b60ff19861689528489019650611dba565b60008b81526020902060005b86811015611db25781548b820152908501908301611d99565b505084890196505b505050505050610acf8185611d10565b602081526000610b216020830184611ce4565b602081526000825160406020840152611df96060840182611ce4565b9050602084015160408401528091505092915050565b60008219821115611e2257611e22611ec0565b500190565b600082821015611e3957611e39611ec0565b500390565b60005b83811015611e59578181015183820152602001611e41565b838111156106d05750506000910152565b600181811c90821680611e7e57607f821691505b60208210811415611e9f57634e487b7160e01b600052602260045260246000fd5b50919050565b6000600019821415611eb957611eb9611ec0565b5060010190565b634e487b7160e01b600052601160045260246000fd5b634e487b7160e01b600052601260045260246000fd5b634e487b7160e01b600052603260045260246000fd5b8015158114611f1057600080fd5b50565b8060000b8114611f1057600080fdfea26469706673582212200a95caf2962772a31c05f7cc14b667643496f6db0194d9c570b89797b88cb6ac64736f6c63430008060033","opcodes":"PUSH3 0xED4E00 PUSH1 0x0 SSTORE PUSH3 0x13C680 PUSH1 0x1 SSTORE PUSH3 0x2A300 PUSH1 0x2 SSTORE PUSH1 0x0 NOT PUSH1 0x3 SSTORE PUSH1 0xC0 PUSH1 0x40 MSTORE PUSH1 0x7 PUSH1 0x80 DUP2 SWAP1 MSTORE PUSH7 0x697066733A2F2F PUSH1 0xC8 SHL PUSH1 0xA0 SWAP1 DUP2 MSTORE PUSH3 0x45 SWAP2 PUSH1 0x4 SWAP2 SWAP1 PUSH3 0x31E JUMP JUMPDEST POP CALLVALUE DUP1 ISZERO PUSH3 0x53 JUMPI PUSH1 0x0 DUP1 REVERT JUMPDEST POP PUSH1 0x40 MLOAD PUSH3 0x270C CODESIZE SUB DUP1 PUSH3 0x270C DUP4 CODECOPY DUP2 ADD PUSH1 0x40 DUP2 SWAP1 MSTORE PUSH3 0x76 SWAP2 PUSH3 0x4D9 JUMP JUMPDEST DUP4 MLOAD PUSH3 0x8B SWAP1 PUSH1 0x5 SWAP1 PUSH1 0x20 DUP8 ADD SWAP1 PUSH3 0x31E JUMP JUMPDEST POP DUP3 MLOAD PUSH3 0xA1 SWAP1 PUSH1 0x6 SWAP1 PUSH1 0x20 DUP7 ADD SWAP1 PUSH3 0x31E JUMP JUMPDEST POP PUSH1 0x0 PUSH1 0xB DUP2 SWAP1 SSTORE PUSH1 0xC DUP2 SWAP1 SSTORE JUMPDEST DUP3 MLOAD DUP2 PUSH1 0xFF AND LT ISZERO PUSH3 0x146 JUMPI PUSH1 0x3 DUP1 SLOAD PUSH1 0x0 SWAP1 DUP2 MSTORE PUSH1 0x8 PUSH1 0x20 MSTORE PUSH1 0x40 SWAP1 KECCAK256 PUSH1 0x2 ADD DUP1 SLOAD PUSH1 0xFF NOT AND PUSH1 0x1 OR SWAP1 SSTORE SLOAD DUP4 MLOAD PUSH3 0x131 SWAP2 SWAP1 DUP6 SWAP1 PUSH1 0xFF DUP6 AND SWAP1 DUP2 LT PUSH3 0xFD JUMPI PUSH3 0xFD PUSH3 0x778 JUMP JUMPDEST PUSH1 0x20 MUL PUSH1 0x20 ADD ADD MLOAD DUP5 DUP5 PUSH1 0xFF AND DUP2 MLOAD DUP2 LT PUSH3 0x11D JUMPI PUSH3 0x11D PUSH3 0x778 JUMP JUMPDEST PUSH1 0x20 MUL PUSH1 0x20 ADD ADD MLOAD PUSH3 0x151 PUSH1 0x20 SHL PUSH1 0x20 SHR JUMP JUMPDEST DUP1 PUSH3 0x13D DUP2 PUSH3 0x73F JUMP JUMPDEST SWAP2 POP POP PUSH3 0xAF JUMP JUMPDEST POP POP POP POP POP PUSH3 0x7A4 JUMP JUMPDEST PUSH1 0x0 PUSH3 0x15D PUSH3 0x301 JUMP JUMPDEST PUSH1 0x0 DUP6 DUP2 MSTORE PUSH1 0x8 PUSH1 0x20 MSTORE PUSH1 0x40 SWAP1 KECCAK256 PUSH1 0x2 ADD SLOAD SWAP1 SWAP2 POP PUSH1 0xFF AND PUSH3 0x193 JUMPI PUSH1 0x40 MLOAD PUSH4 0x119AB1C9 PUSH1 0xE1 SHL DUP2 MSTORE PUSH1 0x4 ADD PUSH1 0x40 MLOAD DUP1 SWAP2 SUB SWAP1 REVERT JUMPDEST PUSH1 0x1 PUSH1 0x1 PUSH1 0xA0 SHL SUB DUP4 AND PUSH1 0x0 SWAP1 DUP2 MSTORE PUSH1 0x9 PUSH1 0x20 MSTORE PUSH1 0x40 SWAP1 KECCAK256 SLOAD ISZERO PUSH3 0x1CB JUMPI PUSH1 0x40 MLOAD PUSH4 0xCB502EF1 PUSH1 0xE0 SHL DUP2 MSTORE PUSH1 0x4 ADD PUSH1 0x40 MLOAD DUP1 SWAP2 SUB SWAP1 REVERT JUMPDEST PUSH1 0x0 DUP5 DUP2 MSTORE PUSH1 0x7 PUSH1 0x20 SWAP1 DUP2 MSTORE PUSH1 0x40 DUP1 DUP4 KECCAK256 DUP5 DUP5 MSTORE PUSH1 0x1 DUP2 ADD DUP4 MSTORE SWAP3 KECCAK256 DUP5 MLOAD SWAP1 SWAP2 PUSH3 0x1FB SWAP2 DUP4 SWAP2 DUP8 ADD SWAP1 PUSH3 0x31E JUMP JUMPDEST POP TIMESTAMP PUSH1 0x1 DUP3 DUP2 ADD SWAP2 SWAP1 SWAP2 SSTORE PUSH1 0x0 DUP5 DUP2 MSTORE PUSH1 0x8 PUSH1 0x20 SWAP1 DUP2 MSTORE PUSH1 0x40 DUP1 DUP4 KECCAK256 DUP1 SLOAD PUSH1 0x1 PUSH1 0x1 PUSH1 0xA0 SHL SUB NOT AND PUSH1 0x1 PUSH1 0x1 PUSH1 0xA0 SHL SUB DUP12 AND SWAP1 DUP2 OR DUP3 SSTORE DUP2 DUP7 ADD DUP13 SWAP1 SSTORE PUSH1 0x2 SWAP1 SWAP2 ADD DUP1 SLOAD PUSH1 0xFF NOT AND DUP7 OR SWAP1 SSTORE DUP4 MSTORE PUSH1 0x9 SWAP1 SWAP2 MSTORE DUP2 KECCAK256 DUP6 SWAP1 SSTORE DUP4 SLOAD DUP5 SWAP2 SWAP1 PUSH3 0x265 SWAP1 DUP5 SWAP1 PUSH3 0x696 JUMP JUMPDEST SWAP3 POP POP DUP2 SWAP1 SSTORE POP PUSH1 0x1 PUSH1 0xB PUSH1 0x0 DUP3 DUP3 SLOAD PUSH3 0x281 SWAP2 SWAP1 PUSH3 0x696 JUMP JUMPDEST SWAP1 SWAP2 SSTORE POP POP PUSH1 0x40 MLOAD DUP4 SWAP1 PUSH1 0x1 PUSH1 0x1 PUSH1 0xA0 SHL SUB DUP8 AND SWAP1 PUSH1 0x0 SWAP1 PUSH32 0xDDF252AD1BE2C89B69C2B068FC378DAA952BA7F163C4A11628F55A4DF523B3EF SWAP1 DUP3 SWAP1 LOG4 DUP3 DUP7 PUSH32 0xCD7F391A9646E0AB41EC2096F1D380FEBCDD775905C957EC790AB3738F9FDD78 DUP7 PUSH1 0x40 MLOAD PUSH3 0x2F1 SWAP2 SWAP1 PUSH3 0x608 JUMP JUMPDEST PUSH1 0x40 MLOAD DUP1 SWAP2 SUB SWAP1 LOG3 POP POP POP POP POP POP JUMP JUMPDEST PUSH1 0x0 PUSH1 0xC PUSH1 0x0 DUP2 SLOAD PUSH3 0x314 SWAP1 PUSH3 0x721 JUMP JUMPDEST SWAP2 DUP3 SWAP1 SSTORE POP SWAP2 SWAP1 POP JUMP JUMPDEST DUP3 DUP1 SLOAD PUSH3 0x32C SWAP1 PUSH3 0x6E4 JUMP JUMPDEST SWAP1 PUSH1 0x0 MSTORE PUSH1 0x20 PUSH1 0x0 KECCAK256 SWAP1 PUSH1 0x1F ADD PUSH1 0x20 SWAP1 DIV DUP2 ADD SWAP3 DUP3 PUSH3 0x350 JUMPI PUSH1 0x0 DUP6 SSTORE PUSH3 0x39B JUMP JUMPDEST DUP3 PUSH1 0x1F LT PUSH3 0x36B JUMPI DUP1 MLOAD PUSH1 0xFF NOT AND DUP4 DUP1 ADD OR DUP6 SSTORE PUSH3 0x39B JUMP JUMPDEST DUP3 DUP1 ADD PUSH1 0x1 ADD DUP6 SSTORE DUP3 ISZERO PUSH3 0x39B JUMPI SWAP2 DUP3 ADD JUMPDEST DUP3 DUP2 GT ISZERO PUSH3 0x39B JUMPI DUP3 MLOAD DUP3 SSTORE SWAP2 PUSH1 0x20 ADD SWAP2 SWAP1 PUSH1 0x1 ADD SWAP1 PUSH3 0x37E JUMP JUMPDEST POP PUSH3 0x3A9 SWAP3 SWAP2 POP PUSH3 0x3AD JUMP JUMPDEST POP SWAP1 JUMP JUMPDEST JUMPDEST DUP1 DUP3 GT ISZERO PUSH3 0x3A9 JUMPI PUSH1 0x0 DUP2 SSTORE PUSH1 0x1 ADD PUSH3 0x3AE JUMP JUMPDEST PUSH1 0x0 DUP3 PUSH1 0x1F DUP4 ADD SLT PUSH3 0x3D6 JUMPI PUSH1 0x0 DUP1 REVERT JUMPDEST DUP2 MLOAD PUSH1 0x20 PUSH3 0x3EF PUSH3 0x3E9 DUP4 PUSH3 0x670 JUMP JUMPDEST PUSH3 0x63D JUMP JUMPDEST DUP1 DUP4 DUP3 MSTORE DUP3 DUP3 ADD SWAP2 POP DUP3 DUP7 ADD DUP8 DUP5 DUP7 PUSH1 0x5 SHL DUP10 ADD ADD GT ISZERO PUSH3 0x410 JUMPI PUSH1 0x0 DUP1 REVERT JUMPDEST PUSH1 0x0 DUP1 JUMPDEST DUP7 DUP2 LT ISZERO PUSH3 0x457 JUMPI DUP3 MLOAD PUSH1 0x1 PUSH1 0x1 PUSH1 0x40 SHL SUB DUP2 GT ISZERO PUSH3 0x433 JUMPI DUP3 DUP4 REVERT JUMPDEST PUSH3 0x443 DUP12 DUP9 DUP4 DUP14 ADD ADD PUSH3 0x465 JUMP JUMPDEST DUP7 MSTORE POP SWAP4 DUP6 ADD SWAP4 SWAP2 DUP6 ADD SWAP2 PUSH1 0x1 ADD PUSH3 0x414 JUMP JUMPDEST POP SWAP2 SWAP9 SWAP8 POP POP POP POP POP POP POP POP JUMP JUMPDEST PUSH1 0x0 DUP3 PUSH1 0x1F DUP4 ADD SLT PUSH3 0x477 JUMPI PUSH1 0x0 DUP1 REVERT JUMPDEST DUP2 MLOAD PUSH1 0x1 PUSH1 0x1 PUSH1 0x40 SHL SUB DUP2 GT ISZERO PUSH3 0x493 JUMPI PUSH3 0x493 PUSH3 0x78E JUMP JUMPDEST PUSH3 0x4A8 PUSH1 0x1F DUP3 ADD PUSH1 0x1F NOT AND PUSH1 0x20 ADD PUSH3 0x63D JUMP JUMPDEST DUP2 DUP2 MSTORE DUP5 PUSH1 0x20 DUP4 DUP7 ADD ADD GT ISZERO PUSH3 0x4BE JUMPI PUSH1 0x0 DUP1 REVERT JUMPDEST PUSH3 0x4D1 DUP3 PUSH1 0x20 DUP4 ADD PUSH1 0x20 DUP8 ADD PUSH3 0x6B1 JUMP JUMPDEST SWAP5 SWAP4 POP POP POP POP JUMP JUMPDEST PUSH1 0x0 DUP1 PUSH1 0x0 DUP1 PUSH1 0x80 DUP6 DUP8 SUB SLT ISZERO PUSH3 0x4F0 JUMPI PUSH1 0x0 DUP1 REVERT JUMPDEST DUP5 MLOAD PUSH1 0x1 PUSH1 0x1 PUSH1 0x40 SHL SUB DUP1 DUP3 GT ISZERO PUSH3 0x508 JUMPI PUSH1 0x0 DUP1 REVERT JUMPDEST PUSH3 0x516 DUP9 DUP4 DUP10 ADD PUSH3 0x465 JUMP JUMPDEST SWAP6 POP PUSH1 0x20 SWAP2 POP DUP2 DUP8 ADD MLOAD DUP2 DUP2 GT ISZERO PUSH3 0x52E JUMPI PUSH1 0x0 DUP1 REVERT JUMPDEST PUSH3 0x53C DUP10 DUP3 DUP11 ADD PUSH3 0x465 JUMP JUMPDEST SWAP6 POP POP PUSH1 0x40 DUP8 ADD MLOAD DUP2 DUP2 GT ISZERO PUSH3 0x552 JUMPI PUSH1 0x0 DUP1 REVERT JUMPDEST DUP8 ADD PUSH1 0x1F DUP2 ADD DUP10 SGT PUSH3 0x564 JUMPI PUSH1 0x0 DUP1 REVERT JUMPDEST DUP1 MLOAD PUSH3 0x575 PUSH3 0x3E9 DUP3 PUSH3 0x670 JUMP JUMPDEST DUP1 DUP3 DUP3 MSTORE DUP6 DUP3 ADD SWAP2 POP DUP6 DUP5 ADD DUP13 DUP8 DUP6 PUSH1 0x5 SHL DUP8 ADD ADD GT ISZERO PUSH3 0x596 JUMPI PUSH1 0x0 DUP1 REVERT JUMPDEST PUSH1 0x0 SWAP5 POP JUMPDEST DUP4 DUP6 LT ISZERO PUSH3 0x5D1 JUMPI DUP1 MLOAD PUSH1 0x1 PUSH1 0x1 PUSH1 0xA0 SHL SUB DUP2 AND DUP2 EQ PUSH3 0x5BC JUMPI PUSH1 0x0 DUP1 REVERT JUMPDEST DUP4 MSTORE PUSH1 0x1 SWAP5 SWAP1 SWAP5 ADD SWAP4 SWAP2 DUP7 ADD SWAP2 DUP7 ADD PUSH3 0x59B JUMP JUMPDEST POP PUSH1 0x60 DUP12 ADD MLOAD SWAP1 SWAP8 POP SWAP5 POP POP POP POP DUP1 DUP3 GT ISZERO PUSH3 0x5ED JUMPI PUSH1 0x0 DUP1 REVERT JUMPDEST POP PUSH3 0x5FC DUP8 DUP3 DUP9 ADD PUSH3 0x3C4 JUMP JUMPDEST SWAP2 POP POP SWAP3 SWAP6 SWAP2 SWAP5 POP SWAP3 POP JUMP JUMPDEST PUSH1 0x20 DUP2 MSTORE PUSH1 0x0 DUP3 MLOAD DUP1 PUSH1 0x20 DUP5 ADD MSTORE PUSH3 0x629 DUP2 PUSH1 0x40 DUP6 ADD PUSH1 0x20 DUP8 ADD PUSH3 0x6B1 JUMP JUMPDEST PUSH1 0x1F ADD PUSH1 0x1F NOT AND SWAP2 SWAP1 SWAP2 ADD PUSH1 0x40 ADD SWAP3 SWAP2 POP POP JUMP JUMPDEST PUSH1 0x40 MLOAD PUSH1 0x1F DUP3 ADD PUSH1 0x1F NOT AND DUP2 ADD PUSH1 0x1 PUSH1 0x1 PUSH1 0x40 SHL SUB DUP2 GT DUP3 DUP3 LT OR ISZERO PUSH3 0x668 JUMPI PUSH3 0x668 PUSH3 0x78E JUMP JUMPDEST PUSH1 0x40 MSTORE SWAP2 SWAP1 POP JUMP JUMPDEST PUSH1 0x0 PUSH1 0x1 PUSH1 0x1 PUSH1 0x40 SHL SUB DUP3 GT ISZERO PUSH3 0x68C JUMPI PUSH3 0x68C PUSH3 0x78E JUMP JUMPDEST POP PUSH1 0x5 SHL PUSH1 0x20 ADD SWAP1 JUMP JUMPDEST PUSH1 0x0 DUP3 NOT DUP3 GT ISZERO PUSH3 0x6AC JUMPI PUSH3 0x6AC PUSH3 0x762 JUMP JUMPDEST POP ADD SWAP1 JUMP JUMPDEST PUSH1 0x0 JUMPDEST DUP4 DUP2 LT ISZERO PUSH3 0x6CE JUMPI DUP2 DUP2 ADD MLOAD DUP4 DUP3 ADD MSTORE PUSH1 0x20 ADD PUSH3 0x6B4 JUMP JUMPDEST DUP4 DUP2 GT ISZERO PUSH3 0x6DE JUMPI PUSH1 0x0 DUP5 DUP5 ADD MSTORE JUMPDEST POP POP POP POP JUMP JUMPDEST PUSH1 0x1 DUP2 DUP2 SHR SWAP1 DUP3 AND DUP1 PUSH3 0x6F9 JUMPI PUSH1 0x7F DUP3 AND SWAP2 POP JUMPDEST PUSH1 0x20 DUP3 LT DUP2 EQ ISZERO PUSH3 0x71B JUMPI PUSH4 0x4E487B71 PUSH1 0xE0 SHL PUSH1 0x0 MSTORE PUSH1 0x22 PUSH1 0x4 MSTORE PUSH1 0x24 PUSH1 0x0 REVERT JUMPDEST POP SWAP2 SWAP1 POP JUMP JUMPDEST PUSH1 0x0 PUSH1 0x0 NOT DUP3 EQ ISZERO PUSH3 0x738 JUMPI PUSH3 0x738 PUSH3 0x762 JUMP JUMPDEST POP PUSH1 0x1 ADD SWAP1 JUMP JUMPDEST PUSH1 0x0 PUSH1 0xFF DUP3 AND PUSH1 0xFF DUP2 EQ ISZERO PUSH3 0x759 JUMPI PUSH3 0x759 PUSH3 0x762 JUMP JUMPDEST PUSH1 0x1 ADD SWAP3 SWAP2 POP POP JUMP JUMPDEST PUSH4 0x4E487B71 PUSH1 0xE0 SHL PUSH1 0x0 MSTORE PUSH1 0x11 PUSH1 0x4 MSTORE PUSH1 0x24 PUSH1 0x0 REVERT JUMPDEST PUSH4 0x4E487B71 PUSH1 0xE0 SHL PUSH1 0x0 MSTORE PUSH1 0x32 PUSH1 0x4 MSTORE PUSH1 0x24 PUSH1 0x0 REVERT JUMPDEST PUSH4 0x4E487B71 PUSH1 0xE0 SHL PUSH1 0x0 MSTORE PUSH1 0x41 PUSH1 0x4 MSTORE PUSH1 0x24 PUSH1 0x0 REVERT JUMPDEST PUSH2 0x1F58 DUP1 PUSH3 0x7B4 PUSH1 0x0 CODECOPY PUSH1 0x0 RETURN INVALID PUSH1 0x80 PUSH1 0x40 MSTORE CALLVALUE DUP1 ISZERO PUSH2 0x10 JUMPI PUSH1 0x0 DUP1 REVERT JUMPDEST POP PUSH1 0x4 CALLDATASIZE LT PUSH2 0x227 JUMPI PUSH1 0x0 CALLDATALOAD PUSH1 0xE0 SHR DUP1 PUSH4 0x773C02D4 GT PUSH2 0x130 JUMPI DUP1 PUSH4 0xB88D4FDE GT PUSH2 0xB8 JUMPI DUP1 PUSH4 0xE985E9C5 GT PUSH2 0x7C JUMPI DUP1 PUSH4 0xE985E9C5 EQ PUSH2 0x581 JUMPI DUP1 PUSH4 0xEE650248 EQ PUSH2 0x597 JUMPI DUP1 PUSH4 0xEF233C0B EQ PUSH2 0x5AA JUMPI DUP1 PUSH4 0xF98A4ECA EQ PUSH2 0x5BD JUMPI DUP1 PUSH4 0xFE131778 EQ PUSH2 0x5D0 JUMPI PUSH1 0x0 DUP1 REVERT JUMPDEST DUP1 PUSH4 0xB88D4FDE EQ PUSH2 0x476 JUMPI DUP1 PUSH4 0xC87B56DD EQ PUSH2 0x48B JUMPI DUP1 PUSH4 0xCE88B145 EQ PUSH2 0x49E JUMPI DUP1 PUSH4 0xD61255F3 EQ PUSH2 0x55B JUMPI DUP1 PUSH4 0xD9EEEBED EQ PUSH2 0x56E JUMPI PUSH1 0x0 DUP1 REVERT JUMPDEST DUP1 PUSH4 0x95D89B41 GT PUSH2 0xFF JUMPI DUP1 PUSH4 0x95D89B41 EQ PUSH2 0x431 JUMPI DUP1 PUSH4 0x9A489620 EQ PUSH2 0x439 JUMPI DUP1 PUSH4 0xA22CB465 EQ PUSH2 0x44C JUMPI DUP1 PUSH4 0xAB82D9A0 EQ PUSH2 0x45A JUMPI DUP1 PUSH4 0xB1610D7E EQ PUSH2 0x46D JUMPI PUSH1 0x0 DUP1 REVERT JUMPDEST DUP1 PUSH4 0x773C02D4 EQ PUSH2 0x3DC JUMPI DUP1 PUSH4 0x82C0833B EQ PUSH2 0x3EF JUMPI DUP1 PUSH4 0x84864BE7 EQ PUSH2 0x402 JUMPI DUP1 PUSH4 0x912DAC06 EQ PUSH2 0x40B JUMPI PUSH1 0x0 DUP1 REVERT JUMPDEST DUP1 PUSH4 0x23B872DD GT PUSH2 0x1B3 JUMPI DUP1 PUSH4 0x43D3A4C1 GT PUSH2 0x182 JUMPI DUP1 PUSH4 0x43D3A4C1 EQ PUSH2 0x370 JUMPI DUP1 PUSH4 0x5D1F0A31 EQ PUSH2 0x383 JUMPI DUP1 PUSH4 0x5E3BEE73 EQ PUSH2 0x3A3 JUMPI DUP1 PUSH4 0x6352211E EQ PUSH2 0x3B6 JUMPI DUP1 PUSH4 0x70A08231 EQ PUSH2 0x3C9 JUMPI PUSH1 0x0 DUP1 REVERT JUMPDEST DUP1 PUSH4 0x23B872DD EQ PUSH2 0x341 JUMPI DUP1 PUSH4 0x3C823B6B EQ PUSH2 0x354 JUMPI DUP1 PUSH4 0x3FB1A836 EQ PUSH2 0x35D JUMPI DUP1 PUSH4 0x42842E0E EQ PUSH2 0x341 JUMPI PUSH1 0x0 DUP1 REVERT JUMPDEST DUP1 PUSH4 0xC104878 GT PUSH2 0x1FA JUMPI DUP1 PUSH4 0xC104878 EQ PUSH2 0x2A4 JUMPI DUP1 PUSH4 0x130A8D80 EQ PUSH2 0x2B7 JUMPI DUP1 PUSH4 0x173AC141 EQ PUSH2 0x2D7 JUMPI DUP1 PUSH4 0x18160DDD EQ PUSH2 0x2EE JUMPI DUP1 PUSH4 0x1BDD4B74 EQ PUSH2 0x2F6 JUMPI PUSH1 0x0 DUP1 REVERT JUMPDEST DUP1 PUSH4 0x1FFC9A7 EQ PUSH2 0x22C JUMPI DUP1 PUSH4 0x6FDDE03 EQ PUSH2 0x255 JUMPI DUP1 PUSH4 0x81812FC EQ PUSH2 0x26A JUMPI DUP1 PUSH4 0x95EA7B3 EQ PUSH2 0x290 JUMPI JUMPDEST PUSH1 0x0 DUP1 REVERT JUMPDEST PUSH2 0x240 PUSH2 0x23A CALLDATASIZE PUSH1 0x4 PUSH2 0x1BB1 JUMP JUMPDEST POP PUSH1 0x0 SWAP1 JUMP JUMPDEST PUSH1 0x40 MLOAD SWAP1 ISZERO ISZERO DUP2 MSTORE PUSH1 0x20 ADD JUMPDEST PUSH1 0x40 MLOAD DUP1 SWAP2 SUB SWAP1 RETURN JUMPDEST PUSH2 0x25D PUSH2 0x5D9 JUMP JUMPDEST PUSH1 0x40 MLOAD PUSH2 0x24C SWAP2 SWAP1 PUSH2 0x1DCA JUMP JUMPDEST PUSH2 0x278 PUSH2 0x23A CALLDATASIZE PUSH1 0x4 PUSH2 0x1BF8 JUMP JUMPDEST PUSH1 0x40 MLOAD PUSH1 0x1 PUSH1 0x1 PUSH1 0xA0 SHL SUB SWAP1 SWAP2 AND DUP2 MSTORE PUSH1 0x20 ADD PUSH2 0x24C JUMP JUMPDEST PUSH2 0x2A2 PUSH2 0x29E CALLDATASIZE PUSH1 0x4 PUSH2 0x1B87 JUMP JUMPDEST POP POP JUMP JUMPDEST STOP JUMPDEST PUSH2 0x2A2 PUSH2 0x2B2 CALLDATASIZE PUSH1 0x4 PUSH2 0x1B34 JUMP JUMPDEST PUSH2 0x66B JUMP JUMPDEST PUSH2 0x2CA PUSH2 0x2C5 CALLDATASIZE PUSH1 0x4 PUSH2 0x1BF8 JUMP JUMPDEST PUSH2 0x6D6 JUMP JUMPDEST PUSH1 0x40 MLOAD PUSH2 0x24C SWAP2 SWAP1 PUSH2 0x1DDD JUMP JUMPDEST PUSH2 0x2E0 PUSH1 0xC SLOAD DUP2 JUMP JUMPDEST PUSH1 0x40 MLOAD SWAP1 DUP2 MSTORE PUSH1 0x20 ADD PUSH2 0x24C JUMP JUMPDEST PUSH2 0x2E0 PUSH2 0x7C3 JUMP JUMPDEST PUSH2 0x309 PUSH2 0x304 CALLDATASIZE PUSH1 0x4 PUSH2 0x1BF8 JUMP JUMPDEST PUSH2 0x7D3 JUMP JUMPDEST PUSH1 0x40 DUP1 MLOAD SWAP7 DUP8 MSTORE PUSH1 0x20 DUP8 ADD SWAP6 SWAP1 SWAP6 MSTORE PUSH1 0x0 SWAP4 SWAP1 SWAP4 SIGNEXTEND SWAP4 DUP6 ADD SWAP4 SWAP1 SWAP4 MSTORE PUSH1 0x60 DUP5 ADD MSTORE PUSH1 0x80 DUP4 ADD SWAP2 SWAP1 SWAP2 MSTORE ISZERO ISZERO PUSH1 0xA0 DUP3 ADD MSTORE PUSH1 0xC0 ADD PUSH2 0x24C JUMP JUMPDEST PUSH2 0x2A2 PUSH2 0x34F CALLDATASIZE PUSH1 0x4 PUSH2 0x1A52 JUMP JUMPDEST POP POP POP JUMP JUMPDEST PUSH2 0x2E0 PUSH1 0x3 SLOAD DUP2 JUMP JUMPDEST PUSH2 0x25D PUSH2 0x36B CALLDATASIZE PUSH1 0x4 PUSH2 0x1BF8 JUMP JUMPDEST PUSH2 0x87B JUMP JUMPDEST PUSH2 0x2E0 PUSH2 0x37E CALLDATASIZE PUSH1 0x4 PUSH2 0x1BF8 JUMP JUMPDEST PUSH2 0x93E JUMP JUMPDEST PUSH2 0x2E0 PUSH2 0x391 CALLDATASIZE PUSH1 0x4 PUSH2 0x1BF8 JUMP JUMPDEST PUSH1 0x0 SWAP1 DUP2 MSTORE PUSH1 0x7 PUSH1 0x20 MSTORE PUSH1 0x40 SWAP1 KECCAK256 SLOAD SWAP1 JUMP JUMPDEST PUSH2 0x309 PUSH2 0x3B1 CALLDATASIZE PUSH1 0x4 PUSH2 0x1C36 JUMP JUMPDEST PUSH2 0x982 JUMP JUMPDEST PUSH2 0x278 PUSH2 0x3C4 CALLDATASIZE PUSH1 0x4 PUSH2 0x1BF8 JUMP JUMPDEST PUSH2 0x9FA JUMP JUMPDEST PUSH2 0x2E0 PUSH2 0x3D7 CALLDATASIZE PUSH1 0x4 PUSH2 0x1A04 JUMP JUMPDEST PUSH2 0xA19 JUMP JUMPDEST PUSH2 0x2E0 PUSH2 0x3EA CALLDATASIZE PUSH1 0x4 PUSH2 0x1A04 JUMP JUMPDEST PUSH2 0xA24 JUMP JUMPDEST PUSH2 0x240 PUSH2 0x3FD CALLDATASIZE PUSH1 0x4 PUSH2 0x1BF8 JUMP JUMPDEST PUSH2 0xA42 JUMP JUMPDEST PUSH2 0x2E0 PUSH1 0x2 SLOAD DUP2 JUMP JUMPDEST PUSH2 0x41E PUSH2 0x419 CALLDATASIZE PUSH1 0x4 PUSH2 0x1CB8 JUMP JUMPDEST PUSH2 0xAD8 JUMP JUMPDEST PUSH1 0x40 MLOAD PUSH1 0x0 SWAP2 SWAP1 SWAP2 SIGNEXTEND DUP2 MSTORE PUSH1 0x20 ADD PUSH2 0x24C JUMP JUMPDEST PUSH2 0x25D PUSH2 0xB28 JUMP JUMPDEST PUSH2 0x2A2 PUSH2 0x447 CALLDATASIZE PUSH1 0x4 PUSH2 0x1BF8 JUMP JUMPDEST PUSH2 0xB37 JUMP JUMPDEST PUSH2 0x2A2 PUSH2 0x29E CALLDATASIZE PUSH1 0x4 PUSH2 0x1AFD JUMP JUMPDEST PUSH2 0x2A2 PUSH2 0x468 CALLDATASIZE PUSH1 0x4 PUSH2 0x1BF8 JUMP JUMPDEST PUSH2 0xBA8 JUMP JUMPDEST PUSH2 0x2E0 PUSH1 0x1 SLOAD DUP2 JUMP JUMPDEST PUSH2 0x2A2 PUSH2 0x484 CALLDATASIZE PUSH1 0x4 PUSH2 0x1A8E JUMP JUMPDEST POP POP POP POP POP JUMP JUMPDEST PUSH2 0x25D PUSH2 0x499 CALLDATASIZE PUSH1 0x4 PUSH2 0x1BF8 JUMP JUMPDEST PUSH2 0xCA9 JUMP JUMPDEST PUSH2 0x51D PUSH2 0x4AC CALLDATASIZE PUSH1 0x4 PUSH2 0x1BF8 JUMP JUMPDEST PUSH1 0x40 DUP1 MLOAD PUSH1 0x80 DUP1 DUP3 ADD DUP4 MSTORE PUSH1 0x0 DUP1 DUP4 MSTORE PUSH1 0x20 DUP1 DUP5 ADD DUP3 SWAP1 MSTORE DUP4 DUP6 ADD DUP3 SWAP1 MSTORE PUSH1 0x60 SWAP4 DUP5 ADD DUP3 SWAP1 MSTORE SWAP5 DUP2 MSTORE PUSH1 0x8 DUP6 MSTORE DUP4 SWAP1 KECCAK256 DUP4 MLOAD SWAP2 DUP3 ADD DUP5 MSTORE DUP1 SLOAD PUSH1 0x1 PUSH1 0x1 PUSH1 0xA0 SHL SUB AND DUP3 MSTORE PUSH1 0x1 DUP2 ADD SLOAD SWAP5 DUP3 ADD SWAP5 SWAP1 SWAP5 MSTORE PUSH1 0x2 DUP5 ADD SLOAD PUSH1 0xFF AND ISZERO ISZERO SWAP3 DUP2 ADD SWAP3 SWAP1 SWAP3 MSTORE PUSH1 0x3 SWAP1 SWAP3 ADD SLOAD SWAP2 DUP2 ADD SWAP2 SWAP1 SWAP2 MSTORE SWAP1 JUMP JUMPDEST PUSH1 0x40 MLOAD PUSH2 0x24C SWAP2 SWAP1 DUP2 MLOAD PUSH1 0x1 PUSH1 0x1 PUSH1 0xA0 SHL SUB AND DUP2 MSTORE PUSH1 0x20 DUP1 DUP4 ADD MLOAD SWAP1 DUP3 ADD MSTORE PUSH1 0x40 DUP1 DUP4 ADD MLOAD ISZERO ISZERO SWAP1 DUP3 ADD MSTORE PUSH1 0x60 SWAP2 DUP3 ADD MLOAD SWAP2 DUP2 ADD SWAP2 SWAP1 SWAP2 MSTORE PUSH1 0x80 ADD SWAP1 JUMP JUMPDEST PUSH2 0x41E PUSH2 0x569 CALLDATASIZE PUSH1 0x4 PUSH2 0x1C36 JUMP JUMPDEST PUSH2 0xD91 JUMP JUMPDEST PUSH2 0x2A2 PUSH2 0x57C CALLDATASIZE PUSH1 0x4 PUSH2 0x1C36 JUMP JUMPDEST PUSH2 0xE20 JUMP JUMPDEST PUSH2 0x240 PUSH2 0x58F CALLDATASIZE PUSH1 0x4 PUSH2 0x1A1F JUMP JUMPDEST PUSH1 0x0 SWAP3 SWAP2 POP POP JUMP JUMPDEST PUSH2 0x2A2 PUSH2 0x5A5 CALLDATASIZE PUSH1 0x4 PUSH2 0x1C11 JUMP JUMPDEST PUSH2 0xE38 JUMP JUMPDEST PUSH2 0x240 PUSH2 0x5B8 CALLDATASIZE PUSH1 0x4 PUSH2 0x1C36 JUMP JUMPDEST PUSH2 0xFE8 JUMP JUMPDEST PUSH2 0x2A2 PUSH2 0x5CB CALLDATASIZE PUSH1 0x4 PUSH2 0x1BF8 JUMP JUMPDEST PUSH2 0x109D JUMP JUMPDEST PUSH2 0x2E0 PUSH1 0x0 SLOAD DUP2 JUMP JUMPDEST PUSH1 0x60 PUSH1 0x6 DUP1 SLOAD PUSH2 0x5E8 SWAP1 PUSH2 0x1E6A JUMP JUMPDEST DUP1 PUSH1 0x1F ADD PUSH1 0x20 DUP1 SWAP2 DIV MUL PUSH1 0x20 ADD PUSH1 0x40 MLOAD SWAP1 DUP2 ADD PUSH1 0x40 MSTORE DUP1 SWAP3 SWAP2 SWAP1 DUP2 DUP2 MSTORE PUSH1 0x20 ADD DUP3 DUP1 SLOAD PUSH2 0x614 SWAP1 PUSH2 0x1E6A JUMP JUMPDEST DUP1 ISZERO PUSH2 0x661 JUMPI DUP1 PUSH1 0x1F LT PUSH2 0x636 JUMPI PUSH2 0x100 DUP1 DUP4 SLOAD DIV MUL DUP4 MSTORE SWAP2 PUSH1 0x20 ADD SWAP2 PUSH2 0x661 JUMP JUMPDEST DUP3 ADD SWAP2 SWAP1 PUSH1 0x0 MSTORE PUSH1 0x20 PUSH1 0x0 KECCAK256 SWAP1 JUMPDEST DUP2 SLOAD DUP2 MSTORE SWAP1 PUSH1 0x1 ADD SWAP1 PUSH1 0x20 ADD DUP1 DUP4 GT PUSH2 0x644 JUMPI DUP3 SWAP1 SUB PUSH1 0x1F AND DUP3 ADD SWAP2 JUMPDEST POP POP POP POP POP SWAP1 POP SWAP1 JUMP JUMPDEST PUSH1 0x0 PUSH2 0x68D CALLER JUMPDEST PUSH1 0x1 PUSH1 0x1 PUSH1 0xA0 SHL SUB AND PUSH1 0x0 SWAP1 DUP2 MSTORE PUSH1 0x9 PUSH1 0x20 MSTORE PUSH1 0x40 SWAP1 KECCAK256 SLOAD SWAP1 JUMP JUMPDEST SWAP1 POP PUSH2 0x6D0 DUP2 DUP6 DUP6 DUP6 DUP1 DUP1 PUSH1 0x1F ADD PUSH1 0x20 DUP1 SWAP2 DIV MUL PUSH1 0x20 ADD PUSH1 0x40 MLOAD SWAP1 DUP2 ADD PUSH1 0x40 MSTORE DUP1 SWAP4 SWAP3 SWAP2 SWAP1 DUP2 DUP2 MSTORE PUSH1 0x20 ADD DUP4 DUP4 DUP1 DUP3 DUP5 CALLDATACOPY PUSH1 0x0 SWAP3 ADD SWAP2 SWAP1 SWAP2 MSTORE POP PUSH2 0x10B4 SWAP3 POP POP POP JUMP JUMPDEST POP POP POP POP JUMP JUMPDEST PUSH1 0x40 DUP1 MLOAD DUP1 DUP3 ADD DUP3 MSTORE PUSH1 0x60 DUP2 MSTORE PUSH1 0x0 PUSH1 0x20 DUP1 DUP4 ADD DUP3 SWAP1 MSTORE DUP5 DUP3 MSTORE PUSH1 0x8 DUP2 MSTORE DUP4 DUP3 KECCAK256 PUSH1 0x1 SWAP1 DUP2 ADD SLOAD DUP1 DUP5 MSTORE PUSH1 0x7 DUP4 MSTORE DUP6 DUP5 KECCAK256 DUP8 DUP6 MSTORE SWAP1 SWAP2 ADD SWAP1 SWAP2 MSTORE SWAP1 DUP4 SWAP1 KECCAK256 DUP4 MLOAD DUP1 DUP6 ADD SWAP1 SWAP5 MSTORE DUP1 SLOAD SWAP3 SWAP4 SWAP2 SWAP3 DUP3 SWAP1 DUP3 SWAP1 PUSH2 0x72F SWAP1 PUSH2 0x1E6A JUMP JUMPDEST DUP1 PUSH1 0x1F ADD PUSH1 0x20 DUP1 SWAP2 DIV MUL PUSH1 0x20 ADD PUSH1 0x40 MLOAD SWAP1 DUP2 ADD PUSH1 0x40 MSTORE DUP1 SWAP3 SWAP2 SWAP1 DUP2 DUP2 MSTORE PUSH1 0x20 ADD DUP3 DUP1 SLOAD PUSH2 0x75B SWAP1 PUSH2 0x1E6A JUMP JUMPDEST DUP1 ISZERO PUSH2 0x7A8 JUMPI DUP1 PUSH1 0x1F LT PUSH2 0x77D JUMPI PUSH2 0x100 DUP1 DUP4 SLOAD DIV MUL DUP4 MSTORE SWAP2 PUSH1 0x20 ADD SWAP2 PUSH2 0x7A8 JUMP JUMPDEST DUP3 ADD SWAP2 SWAP1 PUSH1 0x0 MSTORE PUSH1 0x20 PUSH1 0x0 KECCAK256 SWAP1 JUMPDEST DUP2 SLOAD DUP2 MSTORE SWAP1 PUSH1 0x1 ADD SWAP1 PUSH1 0x20 ADD DUP1 DUP4 GT PUSH2 0x78B JUMPI DUP3 SWAP1 SUB PUSH1 0x1F AND DUP3 ADD SWAP2 JUMPDEST POP POP POP POP POP DUP2 MSTORE PUSH1 0x20 ADD PUSH1 0x1 DUP3 ADD SLOAD DUP2 MSTORE POP POP SWAP2 POP POP SWAP2 SWAP1 POP JUMP JUMPDEST PUSH1 0x0 PUSH2 0x7CE PUSH1 0xB SLOAD SWAP1 JUMP JUMPDEST SWAP1 POP SWAP1 JUMP JUMPDEST PUSH1 0x0 DUP2 DUP2 MSTORE PUSH1 0x8 PUSH1 0x20 MSTORE PUSH1 0x40 DUP1 DUP3 KECCAK256 PUSH1 0x3 ADD SLOAD SWAP1 MLOAD PUSH4 0x5E3BEE73 PUSH1 0xE0 SHL DUP2 MSTORE PUSH1 0x4 DUP2 ADD DUP5 SWAP1 MSTORE PUSH1 0x24 DUP2 ADD DUP3 SWAP1 MSTORE DUP3 SWAP2 DUP3 SWAP2 DUP3 SWAP2 DUP3 SWAP2 DUP3 SWAP2 SWAP1 ADDRESS SWAP1 PUSH4 0x5E3BEE73 SWAP1 PUSH1 0x44 ADD PUSH1 0xC0 PUSH1 0x40 MLOAD DUP1 DUP4 SUB DUP2 DUP7 DUP1 EXTCODESIZE ISZERO DUP1 ISZERO PUSH2 0x82E JUMPI PUSH1 0x0 DUP1 REVERT JUMPDEST POP GAS STATICCALL ISZERO DUP1 ISZERO PUSH2 0x842 JUMPI RETURNDATASIZE PUSH1 0x0 DUP1 RETURNDATACOPY RETURNDATASIZE PUSH1 0x0 REVERT JUMPDEST POP POP POP POP PUSH1 0x40 MLOAD RETURNDATASIZE PUSH1 0x1F NOT PUSH1 0x1F DUP3 ADD AND DUP3 ADD DUP1 PUSH1 0x40 MSTORE POP DUP2 ADD SWAP1 PUSH2 0x866 SWAP2 SWAP1 PUSH2 0x1C58 JUMP JUMPDEST SWAP5 SWAP14 SWAP4 SWAP13 POP SWAP2 SWAP11 POP SWAP9 POP SWAP7 POP SWAP1 SWAP5 POP SWAP3 POP POP POP JUMP JUMPDEST PUSH1 0x0 DUP2 DUP2 MSTORE PUSH1 0x8 PUSH1 0x20 SWAP1 DUP2 MSTORE PUSH1 0x40 DUP1 DUP4 KECCAK256 PUSH1 0x1 SWAP1 DUP2 ADD SLOAD DUP1 DUP6 MSTORE PUSH1 0x7 DUP5 MSTORE DUP3 DUP6 KECCAK256 DUP7 DUP7 MSTORE SWAP1 SWAP2 ADD SWAP1 SWAP3 MSTORE SWAP1 SWAP2 KECCAK256 DUP1 SLOAD PUSH1 0x60 SWAP3 SWAP2 SWAP1 PUSH2 0x8B8 SWAP1 PUSH2 0x1E6A JUMP JUMPDEST DUP1 PUSH1 0x1F ADD PUSH1 0x20 DUP1 SWAP2 DIV MUL PUSH1 0x20 ADD PUSH1 0x40 MLOAD SWAP1 DUP2 ADD PUSH1 0x40 MSTORE DUP1 SWAP3 SWAP2 SWAP1 DUP2 DUP2 MSTORE PUSH1 0x20 ADD DUP3 DUP1 SLOAD PUSH2 0x8E4 SWAP1 PUSH2 0x1E6A JUMP JUMPDEST DUP1 ISZERO PUSH2 0x931 JUMPI DUP1 PUSH1 0x1F LT PUSH2 0x906 JUMPI PUSH2 0x100 DUP1 DUP4 SLOAD DIV MUL DUP4 MSTORE SWAP2 PUSH1 0x20 ADD SWAP2 PUSH2 0x931 JUMP JUMPDEST DUP3 ADD SWAP2 SWAP1 PUSH1 0x0 MSTORE PUSH1 0x20 PUSH1 0x0 KECCAK256 SWAP1 JUMPDEST DUP2 SLOAD DUP2 MSTORE SWAP1 PUSH1 0x1 ADD SWAP1 PUSH1 0x20 ADD DUP1 DUP4 GT PUSH2 0x914 JUMPI DUP3 SWAP1 SUB PUSH1 0x1F AND DUP3 ADD SWAP2 JUMPDEST POP POP POP POP POP SWAP2 POP POP SWAP2 SWAP1 POP JUMP JUMPDEST PUSH1 0x0 DUP2 DUP2 MSTORE PUSH1 0x8 PUSH1 0x20 SWAP1 DUP2 MSTORE PUSH1 0x40 DUP1 DUP4 KECCAK256 PUSH1 0x1 ADD SLOAD DUP1 DUP5 MSTORE PUSH1 0x7 SWAP1 SWAP3 MSTORE DUP3 KECCAK256 DUP1 SLOAD PUSH1 0x3 SLOAD DUP4 EQ ISZERO PUSH2 0x97A JUMPI DUP2 SLOAD PUSH2 0x977 SWAP1 PUSH1 0x1 SWAP1 PUSH2 0x1E27 JUMP JUMPDEST SWAP1 POP JUMPDEST SWAP5 SWAP4 POP POP POP POP JUMP JUMPDEST PUSH1 0x0 DUP1 PUSH1 0x0 DUP1 PUSH1 0x0 DUP1 PUSH1 0x0 PUSH1 0xA PUSH1 0x0 DUP11 DUP2 MSTORE PUSH1 0x20 ADD SWAP1 DUP2 MSTORE PUSH1 0x20 ADD PUSH1 0x0 KECCAK256 DUP9 DUP2 SLOAD DUP2 LT PUSH2 0x9B1 JUMPI PUSH2 0x9B1 PUSH2 0x1EEC JUMP JUMPDEST PUSH1 0x0 SWAP2 DUP3 MSTORE PUSH1 0x20 DUP3 KECCAK256 PUSH1 0x6 SWAP2 SWAP1 SWAP2 MUL ADD PUSH1 0x1 DUP2 ADD SLOAD PUSH1 0x2 DUP3 ADD SLOAD DUP3 SLOAD PUSH1 0x4 DUP5 ADD SLOAD PUSH1 0x5 SWAP1 SWAP5 ADD SLOAD SWAP3 SWAP15 SWAP2 SWAP14 POP PUSH2 0x100 DUP2 DIV SWAP1 SWAP5 SIGNEXTEND SWAP12 POP SWAP2 SWAP10 POP SWAP8 POP PUSH1 0xFF SWAP1 SWAP2 AND SWAP6 POP SWAP4 POP POP POP POP JUMP JUMPDEST PUSH1 0x0 DUP2 DUP2 MSTORE PUSH1 0x8 PUSH1 0x20 MSTORE PUSH1 0x40 DUP2 KECCAK256 SLOAD PUSH1 0x1 PUSH1 0x1 PUSH1 0xA0 SHL SUB AND JUMPDEST SWAP3 SWAP2 POP POP JUMP JUMPDEST PUSH1 0x0 PUSH2 0xA13 DUP3 PUSH2 0x1258 JUMP JUMPDEST PUSH1 0x1 PUSH1 0x1 PUSH1 0xA0 SHL SUB DUP2 AND PUSH1 0x0 SWAP1 DUP2 MSTORE PUSH1 0x9 PUSH1 0x20 MSTORE PUSH1 0x40 DUP2 KECCAK256 SLOAD PUSH2 0xA13 JUMP JUMPDEST PUSH1 0x0 DUP2 DUP2 MSTORE PUSH1 0x8 PUSH1 0x20 SWAP1 DUP2 MSTORE PUSH1 0x40 DUP1 DUP4 KECCAK256 DUP2 MLOAD PUSH1 0x80 DUP2 ADD DUP4 MSTORE DUP2 SLOAD PUSH1 0x1 PUSH1 0x1 PUSH1 0xA0 SHL SUB AND DUP2 MSTORE PUSH1 0x1 DUP1 DUP4 ADD SLOAD DUP3 DUP7 ADD DUP2 SWAP1 MSTORE PUSH1 0x2 DUP5 ADD SLOAD PUSH1 0xFF AND ISZERO ISZERO DUP4 DUP7 ADD MSTORE PUSH1 0x3 SWAP1 SWAP4 ADD SLOAD PUSH1 0x60 DUP4 ADD MSTORE SWAP2 DUP6 MSTORE PUSH1 0x7 DUP5 MSTORE DUP3 DUP6 KECCAK256 DUP7 DUP7 MSTORE DUP3 ADD SWAP1 SWAP4 MSTORE SWAP1 DUP4 KECCAK256 ADD SLOAD DUP3 DUP2 ISZERO DUP1 PUSH2 0xABE JUMPI POP PUSH1 0x0 SLOAD PUSH2 0xABA SWAP1 DUP4 PUSH2 0x1E0F JUMP JUMPDEST TIMESTAMP GT ISZERO JUMPDEST SWAP1 POP DUP1 ISZERO DUP1 ISZERO PUSH2 0xACF JUMPI POP DUP3 PUSH1 0x40 ADD MLOAD JUMPDEST SWAP6 SWAP5 POP POP POP POP POP JUMP JUMPDEST PUSH1 0x0 DUP4 DUP2 MSTORE PUSH1 0xA PUSH1 0x20 MSTORE PUSH1 0x40 DUP2 KECCAK256 DUP1 SLOAD DUP3 SWAP2 SWAP1 DUP5 SWAP1 DUP2 LT PUSH2 0xAFB JUMPI PUSH2 0xAFB PUSH2 0x1EEC JUMP JUMPDEST PUSH1 0x0 SWAP2 DUP3 MSTORE PUSH1 0x20 DUP1 DUP4 KECCAK256 DUP8 DUP5 MSTORE PUSH1 0x3 PUSH1 0x6 SWAP1 SWAP4 MUL ADD SWAP2 SWAP1 SWAP2 ADD SWAP1 MSTORE PUSH1 0x40 DUP2 KECCAK256 SLOAD SWAP1 SIGNEXTEND SWAP2 POP POP JUMPDEST SWAP4 SWAP3 POP POP POP JUMP JUMPDEST PUSH1 0x60 PUSH1 0x5 DUP1 SLOAD PUSH2 0x5E8 SWAP1 PUSH2 0x1E6A JUMP JUMPDEST PUSH1 0x0 DUP2 DUP2 MSTORE PUSH1 0x8 PUSH1 0x20 MSTORE PUSH1 0x40 DUP1 DUP3 KECCAK256 PUSH1 0x1 ADD SLOAD DUP1 DUP4 MSTORE SWAP2 KECCAK256 PUSH1 0x2 ADD SLOAD PUSH1 0xFF AND ISZERO PUSH2 0xB74 JUMPI PUSH1 0x40 MLOAD PUSH4 0x6425D3F PUSH1 0xE2 SHL DUP2 MSTORE PUSH1 0x4 ADD PUSH1 0x40 MLOAD DUP1 SWAP2 SUB SWAP1 REVERT JUMPDEST PUSH1 0x40 MLOAD DUP3 SWAP1 PUSH32 0x946CCF7529D18D55B60565307325EAA52971532B461C039424DB6A003D5791D6 SWAP1 PUSH1 0x0 SWAP1 LOG2 PUSH2 0x29E DUP3 PUSH2 0x12A9 JUMP JUMPDEST PUSH2 0xBB1 DUP2 PUSH2 0xA42 JUMP JUMPDEST ISZERO PUSH2 0xBCF JUMPI PUSH1 0x40 MLOAD PUSH4 0x1994E321 PUSH1 0xE3 SHL DUP2 MSTORE PUSH1 0x4 ADD PUSH1 0x40 MLOAD DUP1 SWAP2 SUB SWAP1 REVERT JUMPDEST PUSH1 0x0 DUP2 DUP2 MSTORE PUSH1 0x8 PUSH1 0x20 MSTORE PUSH1 0x40 SWAP1 KECCAK256 PUSH1 0x2 ADD SLOAD PUSH1 0xFF AND PUSH2 0xC01 JUMPI PUSH1 0x40 MLOAD PUSH4 0x3C1391FD PUSH1 0xE1 SHL DUP2 MSTORE PUSH1 0x4 ADD PUSH1 0x40 MLOAD DUP1 SWAP2 SUB SWAP1 REVERT JUMPDEST PUSH1 0x0 PUSH2 0xC0C DUP3 PUSH2 0x1383 JUMP JUMPDEST PUSH1 0x1 DUP2 ADD SLOAD SWAP1 SWAP2 POP ISZERO PUSH2 0xC32 JUMPI PUSH1 0x40 MLOAD PUSH4 0xD92060F3 PUSH1 0xE0 SHL DUP2 MSTORE PUSH1 0x4 ADD PUSH1 0x40 MLOAD DUP1 SWAP2 SUB SWAP1 REVERT JUMPDEST DUP1 SLOAD PUSH1 0xFF AND ISZERO PUSH2 0xC55 JUMPI PUSH1 0x40 MLOAD PUSH4 0x4DC137DD PUSH1 0xE1 SHL DUP2 MSTORE PUSH1 0x4 ADD PUSH1 0x40 MLOAD DUP1 SWAP2 SUB SWAP1 REVERT JUMPDEST TIMESTAMP PUSH1 0x1 DUP1 DUP4 ADD DUP3 SWAP1 SSTORE SLOAD PUSH2 0xC68 SWAP2 PUSH2 0x1E0F JUMP JUMPDEST PUSH1 0x2 DUP3 ADD SSTORE DUP1 SLOAD PUSH2 0xFF00 NOT AND PUSH2 0xFF00 OR DUP2 SSTORE PUSH1 0x40 MLOAD DUP3 SWAP1 PUSH32 0xFB4749A8BF40D9D3F0FBE28026FEDBE06DC90952EBA3759C2B3EC0A7D5697F31 SWAP1 PUSH1 0x0 SWAP1 LOG2 POP POP JUMP JUMPDEST PUSH1 0x0 DUP2 DUP2 MSTORE PUSH1 0x8 PUSH1 0x20 SWAP1 DUP2 MSTORE PUSH1 0x40 DUP1 DUP4 KECCAK256 PUSH1 0x1 SWAP1 DUP2 ADD SLOAD DUP1 DUP6 MSTORE PUSH1 0x7 DUP5 MSTORE DUP3 DUP6 KECCAK256 DUP7 DUP7 MSTORE SWAP1 SWAP2 ADD SWAP1 SWAP3 MSTORE DUP3 KECCAK256 DUP1 SLOAD PUSH1 0x60 SWAP4 SWAP2 SWAP1 PUSH2 0xCE5 SWAP1 PUSH2 0x1E6A JUMP JUMPDEST DUP1 PUSH1 0x1F ADD PUSH1 0x20 DUP1 SWAP2 DIV MUL PUSH1 0x20 ADD PUSH1 0x40 MLOAD SWAP1 DUP2 ADD PUSH1 0x40 MSTORE DUP1 SWAP3 SWAP2 SWAP1 DUP2 DUP2 MSTORE PUSH1 0x20 ADD DUP3 DUP1 SLOAD PUSH2 0xD11 SWAP1 PUSH2 0x1E6A JUMP JUMPDEST DUP1 ISZERO PUSH2 0xD5E JUMPI DUP1 PUSH1 0x1F LT PUSH2 0xD33 JUMPI PUSH2 0x100 DUP1 DUP4 SLOAD DIV MUL DUP4 MSTORE SWAP2 PUSH1 0x20 ADD SWAP2 PUSH2 0xD5E JUMP JUMPDEST DUP3 ADD SWAP2 SWAP1 PUSH1 0x0 MSTORE PUSH1 0x20 PUSH1 0x0 KECCAK256 SWAP1 JUMPDEST DUP2 SLOAD DUP2 MSTORE SWAP1 PUSH1 0x1 ADD SWAP1 PUSH1 0x20 ADD DUP1 DUP4 GT PUSH2 0xD41 JUMPI DUP3 SWAP1 SUB PUSH1 0x1F AND DUP3 ADD SWAP2 JUMPDEST POP POP POP POP POP SWAP1 POP PUSH1 0x4 DUP2 PUSH1 0x40 MLOAD PUSH1 0x20 ADD PUSH2 0xD79 SWAP3 SWAP2 SWAP1 PUSH2 0x1D2C JUMP JUMPDEST PUSH1 0x40 MLOAD PUSH1 0x20 DUP2 DUP4 SUB SUB DUP2 MSTORE SWAP1 PUSH1 0x40 MSTORE SWAP3 POP POP POP SWAP2 SWAP1 POP JUMP JUMPDEST PUSH1 0x0 DUP3 DUP2 MSTORE PUSH1 0x8 PUSH1 0x20 MSTORE PUSH1 0x40 DUP1 DUP3 KECCAK256 PUSH1 0x3 ADD SLOAD SWAP1 MLOAD PUSH4 0x4896D603 PUSH1 0xE1 SHL DUP2 MSTORE PUSH1 0x4 DUP2 ADD DUP6 SWAP1 MSTORE PUSH1 0x24 DUP2 ADD DUP5 SWAP1 MSTORE PUSH1 0x44 DUP2 ADD DUP3 SWAP1 MSTORE ADDRESS SWAP1 PUSH4 0x912DAC06 SWAP1 PUSH1 0x64 ADD PUSH1 0x20 PUSH1 0x40 MLOAD DUP1 DUP4 SUB DUP2 DUP7 DUP1 EXTCODESIZE ISZERO DUP1 ISZERO PUSH2 0xDE8 JUMPI PUSH1 0x0 DUP1 REVERT JUMPDEST POP GAS STATICCALL ISZERO DUP1 ISZERO PUSH2 0xDFC JUMPI RETURNDATASIZE PUSH1 0x0 DUP1 RETURNDATACOPY RETURNDATASIZE PUSH1 0x0 REVERT JUMPDEST POP POP POP POP PUSH1 0x40 MLOAD RETURNDATASIZE PUSH1 0x1F NOT PUSH1 0x1F DUP3 ADD AND DUP3 ADD DUP1 PUSH1 0x40 MSTORE POP DUP2 ADD SWAP1 PUSH2 0x97A SWAP2 SWAP1 PUSH2 0x1BDB JUMP JUMPDEST PUSH1 0x0 PUSH2 0xE2B DUP4 PUSH2 0x1383 JUMP JUMPDEST SWAP1 POP PUSH2 0x34F DUP4 DUP3 DUP5 PUSH2 0x1402 JUMP JUMPDEST PUSH1 0x0 PUSH2 0xE43 CALLER PUSH2 0x672 JUMP JUMPDEST SWAP1 POP PUSH1 0x0 PUSH2 0xE50 DUP5 PUSH2 0x1383 JUMP JUMPDEST SWAP1 POP DUP1 PUSH1 0x1 ADD SLOAD PUSH1 0x0 EQ ISZERO PUSH2 0xE78 JUMPI PUSH1 0x40 MLOAD PUSH4 0x1EB4F4E7 PUSH1 0xE0 SHL DUP2 MSTORE PUSH1 0x4 ADD PUSH1 0x40 MLOAD DUP1 SWAP2 SUB SWAP1 REVERT JUMPDEST DUP1 SLOAD PUSH1 0xFF AND ISZERO PUSH2 0xE9B JUMPI PUSH1 0x40 MLOAD PUSH4 0xA238277 PUSH1 0xE1 SHL DUP2 MSTORE PUSH1 0x4 ADD PUSH1 0x40 MLOAD DUP1 SWAP2 SUB SWAP1 REVERT JUMPDEST DUP1 PUSH1 0x2 ADD SLOAD TIMESTAMP GT ISZERO PUSH2 0xEC0 JUMPI PUSH1 0x40 MLOAD PUSH4 0x35C84AEB PUSH1 0xE2 SHL DUP2 MSTORE PUSH1 0x4 ADD PUSH1 0x40 MLOAD DUP1 SWAP2 SUB SWAP1 REVERT JUMPDEST PUSH2 0xECA DUP3 DUP6 PUSH2 0xFE8 JUMP JUMPDEST PUSH2 0xEE7 JUMPI PUSH1 0x40 MLOAD PUSH4 0x7CD1A649 PUSH1 0xE1 SHL DUP2 MSTORE PUSH1 0x4 ADD PUSH1 0x40 MLOAD DUP1 SWAP2 SUB SWAP1 REVERT JUMPDEST PUSH1 0x0 DUP3 DUP2 MSTORE PUSH1 0x3 DUP3 ADD PUSH1 0x20 MSTORE PUSH1 0x40 DUP2 KECCAK256 SLOAD DUP2 SIGNEXTEND SWAP1 SIGNEXTEND ISZERO PUSH2 0xF1A JUMPI PUSH1 0x40 MLOAD PUSH4 0x8601A095 PUSH1 0xE0 SHL DUP2 MSTORE PUSH1 0x4 ADD PUSH1 0x40 MLOAD DUP1 SWAP2 SUB SWAP1 REVERT JUMPDEST DUP3 PUSH1 0x0 SIGNEXTEND PUSH1 0x1 EQ PUSH2 0xF2D JUMPI PUSH1 0x0 NOT PUSH2 0xF30 JUMP JUMPDEST PUSH1 0x1 JUMPDEST PUSH1 0x0 DUP4 DUP2 MSTORE PUSH1 0x3 DUP4 ADD PUSH1 0x20 MSTORE PUSH1 0x40 DUP2 KECCAK256 DUP1 SLOAD SWAP3 DUP3 SIGNEXTEND PUSH1 0xFF AND PUSH1 0xFF NOT SWAP1 SWAP4 AND SWAP3 SWAP1 SWAP3 OR SWAP1 SWAP2 SSTORE PUSH1 0x4 DUP3 ADD DUP1 SLOAD PUSH1 0x1 SWAP3 SWAP1 PUSH2 0xF6A SWAP1 DUP5 SWAP1 PUSH2 0x1E0F JUMP JUMPDEST SWAP1 SWAP2 SSTORE POP POP PUSH1 0x1 PUSH1 0x0 DUP5 SWAP1 SIGNEXTEND EQ PUSH2 0xF82 JUMPI PUSH1 0x0 PUSH2 0xF85 JUMP JUMPDEST PUSH1 0x1 JUMPDEST PUSH1 0xFF AND DUP2 PUSH1 0x5 ADD PUSH1 0x0 DUP3 DUP3 SLOAD PUSH2 0xF9B SWAP2 SWAP1 PUSH2 0x1E0F JUMP JUMPDEST SWAP1 SWAP2 SSTORE POP POP PUSH1 0x40 DUP1 MLOAD DUP6 DUP2 MSTORE PUSH1 0x0 DUP6 SWAP1 SIGNEXTEND PUSH1 0x20 DUP3 ADD MSTORE DUP4 SWAP2 PUSH32 0xBDC899FF9789426DEC6B3C3BC128ED8CC0A9B248C274DD93CFDB3709E5A2125E SWAP2 ADD PUSH1 0x40 MLOAD DUP1 SWAP2 SUB SWAP1 LOG2 PUSH2 0x6D0 DUP2 DUP6 PUSH2 0x14EB JUMP JUMPDEST PUSH1 0x0 DUP2 DUP4 EQ ISZERO PUSH2 0xFFA JUMPI POP PUSH1 0x0 PUSH2 0xA13 JUMP JUMPDEST DUP3 PUSH2 0x1007 JUMPI POP PUSH1 0x0 PUSH2 0xA13 JUMP JUMPDEST PUSH1 0x0 DUP3 DUP2 MSTORE PUSH1 0x8 PUSH1 0x20 MSTORE PUSH1 0x40 DUP1 DUP3 KECCAK256 PUSH1 0x1 ADD SLOAD DUP1 DUP4 MSTORE SWAP2 KECCAK256 PUSH1 0x2 ADD SLOAD PUSH1 0xFF AND PUSH2 0x1043 JUMPI PUSH1 0x40 MLOAD PUSH4 0xB0B9DA2D PUSH1 0xE0 SHL DUP2 MSTORE PUSH1 0x4 ADD PUSH1 0x40 MLOAD DUP1 SWAP2 SUB SWAP1 REVERT JUMPDEST PUSH1 0x0 DUP5 DUP2 MSTORE PUSH1 0x8 PUSH1 0x20 MSTORE PUSH1 0x40 DUP2 KECCAK256 PUSH1 0x1 ADD SLOAD DUP3 EQ DUP1 PUSH2 0x1061 JUMPI POP DUP2 DUP6 EQ JUMPDEST PUSH1 0x0 DUP7 DUP2 MSTORE PUSH1 0x8 PUSH1 0x20 MSTORE PUSH1 0x40 SWAP1 KECCAK256 PUSH1 0x2 ADD SLOAD SWAP1 SWAP2 POP PUSH1 0xFF AND DUP1 ISZERO PUSH2 0x1082 JUMPI POP DUP1 JUMPDEST ISZERO PUSH2 0x1092 JUMPI PUSH1 0x1 SWAP3 POP POP POP PUSH2 0xA13 JUMP JUMPDEST POP PUSH1 0x0 SWAP5 SWAP4 POP POP POP POP JUMP JUMPDEST PUSH1 0x0 PUSH2 0x10A8 DUP3 PUSH2 0x1383 JUMP JUMPDEST SWAP1 POP PUSH2 0x29E DUP2 DUP4 PUSH2 0x14EB JUMP JUMPDEST PUSH1 0x0 PUSH2 0x10BE PUSH2 0x1735 JUMP JUMPDEST PUSH1 0x0 DUP6 DUP2 MSTORE PUSH1 0x8 PUSH1 0x20 MSTORE PUSH1 0x40 SWAP1 KECCAK256 PUSH1 0x2 ADD SLOAD SWAP1 SWAP2 POP PUSH1 0xFF AND PUSH2 0x10F3 JUMPI PUSH1 0x40 MLOAD PUSH4 0x119AB1C9 PUSH1 0xE1 SHL DUP2 MSTORE PUSH1 0x4 ADD PUSH1 0x40 MLOAD DUP1 SWAP2 SUB SWAP1 REVERT JUMPDEST PUSH1 0x1 PUSH1 0x1 PUSH1 0xA0 SHL SUB DUP4 AND PUSH1 0x0 SWAP1 DUP2 MSTORE PUSH1 0x9 PUSH1 0x20 MSTORE PUSH1 0x40 SWAP1 KECCAK256 SLOAD ISZERO PUSH2 0x112A JUMPI PUSH1 0x40 MLOAD PUSH4 0xCB502EF1 PUSH1 0xE0 SHL DUP2 MSTORE PUSH1 0x4 ADD PUSH1 0x40 MLOAD DUP1 SWAP2 SUB SWAP1 REVERT JUMPDEST PUSH1 0x0 DUP5 DUP2 MSTORE PUSH1 0x7 PUSH1 0x20 SWAP1 DUP2 MSTORE PUSH1 0x40 DUP1 DUP4 KECCAK256 DUP5 DUP5 MSTORE PUSH1 0x1 DUP2 ADD DUP4 MSTORE SWAP3 KECCAK256 DUP5 MLOAD SWAP1 SWAP2 PUSH2 0x1158 SWAP2 DUP4 SWAP2 DUP8 ADD SWAP1 PUSH2 0x1906 JUMP JUMPDEST POP TIMESTAMP PUSH1 0x1 DUP3 DUP2 ADD SWAP2 SWAP1 SWAP2 SSTORE PUSH1 0x0 DUP5 DUP2 MSTORE PUSH1 0x8 PUSH1 0x20 SWAP1 DUP2 MSTORE PUSH1 0x40 DUP1 DUP4 KECCAK256 DUP1 SLOAD PUSH1 0x1 PUSH1 0x1 PUSH1 0xA0 SHL SUB NOT AND PUSH1 0x1 PUSH1 0x1 PUSH1 0xA0 SHL SUB DUP12 AND SWAP1 DUP2 OR DUP3 SSTORE DUP2 DUP7 ADD DUP13 SWAP1 SSTORE PUSH1 0x2 SWAP1 SWAP2 ADD DUP1 SLOAD PUSH1 0xFF NOT AND DUP7 OR SWAP1 SSTORE DUP4 MSTORE PUSH1 0x9 SWAP1 SWAP2 MSTORE DUP2 KECCAK256 DUP6 SWAP1 SSTORE DUP4 SLOAD DUP5 SWAP2 SWAP1 PUSH2 0x11C0 SWAP1 DUP5 SWAP1 PUSH2 0x1E0F JUMP JUMPDEST SWAP3 POP POP DUP2 SWAP1 SSTORE POP PUSH1 0x1 PUSH1 0xB PUSH1 0x0 DUP3 DUP3 SLOAD PUSH2 0x11DA SWAP2 SWAP1 PUSH2 0x1E0F JUMP JUMPDEST SWAP1 SWAP2 SSTORE POP POP PUSH1 0x40 MLOAD DUP4 SWAP1 PUSH1 0x1 PUSH1 0x1 PUSH1 0xA0 SHL SUB DUP8 AND SWAP1 PUSH1 0x0 SWAP1 PUSH32 0xDDF252AD1BE2C89B69C2B068FC378DAA952BA7F163C4A11628F55A4DF523B3EF SWAP1 DUP3 SWAP1 LOG4 DUP3 DUP7 PUSH32 0xCD7F391A9646E0AB41EC2096F1D380FEBCDD775905C957EC790AB3738F9FDD78 DUP7 PUSH1 0x40 MLOAD PUSH2 0x1248 SWAP2 SWAP1 PUSH2 0x1DCA JUMP JUMPDEST PUSH1 0x40 MLOAD DUP1 SWAP2 SUB SWAP1 LOG3 POP POP POP POP POP POP JUMP JUMPDEST PUSH1 0x1 PUSH1 0x1 PUSH1 0xA0 SHL SUB DUP2 AND PUSH1 0x0 SWAP1 DUP2 MSTORE PUSH1 0x9 PUSH1 0x20 MSTORE PUSH1 0x40 DUP2 KECCAK256 SLOAD DUP1 ISZERO DUP1 ISZERO SWAP1 PUSH2 0x1291 JUMPI POP PUSH1 0x0 DUP2 DUP2 MSTORE PUSH1 0x8 PUSH1 0x20 MSTORE PUSH1 0x40 SWAP1 KECCAK256 PUSH1 0x2 ADD SLOAD PUSH1 0xFF AND JUMPDEST PUSH2 0x129C JUMPI PUSH1 0x0 PUSH2 0x129F JUMP JUMPDEST PUSH1 0x1 JUMPDEST PUSH1 0xFF AND SWAP4 SWAP3 POP POP POP JUMP JUMPDEST PUSH1 0x0 DUP2 DUP2 MSTORE PUSH1 0x8 PUSH1 0x20 MSTORE PUSH1 0x40 SWAP1 KECCAK256 PUSH1 0x2 DUP2 ADD SLOAD PUSH1 0xFF AND PUSH2 0x12DC JUMPI PUSH1 0x40 MLOAD PUSH4 0x92C9B599 PUSH1 0xE0 SHL DUP2 MSTORE PUSH1 0x4 ADD PUSH1 0x40 MLOAD DUP1 SWAP2 SUB SWAP1 REVERT JUMPDEST PUSH1 0x2 DUP2 ADD DUP1 SLOAD PUSH1 0xFF NOT AND SWAP1 SSTORE DUP1 SLOAD PUSH1 0x1 PUSH1 0x1 PUSH1 0xA0 SHL SUB AND PUSH1 0x0 SWAP1 DUP2 MSTORE PUSH1 0x9 PUSH1 0x20 SWAP1 DUP2 MSTORE PUSH1 0x40 DUP1 DUP4 KECCAK256 DUP4 SWAP1 SSTORE DUP4 SLOAD PUSH1 0x1 PUSH1 0x1 PUSH1 0xA0 SHL SUB NOT AND DUP5 SSTORE PUSH1 0x1 DUP1 DUP6 ADD SLOAD DUP5 MSTORE PUSH1 0x7 SWAP1 SWAP3 MSTORE DUP3 KECCAK256 DUP1 SLOAD SWAP2 SWAP3 SWAP1 SWAP2 PUSH2 0x1335 SWAP1 DUP5 SWAP1 PUSH2 0x1E27 JUMP JUMPDEST SWAP3 POP POP DUP2 SWAP1 SSTORE POP PUSH1 0x1 PUSH1 0xB PUSH1 0x0 DUP3 DUP3 SLOAD PUSH2 0x134F SWAP2 SWAP1 PUSH2 0x1E27 JUMP JUMPDEST SWAP1 SWAP2 SSTORE POP POP PUSH1 0x40 MLOAD DUP3 SWAP1 PUSH32 0x8401ED0B52520270FFBA65C5383931FC1C6E30B27E1FC692D871D4F669D1F1EA SWAP1 PUSH1 0x0 SWAP1 LOG2 POP POP JUMP JUMPDEST PUSH1 0x0 DUP2 DUP2 MSTORE PUSH1 0x8 PUSH1 0x20 MSTORE PUSH1 0x40 DUP2 KECCAK256 PUSH1 0x3 ADD SLOAD PUSH2 0x13A0 DUP2 PUSH1 0x1 PUSH2 0x1E0F JUMP JUMPDEST PUSH1 0x0 DUP5 DUP2 MSTORE PUSH1 0xA PUSH1 0x20 MSTORE PUSH1 0x40 SWAP1 KECCAK256 SLOAD EQ PUSH2 0x13CC JUMPI PUSH1 0x0 DUP4 DUP2 MSTORE PUSH1 0xA PUSH1 0x20 MSTORE PUSH1 0x40 DUP2 KECCAK256 DUP1 SLOAD PUSH1 0x1 ADD DUP2 SSTORE SWAP1 MSTORE JUMPDEST PUSH1 0x0 DUP4 DUP2 MSTORE PUSH1 0xA PUSH1 0x20 MSTORE PUSH1 0x40 SWAP1 KECCAK256 DUP1 SLOAD DUP3 SWAP1 DUP2 LT PUSH2 0x13EC JUMPI PUSH2 0x13EC PUSH2 0x1EEC JUMP JUMPDEST SWAP1 PUSH1 0x0 MSTORE PUSH1 0x20 PUSH1 0x0 KECCAK256 SWAP1 PUSH1 0x6 MUL ADD SWAP2 POP POP SWAP2 SWAP1 POP JUMP JUMPDEST PUSH1 0x0 DUP2 DUP2 MSTORE PUSH1 0x3 DUP4 ADD PUSH1 0x20 MSTORE PUSH1 0x40 DUP2 KECCAK256 SLOAD DUP2 SIGNEXTEND SWAP1 SIGNEXTEND PUSH2 0x1434 JUMPI PUSH1 0x40 MLOAD PUSH4 0x59DC3029 PUSH1 0xE0 SHL DUP2 MSTORE PUSH1 0x4 ADD PUSH1 0x40 MLOAD DUP1 SWAP2 SUB SWAP1 REVERT JUMPDEST PUSH1 0x0 DUP2 DUP2 MSTORE PUSH1 0x8 PUSH1 0x20 MSTORE PUSH1 0x40 SWAP1 KECCAK256 PUSH1 0x2 ADD SLOAD PUSH1 0xFF AND ISZERO PUSH2 0x1467 JUMPI PUSH1 0x40 MLOAD PUSH4 0x5C2A53C5 PUSH1 0xE1 SHL DUP2 MSTORE PUSH1 0x4 ADD PUSH1 0x40 MLOAD DUP1 SWAP2 SUB SWAP1 REVERT JUMPDEST PUSH1 0x1 DUP3 PUSH1 0x4 ADD PUSH1 0x0 DUP3 DUP3 SLOAD PUSH2 0x147C SWAP2 SWAP1 PUSH2 0x1E27 JUMP JUMPDEST SWAP1 SWAP2 SSTORE POP POP PUSH1 0x0 DUP2 DUP2 MSTORE PUSH1 0x3 DUP4 ADD PUSH1 0x20 MSTORE PUSH1 0x40 DUP2 KECCAK256 SLOAD DUP2 SIGNEXTEND SWAP1 SIGNEXTEND PUSH1 0x1 EQ ISZERO PUSH2 0x14B9 JUMPI PUSH1 0x1 DUP3 PUSH1 0x5 ADD PUSH1 0x0 DUP3 DUP3 SLOAD PUSH2 0x14B3 SWAP2 SWAP1 PUSH2 0x1E27 JUMP JUMPDEST SWAP1 SWAP2 SSTORE POP POP JUMPDEST PUSH1 0x40 MLOAD DUP2 SWAP1 DUP5 SWAP1 PUSH32 0x6A5DE386C49C7E87D450F082EACE65D7329E7123BDF11460295F7747ADAD1105 SWAP1 PUSH1 0x0 SWAP1 LOG3 POP POP POP JUMP JUMPDEST PUSH1 0x0 DUP1 PUSH1 0x0 DUP1 DUP6 PUSH1 0x4 ADD SLOAD GT ISZERO PUSH2 0x153E JUMPI PUSH2 0x153B PUSH2 0x1530 PUSH2 0x1521 PUSH8 0xDE0B6B3A7640000 DUP9 PUSH1 0x4 ADD SLOAD PUSH2 0x1750 SWAP1 SWAP2 SWAP1 PUSH4 0xFFFFFFFF AND JUMP JUMPDEST PUSH8 0xDE0B6B3A7640000 SWAP1 PUSH2 0x175C JUMP JUMPDEST PUSH1 0x5 DUP8 ADD SLOAD SWAP1 PUSH2 0x1750 JUMP JUMPDEST SWAP1 POP JUMPDEST PUSH1 0x0 PUSH8 0x6F05B59D3B20000 DUP3 LT ISZERO PUSH2 0x1558 JUMPI PUSH1 0x0 NOT PUSH2 0x155B JUMP JUMPDEST PUSH1 0x1 JUMPDEST DUP7 SLOAD SWAP1 SWAP2 POP PUSH1 0x0 DUP3 DUP2 SIGNEXTEND PUSH2 0x100 SWAP1 SWAP3 DIV DUP2 SIGNEXTEND SWAP1 SIGNEXTEND EQ PUSH2 0x160D JUMPI DUP6 SLOAD PUSH1 0x0 DUP3 DUP2 SIGNEXTEND PUSH1 0xFF AND PUSH2 0x100 MUL PUSH2 0xFF00 NOT SWAP1 SWAP3 AND SWAP2 SWAP1 SWAP2 OR DUP8 SSTORE PUSH1 0x2 DUP8 ADD SLOAD PUSH2 0x159F SWAP1 TIMESTAMP SWAP1 PUSH2 0x1E27 JUMP JUMPDEST SWAP1 POP PUSH1 0x2 SLOAD DUP2 LT ISZERO PUSH2 0x160B JUMPI PUSH1 0x0 DUP2 PUSH1 0x2 SLOAD PUSH2 0x15BB SWAP2 SWAP1 PUSH2 0x1E27 JUMP JUMPDEST DUP9 PUSH1 0x2 ADD SLOAD PUSH2 0x15CA SWAP2 SWAP1 PUSH2 0x1E0F JUMP JUMPDEST SWAP1 POP PUSH32 0x5073BEC5C188828181E51012E5967FBDAC7312BD400B8120CF3DCB0B8EE0F11E DUP2 PUSH1 0x40 MLOAD PUSH2 0x15FD SWAP2 DUP2 MSTORE PUSH1 0x20 ADD SWAP1 JUMP JUMPDEST PUSH1 0x40 MLOAD DUP1 SWAP2 SUB SWAP1 LOG1 PUSH1 0x2 DUP9 ADD SSTORE JUMPDEST POP JUMPDEST DUP6 PUSH1 0x2 ADD SLOAD TIMESTAMP GT PUSH2 0x1650 JUMPI PUSH1 0x0 PUSH2 0x1623 DUP7 PUSH2 0x93E JUMP JUMPDEST SWAP1 POP PUSH2 0x1648 PUSH2 0x163D PUSH2 0x1521 DUP4 PUSH8 0xDE0B6B3A7640000 PUSH2 0x1750 JUMP JUMPDEST PUSH1 0x5 DUP10 ADD SLOAD SWAP1 PUSH2 0x1750 JUMP JUMPDEST SWAP4 POP POP PUSH2 0x1658 JUMP JUMPDEST PUSH1 0x1 SWAP4 POP DUP2 SWAP3 POP JUMPDEST PUSH1 0x0 PUSH8 0x6F05B59D3B20000 DUP5 LT ISZERO PUSH2 0x1672 JUMPI PUSH1 0x0 NOT PUSH2 0x1675 JUMP JUMPDEST PUSH1 0x1 JUMPDEST SWAP1 POP PUSH1 0x0 DUP2 SWAP1 SIGNEXTEND PUSH1 0x1 EQ ISZERO PUSH2 0x16BC JUMPI PUSH1 0x40 MLOAD PUSH1 0x1 SWAP6 POP DUP7 SWAP1 PUSH32 0xA3B99CEC0CD3A7EE24EC2A54714E340CC9A7116AA4B0FF7730371682CB47F580 SWAP1 PUSH1 0x0 SWAP1 LOG2 PUSH2 0x16BC DUP7 PUSH2 0x12A9 JUMP JUMPDEST DUP5 ISZERO PUSH2 0x172C JUMPI PUSH1 0x40 DUP1 MLOAD DUP8 DUP2 MSTORE PUSH1 0x0 DUP4 SWAP1 SIGNEXTEND PUSH1 0x20 DUP3 ADD MSTORE PUSH32 0x4E4D413658C729B8CF2DEE49DA9D98754C99A09654D209CE00244648FEBC1E54 SWAP2 ADD PUSH1 0x40 MLOAD DUP1 SWAP2 SUB SWAP1 LOG1 DUP7 SLOAD PUSH1 0xFF NOT AND PUSH1 0x1 OR DUP8 SSTORE PUSH1 0x0 DUP7 DUP2 MSTORE PUSH1 0x8 PUSH1 0x20 MSTORE PUSH1 0x40 DUP2 KECCAK256 PUSH1 0x3 ADD DUP1 SLOAD SWAP2 PUSH2 0x1726 DUP4 PUSH2 0x1EA5 JUMP JUMPDEST SWAP2 SWAP1 POP SSTORE POP JUMPDEST POP POP POP POP POP POP POP JUMP JUMPDEST PUSH1 0x0 PUSH1 0xC PUSH1 0x0 DUP2 SLOAD PUSH2 0x1746 SWAP1 PUSH2 0x1EA5 JUMP JUMPDEST SWAP2 DUP3 SWAP1 SSTORE POP SWAP2 SWAP1 POP JUMP JUMPDEST PUSH1 0x0 PUSH2 0xB21 DUP4 DUP4 PUSH2 0x1771 JUMP JUMPDEST PUSH1 0x0 PUSH2 0xB21 DUP4 PUSH8 0xDE0B6B3A7640000 DUP5 PUSH2 0x1838 JUMP JUMPDEST PUSH1 0x0 DUP1 DUP1 PUSH1 0x0 NOT DUP5 DUP7 MULMOD DUP5 DUP7 MUL SWAP3 POP DUP3 DUP2 LT DUP4 DUP3 SUB SUB SWAP2 POP POP PUSH8 0xDE0B6B3A7640000 DUP2 LT PUSH2 0x17BA JUMPI PUSH1 0x40 MLOAD PUSH4 0x698D9A01 PUSH1 0xE1 SHL DUP2 MSTORE PUSH1 0x4 DUP2 ADD DUP3 SWAP1 MSTORE PUSH1 0x24 ADD JUMPDEST PUSH1 0x40 MLOAD DUP1 SWAP2 SUB SWAP1 REVERT JUMPDEST PUSH1 0x0 DUP1 PUSH8 0xDE0B6B3A7640000 DUP7 DUP9 MULMOD SWAP2 POP POP PUSH8 0x6F05B59D3B1FFFF DUP2 GT DUP3 PUSH2 0x17F4 JUMPI DUP1 PUSH8 0xDE0B6B3A7640000 DUP6 DIV ADD SWAP5 POP POP POP POP POP PUSH2 0xA13 JUMP JUMPDEST PUSH3 0x40000 DUP3 DUP6 SUB DIV SWAP4 SWAP1 SWAP2 GT SWAP1 SWAP2 SUB PUSH1 0x1 PUSH1 0xEE SHL MUL SWAP2 SWAP1 SWAP2 OR PUSH32 0xACCB18165BD6FE31AE1CF318DC5B51EEE0E1BA569B88CD74C1773B91FAC10669 MUL ADD SWAP1 POP SWAP3 SWAP2 POP POP JUMP JUMPDEST PUSH1 0x0 DUP1 DUP1 PUSH1 0x0 NOT DUP6 DUP8 MULMOD DUP6 DUP8 MUL SWAP3 POP DUP3 DUP2 LT DUP4 DUP3 SUB SUB SWAP2 POP POP DUP1 PUSH1 0x0 EQ ISZERO PUSH2 0x1873 JUMPI DUP4 DUP3 DUP2 PUSH2 0x1869 JUMPI PUSH2 0x1869 PUSH2 0x1ED6 JUMP JUMPDEST DIV SWAP3 POP POP POP PUSH2 0xB21 JUMP JUMPDEST DUP4 DUP2 LT PUSH2 0x189D JUMPI PUSH1 0x40 MLOAD PUSH4 0x1DCF3063 PUSH1 0xE2 SHL DUP2 MSTORE PUSH1 0x4 DUP2 ADD DUP3 SWAP1 MSTORE PUSH1 0x24 DUP2 ADD DUP6 SWAP1 MSTORE PUSH1 0x44 ADD PUSH2 0x17B1 JUMP JUMPDEST PUSH1 0x0 DUP5 DUP7 DUP9 MULMOD PUSH1 0x2 PUSH1 0x1 DUP8 NOT DUP2 ADD DUP9 AND SWAP8 DUP9 SWAP1 DIV PUSH1 0x3 DUP2 MUL DUP4 XOR DUP1 DUP3 MUL DUP5 SUB MUL DUP1 DUP3 MUL DUP5 SUB MUL DUP1 DUP3 MUL DUP5 SUB MUL DUP1 DUP3 MUL DUP5 SUB MUL DUP1 DUP3 MUL DUP5 SUB MUL SWAP1 DUP2 MUL SWAP1 SWAP3 SUB SWAP1 SWAP2 MUL PUSH1 0x0 DUP9 SWAP1 SUB DUP9 SWAP1 DIV SWAP1 SWAP2 ADD DUP6 DUP4 GT SWAP1 SWAP5 SUB SWAP4 SWAP1 SWAP4 MUL SWAP4 SUB SWAP5 SWAP1 SWAP5 DIV SWAP2 SWAP1 SWAP2 OR MUL SWAP5 SWAP4 POP POP POP POP JUMP JUMPDEST DUP3 DUP1 SLOAD PUSH2 0x1912 SWAP1 PUSH2 0x1E6A JUMP JUMPDEST SWAP1 PUSH1 0x0 MSTORE PUSH1 0x20 PUSH1 0x0 KECCAK256 SWAP1 PUSH1 0x1F ADD PUSH1 0x20 SWAP1 DIV DUP2 ADD SWAP3 DUP3 PUSH2 0x1934 JUMPI PUSH1 0x0 DUP6 SSTORE PUSH2 0x197A JUMP JUMPDEST DUP3 PUSH1 0x1F LT PUSH2 0x194D JUMPI DUP1 MLOAD PUSH1 0xFF NOT AND DUP4 DUP1 ADD OR DUP6 SSTORE PUSH2 0x197A JUMP JUMPDEST DUP3 DUP1 ADD PUSH1 0x1 ADD DUP6 SSTORE DUP3 ISZERO PUSH2 0x197A JUMPI SWAP2 DUP3 ADD JUMPDEST DUP3 DUP2 GT ISZERO PUSH2 0x197A JUMPI DUP3 MLOAD DUP3 SSTORE SWAP2 PUSH1 0x20 ADD SWAP2 SWAP1 PUSH1 0x1 ADD SWAP1 PUSH2 0x195F JUMP JUMPDEST POP PUSH2 0x1986 SWAP3 SWAP2 POP PUSH2 0x198A JUMP JUMPDEST POP SWAP1 JUMP JUMPDEST JUMPDEST DUP1 DUP3 GT ISZERO PUSH2 0x1986 JUMPI PUSH1 0x0 DUP2 SSTORE PUSH1 0x1 ADD PUSH2 0x198B JUMP JUMPDEST DUP1 CALLDATALOAD PUSH1 0x1 PUSH1 0x1 PUSH1 0xA0 SHL SUB DUP2 AND DUP2 EQ PUSH2 0x19B6 JUMPI PUSH1 0x0 DUP1 REVERT JUMPDEST SWAP2 SWAP1 POP JUMP JUMPDEST PUSH1 0x0 DUP1 DUP4 PUSH1 0x1F DUP5 ADD SLT PUSH2 0x19CD JUMPI PUSH1 0x0 DUP1 REVERT JUMPDEST POP DUP2 CALLDATALOAD PUSH8 0xFFFFFFFFFFFFFFFF DUP2 GT ISZERO PUSH2 0x19E5 JUMPI PUSH1 0x0 DUP1 REVERT JUMPDEST PUSH1 0x20 DUP4 ADD SWAP2 POP DUP4 PUSH1 0x20 DUP3 DUP6 ADD ADD GT ISZERO PUSH2 0x19FD JUMPI PUSH1 0x0 DUP1 REVERT JUMPDEST SWAP3 POP SWAP3 SWAP1 POP JUMP JUMPDEST PUSH1 0x0 PUSH1 0x20 DUP3 DUP5 SUB SLT ISZERO PUSH2 0x1A16 JUMPI PUSH1 0x0 DUP1 REVERT JUMPDEST PUSH2 0xB21 DUP3 PUSH2 0x199F JUMP JUMPDEST PUSH1 0x0 DUP1 PUSH1 0x40 DUP4 DUP6 SUB SLT ISZERO PUSH2 0x1A32 JUMPI PUSH1 0x0 DUP1 REVERT JUMPDEST PUSH2 0x1A3B DUP4 PUSH2 0x199F JUMP JUMPDEST SWAP2 POP PUSH2 0x1A49 PUSH1 0x20 DUP5 ADD PUSH2 0x199F JUMP JUMPDEST SWAP1 POP SWAP3 POP SWAP3 SWAP1 POP JUMP JUMPDEST PUSH1 0x0 DUP1 PUSH1 0x0 PUSH1 0x60 DUP5 DUP7 SUB SLT ISZERO PUSH2 0x1A67 JUMPI PUSH1 0x0 DUP1 REVERT JUMPDEST PUSH2 0x1A70 DUP5 PUSH2 0x199F JUMP JUMPDEST SWAP3 POP PUSH2 0x1A7E PUSH1 0x20 DUP6 ADD PUSH2 0x199F JUMP JUMPDEST SWAP2 POP PUSH1 0x40 DUP5 ADD CALLDATALOAD SWAP1 POP SWAP3 POP SWAP3 POP SWAP3 JUMP JUMPDEST PUSH1 0x0 DUP1 PUSH1 0x0 DUP1 PUSH1 0x0 PUSH1 0x80 DUP7 DUP9 SUB SLT ISZERO PUSH2 0x1AA6 JUMPI PUSH1 0x0 DUP1 REVERT JUMPDEST PUSH2 0x1AAF DUP7 PUSH2 0x199F JUMP JUMPDEST SWAP5 POP PUSH2 0x1ABD PUSH1 0x20 DUP8 ADD PUSH2 0x199F JUMP JUMPDEST SWAP4 POP PUSH1 0x40 DUP7 ADD CALLDATALOAD SWAP3 POP PUSH1 0x60 DUP7 ADD CALLDATALOAD PUSH8 0xFFFFFFFFFFFFFFFF DUP2 GT ISZERO PUSH2 0x1AE0 JUMPI PUSH1 0x0 DUP1 REVERT JUMPDEST PUSH2 0x1AEC DUP9 DUP3 DUP10 ADD PUSH2 0x19BB JUMP JUMPDEST SWAP7 SWAP10 SWAP6 SWAP9 POP SWAP4 SWAP7 POP SWAP3 SWAP5 SWAP4 SWAP3 POP POP POP JUMP JUMPDEST PUSH1 0x0 DUP1 PUSH1 0x40 DUP4 DUP6 SUB SLT ISZERO PUSH2 0x1B10 JUMPI PUSH1 0x0 DUP1 REVERT JUMPDEST PUSH2 0x1B19 DUP4 PUSH2 0x199F JUMP JUMPDEST SWAP2 POP PUSH1 0x20 DUP4 ADD CALLDATALOAD PUSH2 0x1B29 DUP2 PUSH2 0x1F02 JUMP JUMPDEST DUP1 SWAP2 POP POP SWAP3 POP SWAP3 SWAP1 POP JUMP JUMPDEST PUSH1 0x0 DUP1 PUSH1 0x0 PUSH1 0x40 DUP5 DUP7 SUB SLT ISZERO PUSH2 0x1B49 JUMPI PUSH1 0x0 DUP1 REVERT JUMPDEST PUSH2 0x1B52 DUP5 PUSH2 0x199F JUMP JUMPDEST SWAP3 POP PUSH1 0x20 DUP5 ADD CALLDATALOAD PUSH8 0xFFFFFFFFFFFFFFFF DUP2 GT ISZERO PUSH2 0x1B6E JUMPI PUSH1 0x0 DUP1 REVERT JUMPDEST PUSH2 0x1B7A DUP7 DUP3 DUP8 ADD PUSH2 0x19BB JUMP JUMPDEST SWAP5 SWAP8 SWAP1 SWAP7 POP SWAP4 SWAP5 POP POP POP POP JUMP JUMPDEST PUSH1 0x0 DUP1 PUSH1 0x40 DUP4 DUP6 SUB SLT ISZERO PUSH2 0x1B9A JUMPI PUSH1 0x0 DUP1 REVERT JUMPDEST PUSH2 0x1BA3 DUP4 PUSH2 0x199F JUMP JUMPDEST SWAP5 PUSH1 0x20 SWAP4 SWAP1 SWAP4 ADD CALLDATALOAD SWAP4 POP POP POP JUMP JUMPDEST PUSH1 0x0 PUSH1 0x20 DUP3 DUP5 SUB SLT ISZERO PUSH2 0x1BC3 JUMPI PUSH1 0x0 DUP1 REVERT JUMPDEST DUP2 CALLDATALOAD PUSH1 0x1 PUSH1 0x1 PUSH1 0xE0 SHL SUB NOT DUP2 AND DUP2 EQ PUSH2 0xB21 JUMPI PUSH1 0x0 DUP1 REVERT JUMPDEST PUSH1 0x0 PUSH1 0x20 DUP3 DUP5 SUB SLT ISZERO PUSH2 0x1BED JUMPI PUSH1 0x0 DUP1 REVERT JUMPDEST DUP2 MLOAD PUSH2 0xB21 DUP2 PUSH2 0x1F13 JUMP JUMPDEST PUSH1 0x0 PUSH1 0x20 DUP3 DUP5 SUB SLT ISZERO PUSH2 0x1C0A JUMPI PUSH1 0x0 DUP1 REVERT JUMPDEST POP CALLDATALOAD SWAP2 SWAP1 POP JUMP JUMPDEST PUSH1 0x0 DUP1 PUSH1 0x40 DUP4 DUP6 SUB SLT ISZERO PUSH2 0x1C24 JUMPI PUSH1 0x0 DUP1 REVERT JUMPDEST DUP3 CALLDATALOAD SWAP2 POP PUSH1 0x20 DUP4 ADD CALLDATALOAD PUSH2 0x1B29 DUP2 PUSH2 0x1F13 JUMP JUMPDEST PUSH1 0x0 DUP1 PUSH1 0x40 DUP4 DUP6 SUB SLT ISZERO PUSH2 0x1C49 JUMPI PUSH1 0x0 DUP1 REVERT JUMPDEST POP POP DUP1 CALLDATALOAD SWAP3 PUSH1 0x20 SWAP1 SWAP2 ADD CALLDATALOAD SWAP2 POP JUMP JUMPDEST PUSH1 0x0 DUP1 PUSH1 0x0 DUP1 PUSH1 0x0 DUP1 PUSH1 0xC0 DUP8 DUP10 SUB SLT ISZERO PUSH2 0x1C71 JUMPI PUSH1 0x0 DUP1 REVERT JUMPDEST DUP7 MLOAD SWAP6 POP PUSH1 0x20 DUP8 ADD MLOAD SWAP5 POP PUSH1 0x40 DUP8 ADD MLOAD PUSH2 0x1C8A DUP2 PUSH2 0x1F13 JUMP JUMPDEST DUP1 SWAP5 POP POP PUSH1 0x60 DUP8 ADD MLOAD SWAP3 POP PUSH1 0x80 DUP8 ADD MLOAD SWAP2 POP PUSH1 0xA0 DUP8 ADD MLOAD PUSH2 0x1CAA DUP2 PUSH2 0x1F02 JUMP JUMPDEST DUP1 SWAP2 POP POP SWAP3 SWAP6 POP SWAP3 SWAP6 POP SWAP3 SWAP6 JUMP JUMPDEST PUSH1 0x0 DUP1 PUSH1 0x0 PUSH1 0x60 DUP5 DUP7 SUB SLT ISZERO PUSH2 0x1CCD JUMPI PUSH1 0x0 DUP1 REVERT JUMPDEST POP POP DUP2 CALLDATALOAD SWAP4 PUSH1 0x20 DUP4 ADD CALLDATALOAD SWAP4 POP PUSH1 0x40 SWAP1 SWAP3 ADD CALLDATALOAD SWAP2 SWAP1 POP JUMP JUMPDEST PUSH1 0x0 DUP2 MLOAD DUP1 DUP5 MSTORE PUSH2 0x1CFC DUP2 PUSH1 0x20 DUP7 ADD PUSH1 0x20 DUP7 ADD PUSH2 0x1E3E JUMP JUMPDEST PUSH1 0x1F ADD PUSH1 0x1F NOT AND SWAP3 SWAP1 SWAP3 ADD PUSH1 0x20 ADD SWAP3 SWAP2 POP POP JUMP JUMPDEST PUSH1 0x0 DUP2 MLOAD PUSH2 0x1D22 DUP2 DUP6 PUSH1 0x20 DUP7 ADD PUSH2 0x1E3E JUMP JUMPDEST SWAP3 SWAP1 SWAP3 ADD SWAP3 SWAP2 POP POP JUMP JUMPDEST PUSH1 0x0 DUP1 DUP5 SLOAD DUP2 PUSH1 0x1 DUP3 DUP2 SHR SWAP2 POP DUP1 DUP4 AND DUP1 PUSH2 0x1D48 JUMPI PUSH1 0x7F DUP4 AND SWAP3 POP JUMPDEST PUSH1 0x20 DUP1 DUP5 LT DUP3 EQ ISZERO PUSH2 0x1D68 JUMPI PUSH4 0x4E487B71 PUSH1 0xE0 SHL DUP7 MSTORE PUSH1 0x22 PUSH1 0x4 MSTORE PUSH1 0x24 DUP7 REVERT JUMPDEST DUP2 DUP1 ISZERO PUSH2 0x1D7C JUMPI PUSH1 0x1 DUP2 EQ PUSH2 0x1D8D JUMPI PUSH2 0x1DBA JUMP JUMPDEST PUSH1 0xFF NOT DUP7 AND DUP10 MSTORE DUP5 DUP10 ADD SWAP7 POP PUSH2 0x1DBA JUMP JUMPDEST PUSH1 0x0 DUP12 DUP2 MSTORE PUSH1 0x20 SWAP1 KECCAK256 PUSH1 0x0 JUMPDEST DUP7 DUP2 LT ISZERO PUSH2 0x1DB2 JUMPI DUP2 SLOAD DUP12 DUP3 ADD MSTORE SWAP1 DUP6 ADD SWAP1 DUP4 ADD PUSH2 0x1D99 JUMP JUMPDEST POP POP DUP5 DUP10 ADD SWAP7 POP JUMPDEST POP POP POP POP POP POP PUSH2 0xACF DUP2 DUP6 PUSH2 0x1D10 JUMP JUMPDEST PUSH1 0x20 DUP2 MSTORE PUSH1 0x0 PUSH2 0xB21 PUSH1 0x20 DUP4 ADD DUP5 PUSH2 0x1CE4 JUMP JUMPDEST PUSH1 0x20 DUP2 MSTORE PUSH1 0x0 DUP3 MLOAD PUSH1 0x40 PUSH1 0x20 DUP5 ADD MSTORE PUSH2 0x1DF9 PUSH1 0x60 DUP5 ADD DUP3 PUSH2 0x1CE4 JUMP JUMPDEST SWAP1 POP PUSH1 0x20 DUP5 ADD MLOAD PUSH1 0x40 DUP5 ADD MSTORE DUP1 SWAP2 POP POP SWAP3 SWAP2 POP POP JUMP JUMPDEST PUSH1 0x0 DUP3 NOT DUP3 GT ISZERO PUSH2 0x1E22 JUMPI PUSH2 0x1E22 PUSH2 0x1EC0 JUMP JUMPDEST POP ADD SWAP1 JUMP JUMPDEST PUSH1 0x0 DUP3 DUP3 LT ISZERO PUSH2 0x1E39 JUMPI PUSH2 0x1E39 PUSH2 0x1EC0 JUMP JUMPDEST POP SUB SWAP1 JUMP JUMPDEST PUSH1 0x0 JUMPDEST DUP4 DUP2 LT ISZERO PUSH2 0x1E59 JUMPI DUP2 DUP2 ADD MLOAD DUP4 DUP3 ADD MSTORE PUSH1 0x20 ADD PUSH2 0x1E41 JUMP JUMPDEST DUP4 DUP2 GT ISZERO PUSH2 0x6D0 JUMPI POP POP PUSH1 0x0 SWAP2 ADD MSTORE JUMP JUMPDEST PUSH1 0x1 DUP2 DUP2 SHR SWAP1 DUP3 AND DUP1 PUSH2 0x1E7E JUMPI PUSH1 0x7F DUP3 AND SWAP2 POP JUMPDEST PUSH1 0x20 DUP3 LT DUP2 EQ ISZERO PUSH2 0x1E9F JUMPI PUSH4 0x4E487B71 PUSH1 0xE0 SHL PUSH1 0x0 MSTORE PUSH1 0x22 PUSH1 0x4 MSTORE PUSH1 0x24 PUSH1 0x0 REVERT JUMPDEST POP SWAP2 SWAP1 POP JUMP JUMPDEST PUSH1 0x0 PUSH1 0x0 NOT DUP3 EQ ISZERO PUSH2 0x1EB9 JUMPI PUSH2 0x1EB9 PUSH2 0x1EC0 JUMP JUMPDEST POP PUSH1 0x1 ADD SWAP1 JUMP JUMPDEST PUSH4 0x4E487B71 PUSH1 0xE0 SHL PUSH1 0x0 MSTORE PUSH1 0x11 PUSH1 0x4 MSTORE PUSH1 0x24 PUSH1 0x0 REVERT JUMPDEST PUSH4 0x4E487B71 PUSH1 0xE0 SHL PUSH1 0x0 MSTORE PUSH1 0x12 PUSH1 0x4 MSTORE PUSH1 0x24 PUSH1 0x0 REVERT JUMPDEST PUSH4 0x4E487B71 PUSH1 0xE0 SHL PUSH1 0x0 MSTORE PUSH1 0x32 PUSH1 0x4 MSTORE PUSH1 0x24 PUSH1 0x0 REVERT JUMPDEST DUP1 ISZERO ISZERO DUP2 EQ PUSH2 0x1F10 JUMPI PUSH1 0x0 DUP1 REVERT JUMPDEST POP JUMP JUMPDEST DUP1 PUSH1 0x0 SIGNEXTEND DUP2 EQ PUSH2 0x1F10 JUMPI PUSH1 0x0 DUP1 REVERT INVALID LOG2 PUSH5 0x6970667358 0x22 SLT KECCAK256 EXP SWAP6 0xCA CALLCODE SWAP7 0x27 PUSH19 0xA31C05F7CC14B667643496F6DB0194D9C570B8 SWAP8 SWAP8 0xB8 DUP13 0xB6 0xAC PUSH5 0x736F6C6343 STOP ADDMOD MOD STOP CALLER "},"gasEstimates":{"creation":{"codeDepositCost":"1604800","executionCost":"infinite","totalCost":"infinite"},"external":{"FOUNDERS_VOUCHER()":"2363","PENDING_PERIOD()":"2427","QUIET_ENDING_PERIOD()":"2385","VOTING_PERIOD()":"2428","_nEntries()":"2385","approve(address,uint256)":"428","balanceOf(address)":"4980","canVote(uint256,uint256)":"9261","challenge(uint256)":"infinite","executeVote(uint256)":"infinite","getAccount(uint256)":"9235","getApproved(uint256)":"386","getChallenge(uint256)":"infinite","getChallengeVote(uint256,uint256)":"infinite","getSpecificChallenge(uint256,uint256)":"13444","getSpecificChallengeVote(uint256,uint256,uint256)":"4937","getTokenPersonCid(uint256)":"infinite","getTokenVouch(uint256)":"infinite","getTotalVoters(uint256)":"8994","getVoucherVouchesNumber(uint256)":"2505","invalidateInvalidVoucher(uint256)":"infinite","invalidateVote(uint256,uint256)":"infinite","isApprovedForAll(address,address)":"infinite","isSolidified(uint256)":"13477","name()":"infinite","ownerOf(uint256)":"2608","safeTransferFrom(address,address,uint256)":"infinite","safeTransferFrom(address,address,uint256,bytes)":"infinite","setApprovalForAll(address,bool)":"472","supportsInterface(bytes4)":"365","symbol()":"infinite","tokenIdOf(address)":"2617","tokenURI(uint256)":"infinite","totalSupply()":"2442","transferFrom(address,address,uint256)":"infinite","vote(uint256,int8)":"infinite","vouch(address,string)":"infinite"},"internal":{"_balanceOf(address)":"4463","_executeVote(struct Registry.Challenge storage pointer,uint256)":"infinite","_invalidateAccount(uint256)":"infinite","_invalidateVote(uint256,struct Registry.Challenge storage pointer,uint256)":"infinite","_ownerOf(uint256)":"infinite","_tokenIdOf(address)":"infinite","_totalSupply()":"infinite","_vouch(uint256,address,string memory)":"infinite","getCurrentChallenge(uint256)":"31011","nextTokenId()":"24310"}},"methodIdentifiers":{"FOUNDERS_VOUCHER()":"3c823b6b","PENDING_PERIOD()":"fe131778","QUIET_ENDING_PERIOD()":"84864be7","VOTING_PERIOD()":"b1610d7e","_nEntries()":"173ac141","approve(address,uint256)":"095ea7b3","balanceOf(address)":"70a08231","canVote(uint256,uint256)":"ef233c0b","challenge(uint256)":"ab82d9a0","executeVote(uint256)":"f98a4eca","getAccount(uint256)":"ce88b145","getApproved(uint256)":"081812fc","getChallenge(uint256)":"1bdd4b74","getChallengeVote(uint256,uint256)":"d61255f3","getSpecificChallenge(uint256,uint256)":"5e3bee73","getSpecificChallengeVote(uint256,uint256,uint256)":"912dac06","getTokenPersonCid(uint256)":"3fb1a836","getTokenVouch(uint256)":"130a8d80","getTotalVoters(uint256)":"43d3a4c1","getVoucherVouchesNumber(uint256)":"5d1f0a31","invalidateInvalidVoucher(uint256)":"9a489620","invalidateVote(uint256,uint256)":"d9eeebed","isApprovedForAll(address,address)":"e985e9c5","isSolidified(uint256)":"82c0833b","name()":"06fdde03","ownerOf(uint256)":"6352211e","safeTransferFrom(address,address,uint256)":"42842e0e","safeTransferFrom(address,address,uint256,bytes)":"b88d4fde","setApprovalForAll(address,bool)":"a22cb465","supportsInterface(bytes4)":"01ffc9a7","symbol()":"95d89b41","tokenIdOf(address)":"773c02d4","tokenURI(uint256)":"c87b56dd","totalSupply()":"18160ddd","transferFrom(address,address,uint256)":"23b872dd","vote(uint256,int8)":"ee650248","vouch(address,string)":"0c104878"}},"storageLayout":{"storage":[{"astId":227,"contract":"contracts/Registry.sol:Registry","label":"PENDING_PERIOD","offset":0,"slot":"0","type":"t_uint256"},{"astId":230,"contract":"contracts/Registry.sol:Registry","label":"VOTING_PERIOD","offset":0,"slot":"1","type":"t_uint256"},{"astId":233,"contract":"contracts/Registry.sol:Registry","label":"QUIET_ENDING_PERIOD","offset":0,"slot":"2","type":"t_uint256"},{"astId":240,"contract":"contracts/Registry.sol:Registry","label":"FOUNDERS_VOUCHER","offset":0,"slot":"3","type":"t_uint256"},{"astId":243,"contract":"contracts/Registry.sol:Registry","label":"baseURI","offset":0,"slot":"4","type":"t_string_storage"},{"astId":245,"contract":"contracts/Registry.sol:Registry","label":"_symbol","offset":0,"slot":"5","type":"t_string_storage"},{"astId":247,"contract":"contracts/Registry.sol:Registry","label":"_name","offset":0,"slot":"6","type":"t_string_storage"},{"astId":291,"contract":"contracts/Registry.sol:Registry","label":"vouches","offset":0,"slot":"7","type":"t_mapping(t_uint256,t_struct(Vouches)260_storage)"},{"astId":297,"contract":"contracts/Registry.sol:Registry","label":"accounts","offset":0,"slot":"8","type":"t_mapping(t_uint256,t_struct(Account)269_storage)"},{"astId":301,"contract":"contracts/Registry.sol:Registry","label":"owned","offset":0,"slot":"9","type":"t_mapping(t_address,t_uint256)"},{"astId":307,"contract":"contracts/Registry.sol:Registry","label":"challenges","offset":0,"slot":"10","type":"t_mapping(t_uint256,t_array(t_struct(Challenge)286_storage)dyn_storage)"},{"astId":309,"contract":"contracts/Registry.sol:Registry","label":"__totalSupply","offset":0,"slot":"11","type":"t_uint256"},{"astId":311,"contract":"contracts/Registry.sol:Registry","label":"_nEntries","offset":0,"slot":"12","type":"t_uint256"}],"types":{"t_address":{"encoding":"inplace","label":"address","numberOfBytes":"20"},"t_array(t_struct(Challenge)286_storage)dyn_storage":{"base":"t_struct(Challenge)286_storage","encoding":"dynamic_array","label":"struct Registry.Challenge[]","numberOfBytes":"32"},"t_bool":{"encoding":"inplace","label":"bool","numberOfBytes":"1"},"t_int8":{"encoding":"inplace","label":"int8","numberOfBytes":"1"},"t_mapping(t_address,t_uint256)":{"encoding":"mapping","key":"t_address","label":"mapping(address => uint256)","numberOfBytes":"32","value":"t_uint256"},"t_mapping(t_uint256,t_array(t_struct(Challenge)286_storage)dyn_storage)":{"encoding":"mapping","key":"t_uint256","label":"mapping(uint256 => struct Registry.Challenge[])","numberOfBytes":"32","value":"t_array(t_struct(Challenge)286_storage)dyn_storage"},"t_mapping(t_uint256,t_int8)":{"encoding":"mapping","key":"t_uint256","label":"mapping(uint256 => int8)","numberOfBytes":"32","value":"t_int8"},"t_mapping(t_uint256,t_struct(Account)269_storage)":{"encoding":"mapping","key":"t_uint256","label":"mapping(uint256 => struct Registry.Account)","numberOfBytes":"32","value":"t_struct(Account)269_storage"},"t_mapping(t_uint256,t_struct(Vouch)252_storage)":{"encoding":"mapping","key":"t_uint256","label":"mapping(uint256 => struct Registry.Vouch)","numberOfBytes":"32","value":"t_struct(Vouch)252_storage"},"t_mapping(t_uint256,t_struct(Vouches)260_storage)":{"encoding":"mapping","key":"t_uint256","label":"mapping(uint256 => struct Registry.Vouches)","numberOfBytes":"32","value":"t_struct(Vouches)260_storage"},"t_string_storage":{"encoding":"bytes","label":"string","numberOfBytes":"32"},"t_struct(Account)269_storage":{"encoding":"inplace","label":"struct Registry.Account","members":[{"astId":262,"contract":"contracts/Registry.sol:Registry","label":"account","offset":0,"slot":"0","type":"t_address"},{"astId":264,"contract":"contracts/Registry.sol:Registry","label":"voucher","offset":0,"slot":"1","type":"t_uint256"},{"astId":266,"contract":"contracts/Registry.sol:Registry","label":"valid","offset":0,"slot":"2","type":"t_bool"},{"astId":268,"contract":"contracts/Registry.sol:Registry","label":"timesChallenged","offset":0,"slot":"3","type":"t_uint256"}],"numberOfBytes":"128"},"t_struct(Challenge)286_storage":{"encoding":"inplace","label":"struct Registry.Challenge","members":[{"astId":271,"contract":"contracts/Registry.sol:Registry","label":"executed","offset":0,"slot":"0","type":"t_bool"},{"astId":273,"contract":"contracts/Registry.sol:Registry","label":"lastOutcome","offset":1,"slot":"0","type":"t_int8"},{"astId":275,"contract":"contracts/Registry.sol:Registry","label":"creationDate","offset":0,"slot":"1","type":"t_uint256"},{"astId":277,"contract":"contracts/Registry.sol:Registry","label":"endDate","offset":0,"slot":"2","type":"t_uint256"},{"astId":281,"contract":"contracts/Registry.sol:Registry","label":"votes","offset":0,"slot":"3","type":"t_mapping(t_uint256,t_int8)"},{"astId":283,"contract":"contracts/Registry.sol:Registry","label":"nVoted","offset":0,"slot":"4","type":"t_uint256"},{"astId":285,"contract":"contracts/Registry.sol:Registry","label":"nFor","offset":0,"slot":"5","type":"t_uint256"}],"numberOfBytes":"192"},"t_struct(Vouch)252_storage":{"encoding":"inplace","label":"struct Registry.Vouch","members":[{"astId":249,"contract":"contracts/Registry.sol:Registry","label":"personCid","offset":0,"slot":"0","type":"t_string_storage"},{"astId":251,"contract":"contracts/Registry.sol:Registry","label":"vouchDate","offset":0,"slot":"1","type":"t_uint256"}],"numberOfBytes":"64"},"t_struct(Vouches)260_storage":{"encoding":"inplace","label":"struct Registry.Vouches","members":[{"astId":254,"contract":"contracts/Registry.sol:Registry","label":"number","offset":0,"slot":"0","type":"t_uint256"},{"astId":259,"contract":"contracts/Registry.sol:Registry","label":"vouches","offset":0,"slot":"1","type":"t_mapping(t_uint256,t_struct(Vouch)252_storage)"}],"numberOfBytes":"64"},"t_uint256":{"encoding":"inplace","label":"uint256","numberOfBytes":"32"}}},"userdoc":{"errors":{"ErrorAccountSolidified()":[{"notice":"Errors "}],"PRBMath__MulDivFixedPointOverflow(uint256)":[{"notice":"Emitted when the result overflows uint256."}],"PRBMath__MulDivOverflow(uint256,uint256)":[{"notice":"Emitted when the result overflows uint256."}]},"kind":"user","methods":{"canVote(uint256,uint256)":{"notice":"A tokenId can vote if - The voter account is valid - AND either - voterTokenId was vouched by voucherTokenId (which is the voucher of the challenged tokenId) - OR the voterTokenId is the voucherTokenId themselves.  The FOUNDERS_VOUCHER can, in theory vote on founders challenges, but no address owns that  token and so no problem "},"vouch(address,string)":{"notice":"The msgSender must be a valid account in the registry and vouch for the provided account and personCid pair"}},"version":1}}}}