{"contracts/Registry.sol":{"Registry":{"abi":[{"inputs":[],"name":"AccountAlreadyOwnsOneToken","type":"error"},{"inputs":[],"name":"CantChallengeInvalidAccount","type":"error"},{"inputs":[],"name":"ChallangeAlreadyActive","type":"error"},{"inputs":[],"name":"ErrorAccountNotValid","type":"error"},{"inputs":[],"name":"ErrorAccountSolidified","type":"error"},{"inputs":[],"name":"ErrorAlreadyVoted","type":"error"},{"inputs":[],"name":"ErrorChallangeAlreadyExecuted","type":"error"},{"inputs":[],"name":"ErrorChallangeNotActive","type":"error"},{"inputs":[],"name":"ErrorVoteNotFound","type":"error"},{"inputs":[],"name":"ErrorVoteOnOwnChallenge","type":"error"},{"inputs":[],"name":"ErrorVoterCantVote","type":"error"},{"inputs":[],"name":"ErrorVoterValid","type":"error"},{"inputs":[],"name":"ErrorVotingPeriodEnded","type":"error"},{"inputs":[],"name":"ErrorVoucherIsValid","type":"error"},{"inputs":[],"name":"ErrorVoucherNotValid","type":"error"},{"inputs":[{"internalType":"uint256","name":"prod1","type":"uint256"}],"name":"PRBMath__MulDivFixedPointOverflow","type":"error"},{"inputs":[{"internalType":"uint256","name":"prod1","type":"uint256"},{"internalType":"uint256","name":"denominator","type":"uint256"}],"name":"PRBMath__MulDivOverflow","type":"error"},{"inputs":[],"name":"UnexpectedExecutedCondition","type":"error"},{"inputs":[],"name":"VoucherNoLongerInvalid","type":"error"},{"anonymous":false,"inputs":[{"indexed":true,"internalType":"address","name":"owner","type":"address"},{"indexed":true,"internalType":"address","name":"approved","type":"address"},{"indexed":true,"internalType":"uint256","name":"tokenId","type":"uint256"}],"name":"Approval","type":"event"},{"anonymous":false,"inputs":[{"indexed":true,"internalType":"address","name":"owner","type":"address"},{"indexed":true,"internalType":"address","name":"operator","type":"address"},{"indexed":false,"internalType":"bool","name":"approved","type":"bool"}],"name":"ApprovalForAll","type":"event"},{"anonymous":false,"inputs":[{"indexed":true,"internalType":"uint256","name":"tokenId","type":"uint256"}],"name":"ChallengeEvent","type":"event"},{"anonymous":false,"inputs":[{"indexed":false,"internalType":"uint256","name":"tokenId","type":"uint256"},{"indexed":false,"internalType":"int8","name":"outcome","type":"int8"}],"name":"ChallengeExecuted","type":"event"},{"anonymous":false,"inputs":[{"indexed":false,"internalType":"uint8","name":"version","type":"uint8"}],"name":"Initialized","type":"event"},{"anonymous":false,"inputs":[{"indexed":true,"internalType":"uint256","name":"tokenId","type":"uint256"}],"name":"InvalidatedAccountEvent","type":"event"},{"anonymous":false,"inputs":[{"indexed":true,"internalType":"uint256","name":"tokenId","type":"uint256"}],"name":"InvalidatedByChallenge","type":"event"},{"anonymous":false,"inputs":[{"indexed":true,"internalType":"uint256","name":"tokenId","type":"uint256"}],"name":"InvalidatedByInvalidVoucher","type":"event"},{"anonymous":false,"inputs":[{"indexed":true,"internalType":"uint256","name":"tokenId","type":"uint256"},{"indexed":true,"internalType":"uint256","name":"voterTokenId","type":"uint256"}],"name":"InvalidatedVoteEvent","type":"event"},{"anonymous":false,"inputs":[{"indexed":true,"internalType":"address","name":"from","type":"address"},{"indexed":true,"internalType":"address","name":"to","type":"address"},{"indexed":true,"internalType":"uint256","name":"tokenId","type":"uint256"}],"name":"Transfer","type":"event"},{"anonymous":false,"inputs":[{"indexed":true,"internalType":"uint256","name":"voterTokenId","type":"uint256"},{"indexed":false,"internalType":"uint256","name":"tokenId","type":"uint256"},{"indexed":false,"internalType":"int8","name":"vote","type":"int8"}],"name":"VoteEvent","type":"event"},{"anonymous":false,"inputs":[{"indexed":false,"internalType":"uint256","name":"newEndDate","type":"uint256"}],"name":"VotingPeriodExtendedEvent","type":"event"},{"anonymous":false,"inputs":[{"indexed":true,"internalType":"uint256","name":"from","type":"uint256"},{"indexed":true,"internalType":"uint256","name":"to","type":"uint256"},{"indexed":false,"internalType":"string","name":"personCid","type":"string"}],"name":"VouchEvent","type":"event"},{"inputs":[],"name":"FOUNDERS_VOUCHER","outputs":[{"internalType":"uint256","name":"","type":"uint256"}],"stateMutability":"view","type":"function"},{"inputs":[],"name":"PENDING_PERIOD","outputs":[{"internalType":"uint256","name":"","type":"uint256"}],"stateMutability":"view","type":"function"},{"inputs":[],"name":"QUIET_ENDING_PERIOD","outputs":[{"internalType":"uint256","name":"","type":"uint256"}],"stateMutability":"view","type":"function"},{"inputs":[],"name":"VOTING_PERIOD","outputs":[{"internalType":"uint256","name":"","type":"uint256"}],"stateMutability":"view","type":"function"},{"inputs":[],"name":"_nEntries","outputs":[{"internalType":"uint256","name":"","type":"uint256"}],"stateMutability":"view","type":"function"},{"inputs":[{"internalType":"address","name":"to","type":"address"},{"internalType":"uint256","name":"tokenId","type":"uint256"}],"name":"approve","outputs":[],"stateMutability":"nonpayable","type":"function"},{"inputs":[{"internalType":"address","name":"account","type":"address"}],"name":"balanceOf","outputs":[{"internalType":"uint256","name":"balance","type":"uint256"}],"stateMutability":"view","type":"function"},{"inputs":[{"internalType":"uint256","name":"voterTokenId","type":"uint256"},{"internalType":"uint256","name":"challengedTokenId","type":"uint256"}],"name":"canVote","outputs":[{"internalType":"bool","name":"","type":"bool"}],"stateMutability":"view","type":"function"},{"inputs":[{"internalType":"uint256","name":"_tokenId","type":"uint256"}],"name":"challenge","outputs":[],"stateMutability":"nonpayable","type":"function"},{"inputs":[{"internalType":"uint256","name":"_tokenId","type":"uint256"}],"name":"executeVote","outputs":[],"stateMutability":"nonpayable","type":"function"},{"inputs":[{"internalType":"uint256","name":"tokenId","type":"uint256"}],"name":"getAccount","outputs":[{"components":[{"internalType":"address","name":"account","type":"address"},{"internalType":"uint256","name":"voucher","type":"uint256"},{"internalType":"bool","name":"valid","type":"bool"},{"internalType":"uint256","name":"timesChallenged","type":"uint256"}],"internalType":"struct Registry.Account","name":"","type":"tuple"}],"stateMutability":"view","type":"function"},{"inputs":[{"internalType":"uint256","name":"","type":"uint256"}],"name":"getApproved","outputs":[{"internalType":"address","name":"operator","type":"address"}],"stateMutability":"view","type":"function"},{"inputs":[{"internalType":"uint256","name":"tokenId","type":"uint256"}],"name":"getChallenge","outputs":[{"internalType":"uint256","name":"creationDate","type":"uint256"},{"internalType":"uint256","name":"endDate","type":"uint256"},{"internalType":"int8","name":"lastOutcome","type":"int8"},{"internalType":"uint256","name":"nVoted","type":"uint256"},{"internalType":"uint256","name":"nFor","type":"uint256"},{"internalType":"bool","name":"executed","type":"bool"}],"stateMutability":"view","type":"function"},{"inputs":[{"internalType":"uint256","name":"tokenId","type":"uint256"},{"internalType":"uint256","name":"voterTokenId","type":"uint256"}],"name":"getChallengeVote","outputs":[{"internalType":"int8","name":"","type":"int8"}],"stateMutability":"view","type":"function"},{"inputs":[{"internalType":"uint256","name":"tokenId","type":"uint256"},{"internalType":"uint256","name":"challengeIndex","type":"uint256"}],"name":"getSpecificChallenge","outputs":[{"internalType":"uint256","name":"creationDate","type":"uint256"},{"internalType":"uint256","name":"endDate","type":"uint256"},{"internalType":"int8","name":"lastOutcome","type":"int8"},{"internalType":"uint256","name":"nVoted","type":"uint256"},{"internalType":"uint256","name":"nFor","type":"uint256"},{"internalType":"bool","name":"executed","type":"bool"}],"stateMutability":"view","type":"function"},{"inputs":[{"internalType":"uint256","name":"tokenId","type":"uint256"},{"internalType":"uint256","name":"voterTokenId","type":"uint256"},{"internalType":"uint256","name":"challengeIndex","type":"uint256"}],"name":"getSpecificChallengeVote","outputs":[{"internalType":"int8","name":"","type":"int8"}],"stateMutability":"view","type":"function"},{"inputs":[{"internalType":"uint256","name":"tokenId","type":"uint256"}],"name":"getTokenPersonCid","outputs":[{"internalType":"string","name":"","type":"string"}],"stateMutability":"view","type":"function"},{"inputs":[{"internalType":"uint256","name":"tokenId","type":"uint256"}],"name":"getTokenVouch","outputs":[{"components":[{"internalType":"string","name":"personCid","type":"string"},{"internalType":"uint256","name":"vouchDate","type":"uint256"}],"internalType":"struct Registry.Vouch","name":"","type":"tuple"}],"stateMutability":"view","type":"function"},{"inputs":[{"internalType":"uint256","name":"_tokenId","type":"uint256"}],"name":"getTotalVoters","outputs":[{"internalType":"uint256","name":"","type":"uint256"}],"stateMutability":"view","type":"function"},{"inputs":[{"internalType":"uint256","name":"voucherTokenId","type":"uint256"}],"name":"getVoucherVouchesNumber","outputs":[{"internalType":"uint256","name":"","type":"uint256"}],"stateMutability":"view","type":"function"},{"inputs":[{"internalType":"string","name":"__symbol","type":"string"},{"internalType":"string","name":"__name","type":"string"},{"internalType":"address[]","name":"addresses","type":"address[]"},{"internalType":"string[]","name":"foundersCids","type":"string[]"}],"name":"initRegistry","outputs":[],"stateMutability":"nonpayable","type":"function"},{"inputs":[{"internalType":"uint256","name":"tokenId","type":"uint256"}],"name":"invalidateInvalidVoucher","outputs":[],"stateMutability":"nonpayable","type":"function"},{"inputs":[{"internalType":"uint256","name":"_tokenId","type":"uint256"},{"internalType":"uint256","name":"_voterTokenId","type":"uint256"}],"name":"invalidateVote","outputs":[],"stateMutability":"nonpayable","type":"function"},{"inputs":[{"internalType":"address","name":"","type":"address"},{"internalType":"address","name":"","type":"address"}],"name":"isApprovedForAll","outputs":[{"internalType":"bool","name":"","type":"bool"}],"stateMutability":"view","type":"function"},{"inputs":[{"internalType":"uint256","name":"tokenId","type":"uint256"}],"name":"isSolidified","outputs":[{"internalType":"bool","name":"","type":"bool"}],"stateMutability":"view","type":"function"},{"inputs":[],"name":"name","outputs":[{"internalType":"string","name":"","type":"string"}],"stateMutability":"view","type":"function"},{"inputs":[{"internalType":"uint256","name":"tokenId","type":"uint256"}],"name":"ownerOf","outputs":[{"internalType":"address","name":"owner","type":"address"}],"stateMutability":"view","type":"function"},{"inputs":[{"internalType":"address","name":"from","type":"address"},{"internalType":"address","name":"to","type":"address"},{"internalType":"uint256","name":"tokenId","type":"uint256"}],"name":"safeTransferFrom","outputs":[],"stateMutability":"nonpayable","type":"function"},{"inputs":[{"internalType":"address","name":"from","type":"address"},{"internalType":"address","name":"to","type":"address"},{"internalType":"uint256","name":"tokenId","type":"uint256"},{"internalType":"bytes","name":"data","type":"bytes"}],"name":"safeTransferFrom","outputs":[],"stateMutability":"nonpayable","type":"function"},{"inputs":[{"internalType":"address","name":"operator","type":"address"},{"internalType":"bool","name":"approved","type":"bool"}],"name":"setApprovalForAll","outputs":[],"stateMutability":"nonpayable","type":"function"},{"inputs":[{"internalType":"bytes4","name":"interfaceId","type":"bytes4"}],"name":"supportsInterface","outputs":[{"internalType":"bool","name":"","type":"bool"}],"stateMutability":"view","type":"function"},{"inputs":[],"name":"symbol","outputs":[{"internalType":"string","name":"","type":"string"}],"stateMutability":"view","type":"function"},{"inputs":[{"internalType":"address","name":"owner","type":"address"}],"name":"tokenIdOf","outputs":[{"internalType":"uint256","name":"","type":"uint256"}],"stateMutability":"view","type":"function"},{"inputs":[{"internalType":"uint256","name":"tokenId","type":"uint256"}],"name":"tokenURI","outputs":[{"internalType":"string","name":"","type":"string"}],"stateMutability":"view","type":"function"},{"inputs":[],"name":"totalSupply","outputs":[{"internalType":"uint256","name":"","type":"uint256"}],"stateMutability":"view","type":"function"},{"inputs":[{"internalType":"address","name":"from","type":"address"},{"internalType":"address","name":"to","type":"address"},{"internalType":"uint256","name":"tokenId","type":"uint256"}],"name":"transferFrom","outputs":[],"stateMutability":"nonpayable","type":"function"},{"inputs":[{"internalType":"uint256","name":"_tokenId","type":"uint256"},{"internalType":"int8","name":"_vote","type":"int8"}],"name":"vote","outputs":[],"stateMutability":"nonpayable","type":"function"},{"inputs":[{"internalType":"address","name":"account","type":"address"},{"internalType":"string","name":"personCid","type":"string"}],"name":"vouch","outputs":[],"stateMutability":"nonpayable","type":"function"}],"devdoc":{"kind":"dev","methods":{"approve(address,uint256)":{"details":"Gives permission to `to` to transfer `tokenId` token to another account. The approval is cleared when the token is transferred. Only a single account can be approved at a time, so approving the zero address clears previous approvals. Requirements: - The caller must own the token or be an approved operator. - `tokenId` must exist. Emits an {Approval} event."},"name()":{"details":"Returns the token collection name."},"ownerOf(uint256)":{"details":"Returns the owner of the `tokenId` token. Requirements: - `tokenId` must exist."},"safeTransferFrom(address,address,uint256)":{"details":"Safely transfers `tokenId` token from `from` to `to`, checking first that contract recipients are aware of the ERC721 protocol to prevent tokens from being forever locked. Requirements: - `from` cannot be the zero address. - `to` cannot be the zero address. - `tokenId` token must exist and be owned by `from`. - If the caller is not `from`, it must have been allowed to move this token by either {approve} or {setApprovalForAll}. - If `to` refers to a smart contract, it must implement {IERC721Receiver-onERC721Received}, which is called upon a safe transfer. Emits a {Transfer} event."},"safeTransferFrom(address,address,uint256,bytes)":{"details":"Safely transfers `tokenId` token from `from` to `to`. Requirements: - `from` cannot be the zero address. - `to` cannot be the zero address. - `tokenId` token must exist and be owned by `from`. - If the caller is not `from`, it must be approved to move this token by either {approve} or {setApprovalForAll}. - If `to` refers to a smart contract, it must implement {IERC721Receiver-onERC721Received}, which is called upon a safe transfer. Emits a {Transfer} event."},"setApprovalForAll(address,bool)":{"details":"Approve or remove `operator` as an operator for the caller. Operators can call {transferFrom} or {safeTransferFrom} for any token owned by the caller. Requirements: - The `operator` cannot be the caller. Emits an {ApprovalForAll} event."},"supportsInterface(bytes4)":{"details":"Returns true if this contract implements the interface defined by `interfaceId`. See the corresponding https://eips.ethereum.org/EIPS/eip-165#how-interfaces-are-identified[EIP section] to learn more about how these ids are created. This function call must use less than 30 000 gas."},"symbol()":{"details":"Returns the token collection symbol."},"tokenURI(uint256)":{"details":"Returns the Uniform Resource Identifier (URI) for `tokenId` token."},"transferFrom(address,address,uint256)":{"details":"Transfers `tokenId` token from `from` to `to`. WARNING: Note that the caller is responsible to confirm that the recipient is capable of receiving ERC721 or else they may be permanently lost. Usage of {safeTransferFrom} prevents loss, though the caller must understand this adds an external call which potentially creates a reentrancy vulnerability. Requirements: - `from` cannot be the zero address. - `to` cannot be the zero address. - `tokenId` token must be owned by `from`. - If the caller is not `from`, it must be approved to move this token by either {approve} or {setApprovalForAll}. Emits a {Transfer} event."}},"title":"Registry","version":1},"evm":{"bytecode":{"linkReferences":{},"object":"608060405234801561001057600080fd5b5061238e806100206000396000f3fe608060405234801561001057600080fd5b50600436106102325760003560e01c8063773c02d411610130578063b88d4fde116100b8578063e985e9c51161007c578063e985e9c5146105a1578063ee650248146105b7578063ef233c0b146105ca578063f98a4eca146105dd578063fe131778146105f057600080fd5b8063b88d4fde14610496578063c87b56dd146104ab578063ce88b145146104be578063d61255f31461057b578063d9eeebed1461058e57600080fd5b806395d89b41116100ff57806395d89b41146104505780639a48962014610458578063a22cb4651461046b578063ab82d9a014610479578063b1610d7e1461048c57600080fd5b8063773c02d4146103fa57806382c0833b1461040d57806384864be714610420578063912dac061461042a57600080fd5b80632333bc72116101be57806343d3a4c11161018257806343d3a4c11461038e5780635d1f0a31146103a15780635e3bee73146103c15780636352211e146103d457806370a08231146103e757600080fd5b80632333bc721461034c57806323b872dd1461035f5780633c823b6b146103725780633fb1a8361461037b57806342842e0e1461035f57600080fd5b80630c104878116102055780630c104878146102af578063130a8d80146102c2578063173ac141146102e257806318160ddd146102f95780631bdd4b741461030157600080fd5b806301ffc9a71461023757806306fdde0314610260578063081812fc14610275578063095ea7b31461029b575b600080fd5b61024b610245366004611ed9565b50600090565b60405190151581526020015b60405180910390f35b6102686105fa565b6040516102579190612175565b61028361024536600461202e565b6040516001600160a01b039091168152602001610257565b6102ad6102a9366004611eaf565b5050565b005b6102ad6102bd366004611e5c565b61068c565b6102d56102d036600461202e565b6106f7565b6040516102579190612188565b6102eb60085481565b604051908152602001610257565b6102eb6107e4565b61031461030f36600461202e565b6107f4565b60408051968752602087019590955260009390930b9385019390935260608401526080830191909152151560a082015260c001610257565b6102ad61035a366004611f20565b61089c565b6102ad61036d366004611d7a565b505050565b6102eb60001981565b61026861038936600461202e565b610a80565b6102eb61039c36600461202e565b610b43565b6102eb6103af36600461202e565b60009081526003602052604090205490565b6103146103cf36600461206c565b610b87565b6102836103e236600461202e565b610bff565b6102eb6103f5366004611d2c565b610c1e565b6102eb610408366004611d2c565b610c29565b61024b61041b36600461202e565b610c47565b6102eb6202a30081565b61043d6104383660046120ee565b610cdb565b60405160009190910b8152602001610257565b610268610d2b565b6102ad61046636600461202e565b610d3a565b6102ad6102a9366004611e25565b6102ad61048736600461202e565b610dab565b6102eb6213c68081565b6102ad6104a4366004611db6565b5050505050565b6102686104b936600461202e565b610eaf565b61053d6104cc36600461202e565b6040805160808082018352600080835260208084018290528385018290526060938401829052948152600485528390208351918201845280546001600160a01b03168252600181015494820194909452600284015460ff161515928101929092526003909201549181019190915290565b604051610257919081516001600160a01b03168152602080830151908201526040808301511515908201526060918201519181019190915260800190565b61043d61058936600461206c565b610fb5565b6102ad61059c36600461206c565b611046565b61024b6105af366004611d47565b600092915050565b6102ad6105c5366004612047565b61105e565b61024b6105d836600461206c565b61120e565b6102ad6105eb36600461202e565b6112c3565b6102eb62ed4e0081565b6060600280546106099061226a565b80601f01602080910402602001604051908101604052809291908181526020018280546106359061226a565b80156106825780601f1061065757610100808354040283529160200191610682565b820191906000526020600020905b81548152906001019060200180831161066557829003601f168201915b5050505050905090565b60006106ae335b6001600160a01b031660009081526005602052604090205490565b90506106f1818585858080601f0160208091040260200160405190810160405280939291908181526020018383808284376000920191909152506112da92505050565b50505050565b60408051808201825260608152600060208083018290528482526004815283822060019081015480845260038352858420878552909101909152908390208351808501909452805492939192829082906107509061226a565b80601f016020809104026020016040519081016040528092919081815260200182805461077c9061226a565b80156107c95780601f1061079e576101008083540402835291602001916107c9565b820191906000526020600020905b8154815290600101906020018083116107ac57829003601f168201915b50505050508152602001600182015481525050915050919050565b60006107ef60075490565b905090565b6000818152600460208190526040808320600301549051635e3bee7360e01b815291820184905260248201819052829182918291829182913090635e3bee739060440160c06040518083038186803b15801561084f57600080fd5b505afa158015610863573d6000803e3d6000fd5b505050506040513d601f19601f82011682018060405250810190610887919061208e565b949d939c50919a509850965090945092505050565b600054610100900460ff16158080156108bc5750600054600160ff909116105b806108d65750303b1580156108d6575060005460ff166001145b61093e5760405162461bcd60e51b815260206004820152602e60248201527f496e697469616c697a61626c653a20636f6e747261637420697320616c72656160448201526d191e481a5b9a5d1a585b1a5e995960921b60648201526084015b60405180910390fd5b6000805460ff191660011790558015610961576000805461ff0019166101001790555b8451610974906001906020880190611b27565b508351610988906002906020870190611b27565b506000600781905560088190555b83518160ff161015610a3357600019600081905260046020527fd8c80a9840ed58f33f2186a8fbc29ecd8c3610d196f1da047301bd51988eb95e805460ff191660011790558451610a219190869060ff85169081106109f7576109f761230c565b6020026020010151858460ff1681518110610a1457610a1461230c565b60200260200101516112da565b80610a2b816122c0565b915050610996565b5080156104a4576000805461ff0019169055604051600181527f7f26b83ff96e1f2b6a682f133852f6798a09c465da95921460cefb38474024989060200160405180910390a15050505050565b60008181526004602090815260408083206001908101548085526003845282852086865290910190925290912080546060929190610abd9061226a565b80601f0160208091040260200160405190810160405280929190818152602001828054610ae99061226a565b8015610b365780601f10610b0b57610100808354040283529160200191610b36565b820191906000526020600020905b815481529060010190602001808311610b1957829003601f168201915b5050505050915050919050565b600081815260046020908152604080832060010154808452600390925282208054600019831415610b7f578154610b7c90600190612227565b90505b949350505050565b6000806000806000806000600660008a81526020019081526020016000208881548110610bb657610bb661230c565b600091825260208220600691909102016001810154600282015482546004840154600590940154929e919d50610100810490940b9b50919950975060ff90911695509350505050565b6000818152600460205260408120546001600160a01b03165b92915050565b6000610c188261147e565b6001600160a01b038116600090815260056020526040812054610c18565b6000818152600460209081526040808320815160808101835281546001600160a01b03168152600180830154828601819052600284015460ff16151583860152600393840154606084015286529184528285208686528201909352908320015482811580610cc15750610cbd62ed4e008361220f565b4211155b905080158015610cd2575082604001515b95945050505050565b6000838152600660205260408120805482919084908110610cfe57610cfe61230c565b6000918252602080832087845260036006909302019190910190526040812054900b9150505b9392505050565b6060600180546106099061226a565b6000818152600460205260408082206001015480835291206002015460ff1615610d77576040516306425d3f60e21b815260040160405180910390fd5b60405182907f946ccf7529d18d55b60565307325eaa52971532b461c039424db6a003d5791d690600090a26102a9826114cf565b610db481610c47565b15610dd257604051631994e32160e31b815260040160405180910390fd5b60008181526004602052604090206002015460ff16610e0457604051633c1391fd60e11b815260040160405180910390fd5b6000610e0f826115a9565b600181015490915015610e355760405163d92060f360e01b815260040160405180910390fd5b805460ff1615610e5857604051634dc137dd60e11b815260040160405180910390fd5b4260018201819055610e6e906213c6809061220f565b6002820155805461ff00191661ff0017815560405182907ffb4749a8bf40d9d3f0fbe28026fedbe06dc90952eba3759c2b3ec0a7d5697f3190600090a25050565b600081815260046020908152604080832060019081015480855260038452828520868652909101909252822080546060939190610eeb9061226a565b80601f0160208091040260200160405190810160405280929190818152602001828054610f179061226a565b8015610f645780601f10610f3957610100808354040283529160200191610f64565b820191906000526020600020905b815481529060010190602001808311610f4757829003601f168201915b5050505050905060405180604001604052806007815260200166697066733a2f2f60c81b81525081604051602001610f9d929190612146565b60405160208183030381529060405292505050919050565b6000828152600460208190526040808320600301549051634896d60360e11b8152918201859052602482018490526044820181905290309063912dac069060640160206040518083038186803b15801561100e57600080fd5b505afa158015611022573d6000803e3d6000fd5b505050506040513d601f19601f82011682018060405250810190610b7f9190611f03565b6000611051836115a9565b905061036d838284611628565b600061106933610693565b90506000611076846115a9565b905080600101546000141561109e57604051631eb4f4e760e01b815260040160405180910390fd5b805460ff16156110c157604051630a23827760e11b815260040160405180910390fd5b80600201544211156110e6576040516335c84aeb60e21b815260040160405180910390fd5b6110f0828561120e565b61110d57604051637cd1a64960e11b815260040160405180910390fd5b6000828152600382016020526040812054810b900b1561114057604051638601a09560e01b815260040160405180910390fd5b8260000b60011461115357600019611156565b60015b60008381526003830160205260408120805492820b60ff1660ff19909316929092179091556004820180546001929061119090849061220f565b90915550506001600084900b146111a85760006111ab565b60015b60ff168160050160008282546111c1919061220f565b909155505060408051858152600085900b602082015283917fbdc899ff9789426dec6b3c3bc128ed8cc0a9b248c274dd93cfdb3709e5a2125e910160405180910390a26106f18185611711565b60008183141561122057506000610c18565b8261122d57506000610c18565b6000828152600460205260408082206001015480835291206002015460ff166112695760405163b0b9da2d60e01b815260040160405180910390fd5b60008481526004602052604081206001015482148061128757508185145b60008681526004602052604090206002015490915060ff1680156112a85750805b156112b857600192505050610c18565b506000949350505050565b60006112ce826115a9565b90506102a98183611711565b60006112e461195b565b60008581526004602052604090206002015490915060ff166113195760405163119ab1c960e11b815260040160405180910390fd5b6001600160a01b038316600090815260056020526040902054156113505760405163cb502ef160e01b815260040160405180910390fd5b600084815260036020908152604080832084845260018101835292208451909161137e918391870190611b27565b5042600182810191909155600084815260046020908152604080832080546001600160a01b0319166001600160a01b038b1690811782558186018c90556002909101805460ff19168617905583526005909152812085905583548491906113e690849061220f565b92505081905550600160076000828254611400919061220f565b909155505060405183906001600160a01b038716906000907fddf252ad1be2c89b69c2b068fc378daa952ba7f163c4a11628f55a4df523b3ef908290a482867fcd7f391a9646e0ab41ec2096f1d380febcdd775905c957ec790ab3738f9fdd788660405161146e9190612175565b60405180910390a3505050505050565b6001600160a01b03811660009081526005602052604081205480158015906114b7575060008181526004602052604090206002015460ff165b6114c25760006114c5565b60015b60ff169392505050565b6000818152600460205260409020600281015460ff16611502576040516392c9b59960e01b815260040160405180910390fd5b60028101805460ff1916905580546001600160a01b0316600090815260056020908152604080832083905583546001600160a01b031916845560018085015484526003909252822080549192909161155b908490612227565b925050819055506001600760008282546115759190612227565b909155505060405182907f8401ed0b52520270ffba65c5383931fc1c6e30b27e1fc692d871d4f669d1f1ea90600090a25050565b6000818152600460205260408120600301546115c681600161220f565b600084815260066020526040902054146115f25760008381526006602052604081208054600101815590525b60008381526006602052604090208054829081106116125761161261230c565b9060005260206000209060060201915050919050565b6000818152600383016020526040812054810b900b61165a576040516359dc302960e01b815260040160405180910390fd5b60008181526004602052604090206002015460ff161561168d57604051635c2a53c560e11b815260040160405180910390fd5b60018260040160008282546116a29190612227565b90915550506000818152600383016020526040812054810b900b600114156116df5760018260050160008282546116d99190612227565b90915550505b604051819084907f6a5de386c49c7e87d450f082eace65d7329e7123bdf11460295f7747adad110590600090a3505050565b6000806000808560040154111561176457611761611756611747670de0b6b3a7640000886004015461197690919063ffffffff16565b670de0b6b3a764000090611982565b600587015490611976565b90505b60006706f05b59d3b2000082101561177e57600019611781565b60015b8654909150600082810b610100909204810b900b14611833578554600082810b60ff166101000261ff001990921691909117875560028701546117c5904290612227565b90506202a3008110156118315760006117e1826202a300612227565b88600201546117f0919061220f565b90507f5073bec5c188828181e51012e5967fbdac7312bd400b8120cf3dcb0b8ee0f11e8160405161182391815260200190565b60405180910390a160028801555b505b8560020154421161187657600061184986610b43565b905061186e61186361174783670de0b6b3a7640000611976565b600589015490611976565b93505061187e565b600193508192505b60006706f05b59d3b200008410156118985760001961189b565b60015b9050600081900b600114156118e2576040516001955086907fa3b99cec0cd3a7ee24ec2a54714e340cc9a7116aa4b0ff7730371682cb47f58090600090a26118e2866114cf565b84156119525760408051878152600083900b60208201527f4e4d413658c729b8cf2dee49da9d98754c99a09654d209ce00244648febc1e54910160405180910390a1865460ff19166001178755600086815260046020526040812060030180549161194c836122a5565b91905055505b50505050505050565b600060086000815461196c906122a5565b9182905550919050565b6000610d248383611997565b6000610d2483670de0b6b3a764000084611a59565b60008080600019848609848602925082811083820303915050670de0b6b3a764000081106119db5760405163698d9a0160e11b815260048101829052602401610935565b600080670de0b6b3a76400008688099150506706f05b59d3b1ffff811182611a155780670de0b6b3a7640000850401945050505050610c18565b620400008285030493909111909103600160ee1b02919091177faccb18165bd6fe31ae1cf318dc5b51eee0e1ba569b88cd74c1773b91fac106690201905092915050565b600080806000198587098587029250828110838203039150508060001415611a9457838281611a8a57611a8a6122f6565b0492505050610d24565b838110611abe57604051631dcf306360e21b81526004810182905260248101859052604401610935565b60008486880960026001871981018816978890046003810283188082028403028082028403028082028403028082028403028082028403029081029092039091026000889003889004909101858311909403939093029303949094049190911702949350505050565b828054611b339061226a565b90600052602060002090601f016020900481019282611b555760008555611b9b565b82601f10611b6e57805160ff1916838001178555611b9b565b82800160010185558215611b9b579182015b82811115611b9b578251825591602001919060010190611b80565b50611ba7929150611bab565b5090565b5b80821115611ba75760008155600101611bac565b80356001600160a01b0381168114611bd757600080fd5b919050565b600082601f830112611bed57600080fd5b81356020611c02611bfd836121eb565b6121ba565b80838252828201915082860187848660051b8901011115611c2257600080fd5b6000805b86811015611c6557823567ffffffffffffffff811115611c44578283fd5b611c528b88838d0101611cbc565b8652509385019391850191600101611c26565b509198975050505050505050565b60008083601f840112611c8557600080fd5b50813567ffffffffffffffff811115611c9d57600080fd5b602083019150836020828501011115611cb557600080fd5b9250929050565b600082601f830112611ccd57600080fd5b813567ffffffffffffffff811115611ce757611ce7612322565b611cfa601f8201601f19166020016121ba565b818152846020838601011115611d0f57600080fd5b816020850160208301376000918101602001919091529392505050565b600060208284031215611d3e57600080fd5b610d2482611bc0565b60008060408385031215611d5a57600080fd5b611d6383611bc0565b9150611d7160208401611bc0565b90509250929050565b600080600060608486031215611d8f57600080fd5b611d9884611bc0565b9250611da660208501611bc0565b9150604084013590509250925092565b600080600080600060808688031215611dce57600080fd5b611dd786611bc0565b9450611de560208701611bc0565b935060408601359250606086013567ffffffffffffffff811115611e0857600080fd5b611e1488828901611c73565b969995985093965092949392505050565b60008060408385031215611e3857600080fd5b611e4183611bc0565b91506020830135611e5181612338565b809150509250929050565b600080600060408486031215611e7157600080fd5b611e7a84611bc0565b9250602084013567ffffffffffffffff811115611e9657600080fd5b611ea286828701611c73565b9497909650939450505050565b60008060408385031215611ec257600080fd5b611ecb83611bc0565b946020939093013593505050565b600060208284031215611eeb57600080fd5b81356001600160e01b031981168114610d2457600080fd5b600060208284031215611f1557600080fd5b8151610d2481612349565b60008060008060808587031215611f3657600080fd5b843567ffffffffffffffff80821115611f4e57600080fd5b611f5a88838901611cbc565b9550602091508187013581811115611f7157600080fd5b611f7d89828a01611cbc565b955050604087013581811115611f9257600080fd5b8701601f81018913611fa357600080fd5b8035611fb1611bfd826121eb565b8082825285820191508584018c878560051b8701011115611fd157600080fd5b600094505b83851015611ffb57611fe781611bc0565b835260019490940193918601918601611fd6565b509650505050606087013591508082111561201557600080fd5b5061202287828801611bdc565b91505092959194509250565b60006020828403121561204057600080fd5b5035919050565b6000806040838503121561205a57600080fd5b823591506020830135611e5181612349565b6000806040838503121561207f57600080fd5b50508035926020909101359150565b60008060008060008060c087890312156120a757600080fd5b865195506020870151945060408701516120c081612349565b80945050606087015192506080870151915060a08701516120e081612338565b809150509295509295509295565b60008060006060848603121561210357600080fd5b505081359360208301359350604090920135919050565b6000815180845261213281602086016020860161223e565b601f01601f19169290920160200192915050565b6000835161215881846020880161223e565b83519083019061216c81836020880161223e565b01949350505050565b602081526000610d24602083018461211a565b6020815260008251604060208401526121a4606084018261211a565b9050602084015160408401528091505092915050565b604051601f8201601f1916810167ffffffffffffffff811182821017156121e3576121e3612322565b604052919050565b600067ffffffffffffffff82111561220557612205612322565b5060051b60200190565b60008219821115612222576122226122e0565b500190565b600082821015612239576122396122e0565b500390565b60005b83811015612259578181015183820152602001612241565b838111156106f15750506000910152565b600181811c9082168061227e57607f821691505b6020821081141561229f57634e487b7160e01b600052602260045260246000fd5b50919050565b60006000198214156122b9576122b96122e0565b5060010190565b600060ff821660ff8114156122d7576122d76122e0565b60010192915050565b634e487b7160e01b600052601160045260246000fd5b634e487b7160e01b600052601260045260246000fd5b634e487b7160e01b600052603260045260246000fd5b634e487b7160e01b600052604160045260246000fd5b801515811461234657600080fd5b50565b8060000b811461234657600080fdfea264697066735822122065bb9f252b43b1b856e38db1ebdb660713a1120a0a8287609f311e94a946c4bc64736f6c63430008060033","opcodes":"PUSH1 0x80 PUSH1 0x40 MSTORE CALLVALUE DUP1 ISZERO PUSH2 0x10 JUMPI PUSH1 0x0 DUP1 REVERT JUMPDEST POP PUSH2 0x238E DUP1 PUSH2 0x20 PUSH1 0x0 CODECOPY PUSH1 0x0 RETURN INVALID PUSH1 0x80 PUSH1 0x40 MSTORE CALLVALUE DUP1 ISZERO PUSH2 0x10 JUMPI PUSH1 0x0 DUP1 REVERT JUMPDEST POP PUSH1 0x4 CALLDATASIZE LT PUSH2 0x232 JUMPI PUSH1 0x0 CALLDATALOAD PUSH1 0xE0 SHR DUP1 PUSH4 0x773C02D4 GT PUSH2 0x130 JUMPI DUP1 PUSH4 0xB88D4FDE GT PUSH2 0xB8 JUMPI DUP1 PUSH4 0xE985E9C5 GT PUSH2 0x7C JUMPI DUP1 PUSH4 0xE985E9C5 EQ PUSH2 0x5A1 JUMPI DUP1 PUSH4 0xEE650248 EQ PUSH2 0x5B7 JUMPI DUP1 PUSH4 0xEF233C0B EQ PUSH2 0x5CA JUMPI DUP1 PUSH4 0xF98A4ECA EQ PUSH2 0x5DD JUMPI DUP1 PUSH4 0xFE131778 EQ PUSH2 0x5F0 JUMPI PUSH1 0x0 DUP1 REVERT JUMPDEST DUP1 PUSH4 0xB88D4FDE EQ PUSH2 0x496 JUMPI DUP1 PUSH4 0xC87B56DD EQ PUSH2 0x4AB JUMPI DUP1 PUSH4 0xCE88B145 EQ PUSH2 0x4BE JUMPI DUP1 PUSH4 0xD61255F3 EQ PUSH2 0x57B JUMPI DUP1 PUSH4 0xD9EEEBED EQ PUSH2 0x58E JUMPI PUSH1 0x0 DUP1 REVERT JUMPDEST DUP1 PUSH4 0x95D89B41 GT PUSH2 0xFF JUMPI DUP1 PUSH4 0x95D89B41 EQ PUSH2 0x450 JUMPI DUP1 PUSH4 0x9A489620 EQ PUSH2 0x458 JUMPI DUP1 PUSH4 0xA22CB465 EQ PUSH2 0x46B JUMPI DUP1 PUSH4 0xAB82D9A0 EQ PUSH2 0x479 JUMPI DUP1 PUSH4 0xB1610D7E EQ PUSH2 0x48C JUMPI PUSH1 0x0 DUP1 REVERT JUMPDEST DUP1 PUSH4 0x773C02D4 EQ PUSH2 0x3FA JUMPI DUP1 PUSH4 0x82C0833B EQ PUSH2 0x40D JUMPI DUP1 PUSH4 0x84864BE7 EQ PUSH2 0x420 JUMPI DUP1 PUSH4 0x912DAC06 EQ PUSH2 0x42A JUMPI PUSH1 0x0 DUP1 REVERT JUMPDEST DUP1 PUSH4 0x2333BC72 GT PUSH2 0x1BE JUMPI DUP1 PUSH4 0x43D3A4C1 GT PUSH2 0x182 JUMPI DUP1 PUSH4 0x43D3A4C1 EQ PUSH2 0x38E JUMPI DUP1 PUSH4 0x5D1F0A31 EQ PUSH2 0x3A1 JUMPI DUP1 PUSH4 0x5E3BEE73 EQ PUSH2 0x3C1 JUMPI DUP1 PUSH4 0x6352211E EQ PUSH2 0x3D4 JUMPI DUP1 PUSH4 0x70A08231 EQ PUSH2 0x3E7 JUMPI PUSH1 0x0 DUP1 REVERT JUMPDEST DUP1 PUSH4 0x2333BC72 EQ PUSH2 0x34C JUMPI DUP1 PUSH4 0x23B872DD EQ PUSH2 0x35F JUMPI DUP1 PUSH4 0x3C823B6B EQ PUSH2 0x372 JUMPI DUP1 PUSH4 0x3FB1A836 EQ PUSH2 0x37B JUMPI DUP1 PUSH4 0x42842E0E EQ PUSH2 0x35F JUMPI PUSH1 0x0 DUP1 REVERT JUMPDEST DUP1 PUSH4 0xC104878 GT PUSH2 0x205 JUMPI DUP1 PUSH4 0xC104878 EQ PUSH2 0x2AF JUMPI DUP1 PUSH4 0x130A8D80 EQ PUSH2 0x2C2 JUMPI DUP1 PUSH4 0x173AC141 EQ PUSH2 0x2E2 JUMPI DUP1 PUSH4 0x18160DDD EQ PUSH2 0x2F9 JUMPI DUP1 PUSH4 0x1BDD4B74 EQ PUSH2 0x301 JUMPI PUSH1 0x0 DUP1 REVERT JUMPDEST DUP1 PUSH4 0x1FFC9A7 EQ PUSH2 0x237 JUMPI DUP1 PUSH4 0x6FDDE03 EQ PUSH2 0x260 JUMPI DUP1 PUSH4 0x81812FC EQ PUSH2 0x275 JUMPI DUP1 PUSH4 0x95EA7B3 EQ PUSH2 0x29B JUMPI JUMPDEST PUSH1 0x0 DUP1 REVERT JUMPDEST PUSH2 0x24B PUSH2 0x245 CALLDATASIZE PUSH1 0x4 PUSH2 0x1ED9 JUMP JUMPDEST POP PUSH1 0x0 SWAP1 JUMP JUMPDEST PUSH1 0x40 MLOAD SWAP1 ISZERO ISZERO DUP2 MSTORE PUSH1 0x20 ADD JUMPDEST PUSH1 0x40 MLOAD DUP1 SWAP2 SUB SWAP1 RETURN JUMPDEST PUSH2 0x268 PUSH2 0x5FA JUMP JUMPDEST PUSH1 0x40 MLOAD PUSH2 0x257 SWAP2 SWAP1 PUSH2 0x2175 JUMP JUMPDEST PUSH2 0x283 PUSH2 0x245 CALLDATASIZE PUSH1 0x4 PUSH2 0x202E JUMP JUMPDEST PUSH1 0x40 MLOAD PUSH1 0x1 PUSH1 0x1 PUSH1 0xA0 SHL SUB SWAP1 SWAP2 AND DUP2 MSTORE PUSH1 0x20 ADD PUSH2 0x257 JUMP JUMPDEST PUSH2 0x2AD PUSH2 0x2A9 CALLDATASIZE PUSH1 0x4 PUSH2 0x1EAF JUMP JUMPDEST POP POP JUMP JUMPDEST STOP JUMPDEST PUSH2 0x2AD PUSH2 0x2BD CALLDATASIZE PUSH1 0x4 PUSH2 0x1E5C JUMP JUMPDEST PUSH2 0x68C JUMP JUMPDEST PUSH2 0x2D5 PUSH2 0x2D0 CALLDATASIZE PUSH1 0x4 PUSH2 0x202E JUMP JUMPDEST PUSH2 0x6F7 JUMP JUMPDEST PUSH1 0x40 MLOAD PUSH2 0x257 SWAP2 SWAP1 PUSH2 0x2188 JUMP JUMPDEST PUSH2 0x2EB PUSH1 0x8 SLOAD DUP2 JUMP JUMPDEST PUSH1 0x40 MLOAD SWAP1 DUP2 MSTORE PUSH1 0x20 ADD PUSH2 0x257 JUMP JUMPDEST PUSH2 0x2EB PUSH2 0x7E4 JUMP JUMPDEST PUSH2 0x314 PUSH2 0x30F CALLDATASIZE PUSH1 0x4 PUSH2 0x202E JUMP JUMPDEST PUSH2 0x7F4 JUMP JUMPDEST PUSH1 0x40 DUP1 MLOAD SWAP7 DUP8 MSTORE PUSH1 0x20 DUP8 ADD SWAP6 SWAP1 SWAP6 MSTORE PUSH1 0x0 SWAP4 SWAP1 SWAP4 SIGNEXTEND SWAP4 DUP6 ADD SWAP4 SWAP1 SWAP4 MSTORE PUSH1 0x60 DUP5 ADD MSTORE PUSH1 0x80 DUP4 ADD SWAP2 SWAP1 SWAP2 MSTORE ISZERO ISZERO PUSH1 0xA0 DUP3 ADD MSTORE PUSH1 0xC0 ADD PUSH2 0x257 JUMP JUMPDEST PUSH2 0x2AD PUSH2 0x35A CALLDATASIZE PUSH1 0x4 PUSH2 0x1F20 JUMP JUMPDEST PUSH2 0x89C JUMP JUMPDEST PUSH2 0x2AD PUSH2 0x36D CALLDATASIZE PUSH1 0x4 PUSH2 0x1D7A JUMP JUMPDEST POP POP POP JUMP JUMPDEST PUSH2 0x2EB PUSH1 0x0 NOT DUP2 JUMP JUMPDEST PUSH2 0x268 PUSH2 0x389 CALLDATASIZE PUSH1 0x4 PUSH2 0x202E JUMP JUMPDEST PUSH2 0xA80 JUMP JUMPDEST PUSH2 0x2EB PUSH2 0x39C CALLDATASIZE PUSH1 0x4 PUSH2 0x202E JUMP JUMPDEST PUSH2 0xB43 JUMP JUMPDEST PUSH2 0x2EB PUSH2 0x3AF CALLDATASIZE PUSH1 0x4 PUSH2 0x202E JUMP JUMPDEST PUSH1 0x0 SWAP1 DUP2 MSTORE PUSH1 0x3 PUSH1 0x20 MSTORE PUSH1 0x40 SWAP1 KECCAK256 SLOAD SWAP1 JUMP JUMPDEST PUSH2 0x314 PUSH2 0x3CF CALLDATASIZE PUSH1 0x4 PUSH2 0x206C JUMP JUMPDEST PUSH2 0xB87 JUMP JUMPDEST PUSH2 0x283 PUSH2 0x3E2 CALLDATASIZE PUSH1 0x4 PUSH2 0x202E JUMP JUMPDEST PUSH2 0xBFF JUMP JUMPDEST PUSH2 0x2EB PUSH2 0x3F5 CALLDATASIZE PUSH1 0x4 PUSH2 0x1D2C JUMP JUMPDEST PUSH2 0xC1E JUMP JUMPDEST PUSH2 0x2EB PUSH2 0x408 CALLDATASIZE PUSH1 0x4 PUSH2 0x1D2C JUMP JUMPDEST PUSH2 0xC29 JUMP JUMPDEST PUSH2 0x24B PUSH2 0x41B CALLDATASIZE PUSH1 0x4 PUSH2 0x202E JUMP JUMPDEST PUSH2 0xC47 JUMP JUMPDEST PUSH2 0x2EB PUSH3 0x2A300 DUP2 JUMP JUMPDEST PUSH2 0x43D PUSH2 0x438 CALLDATASIZE PUSH1 0x4 PUSH2 0x20EE JUMP JUMPDEST PUSH2 0xCDB JUMP JUMPDEST PUSH1 0x40 MLOAD PUSH1 0x0 SWAP2 SWAP1 SWAP2 SIGNEXTEND DUP2 MSTORE PUSH1 0x20 ADD PUSH2 0x257 JUMP JUMPDEST PUSH2 0x268 PUSH2 0xD2B JUMP JUMPDEST PUSH2 0x2AD PUSH2 0x466 CALLDATASIZE PUSH1 0x4 PUSH2 0x202E JUMP JUMPDEST PUSH2 0xD3A JUMP JUMPDEST PUSH2 0x2AD PUSH2 0x2A9 CALLDATASIZE PUSH1 0x4 PUSH2 0x1E25 JUMP JUMPDEST PUSH2 0x2AD PUSH2 0x487 CALLDATASIZE PUSH1 0x4 PUSH2 0x202E JUMP JUMPDEST PUSH2 0xDAB JUMP JUMPDEST PUSH2 0x2EB PUSH3 0x13C680 DUP2 JUMP JUMPDEST PUSH2 0x2AD PUSH2 0x4A4 CALLDATASIZE PUSH1 0x4 PUSH2 0x1DB6 JUMP JUMPDEST POP POP POP POP POP JUMP JUMPDEST PUSH2 0x268 PUSH2 0x4B9 CALLDATASIZE PUSH1 0x4 PUSH2 0x202E JUMP JUMPDEST PUSH2 0xEAF JUMP JUMPDEST PUSH2 0x53D PUSH2 0x4CC CALLDATASIZE PUSH1 0x4 PUSH2 0x202E JUMP JUMPDEST PUSH1 0x40 DUP1 MLOAD PUSH1 0x80 DUP1 DUP3 ADD DUP4 MSTORE PUSH1 0x0 DUP1 DUP4 MSTORE PUSH1 0x20 DUP1 DUP5 ADD DUP3 SWAP1 MSTORE DUP4 DUP6 ADD DUP3 SWAP1 MSTORE PUSH1 0x60 SWAP4 DUP5 ADD DUP3 SWAP1 MSTORE SWAP5 DUP2 MSTORE PUSH1 0x4 DUP6 MSTORE DUP4 SWAP1 KECCAK256 DUP4 MLOAD SWAP2 DUP3 ADD DUP5 MSTORE DUP1 SLOAD PUSH1 0x1 PUSH1 0x1 PUSH1 0xA0 SHL SUB AND DUP3 MSTORE PUSH1 0x1 DUP2 ADD SLOAD SWAP5 DUP3 ADD SWAP5 SWAP1 SWAP5 MSTORE PUSH1 0x2 DUP5 ADD SLOAD PUSH1 0xFF AND ISZERO ISZERO SWAP3 DUP2 ADD SWAP3 SWAP1 SWAP3 MSTORE PUSH1 0x3 SWAP1 SWAP3 ADD SLOAD SWAP2 DUP2 ADD SWAP2 SWAP1 SWAP2 MSTORE SWAP1 JUMP JUMPDEST PUSH1 0x40 MLOAD PUSH2 0x257 SWAP2 SWAP1 DUP2 MLOAD PUSH1 0x1 PUSH1 0x1 PUSH1 0xA0 SHL SUB AND DUP2 MSTORE PUSH1 0x20 DUP1 DUP4 ADD MLOAD SWAP1 DUP3 ADD MSTORE PUSH1 0x40 DUP1 DUP4 ADD MLOAD ISZERO ISZERO SWAP1 DUP3 ADD MSTORE PUSH1 0x60 SWAP2 DUP3 ADD MLOAD SWAP2 DUP2 ADD SWAP2 SWAP1 SWAP2 MSTORE PUSH1 0x80 ADD SWAP1 JUMP JUMPDEST PUSH2 0x43D PUSH2 0x589 CALLDATASIZE PUSH1 0x4 PUSH2 0x206C JUMP JUMPDEST PUSH2 0xFB5 JUMP JUMPDEST PUSH2 0x2AD PUSH2 0x59C CALLDATASIZE PUSH1 0x4 PUSH2 0x206C JUMP JUMPDEST PUSH2 0x1046 JUMP JUMPDEST PUSH2 0x24B PUSH2 0x5AF CALLDATASIZE PUSH1 0x4 PUSH2 0x1D47 JUMP JUMPDEST PUSH1 0x0 SWAP3 SWAP2 POP POP JUMP JUMPDEST PUSH2 0x2AD PUSH2 0x5C5 CALLDATASIZE PUSH1 0x4 PUSH2 0x2047 JUMP JUMPDEST PUSH2 0x105E JUMP JUMPDEST PUSH2 0x24B PUSH2 0x5D8 CALLDATASIZE PUSH1 0x4 PUSH2 0x206C JUMP JUMPDEST PUSH2 0x120E JUMP JUMPDEST PUSH2 0x2AD PUSH2 0x5EB CALLDATASIZE PUSH1 0x4 PUSH2 0x202E JUMP JUMPDEST PUSH2 0x12C3 JUMP JUMPDEST PUSH2 0x2EB PUSH3 0xED4E00 DUP2 JUMP JUMPDEST PUSH1 0x60 PUSH1 0x2 DUP1 SLOAD PUSH2 0x609 SWAP1 PUSH2 0x226A JUMP JUMPDEST DUP1 PUSH1 0x1F ADD PUSH1 0x20 DUP1 SWAP2 DIV MUL PUSH1 0x20 ADD PUSH1 0x40 MLOAD SWAP1 DUP2 ADD PUSH1 0x40 MSTORE DUP1 SWAP3 SWAP2 SWAP1 DUP2 DUP2 MSTORE PUSH1 0x20 ADD DUP3 DUP1 SLOAD PUSH2 0x635 SWAP1 PUSH2 0x226A JUMP JUMPDEST DUP1 ISZERO PUSH2 0x682 JUMPI DUP1 PUSH1 0x1F LT PUSH2 0x657 JUMPI PUSH2 0x100 DUP1 DUP4 SLOAD DIV MUL DUP4 MSTORE SWAP2 PUSH1 0x20 ADD SWAP2 PUSH2 0x682 JUMP JUMPDEST DUP3 ADD SWAP2 SWAP1 PUSH1 0x0 MSTORE PUSH1 0x20 PUSH1 0x0 KECCAK256 SWAP1 JUMPDEST DUP2 SLOAD DUP2 MSTORE SWAP1 PUSH1 0x1 ADD SWAP1 PUSH1 0x20 ADD DUP1 DUP4 GT PUSH2 0x665 JUMPI DUP3 SWAP1 SUB PUSH1 0x1F AND DUP3 ADD SWAP2 JUMPDEST POP POP POP POP POP SWAP1 POP SWAP1 JUMP JUMPDEST PUSH1 0x0 PUSH2 0x6AE CALLER JUMPDEST PUSH1 0x1 PUSH1 0x1 PUSH1 0xA0 SHL SUB AND PUSH1 0x0 SWAP1 DUP2 MSTORE PUSH1 0x5 PUSH1 0x20 MSTORE PUSH1 0x40 SWAP1 KECCAK256 SLOAD SWAP1 JUMP JUMPDEST SWAP1 POP PUSH2 0x6F1 DUP2 DUP6 DUP6 DUP6 DUP1 DUP1 PUSH1 0x1F ADD PUSH1 0x20 DUP1 SWAP2 DIV MUL PUSH1 0x20 ADD PUSH1 0x40 MLOAD SWAP1 DUP2 ADD PUSH1 0x40 MSTORE DUP1 SWAP4 SWAP3 SWAP2 SWAP1 DUP2 DUP2 MSTORE PUSH1 0x20 ADD DUP4 DUP4 DUP1 DUP3 DUP5 CALLDATACOPY PUSH1 0x0 SWAP3 ADD SWAP2 SWAP1 SWAP2 MSTORE POP PUSH2 0x12DA SWAP3 POP POP POP JUMP JUMPDEST POP POP POP POP JUMP JUMPDEST PUSH1 0x40 DUP1 MLOAD DUP1 DUP3 ADD DUP3 MSTORE PUSH1 0x60 DUP2 MSTORE PUSH1 0x0 PUSH1 0x20 DUP1 DUP4 ADD DUP3 SWAP1 MSTORE DUP5 DUP3 MSTORE PUSH1 0x4 DUP2 MSTORE DUP4 DUP3 KECCAK256 PUSH1 0x1 SWAP1 DUP2 ADD SLOAD DUP1 DUP5 MSTORE PUSH1 0x3 DUP4 MSTORE DUP6 DUP5 KECCAK256 DUP8 DUP6 MSTORE SWAP1 SWAP2 ADD SWAP1 SWAP2 MSTORE SWAP1 DUP4 SWAP1 KECCAK256 DUP4 MLOAD DUP1 DUP6 ADD SWAP1 SWAP5 MSTORE DUP1 SLOAD SWAP3 SWAP4 SWAP2 SWAP3 DUP3 SWAP1 DUP3 SWAP1 PUSH2 0x750 SWAP1 PUSH2 0x226A JUMP JUMPDEST DUP1 PUSH1 0x1F ADD PUSH1 0x20 DUP1 SWAP2 DIV MUL PUSH1 0x20 ADD PUSH1 0x40 MLOAD SWAP1 DUP2 ADD PUSH1 0x40 MSTORE DUP1 SWAP3 SWAP2 SWAP1 DUP2 DUP2 MSTORE PUSH1 0x20 ADD DUP3 DUP1 SLOAD PUSH2 0x77C SWAP1 PUSH2 0x226A JUMP JUMPDEST DUP1 ISZERO PUSH2 0x7C9 JUMPI DUP1 PUSH1 0x1F LT PUSH2 0x79E JUMPI PUSH2 0x100 DUP1 DUP4 SLOAD DIV MUL DUP4 MSTORE SWAP2 PUSH1 0x20 ADD SWAP2 PUSH2 0x7C9 JUMP JUMPDEST DUP3 ADD SWAP2 SWAP1 PUSH1 0x0 MSTORE PUSH1 0x20 PUSH1 0x0 KECCAK256 SWAP1 JUMPDEST DUP2 SLOAD DUP2 MSTORE SWAP1 PUSH1 0x1 ADD SWAP1 PUSH1 0x20 ADD DUP1 DUP4 GT PUSH2 0x7AC JUMPI DUP3 SWAP1 SUB PUSH1 0x1F AND DUP3 ADD SWAP2 JUMPDEST POP POP POP POP POP DUP2 MSTORE PUSH1 0x20 ADD PUSH1 0x1 DUP3 ADD SLOAD DUP2 MSTORE POP POP SWAP2 POP POP SWAP2 SWAP1 POP JUMP JUMPDEST PUSH1 0x0 PUSH2 0x7EF PUSH1 0x7 SLOAD SWAP1 JUMP JUMPDEST SWAP1 POP SWAP1 JUMP JUMPDEST PUSH1 0x0 DUP2 DUP2 MSTORE PUSH1 0x4 PUSH1 0x20 DUP2 SWAP1 MSTORE PUSH1 0x40 DUP1 DUP4 KECCAK256 PUSH1 0x3 ADD SLOAD SWAP1 MLOAD PUSH4 0x5E3BEE73 PUSH1 0xE0 SHL DUP2 MSTORE SWAP2 DUP3 ADD DUP5 SWAP1 MSTORE PUSH1 0x24 DUP3 ADD DUP2 SWAP1 MSTORE DUP3 SWAP2 DUP3 SWAP2 DUP3 SWAP2 DUP3 SWAP2 DUP3 SWAP2 ADDRESS SWAP1 PUSH4 0x5E3BEE73 SWAP1 PUSH1 0x44 ADD PUSH1 0xC0 PUSH1 0x40 MLOAD DUP1 DUP4 SUB DUP2 DUP7 DUP1 EXTCODESIZE ISZERO DUP1 ISZERO PUSH2 0x84F JUMPI PUSH1 0x0 DUP1 REVERT JUMPDEST POP GAS STATICCALL ISZERO DUP1 ISZERO PUSH2 0x863 JUMPI RETURNDATASIZE PUSH1 0x0 DUP1 RETURNDATACOPY RETURNDATASIZE PUSH1 0x0 REVERT JUMPDEST POP POP POP POP PUSH1 0x40 MLOAD RETURNDATASIZE PUSH1 0x1F NOT PUSH1 0x1F DUP3 ADD AND DUP3 ADD DUP1 PUSH1 0x40 MSTORE POP DUP2 ADD SWAP1 PUSH2 0x887 SWAP2 SWAP1 PUSH2 0x208E JUMP JUMPDEST SWAP5 SWAP14 SWAP4 SWAP13 POP SWAP2 SWAP11 POP SWAP9 POP SWAP7 POP SWAP1 SWAP5 POP SWAP3 POP POP POP JUMP JUMPDEST PUSH1 0x0 SLOAD PUSH2 0x100 SWAP1 DIV PUSH1 0xFF AND ISZERO DUP1 DUP1 ISZERO PUSH2 0x8BC JUMPI POP PUSH1 0x0 SLOAD PUSH1 0x1 PUSH1 0xFF SWAP1 SWAP2 AND LT JUMPDEST DUP1 PUSH2 0x8D6 JUMPI POP ADDRESS EXTCODESIZE ISZERO DUP1 ISZERO PUSH2 0x8D6 JUMPI POP PUSH1 0x0 SLOAD PUSH1 0xFF AND PUSH1 0x1 EQ JUMPDEST PUSH2 0x93E JUMPI PUSH1 0x40 MLOAD PUSH3 0x461BCD PUSH1 0xE5 SHL DUP2 MSTORE PUSH1 0x20 PUSH1 0x4 DUP3 ADD MSTORE PUSH1 0x2E PUSH1 0x24 DUP3 ADD MSTORE PUSH32 0x496E697469616C697A61626C653A20636F6E747261637420697320616C726561 PUSH1 0x44 DUP3 ADD MSTORE PUSH14 0x191E481A5B9A5D1A585B1A5E9959 PUSH1 0x92 SHL PUSH1 0x64 DUP3 ADD MSTORE PUSH1 0x84 ADD JUMPDEST PUSH1 0x40 MLOAD DUP1 SWAP2 SUB SWAP1 REVERT JUMPDEST PUSH1 0x0 DUP1 SLOAD PUSH1 0xFF NOT AND PUSH1 0x1 OR SWAP1 SSTORE DUP1 ISZERO PUSH2 0x961 JUMPI PUSH1 0x0 DUP1 SLOAD PUSH2 0xFF00 NOT AND PUSH2 0x100 OR SWAP1 SSTORE JUMPDEST DUP5 MLOAD PUSH2 0x974 SWAP1 PUSH1 0x1 SWAP1 PUSH1 0x20 DUP9 ADD SWAP1 PUSH2 0x1B27 JUMP JUMPDEST POP DUP4 MLOAD PUSH2 0x988 SWAP1 PUSH1 0x2 SWAP1 PUSH1 0x20 DUP8 ADD SWAP1 PUSH2 0x1B27 JUMP JUMPDEST POP PUSH1 0x0 PUSH1 0x7 DUP2 SWAP1 SSTORE PUSH1 0x8 DUP2 SWAP1 SSTORE JUMPDEST DUP4 MLOAD DUP2 PUSH1 0xFF AND LT ISZERO PUSH2 0xA33 JUMPI PUSH1 0x0 NOT PUSH1 0x0 DUP2 SWAP1 MSTORE PUSH1 0x4 PUSH1 0x20 MSTORE PUSH32 0xD8C80A9840ED58F33F2186A8FBC29ECD8C3610D196F1DA047301BD51988EB95E DUP1 SLOAD PUSH1 0xFF NOT AND PUSH1 0x1 OR SWAP1 SSTORE DUP5 MLOAD PUSH2 0xA21 SWAP2 SWAP1 DUP7 SWAP1 PUSH1 0xFF DUP6 AND SWAP1 DUP2 LT PUSH2 0x9F7 JUMPI PUSH2 0x9F7 PUSH2 0x230C JUMP JUMPDEST PUSH1 0x20 MUL PUSH1 0x20 ADD ADD MLOAD DUP6 DUP5 PUSH1 0xFF AND DUP2 MLOAD DUP2 LT PUSH2 0xA14 JUMPI PUSH2 0xA14 PUSH2 0x230C JUMP JUMPDEST PUSH1 0x20 MUL PUSH1 0x20 ADD ADD MLOAD PUSH2 0x12DA JUMP JUMPDEST DUP1 PUSH2 0xA2B DUP2 PUSH2 0x22C0 JUMP JUMPDEST SWAP2 POP POP PUSH2 0x996 JUMP JUMPDEST POP DUP1 ISZERO PUSH2 0x4A4 JUMPI PUSH1 0x0 DUP1 SLOAD PUSH2 0xFF00 NOT AND SWAP1 SSTORE PUSH1 0x40 MLOAD PUSH1 0x1 DUP2 MSTORE PUSH32 0x7F26B83FF96E1F2B6A682F133852F6798A09C465DA95921460CEFB3847402498 SWAP1 PUSH1 0x20 ADD PUSH1 0x40 MLOAD DUP1 SWAP2 SUB SWAP1 LOG1 POP POP POP POP POP JUMP JUMPDEST PUSH1 0x0 DUP2 DUP2 MSTORE PUSH1 0x4 PUSH1 0x20 SWAP1 DUP2 MSTORE PUSH1 0x40 DUP1 DUP4 KECCAK256 PUSH1 0x1 SWAP1 DUP2 ADD SLOAD DUP1 DUP6 MSTORE PUSH1 0x3 DUP5 MSTORE DUP3 DUP6 KECCAK256 DUP7 DUP7 MSTORE SWAP1 SWAP2 ADD SWAP1 SWAP3 MSTORE SWAP1 SWAP2 KECCAK256 DUP1 SLOAD PUSH1 0x60 SWAP3 SWAP2 SWAP1 PUSH2 0xABD SWAP1 PUSH2 0x226A JUMP JUMPDEST DUP1 PUSH1 0x1F ADD PUSH1 0x20 DUP1 SWAP2 DIV MUL PUSH1 0x20 ADD PUSH1 0x40 MLOAD SWAP1 DUP2 ADD PUSH1 0x40 MSTORE DUP1 SWAP3 SWAP2 SWAP1 DUP2 DUP2 MSTORE PUSH1 0x20 ADD DUP3 DUP1 SLOAD PUSH2 0xAE9 SWAP1 PUSH2 0x226A JUMP JUMPDEST DUP1 ISZERO PUSH2 0xB36 JUMPI DUP1 PUSH1 0x1F LT PUSH2 0xB0B JUMPI PUSH2 0x100 DUP1 DUP4 SLOAD DIV MUL DUP4 MSTORE SWAP2 PUSH1 0x20 ADD SWAP2 PUSH2 0xB36 JUMP JUMPDEST DUP3 ADD SWAP2 SWAP1 PUSH1 0x0 MSTORE PUSH1 0x20 PUSH1 0x0 KECCAK256 SWAP1 JUMPDEST DUP2 SLOAD DUP2 MSTORE SWAP1 PUSH1 0x1 ADD SWAP1 PUSH1 0x20 ADD DUP1 DUP4 GT PUSH2 0xB19 JUMPI DUP3 SWAP1 SUB PUSH1 0x1F AND DUP3 ADD SWAP2 JUMPDEST POP POP POP POP POP SWAP2 POP POP SWAP2 SWAP1 POP JUMP JUMPDEST PUSH1 0x0 DUP2 DUP2 MSTORE PUSH1 0x4 PUSH1 0x20 SWAP1 DUP2 MSTORE PUSH1 0x40 DUP1 DUP4 KECCAK256 PUSH1 0x1 ADD SLOAD DUP1 DUP5 MSTORE PUSH1 0x3 SWAP1 SWAP3 MSTORE DUP3 KECCAK256 DUP1 SLOAD PUSH1 0x0 NOT DUP4 EQ ISZERO PUSH2 0xB7F JUMPI DUP2 SLOAD PUSH2 0xB7C SWAP1 PUSH1 0x1 SWAP1 PUSH2 0x2227 JUMP JUMPDEST SWAP1 POP JUMPDEST SWAP5 SWAP4 POP POP POP POP JUMP JUMPDEST PUSH1 0x0 DUP1 PUSH1 0x0 DUP1 PUSH1 0x0 DUP1 PUSH1 0x0 PUSH1 0x6 PUSH1 0x0 DUP11 DUP2 MSTORE PUSH1 0x20 ADD SWAP1 DUP2 MSTORE PUSH1 0x20 ADD PUSH1 0x0 KECCAK256 DUP9 DUP2 SLOAD DUP2 LT PUSH2 0xBB6 JUMPI PUSH2 0xBB6 PUSH2 0x230C JUMP JUMPDEST PUSH1 0x0 SWAP2 DUP3 MSTORE PUSH1 0x20 DUP3 KECCAK256 PUSH1 0x6 SWAP2 SWAP1 SWAP2 MUL ADD PUSH1 0x1 DUP2 ADD SLOAD PUSH1 0x2 DUP3 ADD SLOAD DUP3 SLOAD PUSH1 0x4 DUP5 ADD SLOAD PUSH1 0x5 SWAP1 SWAP5 ADD SLOAD SWAP3 SWAP15 SWAP2 SWAP14 POP PUSH2 0x100 DUP2 DIV SWAP1 SWAP5 SIGNEXTEND SWAP12 POP SWAP2 SWAP10 POP SWAP8 POP PUSH1 0xFF SWAP1 SWAP2 AND SWAP6 POP SWAP4 POP POP POP POP JUMP JUMPDEST PUSH1 0x0 DUP2 DUP2 MSTORE PUSH1 0x4 PUSH1 0x20 MSTORE PUSH1 0x40 DUP2 KECCAK256 SLOAD PUSH1 0x1 PUSH1 0x1 PUSH1 0xA0 SHL SUB AND JUMPDEST SWAP3 SWAP2 POP POP JUMP JUMPDEST PUSH1 0x0 PUSH2 0xC18 DUP3 PUSH2 0x147E JUMP JUMPDEST PUSH1 0x1 PUSH1 0x1 PUSH1 0xA0 SHL SUB DUP2 AND PUSH1 0x0 SWAP1 DUP2 MSTORE PUSH1 0x5 PUSH1 0x20 MSTORE PUSH1 0x40 DUP2 KECCAK256 SLOAD PUSH2 0xC18 JUMP JUMPDEST PUSH1 0x0 DUP2 DUP2 MSTORE PUSH1 0x4 PUSH1 0x20 SWAP1 DUP2 MSTORE PUSH1 0x40 DUP1 DUP4 KECCAK256 DUP2 MLOAD PUSH1 0x80 DUP2 ADD DUP4 MSTORE DUP2 SLOAD PUSH1 0x1 PUSH1 0x1 PUSH1 0xA0 SHL SUB AND DUP2 MSTORE PUSH1 0x1 DUP1 DUP4 ADD SLOAD DUP3 DUP7 ADD DUP2 SWAP1 MSTORE PUSH1 0x2 DUP5 ADD SLOAD PUSH1 0xFF AND ISZERO ISZERO DUP4 DUP7 ADD MSTORE PUSH1 0x3 SWAP4 DUP5 ADD SLOAD PUSH1 0x60 DUP5 ADD MSTORE DUP7 MSTORE SWAP2 DUP5 MSTORE DUP3 DUP6 KECCAK256 DUP7 DUP7 MSTORE DUP3 ADD SWAP1 SWAP4 MSTORE SWAP1 DUP4 KECCAK256 ADD SLOAD DUP3 DUP2 ISZERO DUP1 PUSH2 0xCC1 JUMPI POP PUSH2 0xCBD PUSH3 0xED4E00 DUP4 PUSH2 0x220F JUMP JUMPDEST TIMESTAMP GT ISZERO JUMPDEST SWAP1 POP DUP1 ISZERO DUP1 ISZERO PUSH2 0xCD2 JUMPI POP DUP3 PUSH1 0x40 ADD MLOAD JUMPDEST SWAP6 SWAP5 POP POP POP POP POP JUMP JUMPDEST PUSH1 0x0 DUP4 DUP2 MSTORE PUSH1 0x6 PUSH1 0x20 MSTORE PUSH1 0x40 DUP2 KECCAK256 DUP1 SLOAD DUP3 SWAP2 SWAP1 DUP5 SWAP1 DUP2 LT PUSH2 0xCFE JUMPI PUSH2 0xCFE PUSH2 0x230C JUMP JUMPDEST PUSH1 0x0 SWAP2 DUP3 MSTORE PUSH1 0x20 DUP1 DUP4 KECCAK256 DUP8 DUP5 MSTORE PUSH1 0x3 PUSH1 0x6 SWAP1 SWAP4 MUL ADD SWAP2 SWAP1 SWAP2 ADD SWAP1 MSTORE PUSH1 0x40 DUP2 KECCAK256 SLOAD SWAP1 SIGNEXTEND SWAP2 POP POP JUMPDEST SWAP4 SWAP3 POP POP POP JUMP JUMPDEST PUSH1 0x60 PUSH1 0x1 DUP1 SLOAD PUSH2 0x609 SWAP1 PUSH2 0x226A JUMP JUMPDEST PUSH1 0x0 DUP2 DUP2 MSTORE PUSH1 0x4 PUSH1 0x20 MSTORE PUSH1 0x40 DUP1 DUP3 KECCAK256 PUSH1 0x1 ADD SLOAD DUP1 DUP4 MSTORE SWAP2 KECCAK256 PUSH1 0x2 ADD SLOAD PUSH1 0xFF AND ISZERO PUSH2 0xD77 JUMPI PUSH1 0x40 MLOAD PUSH4 0x6425D3F PUSH1 0xE2 SHL DUP2 MSTORE PUSH1 0x4 ADD PUSH1 0x40 MLOAD DUP1 SWAP2 SUB SWAP1 REVERT JUMPDEST PUSH1 0x40 MLOAD DUP3 SWAP1 PUSH32 0x946CCF7529D18D55B60565307325EAA52971532B461C039424DB6A003D5791D6 SWAP1 PUSH1 0x0 SWAP1 LOG2 PUSH2 0x2A9 DUP3 PUSH2 0x14CF JUMP JUMPDEST PUSH2 0xDB4 DUP2 PUSH2 0xC47 JUMP JUMPDEST ISZERO PUSH2 0xDD2 JUMPI PUSH1 0x40 MLOAD PUSH4 0x1994E321 PUSH1 0xE3 SHL DUP2 MSTORE PUSH1 0x4 ADD PUSH1 0x40 MLOAD DUP1 SWAP2 SUB SWAP1 REVERT JUMPDEST PUSH1 0x0 DUP2 DUP2 MSTORE PUSH1 0x4 PUSH1 0x20 MSTORE PUSH1 0x40 SWAP1 KECCAK256 PUSH1 0x2 ADD SLOAD PUSH1 0xFF AND PUSH2 0xE04 JUMPI PUSH1 0x40 MLOAD PUSH4 0x3C1391FD PUSH1 0xE1 SHL DUP2 MSTORE PUSH1 0x4 ADD PUSH1 0x40 MLOAD DUP1 SWAP2 SUB SWAP1 REVERT JUMPDEST PUSH1 0x0 PUSH2 0xE0F DUP3 PUSH2 0x15A9 JUMP JUMPDEST PUSH1 0x1 DUP2 ADD SLOAD SWAP1 SWAP2 POP ISZERO PUSH2 0xE35 JUMPI PUSH1 0x40 MLOAD PUSH4 0xD92060F3 PUSH1 0xE0 SHL DUP2 MSTORE PUSH1 0x4 ADD PUSH1 0x40 MLOAD DUP1 SWAP2 SUB SWAP1 REVERT JUMPDEST DUP1 SLOAD PUSH1 0xFF AND ISZERO PUSH2 0xE58 JUMPI PUSH1 0x40 MLOAD PUSH4 0x4DC137DD PUSH1 0xE1 SHL DUP2 MSTORE PUSH1 0x4 ADD PUSH1 0x40 MLOAD DUP1 SWAP2 SUB SWAP1 REVERT JUMPDEST TIMESTAMP PUSH1 0x1 DUP3 ADD DUP2 SWAP1 SSTORE PUSH2 0xE6E SWAP1 PUSH3 0x13C680 SWAP1 PUSH2 0x220F JUMP JUMPDEST PUSH1 0x2 DUP3 ADD SSTORE DUP1 SLOAD PUSH2 0xFF00 NOT AND PUSH2 0xFF00 OR DUP2 SSTORE PUSH1 0x40 MLOAD DUP3 SWAP1 PUSH32 0xFB4749A8BF40D9D3F0FBE28026FEDBE06DC90952EBA3759C2B3EC0A7D5697F31 SWAP1 PUSH1 0x0 SWAP1 LOG2 POP POP JUMP JUMPDEST PUSH1 0x0 DUP2 DUP2 MSTORE PUSH1 0x4 PUSH1 0x20 SWAP1 DUP2 MSTORE PUSH1 0x40 DUP1 DUP4 KECCAK256 PUSH1 0x1 SWAP1 DUP2 ADD SLOAD DUP1 DUP6 MSTORE PUSH1 0x3 DUP5 MSTORE DUP3 DUP6 KECCAK256 DUP7 DUP7 MSTORE SWAP1 SWAP2 ADD SWAP1 SWAP3 MSTORE DUP3 KECCAK256 DUP1 SLOAD PUSH1 0x60 SWAP4 SWAP2 SWAP1 PUSH2 0xEEB SWAP1 PUSH2 0x226A JUMP JUMPDEST DUP1 PUSH1 0x1F ADD PUSH1 0x20 DUP1 SWAP2 DIV MUL PUSH1 0x20 ADD PUSH1 0x40 MLOAD SWAP1 DUP2 ADD PUSH1 0x40 MSTORE DUP1 SWAP3 SWAP2 SWAP1 DUP2 DUP2 MSTORE PUSH1 0x20 ADD DUP3 DUP1 SLOAD PUSH2 0xF17 SWAP1 PUSH2 0x226A JUMP JUMPDEST DUP1 ISZERO PUSH2 0xF64 JUMPI DUP1 PUSH1 0x1F LT PUSH2 0xF39 JUMPI PUSH2 0x100 DUP1 DUP4 SLOAD DIV MUL DUP4 MSTORE SWAP2 PUSH1 0x20 ADD SWAP2 PUSH2 0xF64 JUMP JUMPDEST DUP3 ADD SWAP2 SWAP1 PUSH1 0x0 MSTORE PUSH1 0x20 PUSH1 0x0 KECCAK256 SWAP1 JUMPDEST DUP2 SLOAD DUP2 MSTORE SWAP1 PUSH1 0x1 ADD SWAP1 PUSH1 0x20 ADD DUP1 DUP4 GT PUSH2 0xF47 JUMPI DUP3 SWAP1 SUB PUSH1 0x1F AND DUP3 ADD SWAP2 JUMPDEST POP POP POP POP POP SWAP1 POP PUSH1 0x40 MLOAD DUP1 PUSH1 0x40 ADD PUSH1 0x40 MSTORE DUP1 PUSH1 0x7 DUP2 MSTORE PUSH1 0x20 ADD PUSH7 0x697066733A2F2F PUSH1 0xC8 SHL DUP2 MSTORE POP DUP2 PUSH1 0x40 MLOAD PUSH1 0x20 ADD PUSH2 0xF9D SWAP3 SWAP2 SWAP1 PUSH2 0x2146 JUMP JUMPDEST PUSH1 0x40 MLOAD PUSH1 0x20 DUP2 DUP4 SUB SUB DUP2 MSTORE SWAP1 PUSH1 0x40 MSTORE SWAP3 POP POP POP SWAP2 SWAP1 POP JUMP JUMPDEST PUSH1 0x0 DUP3 DUP2 MSTORE PUSH1 0x4 PUSH1 0x20 DUP2 SWAP1 MSTORE PUSH1 0x40 DUP1 DUP4 KECCAK256 PUSH1 0x3 ADD SLOAD SWAP1 MLOAD PUSH4 0x4896D603 PUSH1 0xE1 SHL DUP2 MSTORE SWAP2 DUP3 ADD DUP6 SWAP1 MSTORE PUSH1 0x24 DUP3 ADD DUP5 SWAP1 MSTORE PUSH1 0x44 DUP3 ADD DUP2 SWAP1 MSTORE SWAP1 ADDRESS SWAP1 PUSH4 0x912DAC06 SWAP1 PUSH1 0x64 ADD PUSH1 0x20 PUSH1 0x40 MLOAD DUP1 DUP4 SUB DUP2 DUP7 DUP1 EXTCODESIZE ISZERO DUP1 ISZERO PUSH2 0x100E JUMPI PUSH1 0x0 DUP1 REVERT JUMPDEST POP GAS STATICCALL ISZERO DUP1 ISZERO PUSH2 0x1022 JUMPI RETURNDATASIZE PUSH1 0x0 DUP1 RETURNDATACOPY RETURNDATASIZE PUSH1 0x0 REVERT JUMPDEST POP POP POP POP PUSH1 0x40 MLOAD RETURNDATASIZE PUSH1 0x1F NOT PUSH1 0x1F DUP3 ADD AND DUP3 ADD DUP1 PUSH1 0x40 MSTORE POP DUP2 ADD SWAP1 PUSH2 0xB7F SWAP2 SWAP1 PUSH2 0x1F03 JUMP JUMPDEST PUSH1 0x0 PUSH2 0x1051 DUP4 PUSH2 0x15A9 JUMP JUMPDEST SWAP1 POP PUSH2 0x36D DUP4 DUP3 DUP5 PUSH2 0x1628 JUMP JUMPDEST PUSH1 0x0 PUSH2 0x1069 CALLER PUSH2 0x693 JUMP JUMPDEST SWAP1 POP PUSH1 0x0 PUSH2 0x1076 DUP5 PUSH2 0x15A9 JUMP JUMPDEST SWAP1 POP DUP1 PUSH1 0x1 ADD SLOAD PUSH1 0x0 EQ ISZERO PUSH2 0x109E JUMPI PUSH1 0x40 MLOAD PUSH4 0x1EB4F4E7 PUSH1 0xE0 SHL DUP2 MSTORE PUSH1 0x4 ADD PUSH1 0x40 MLOAD DUP1 SWAP2 SUB SWAP1 REVERT JUMPDEST DUP1 SLOAD PUSH1 0xFF AND ISZERO PUSH2 0x10C1 JUMPI PUSH1 0x40 MLOAD PUSH4 0xA238277 PUSH1 0xE1 SHL DUP2 MSTORE PUSH1 0x4 ADD PUSH1 0x40 MLOAD DUP1 SWAP2 SUB SWAP1 REVERT JUMPDEST DUP1 PUSH1 0x2 ADD SLOAD TIMESTAMP GT ISZERO PUSH2 0x10E6 JUMPI PUSH1 0x40 MLOAD PUSH4 0x35C84AEB PUSH1 0xE2 SHL DUP2 MSTORE PUSH1 0x4 ADD PUSH1 0x40 MLOAD DUP1 SWAP2 SUB SWAP1 REVERT JUMPDEST PUSH2 0x10F0 DUP3 DUP6 PUSH2 0x120E JUMP JUMPDEST PUSH2 0x110D JUMPI PUSH1 0x40 MLOAD PUSH4 0x7CD1A649 PUSH1 0xE1 SHL DUP2 MSTORE PUSH1 0x4 ADD PUSH1 0x40 MLOAD DUP1 SWAP2 SUB SWAP1 REVERT JUMPDEST PUSH1 0x0 DUP3 DUP2 MSTORE PUSH1 0x3 DUP3 ADD PUSH1 0x20 MSTORE PUSH1 0x40 DUP2 KECCAK256 SLOAD DUP2 SIGNEXTEND SWAP1 SIGNEXTEND ISZERO PUSH2 0x1140 JUMPI PUSH1 0x40 MLOAD PUSH4 0x8601A095 PUSH1 0xE0 SHL DUP2 MSTORE PUSH1 0x4 ADD PUSH1 0x40 MLOAD DUP1 SWAP2 SUB SWAP1 REVERT JUMPDEST DUP3 PUSH1 0x0 SIGNEXTEND PUSH1 0x1 EQ PUSH2 0x1153 JUMPI PUSH1 0x0 NOT PUSH2 0x1156 JUMP JUMPDEST PUSH1 0x1 JUMPDEST PUSH1 0x0 DUP4 DUP2 MSTORE PUSH1 0x3 DUP4 ADD PUSH1 0x20 MSTORE PUSH1 0x40 DUP2 KECCAK256 DUP1 SLOAD SWAP3 DUP3 SIGNEXTEND PUSH1 0xFF AND PUSH1 0xFF NOT SWAP1 SWAP4 AND SWAP3 SWAP1 SWAP3 OR SWAP1 SWAP2 SSTORE PUSH1 0x4 DUP3 ADD DUP1 SLOAD PUSH1 0x1 SWAP3 SWAP1 PUSH2 0x1190 SWAP1 DUP5 SWAP1 PUSH2 0x220F JUMP JUMPDEST SWAP1 SWAP2 SSTORE POP POP PUSH1 0x1 PUSH1 0x0 DUP5 SWAP1 SIGNEXTEND EQ PUSH2 0x11A8 JUMPI PUSH1 0x0 PUSH2 0x11AB JUMP JUMPDEST PUSH1 0x1 JUMPDEST PUSH1 0xFF AND DUP2 PUSH1 0x5 ADD PUSH1 0x0 DUP3 DUP3 SLOAD PUSH2 0x11C1 SWAP2 SWAP1 PUSH2 0x220F JUMP JUMPDEST SWAP1 SWAP2 SSTORE POP POP PUSH1 0x40 DUP1 MLOAD DUP6 DUP2 MSTORE PUSH1 0x0 DUP6 SWAP1 SIGNEXTEND PUSH1 0x20 DUP3 ADD MSTORE DUP4 SWAP2 PUSH32 0xBDC899FF9789426DEC6B3C3BC128ED8CC0A9B248C274DD93CFDB3709E5A2125E SWAP2 ADD PUSH1 0x40 MLOAD DUP1 SWAP2 SUB SWAP1 LOG2 PUSH2 0x6F1 DUP2 DUP6 PUSH2 0x1711 JUMP JUMPDEST PUSH1 0x0 DUP2 DUP4 EQ ISZERO PUSH2 0x1220 JUMPI POP PUSH1 0x0 PUSH2 0xC18 JUMP JUMPDEST DUP3 PUSH2 0x122D JUMPI POP PUSH1 0x0 PUSH2 0xC18 JUMP JUMPDEST PUSH1 0x0 DUP3 DUP2 MSTORE PUSH1 0x4 PUSH1 0x20 MSTORE PUSH1 0x40 DUP1 DUP3 KECCAK256 PUSH1 0x1 ADD SLOAD DUP1 DUP4 MSTORE SWAP2 KECCAK256 PUSH1 0x2 ADD SLOAD PUSH1 0xFF AND PUSH2 0x1269 JUMPI PUSH1 0x40 MLOAD PUSH4 0xB0B9DA2D PUSH1 0xE0 SHL DUP2 MSTORE PUSH1 0x4 ADD PUSH1 0x40 MLOAD DUP1 SWAP2 SUB SWAP1 REVERT JUMPDEST PUSH1 0x0 DUP5 DUP2 MSTORE PUSH1 0x4 PUSH1 0x20 MSTORE PUSH1 0x40 DUP2 KECCAK256 PUSH1 0x1 ADD SLOAD DUP3 EQ DUP1 PUSH2 0x1287 JUMPI POP DUP2 DUP6 EQ JUMPDEST PUSH1 0x0 DUP7 DUP2 MSTORE PUSH1 0x4 PUSH1 0x20 MSTORE PUSH1 0x40 SWAP1 KECCAK256 PUSH1 0x2 ADD SLOAD SWAP1 SWAP2 POP PUSH1 0xFF AND DUP1 ISZERO PUSH2 0x12A8 JUMPI POP DUP1 JUMPDEST ISZERO PUSH2 0x12B8 JUMPI PUSH1 0x1 SWAP3 POP POP POP PUSH2 0xC18 JUMP JUMPDEST POP PUSH1 0x0 SWAP5 SWAP4 POP POP POP POP JUMP JUMPDEST PUSH1 0x0 PUSH2 0x12CE DUP3 PUSH2 0x15A9 JUMP JUMPDEST SWAP1 POP PUSH2 0x2A9 DUP2 DUP4 PUSH2 0x1711 JUMP JUMPDEST PUSH1 0x0 PUSH2 0x12E4 PUSH2 0x195B JUMP JUMPDEST PUSH1 0x0 DUP6 DUP2 MSTORE PUSH1 0x4 PUSH1 0x20 MSTORE PUSH1 0x40 SWAP1 KECCAK256 PUSH1 0x2 ADD SLOAD SWAP1 SWAP2 POP PUSH1 0xFF AND PUSH2 0x1319 JUMPI PUSH1 0x40 MLOAD PUSH4 0x119AB1C9 PUSH1 0xE1 SHL DUP2 MSTORE PUSH1 0x4 ADD PUSH1 0x40 MLOAD DUP1 SWAP2 SUB SWAP1 REVERT JUMPDEST PUSH1 0x1 PUSH1 0x1 PUSH1 0xA0 SHL SUB DUP4 AND PUSH1 0x0 SWAP1 DUP2 MSTORE PUSH1 0x5 PUSH1 0x20 MSTORE PUSH1 0x40 SWAP1 KECCAK256 SLOAD ISZERO PUSH2 0x1350 JUMPI PUSH1 0x40 MLOAD PUSH4 0xCB502EF1 PUSH1 0xE0 SHL DUP2 MSTORE PUSH1 0x4 ADD PUSH1 0x40 MLOAD DUP1 SWAP2 SUB SWAP1 REVERT JUMPDEST PUSH1 0x0 DUP5 DUP2 MSTORE PUSH1 0x3 PUSH1 0x20 SWAP1 DUP2 MSTORE PUSH1 0x40 DUP1 DUP4 KECCAK256 DUP5 DUP5 MSTORE PUSH1 0x1 DUP2 ADD DUP4 MSTORE SWAP3 KECCAK256 DUP5 MLOAD SWAP1 SWAP2 PUSH2 0x137E SWAP2 DUP4 SWAP2 DUP8 ADD SWAP1 PUSH2 0x1B27 JUMP JUMPDEST POP TIMESTAMP PUSH1 0x1 DUP3 DUP2 ADD SWAP2 SWAP1 SWAP2 SSTORE PUSH1 0x0 DUP5 DUP2 MSTORE PUSH1 0x4 PUSH1 0x20 SWAP1 DUP2 MSTORE PUSH1 0x40 DUP1 DUP4 KECCAK256 DUP1 SLOAD PUSH1 0x1 PUSH1 0x1 PUSH1 0xA0 SHL SUB NOT AND PUSH1 0x1 PUSH1 0x1 PUSH1 0xA0 SHL SUB DUP12 AND SWAP1 DUP2 OR DUP3 SSTORE DUP2 DUP7 ADD DUP13 SWAP1 SSTORE PUSH1 0x2 SWAP1 SWAP2 ADD DUP1 SLOAD PUSH1 0xFF NOT AND DUP7 OR SWAP1 SSTORE DUP4 MSTORE PUSH1 0x5 SWAP1 SWAP2 MSTORE DUP2 KECCAK256 DUP6 SWAP1 SSTORE DUP4 SLOAD DUP5 SWAP2 SWAP1 PUSH2 0x13E6 SWAP1 DUP5 SWAP1 PUSH2 0x220F JUMP JUMPDEST SWAP3 POP POP DUP2 SWAP1 SSTORE POP PUSH1 0x1 PUSH1 0x7 PUSH1 0x0 DUP3 DUP3 SLOAD PUSH2 0x1400 SWAP2 SWAP1 PUSH2 0x220F JUMP JUMPDEST SWAP1 SWAP2 SSTORE POP POP PUSH1 0x40 MLOAD DUP4 SWAP1 PUSH1 0x1 PUSH1 0x1 PUSH1 0xA0 SHL SUB DUP8 AND SWAP1 PUSH1 0x0 SWAP1 PUSH32 0xDDF252AD1BE2C89B69C2B068FC378DAA952BA7F163C4A11628F55A4DF523B3EF SWAP1 DUP3 SWAP1 LOG4 DUP3 DUP7 PUSH32 0xCD7F391A9646E0AB41EC2096F1D380FEBCDD775905C957EC790AB3738F9FDD78 DUP7 PUSH1 0x40 MLOAD PUSH2 0x146E SWAP2 SWAP1 PUSH2 0x2175 JUMP JUMPDEST PUSH1 0x40 MLOAD DUP1 SWAP2 SUB SWAP1 LOG3 POP POP POP POP POP POP JUMP JUMPDEST PUSH1 0x1 PUSH1 0x1 PUSH1 0xA0 SHL SUB DUP2 AND PUSH1 0x0 SWAP1 DUP2 MSTORE PUSH1 0x5 PUSH1 0x20 MSTORE PUSH1 0x40 DUP2 KECCAK256 SLOAD DUP1 ISZERO DUP1 ISZERO SWAP1 PUSH2 0x14B7 JUMPI POP PUSH1 0x0 DUP2 DUP2 MSTORE PUSH1 0x4 PUSH1 0x20 MSTORE PUSH1 0x40 SWAP1 KECCAK256 PUSH1 0x2 ADD SLOAD PUSH1 0xFF AND JUMPDEST PUSH2 0x14C2 JUMPI PUSH1 0x0 PUSH2 0x14C5 JUMP JUMPDEST PUSH1 0x1 JUMPDEST PUSH1 0xFF AND SWAP4 SWAP3 POP POP POP JUMP JUMPDEST PUSH1 0x0 DUP2 DUP2 MSTORE PUSH1 0x4 PUSH1 0x20 MSTORE PUSH1 0x40 SWAP1 KECCAK256 PUSH1 0x2 DUP2 ADD SLOAD PUSH1 0xFF AND PUSH2 0x1502 JUMPI PUSH1 0x40 MLOAD PUSH4 0x92C9B599 PUSH1 0xE0 SHL DUP2 MSTORE PUSH1 0x4 ADD PUSH1 0x40 MLOAD DUP1 SWAP2 SUB SWAP1 REVERT JUMPDEST PUSH1 0x2 DUP2 ADD DUP1 SLOAD PUSH1 0xFF NOT AND SWAP1 SSTORE DUP1 SLOAD PUSH1 0x1 PUSH1 0x1 PUSH1 0xA0 SHL SUB AND PUSH1 0x0 SWAP1 DUP2 MSTORE PUSH1 0x5 PUSH1 0x20 SWAP1 DUP2 MSTORE PUSH1 0x40 DUP1 DUP4 KECCAK256 DUP4 SWAP1 SSTORE DUP4 SLOAD PUSH1 0x1 PUSH1 0x1 PUSH1 0xA0 SHL SUB NOT AND DUP5 SSTORE PUSH1 0x1 DUP1 DUP6 ADD SLOAD DUP5 MSTORE PUSH1 0x3 SWAP1 SWAP3 MSTORE DUP3 KECCAK256 DUP1 SLOAD SWAP2 SWAP3 SWAP1 SWAP2 PUSH2 0x155B SWAP1 DUP5 SWAP1 PUSH2 0x2227 JUMP JUMPDEST SWAP3 POP POP DUP2 SWAP1 SSTORE POP PUSH1 0x1 PUSH1 0x7 PUSH1 0x0 DUP3 DUP3 SLOAD PUSH2 0x1575 SWAP2 SWAP1 PUSH2 0x2227 JUMP JUMPDEST SWAP1 SWAP2 SSTORE POP POP PUSH1 0x40 MLOAD DUP3 SWAP1 PUSH32 0x8401ED0B52520270FFBA65C5383931FC1C6E30B27E1FC692D871D4F669D1F1EA SWAP1 PUSH1 0x0 SWAP1 LOG2 POP POP JUMP JUMPDEST PUSH1 0x0 DUP2 DUP2 MSTORE PUSH1 0x4 PUSH1 0x20 MSTORE PUSH1 0x40 DUP2 KECCAK256 PUSH1 0x3 ADD SLOAD PUSH2 0x15C6 DUP2 PUSH1 0x1 PUSH2 0x220F JUMP JUMPDEST PUSH1 0x0 DUP5 DUP2 MSTORE PUSH1 0x6 PUSH1 0x20 MSTORE PUSH1 0x40 SWAP1 KECCAK256 SLOAD EQ PUSH2 0x15F2 JUMPI PUSH1 0x0 DUP4 DUP2 MSTORE PUSH1 0x6 PUSH1 0x20 MSTORE PUSH1 0x40 DUP2 KECCAK256 DUP1 SLOAD PUSH1 0x1 ADD DUP2 SSTORE SWAP1 MSTORE JUMPDEST PUSH1 0x0 DUP4 DUP2 MSTORE PUSH1 0x6 PUSH1 0x20 MSTORE PUSH1 0x40 SWAP1 KECCAK256 DUP1 SLOAD DUP3 SWAP1 DUP2 LT PUSH2 0x1612 JUMPI PUSH2 0x1612 PUSH2 0x230C JUMP JUMPDEST SWAP1 PUSH1 0x0 MSTORE PUSH1 0x20 PUSH1 0x0 KECCAK256 SWAP1 PUSH1 0x6 MUL ADD SWAP2 POP POP SWAP2 SWAP1 POP JUMP JUMPDEST PUSH1 0x0 DUP2 DUP2 MSTORE PUSH1 0x3 DUP4 ADD PUSH1 0x20 MSTORE PUSH1 0x40 DUP2 KECCAK256 SLOAD DUP2 SIGNEXTEND SWAP1 SIGNEXTEND PUSH2 0x165A JUMPI PUSH1 0x40 MLOAD PUSH4 0x59DC3029 PUSH1 0xE0 SHL DUP2 MSTORE PUSH1 0x4 ADD PUSH1 0x40 MLOAD DUP1 SWAP2 SUB SWAP1 REVERT JUMPDEST PUSH1 0x0 DUP2 DUP2 MSTORE PUSH1 0x4 PUSH1 0x20 MSTORE PUSH1 0x40 SWAP1 KECCAK256 PUSH1 0x2 ADD SLOAD PUSH1 0xFF AND ISZERO PUSH2 0x168D JUMPI PUSH1 0x40 MLOAD PUSH4 0x5C2A53C5 PUSH1 0xE1 SHL DUP2 MSTORE PUSH1 0x4 ADD PUSH1 0x40 MLOAD DUP1 SWAP2 SUB SWAP1 REVERT JUMPDEST PUSH1 0x1 DUP3 PUSH1 0x4 ADD PUSH1 0x0 DUP3 DUP3 SLOAD PUSH2 0x16A2 SWAP2 SWAP1 PUSH2 0x2227 JUMP JUMPDEST SWAP1 SWAP2 SSTORE POP POP PUSH1 0x0 DUP2 DUP2 MSTORE PUSH1 0x3 DUP4 ADD PUSH1 0x20 MSTORE PUSH1 0x40 DUP2 KECCAK256 SLOAD DUP2 SIGNEXTEND SWAP1 SIGNEXTEND PUSH1 0x1 EQ ISZERO PUSH2 0x16DF JUMPI PUSH1 0x1 DUP3 PUSH1 0x5 ADD PUSH1 0x0 DUP3 DUP3 SLOAD PUSH2 0x16D9 SWAP2 SWAP1 PUSH2 0x2227 JUMP JUMPDEST SWAP1 SWAP2 SSTORE POP POP JUMPDEST PUSH1 0x40 MLOAD DUP2 SWAP1 DUP5 SWAP1 PUSH32 0x6A5DE386C49C7E87D450F082EACE65D7329E7123BDF11460295F7747ADAD1105 SWAP1 PUSH1 0x0 SWAP1 LOG3 POP POP POP JUMP JUMPDEST PUSH1 0x0 DUP1 PUSH1 0x0 DUP1 DUP6 PUSH1 0x4 ADD SLOAD GT ISZERO PUSH2 0x1764 JUMPI PUSH2 0x1761 PUSH2 0x1756 PUSH2 0x1747 PUSH8 0xDE0B6B3A7640000 DUP9 PUSH1 0x4 ADD SLOAD PUSH2 0x1976 SWAP1 SWAP2 SWAP1 PUSH4 0xFFFFFFFF AND JUMP JUMPDEST PUSH8 0xDE0B6B3A7640000 SWAP1 PUSH2 0x1982 JUMP JUMPDEST PUSH1 0x5 DUP8 ADD SLOAD SWAP1 PUSH2 0x1976 JUMP JUMPDEST SWAP1 POP JUMPDEST PUSH1 0x0 PUSH8 0x6F05B59D3B20000 DUP3 LT ISZERO PUSH2 0x177E JUMPI PUSH1 0x0 NOT PUSH2 0x1781 JUMP JUMPDEST PUSH1 0x1 JUMPDEST DUP7 SLOAD SWAP1 SWAP2 POP PUSH1 0x0 DUP3 DUP2 SIGNEXTEND PUSH2 0x100 SWAP1 SWAP3 DIV DUP2 SIGNEXTEND SWAP1 SIGNEXTEND EQ PUSH2 0x1833 JUMPI DUP6 SLOAD PUSH1 0x0 DUP3 DUP2 SIGNEXTEND PUSH1 0xFF AND PUSH2 0x100 MUL PUSH2 0xFF00 NOT SWAP1 SWAP3 AND SWAP2 SWAP1 SWAP2 OR DUP8 SSTORE PUSH1 0x2 DUP8 ADD SLOAD PUSH2 0x17C5 SWAP1 TIMESTAMP SWAP1 PUSH2 0x2227 JUMP JUMPDEST SWAP1 POP PUSH3 0x2A300 DUP2 LT ISZERO PUSH2 0x1831 JUMPI PUSH1 0x0 PUSH2 0x17E1 DUP3 PUSH3 0x2A300 PUSH2 0x2227 JUMP JUMPDEST DUP9 PUSH1 0x2 ADD SLOAD PUSH2 0x17F0 SWAP2 SWAP1 PUSH2 0x220F JUMP JUMPDEST SWAP1 POP PUSH32 0x5073BEC5C188828181E51012E5967FBDAC7312BD400B8120CF3DCB0B8EE0F11E DUP2 PUSH1 0x40 MLOAD PUSH2 0x1823 SWAP2 DUP2 MSTORE PUSH1 0x20 ADD SWAP1 JUMP JUMPDEST PUSH1 0x40 MLOAD DUP1 SWAP2 SUB SWAP1 LOG1 PUSH1 0x2 DUP9 ADD SSTORE JUMPDEST POP JUMPDEST DUP6 PUSH1 0x2 ADD SLOAD TIMESTAMP GT PUSH2 0x1876 JUMPI PUSH1 0x0 PUSH2 0x1849 DUP7 PUSH2 0xB43 JUMP JUMPDEST SWAP1 POP PUSH2 0x186E PUSH2 0x1863 PUSH2 0x1747 DUP4 PUSH8 0xDE0B6B3A7640000 PUSH2 0x1976 JUMP JUMPDEST PUSH1 0x5 DUP10 ADD SLOAD SWAP1 PUSH2 0x1976 JUMP JUMPDEST SWAP4 POP POP PUSH2 0x187E JUMP JUMPDEST PUSH1 0x1 SWAP4 POP DUP2 SWAP3 POP JUMPDEST PUSH1 0x0 PUSH8 0x6F05B59D3B20000 DUP5 LT ISZERO PUSH2 0x1898 JUMPI PUSH1 0x0 NOT PUSH2 0x189B JUMP JUMPDEST PUSH1 0x1 JUMPDEST SWAP1 POP PUSH1 0x0 DUP2 SWAP1 SIGNEXTEND PUSH1 0x1 EQ ISZERO PUSH2 0x18E2 JUMPI PUSH1 0x40 MLOAD PUSH1 0x1 SWAP6 POP DUP7 SWAP1 PUSH32 0xA3B99CEC0CD3A7EE24EC2A54714E340CC9A7116AA4B0FF7730371682CB47F580 SWAP1 PUSH1 0x0 SWAP1 LOG2 PUSH2 0x18E2 DUP7 PUSH2 0x14CF JUMP JUMPDEST DUP5 ISZERO PUSH2 0x1952 JUMPI PUSH1 0x40 DUP1 MLOAD DUP8 DUP2 MSTORE PUSH1 0x0 DUP4 SWAP1 SIGNEXTEND PUSH1 0x20 DUP3 ADD MSTORE PUSH32 0x4E4D413658C729B8CF2DEE49DA9D98754C99A09654D209CE00244648FEBC1E54 SWAP2 ADD PUSH1 0x40 MLOAD DUP1 SWAP2 SUB SWAP1 LOG1 DUP7 SLOAD PUSH1 0xFF NOT AND PUSH1 0x1 OR DUP8 SSTORE PUSH1 0x0 DUP7 DUP2 MSTORE PUSH1 0x4 PUSH1 0x20 MSTORE PUSH1 0x40 DUP2 KECCAK256 PUSH1 0x3 ADD DUP1 SLOAD SWAP2 PUSH2 0x194C DUP4 PUSH2 0x22A5 JUMP JUMPDEST SWAP2 SWAP1 POP SSTORE POP JUMPDEST POP POP POP POP POP POP POP JUMP JUMPDEST PUSH1 0x0 PUSH1 0x8 PUSH1 0x0 DUP2 SLOAD PUSH2 0x196C SWAP1 PUSH2 0x22A5 JUMP JUMPDEST SWAP2 DUP3 SWAP1 SSTORE POP SWAP2 SWAP1 POP JUMP JUMPDEST PUSH1 0x0 PUSH2 0xD24 DUP4 DUP4 PUSH2 0x1997 JUMP JUMPDEST PUSH1 0x0 PUSH2 0xD24 DUP4 PUSH8 0xDE0B6B3A7640000 DUP5 PUSH2 0x1A59 JUMP JUMPDEST PUSH1 0x0 DUP1 DUP1 PUSH1 0x0 NOT DUP5 DUP7 MULMOD DUP5 DUP7 MUL SWAP3 POP DUP3 DUP2 LT DUP4 DUP3 SUB SUB SWAP2 POP POP PUSH8 0xDE0B6B3A7640000 DUP2 LT PUSH2 0x19DB JUMPI PUSH1 0x40 MLOAD PUSH4 0x698D9A01 PUSH1 0xE1 SHL DUP2 MSTORE PUSH1 0x4 DUP2 ADD DUP3 SWAP1 MSTORE PUSH1 0x24 ADD PUSH2 0x935 JUMP JUMPDEST PUSH1 0x0 DUP1 PUSH8 0xDE0B6B3A7640000 DUP7 DUP9 MULMOD SWAP2 POP POP PUSH8 0x6F05B59D3B1FFFF DUP2 GT DUP3 PUSH2 0x1A15 JUMPI DUP1 PUSH8 0xDE0B6B3A7640000 DUP6 DIV ADD SWAP5 POP POP POP POP POP PUSH2 0xC18 JUMP JUMPDEST PUSH3 0x40000 DUP3 DUP6 SUB DIV SWAP4 SWAP1 SWAP2 GT SWAP1 SWAP2 SUB PUSH1 0x1 PUSH1 0xEE SHL MUL SWAP2 SWAP1 SWAP2 OR PUSH32 0xACCB18165BD6FE31AE1CF318DC5B51EEE0E1BA569B88CD74C1773B91FAC10669 MUL ADD SWAP1 POP SWAP3 SWAP2 POP POP JUMP JUMPDEST PUSH1 0x0 DUP1 DUP1 PUSH1 0x0 NOT DUP6 DUP8 MULMOD DUP6 DUP8 MUL SWAP3 POP DUP3 DUP2 LT DUP4 DUP3 SUB SUB SWAP2 POP POP DUP1 PUSH1 0x0 EQ ISZERO PUSH2 0x1A94 JUMPI DUP4 DUP3 DUP2 PUSH2 0x1A8A JUMPI PUSH2 0x1A8A PUSH2 0x22F6 JUMP JUMPDEST DIV SWAP3 POP POP POP PUSH2 0xD24 JUMP JUMPDEST DUP4 DUP2 LT PUSH2 0x1ABE JUMPI PUSH1 0x40 MLOAD PUSH4 0x1DCF3063 PUSH1 0xE2 SHL DUP2 MSTORE PUSH1 0x4 DUP2 ADD DUP3 SWAP1 MSTORE PUSH1 0x24 DUP2 ADD DUP6 SWAP1 MSTORE PUSH1 0x44 ADD PUSH2 0x935 JUMP JUMPDEST PUSH1 0x0 DUP5 DUP7 DUP9 MULMOD PUSH1 0x2 PUSH1 0x1 DUP8 NOT DUP2 ADD DUP9 AND SWAP8 DUP9 SWAP1 DIV PUSH1 0x3 DUP2 MUL DUP4 XOR DUP1 DUP3 MUL DUP5 SUB MUL DUP1 DUP3 MUL DUP5 SUB MUL DUP1 DUP3 MUL DUP5 SUB MUL DUP1 DUP3 MUL DUP5 SUB MUL DUP1 DUP3 MUL DUP5 SUB MUL SWAP1 DUP2 MUL SWAP1 SWAP3 SUB SWAP1 SWAP2 MUL PUSH1 0x0 DUP9 SWAP1 SUB DUP9 SWAP1 DIV SWAP1 SWAP2 ADD DUP6 DUP4 GT SWAP1 SWAP5 SUB SWAP4 SWAP1 SWAP4 MUL SWAP4 SUB SWAP5 SWAP1 SWAP5 DIV SWAP2 SWAP1 SWAP2 OR MUL SWAP5 SWAP4 POP POP POP POP JUMP JUMPDEST DUP3 DUP1 SLOAD PUSH2 0x1B33 SWAP1 PUSH2 0x226A JUMP JUMPDEST SWAP1 PUSH1 0x0 MSTORE PUSH1 0x20 PUSH1 0x0 KECCAK256 SWAP1 PUSH1 0x1F ADD PUSH1 0x20 SWAP1 DIV DUP2 ADD SWAP3 DUP3 PUSH2 0x1B55 JUMPI PUSH1 0x0 DUP6 SSTORE PUSH2 0x1B9B JUMP JUMPDEST DUP3 PUSH1 0x1F LT PUSH2 0x1B6E JUMPI DUP1 MLOAD PUSH1 0xFF NOT AND DUP4 DUP1 ADD OR DUP6 SSTORE PUSH2 0x1B9B JUMP JUMPDEST DUP3 DUP1 ADD PUSH1 0x1 ADD DUP6 SSTORE DUP3 ISZERO PUSH2 0x1B9B JUMPI SWAP2 DUP3 ADD JUMPDEST DUP3 DUP2 GT ISZERO PUSH2 0x1B9B JUMPI DUP3 MLOAD DUP3 SSTORE SWAP2 PUSH1 0x20 ADD SWAP2 SWAP1 PUSH1 0x1 ADD SWAP1 PUSH2 0x1B80 JUMP JUMPDEST POP PUSH2 0x1BA7 SWAP3 SWAP2 POP PUSH2 0x1BAB JUMP JUMPDEST POP SWAP1 JUMP JUMPDEST JUMPDEST DUP1 DUP3 GT ISZERO PUSH2 0x1BA7 JUMPI PUSH1 0x0 DUP2 SSTORE PUSH1 0x1 ADD PUSH2 0x1BAC JUMP JUMPDEST DUP1 CALLDATALOAD PUSH1 0x1 PUSH1 0x1 PUSH1 0xA0 SHL SUB DUP2 AND DUP2 EQ PUSH2 0x1BD7 JUMPI PUSH1 0x0 DUP1 REVERT JUMPDEST SWAP2 SWAP1 POP JUMP JUMPDEST PUSH1 0x0 DUP3 PUSH1 0x1F DUP4 ADD SLT PUSH2 0x1BED JUMPI PUSH1 0x0 DUP1 REVERT JUMPDEST DUP2 CALLDATALOAD PUSH1 0x20 PUSH2 0x1C02 PUSH2 0x1BFD DUP4 PUSH2 0x21EB JUMP JUMPDEST PUSH2 0x21BA JUMP JUMPDEST DUP1 DUP4 DUP3 MSTORE DUP3 DUP3 ADD SWAP2 POP DUP3 DUP7 ADD DUP8 DUP5 DUP7 PUSH1 0x5 SHL DUP10 ADD ADD GT ISZERO PUSH2 0x1C22 JUMPI PUSH1 0x0 DUP1 REVERT JUMPDEST PUSH1 0x0 DUP1 JUMPDEST DUP7 DUP2 LT ISZERO PUSH2 0x1C65 JUMPI DUP3 CALLDATALOAD PUSH8 0xFFFFFFFFFFFFFFFF DUP2 GT ISZERO PUSH2 0x1C44 JUMPI DUP3 DUP4 REVERT JUMPDEST PUSH2 0x1C52 DUP12 DUP9 DUP4 DUP14 ADD ADD PUSH2 0x1CBC JUMP JUMPDEST DUP7 MSTORE POP SWAP4 DUP6 ADD SWAP4 SWAP2 DUP6 ADD SWAP2 PUSH1 0x1 ADD PUSH2 0x1C26 JUMP JUMPDEST POP SWAP2 SWAP9 SWAP8 POP POP POP POP POP POP POP POP JUMP JUMPDEST PUSH1 0x0 DUP1 DUP4 PUSH1 0x1F DUP5 ADD SLT PUSH2 0x1C85 JUMPI PUSH1 0x0 DUP1 REVERT JUMPDEST POP DUP2 CALLDATALOAD PUSH8 0xFFFFFFFFFFFFFFFF DUP2 GT ISZERO PUSH2 0x1C9D JUMPI PUSH1 0x0 DUP1 REVERT JUMPDEST PUSH1 0x20 DUP4 ADD SWAP2 POP DUP4 PUSH1 0x20 DUP3 DUP6 ADD ADD GT ISZERO PUSH2 0x1CB5 JUMPI PUSH1 0x0 DUP1 REVERT JUMPDEST SWAP3 POP SWAP3 SWAP1 POP JUMP JUMPDEST PUSH1 0x0 DUP3 PUSH1 0x1F DUP4 ADD SLT PUSH2 0x1CCD JUMPI PUSH1 0x0 DUP1 REVERT JUMPDEST DUP2 CALLDATALOAD PUSH8 0xFFFFFFFFFFFFFFFF DUP2 GT ISZERO PUSH2 0x1CE7 JUMPI PUSH2 0x1CE7 PUSH2 0x2322 JUMP JUMPDEST PUSH2 0x1CFA PUSH1 0x1F DUP3 ADD PUSH1 0x1F NOT AND PUSH1 0x20 ADD PUSH2 0x21BA JUMP JUMPDEST DUP2 DUP2 MSTORE DUP5 PUSH1 0x20 DUP4 DUP7 ADD ADD GT ISZERO PUSH2 0x1D0F JUMPI PUSH1 0x0 DUP1 REVERT JUMPDEST DUP2 PUSH1 0x20 DUP6 ADD PUSH1 0x20 DUP4 ADD CALLDATACOPY PUSH1 0x0 SWAP2 DUP2 ADD PUSH1 0x20 ADD SWAP2 SWAP1 SWAP2 MSTORE SWAP4 SWAP3 POP POP POP JUMP JUMPDEST PUSH1 0x0 PUSH1 0x20 DUP3 DUP5 SUB SLT ISZERO PUSH2 0x1D3E JUMPI PUSH1 0x0 DUP1 REVERT JUMPDEST PUSH2 0xD24 DUP3 PUSH2 0x1BC0 JUMP JUMPDEST PUSH1 0x0 DUP1 PUSH1 0x40 DUP4 DUP6 SUB SLT ISZERO PUSH2 0x1D5A JUMPI PUSH1 0x0 DUP1 REVERT JUMPDEST PUSH2 0x1D63 DUP4 PUSH2 0x1BC0 JUMP JUMPDEST SWAP2 POP PUSH2 0x1D71 PUSH1 0x20 DUP5 ADD PUSH2 0x1BC0 JUMP JUMPDEST SWAP1 POP SWAP3 POP SWAP3 SWAP1 POP JUMP JUMPDEST PUSH1 0x0 DUP1 PUSH1 0x0 PUSH1 0x60 DUP5 DUP7 SUB SLT ISZERO PUSH2 0x1D8F JUMPI PUSH1 0x0 DUP1 REVERT JUMPDEST PUSH2 0x1D98 DUP5 PUSH2 0x1BC0 JUMP JUMPDEST SWAP3 POP PUSH2 0x1DA6 PUSH1 0x20 DUP6 ADD PUSH2 0x1BC0 JUMP JUMPDEST SWAP2 POP PUSH1 0x40 DUP5 ADD CALLDATALOAD SWAP1 POP SWAP3 POP SWAP3 POP SWAP3 JUMP JUMPDEST PUSH1 0x0 DUP1 PUSH1 0x0 DUP1 PUSH1 0x0 PUSH1 0x80 DUP7 DUP9 SUB SLT ISZERO PUSH2 0x1DCE JUMPI PUSH1 0x0 DUP1 REVERT JUMPDEST PUSH2 0x1DD7 DUP7 PUSH2 0x1BC0 JUMP JUMPDEST SWAP5 POP PUSH2 0x1DE5 PUSH1 0x20 DUP8 ADD PUSH2 0x1BC0 JUMP JUMPDEST SWAP4 POP PUSH1 0x40 DUP7 ADD CALLDATALOAD SWAP3 POP PUSH1 0x60 DUP7 ADD CALLDATALOAD PUSH8 0xFFFFFFFFFFFFFFFF DUP2 GT ISZERO PUSH2 0x1E08 JUMPI PUSH1 0x0 DUP1 REVERT JUMPDEST PUSH2 0x1E14 DUP9 DUP3 DUP10 ADD PUSH2 0x1C73 JUMP JUMPDEST SWAP7 SWAP10 SWAP6 SWAP9 POP SWAP4 SWAP7 POP SWAP3 SWAP5 SWAP4 SWAP3 POP POP POP JUMP JUMPDEST PUSH1 0x0 DUP1 PUSH1 0x40 DUP4 DUP6 SUB SLT ISZERO PUSH2 0x1E38 JUMPI PUSH1 0x0 DUP1 REVERT JUMPDEST PUSH2 0x1E41 DUP4 PUSH2 0x1BC0 JUMP JUMPDEST SWAP2 POP PUSH1 0x20 DUP4 ADD CALLDATALOAD PUSH2 0x1E51 DUP2 PUSH2 0x2338 JUMP JUMPDEST DUP1 SWAP2 POP POP SWAP3 POP SWAP3 SWAP1 POP JUMP JUMPDEST PUSH1 0x0 DUP1 PUSH1 0x0 PUSH1 0x40 DUP5 DUP7 SUB SLT ISZERO PUSH2 0x1E71 JUMPI PUSH1 0x0 DUP1 REVERT JUMPDEST PUSH2 0x1E7A DUP5 PUSH2 0x1BC0 JUMP JUMPDEST SWAP3 POP PUSH1 0x20 DUP5 ADD CALLDATALOAD PUSH8 0xFFFFFFFFFFFFFFFF DUP2 GT ISZERO PUSH2 0x1E96 JUMPI PUSH1 0x0 DUP1 REVERT JUMPDEST PUSH2 0x1EA2 DUP7 DUP3 DUP8 ADD PUSH2 0x1C73 JUMP JUMPDEST SWAP5 SWAP8 SWAP1 SWAP7 POP SWAP4 SWAP5 POP POP POP POP JUMP JUMPDEST PUSH1 0x0 DUP1 PUSH1 0x40 DUP4 DUP6 SUB SLT ISZERO PUSH2 0x1EC2 JUMPI PUSH1 0x0 DUP1 REVERT JUMPDEST PUSH2 0x1ECB DUP4 PUSH2 0x1BC0 JUMP JUMPDEST SWAP5 PUSH1 0x20 SWAP4 SWAP1 SWAP4 ADD CALLDATALOAD SWAP4 POP POP POP JUMP JUMPDEST PUSH1 0x0 PUSH1 0x20 DUP3 DUP5 SUB SLT ISZERO PUSH2 0x1EEB JUMPI PUSH1 0x0 DUP1 REVERT JUMPDEST DUP2 CALLDATALOAD PUSH1 0x1 PUSH1 0x1 PUSH1 0xE0 SHL SUB NOT DUP2 AND DUP2 EQ PUSH2 0xD24 JUMPI PUSH1 0x0 DUP1 REVERT JUMPDEST PUSH1 0x0 PUSH1 0x20 DUP3 DUP5 SUB SLT ISZERO PUSH2 0x1F15 JUMPI PUSH1 0x0 DUP1 REVERT JUMPDEST DUP2 MLOAD PUSH2 0xD24 DUP2 PUSH2 0x2349 JUMP JUMPDEST PUSH1 0x0 DUP1 PUSH1 0x0 DUP1 PUSH1 0x80 DUP6 DUP8 SUB SLT ISZERO PUSH2 0x1F36 JUMPI PUSH1 0x0 DUP1 REVERT JUMPDEST DUP5 CALLDATALOAD PUSH8 0xFFFFFFFFFFFFFFFF DUP1 DUP3 GT ISZERO PUSH2 0x1F4E JUMPI PUSH1 0x0 DUP1 REVERT JUMPDEST PUSH2 0x1F5A DUP9 DUP4 DUP10 ADD PUSH2 0x1CBC JUMP JUMPDEST SWAP6 POP PUSH1 0x20 SWAP2 POP DUP2 DUP8 ADD CALLDATALOAD DUP2 DUP2 GT ISZERO PUSH2 0x1F71 JUMPI PUSH1 0x0 DUP1 REVERT JUMPDEST PUSH2 0x1F7D DUP10 DUP3 DUP11 ADD PUSH2 0x1CBC JUMP JUMPDEST SWAP6 POP POP PUSH1 0x40 DUP8 ADD CALLDATALOAD DUP2 DUP2 GT ISZERO PUSH2 0x1F92 JUMPI PUSH1 0x0 DUP1 REVERT JUMPDEST DUP8 ADD PUSH1 0x1F DUP2 ADD DUP10 SGT PUSH2 0x1FA3 JUMPI PUSH1 0x0 DUP1 REVERT JUMPDEST DUP1 CALLDATALOAD PUSH2 0x1FB1 PUSH2 0x1BFD DUP3 PUSH2 0x21EB JUMP JUMPDEST DUP1 DUP3 DUP3 MSTORE DUP6 DUP3 ADD SWAP2 POP DUP6 DUP5 ADD DUP13 DUP8 DUP6 PUSH1 0x5 SHL DUP8 ADD ADD GT ISZERO PUSH2 0x1FD1 JUMPI PUSH1 0x0 DUP1 REVERT JUMPDEST PUSH1 0x0 SWAP5 POP JUMPDEST DUP4 DUP6 LT ISZERO PUSH2 0x1FFB JUMPI PUSH2 0x1FE7 DUP2 PUSH2 0x1BC0 JUMP JUMPDEST DUP4 MSTORE PUSH1 0x1 SWAP5 SWAP1 SWAP5 ADD SWAP4 SWAP2 DUP7 ADD SWAP2 DUP7 ADD PUSH2 0x1FD6 JUMP JUMPDEST POP SWAP7 POP POP POP POP PUSH1 0x60 DUP8 ADD CALLDATALOAD SWAP2 POP DUP1 DUP3 GT ISZERO PUSH2 0x2015 JUMPI PUSH1 0x0 DUP1 REVERT JUMPDEST POP PUSH2 0x2022 DUP8 DUP3 DUP9 ADD PUSH2 0x1BDC JUMP JUMPDEST SWAP2 POP POP SWAP3 SWAP6 SWAP2 SWAP5 POP SWAP3 POP JUMP JUMPDEST PUSH1 0x0 PUSH1 0x20 DUP3 DUP5 SUB SLT ISZERO PUSH2 0x2040 JUMPI PUSH1 0x0 DUP1 REVERT JUMPDEST POP CALLDATALOAD SWAP2 SWAP1 POP JUMP JUMPDEST PUSH1 0x0 DUP1 PUSH1 0x40 DUP4 DUP6 SUB SLT ISZERO PUSH2 0x205A JUMPI PUSH1 0x0 DUP1 REVERT JUMPDEST DUP3 CALLDATALOAD SWAP2 POP PUSH1 0x20 DUP4 ADD CALLDATALOAD PUSH2 0x1E51 DUP2 PUSH2 0x2349 JUMP JUMPDEST PUSH1 0x0 DUP1 PUSH1 0x40 DUP4 DUP6 SUB SLT ISZERO PUSH2 0x207F JUMPI PUSH1 0x0 DUP1 REVERT JUMPDEST POP POP DUP1 CALLDATALOAD SWAP3 PUSH1 0x20 SWAP1 SWAP2 ADD CALLDATALOAD SWAP2 POP JUMP JUMPDEST PUSH1 0x0 DUP1 PUSH1 0x0 DUP1 PUSH1 0x0 DUP1 PUSH1 0xC0 DUP8 DUP10 SUB SLT ISZERO PUSH2 0x20A7 JUMPI PUSH1 0x0 DUP1 REVERT JUMPDEST DUP7 MLOAD SWAP6 POP PUSH1 0x20 DUP8 ADD MLOAD SWAP5 POP PUSH1 0x40 DUP8 ADD MLOAD PUSH2 0x20C0 DUP2 PUSH2 0x2349 JUMP JUMPDEST DUP1 SWAP5 POP POP PUSH1 0x60 DUP8 ADD MLOAD SWAP3 POP PUSH1 0x80 DUP8 ADD MLOAD SWAP2 POP PUSH1 0xA0 DUP8 ADD MLOAD PUSH2 0x20E0 DUP2 PUSH2 0x2338 JUMP JUMPDEST DUP1 SWAP2 POP POP SWAP3 SWAP6 POP SWAP3 SWAP6 POP SWAP3 SWAP6 JUMP JUMPDEST PUSH1 0x0 DUP1 PUSH1 0x0 PUSH1 0x60 DUP5 DUP7 SUB SLT ISZERO PUSH2 0x2103 JUMPI PUSH1 0x0 DUP1 REVERT JUMPDEST POP POP DUP2 CALLDATALOAD SWAP4 PUSH1 0x20 DUP4 ADD CALLDATALOAD SWAP4 POP PUSH1 0x40 SWAP1 SWAP3 ADD CALLDATALOAD SWAP2 SWAP1 POP JUMP JUMPDEST PUSH1 0x0 DUP2 MLOAD DUP1 DUP5 MSTORE PUSH2 0x2132 DUP2 PUSH1 0x20 DUP7 ADD PUSH1 0x20 DUP7 ADD PUSH2 0x223E JUMP JUMPDEST PUSH1 0x1F ADD PUSH1 0x1F NOT AND SWAP3 SWAP1 SWAP3 ADD PUSH1 0x20 ADD SWAP3 SWAP2 POP POP JUMP JUMPDEST PUSH1 0x0 DUP4 MLOAD PUSH2 0x2158 DUP2 DUP5 PUSH1 0x20 DUP9 ADD PUSH2 0x223E JUMP JUMPDEST DUP4 MLOAD SWAP1 DUP4 ADD SWAP1 PUSH2 0x216C DUP2 DUP4 PUSH1 0x20 DUP9 ADD PUSH2 0x223E JUMP JUMPDEST ADD SWAP5 SWAP4 POP POP POP POP JUMP JUMPDEST PUSH1 0x20 DUP2 MSTORE PUSH1 0x0 PUSH2 0xD24 PUSH1 0x20 DUP4 ADD DUP5 PUSH2 0x211A JUMP JUMPDEST PUSH1 0x20 DUP2 MSTORE PUSH1 0x0 DUP3 MLOAD PUSH1 0x40 PUSH1 0x20 DUP5 ADD MSTORE PUSH2 0x21A4 PUSH1 0x60 DUP5 ADD DUP3 PUSH2 0x211A JUMP JUMPDEST SWAP1 POP PUSH1 0x20 DUP5 ADD MLOAD PUSH1 0x40 DUP5 ADD MSTORE DUP1 SWAP2 POP POP SWAP3 SWAP2 POP POP JUMP JUMPDEST PUSH1 0x40 MLOAD PUSH1 0x1F DUP3 ADD PUSH1 0x1F NOT AND DUP2 ADD PUSH8 0xFFFFFFFFFFFFFFFF DUP2 GT DUP3 DUP3 LT OR ISZERO PUSH2 0x21E3 JUMPI PUSH2 0x21E3 PUSH2 0x2322 JUMP JUMPDEST PUSH1 0x40 MSTORE SWAP2 SWAP1 POP JUMP JUMPDEST PUSH1 0x0 PUSH8 0xFFFFFFFFFFFFFFFF DUP3 GT ISZERO PUSH2 0x2205 JUMPI PUSH2 0x2205 PUSH2 0x2322 JUMP JUMPDEST POP PUSH1 0x5 SHL PUSH1 0x20 ADD SWAP1 JUMP JUMPDEST PUSH1 0x0 DUP3 NOT DUP3 GT ISZERO PUSH2 0x2222 JUMPI PUSH2 0x2222 PUSH2 0x22E0 JUMP JUMPDEST POP ADD SWAP1 JUMP JUMPDEST PUSH1 0x0 DUP3 DUP3 LT ISZERO PUSH2 0x2239 JUMPI PUSH2 0x2239 PUSH2 0x22E0 JUMP JUMPDEST POP SUB SWAP1 JUMP JUMPDEST PUSH1 0x0 JUMPDEST DUP4 DUP2 LT ISZERO PUSH2 0x2259 JUMPI DUP2 DUP2 ADD MLOAD DUP4 DUP3 ADD MSTORE PUSH1 0x20 ADD PUSH2 0x2241 JUMP JUMPDEST DUP4 DUP2 GT ISZERO PUSH2 0x6F1 JUMPI POP POP PUSH1 0x0 SWAP2 ADD MSTORE JUMP JUMPDEST PUSH1 0x1 DUP2 DUP2 SHR SWAP1 DUP3 AND DUP1 PUSH2 0x227E JUMPI PUSH1 0x7F DUP3 AND SWAP2 POP JUMPDEST PUSH1 0x20 DUP3 LT DUP2 EQ ISZERO PUSH2 0x229F JUMPI PUSH4 0x4E487B71 PUSH1 0xE0 SHL PUSH1 0x0 MSTORE PUSH1 0x22 PUSH1 0x4 MSTORE PUSH1 0x24 PUSH1 0x0 REVERT JUMPDEST POP SWAP2 SWAP1 POP JUMP JUMPDEST PUSH1 0x0 PUSH1 0x0 NOT DUP3 EQ ISZERO PUSH2 0x22B9 JUMPI PUSH2 0x22B9 PUSH2 0x22E0 JUMP JUMPDEST POP PUSH1 0x1 ADD SWAP1 JUMP JUMPDEST PUSH1 0x0 PUSH1 0xFF DUP3 AND PUSH1 0xFF DUP2 EQ ISZERO PUSH2 0x22D7 JUMPI PUSH2 0x22D7 PUSH2 0x22E0 JUMP JUMPDEST PUSH1 0x1 ADD SWAP3 SWAP2 POP POP JUMP JUMPDEST PUSH4 0x4E487B71 PUSH1 0xE0 SHL PUSH1 0x0 MSTORE PUSH1 0x11 PUSH1 0x4 MSTORE PUSH1 0x24 PUSH1 0x0 REVERT JUMPDEST PUSH4 0x4E487B71 PUSH1 0xE0 SHL PUSH1 0x0 MSTORE PUSH1 0x12 PUSH1 0x4 MSTORE PUSH1 0x24 PUSH1 0x0 REVERT JUMPDEST PUSH4 0x4E487B71 PUSH1 0xE0 SHL PUSH1 0x0 MSTORE PUSH1 0x32 PUSH1 0x4 MSTORE PUSH1 0x24 PUSH1 0x0 REVERT JUMPDEST PUSH4 0x4E487B71 PUSH1 0xE0 SHL PUSH1 0x0 MSTORE PUSH1 0x41 PUSH1 0x4 MSTORE PUSH1 0x24 PUSH1 0x0 REVERT JUMPDEST DUP1 ISZERO ISZERO DUP2 EQ PUSH2 0x2346 JUMPI PUSH1 0x0 DUP1 REVERT JUMPDEST POP JUMP JUMPDEST DUP1 PUSH1 0x0 SIGNEXTEND DUP2 EQ PUSH2 0x2346 JUMPI PUSH1 0x0 DUP1 REVERT INVALID LOG2 PUSH5 0x6970667358 0x22 SLT KECCAK256 PUSH6 0xBB9F252B43B1 0xB8 JUMP 0xE3 DUP14 0xB1 0xEB 0xDB PUSH7 0x713A1120A0A82 DUP8 PUSH1 0x9F BALANCE 0x1E SWAP5 0xA9 CHAINID 0xC4 0xBC PUSH5 0x736F6C6343 STOP ADDMOD MOD STOP CALLER "},"gasEstimates":{"creation":{"codeDepositCost":"1820400","executionCost":"1919","totalCost":"1822319"},"external":{"FOUNDERS_VOUCHER()":"288","PENDING_PERIOD()":"327","QUIET_ENDING_PERIOD()":"285","VOTING_PERIOD()":"328","_nEntries()":"2385","approve(address,uint256)":"428","balanceOf(address)":"4980","canVote(uint256,uint256)":"9261","challenge(uint256)":"infinite","executeVote(uint256)":"infinite","getAccount(uint256)":"9235","getApproved(uint256)":"386","getChallenge(uint256)":"infinite","getChallengeVote(uint256,uint256)":"infinite","getSpecificChallenge(uint256,uint256)":"13444","getSpecificChallengeVote(uint256,uint256,uint256)":"4937","getTokenPersonCid(uint256)":"infinite","getTokenVouch(uint256)":"infinite","getTotalVoters(uint256)":"6897","getVoucherVouchesNumber(uint256)":"2505","initRegistry(string,string,address[],string[])":"infinite","invalidateInvalidVoucher(uint256)":"infinite","invalidateVote(uint256,uint256)":"infinite","isApprovedForAll(address,address)":"infinite","isSolidified(uint256)":"11371","name()":"infinite","ownerOf(uint256)":"2608","safeTransferFrom(address,address,uint256)":"infinite","safeTransferFrom(address,address,uint256,bytes)":"infinite","setApprovalForAll(address,bool)":"472","supportsInterface(bytes4)":"365","symbol()":"infinite","tokenIdOf(address)":"2617","tokenURI(uint256)":"infinite","totalSupply()":"2442","transferFrom(address,address,uint256)":"infinite","vote(uint256,int8)":"infinite","vouch(address,string)":"infinite"},"internal":{"_balanceOf(address)":"4463","_executeVote(struct Registry.Challenge storage pointer,uint256)":"infinite","_invalidateAccount(uint256)":"infinite","_invalidateVote(uint256,struct Registry.Challenge storage pointer,uint256)":"infinite","_ownerOf(uint256)":"infinite","_tokenIdOf(address)":"infinite","_totalSupply()":"infinite","_vouch(uint256,address,string memory)":"infinite","getCurrentChallenge(uint256)":"31011","nextTokenId()":"24310"}},"methodIdentifiers":{"FOUNDERS_VOUCHER()":"3c823b6b","PENDING_PERIOD()":"fe131778","QUIET_ENDING_PERIOD()":"84864be7","VOTING_PERIOD()":"b1610d7e","_nEntries()":"173ac141","approve(address,uint256)":"095ea7b3","balanceOf(address)":"70a08231","canVote(uint256,uint256)":"ef233c0b","challenge(uint256)":"ab82d9a0","executeVote(uint256)":"f98a4eca","getAccount(uint256)":"ce88b145","getApproved(uint256)":"081812fc","getChallenge(uint256)":"1bdd4b74","getChallengeVote(uint256,uint256)":"d61255f3","getSpecificChallenge(uint256,uint256)":"5e3bee73","getSpecificChallengeVote(uint256,uint256,uint256)":"912dac06","getTokenPersonCid(uint256)":"3fb1a836","getTokenVouch(uint256)":"130a8d80","getTotalVoters(uint256)":"43d3a4c1","getVoucherVouchesNumber(uint256)":"5d1f0a31","initRegistry(string,string,address[],string[])":"2333bc72","invalidateInvalidVoucher(uint256)":"9a489620","invalidateVote(uint256,uint256)":"d9eeebed","isApprovedForAll(address,address)":"e985e9c5","isSolidified(uint256)":"82c0833b","name()":"06fdde03","ownerOf(uint256)":"6352211e","safeTransferFrom(address,address,uint256)":"42842e0e","safeTransferFrom(address,address,uint256,bytes)":"b88d4fde","setApprovalForAll(address,bool)":"a22cb465","supportsInterface(bytes4)":"01ffc9a7","symbol()":"95d89b41","tokenIdOf(address)":"773c02d4","tokenURI(uint256)":"c87b56dd","totalSupply()":"18160ddd","transferFrom(address,address,uint256)":"23b872dd","vote(uint256,int8)":"ee650248","vouch(address,string)":"0c104878"}},"storageLayout":{"storage":[{"astId":86,"contract":"contracts/Registry.sol:Registry","label":"_initialized","offset":0,"slot":"0","type":"t_uint8"},{"astId":89,"contract":"contracts/Registry.sol:Registry","label":"_initializing","offset":1,"slot":"0","type":"t_bool"},{"astId":2105,"contract":"contracts/Registry.sol:Registry","label":"_symbol","offset":0,"slot":"1","type":"t_string_storage"},{"astId":2107,"contract":"contracts/Registry.sol:Registry","label":"_name","offset":0,"slot":"2","type":"t_string_storage"},{"astId":2151,"contract":"contracts/Registry.sol:Registry","label":"vouches","offset":0,"slot":"3","type":"t_mapping(t_uint256,t_struct(Vouches)2120_storage)"},{"astId":2157,"contract":"contracts/Registry.sol:Registry","label":"accounts","offset":0,"slot":"4","type":"t_mapping(t_uint256,t_struct(Account)2129_storage)"},{"astId":2161,"contract":"contracts/Registry.sol:Registry","label":"owned","offset":0,"slot":"5","type":"t_mapping(t_address,t_uint256)"},{"astId":2167,"contract":"contracts/Registry.sol:Registry","label":"challenges","offset":0,"slot":"6","type":"t_mapping(t_uint256,t_array(t_struct(Challenge)2146_storage)dyn_storage)"},{"astId":2169,"contract":"contracts/Registry.sol:Registry","label":"__totalSupply","offset":0,"slot":"7","type":"t_uint256"},{"astId":2171,"contract":"contracts/Registry.sol:Registry","label":"_nEntries","offset":0,"slot":"8","type":"t_uint256"}],"types":{"t_address":{"encoding":"inplace","label":"address","numberOfBytes":"20"},"t_array(t_struct(Challenge)2146_storage)dyn_storage":{"base":"t_struct(Challenge)2146_storage","encoding":"dynamic_array","label":"struct Registry.Challenge[]","numberOfBytes":"32"},"t_bool":{"encoding":"inplace","label":"bool","numberOfBytes":"1"},"t_int8":{"encoding":"inplace","label":"int8","numberOfBytes":"1"},"t_mapping(t_address,t_uint256)":{"encoding":"mapping","key":"t_address","label":"mapping(address => uint256)","numberOfBytes":"32","value":"t_uint256"},"t_mapping(t_uint256,t_array(t_struct(Challenge)2146_storage)dyn_storage)":{"encoding":"mapping","key":"t_uint256","label":"mapping(uint256 => struct Registry.Challenge[])","numberOfBytes":"32","value":"t_array(t_struct(Challenge)2146_storage)dyn_storage"},"t_mapping(t_uint256,t_int8)":{"encoding":"mapping","key":"t_uint256","label":"mapping(uint256 => int8)","numberOfBytes":"32","value":"t_int8"},"t_mapping(t_uint256,t_struct(Account)2129_storage)":{"encoding":"mapping","key":"t_uint256","label":"mapping(uint256 => struct Registry.Account)","numberOfBytes":"32","value":"t_struct(Account)2129_storage"},"t_mapping(t_uint256,t_struct(Vouch)2112_storage)":{"encoding":"mapping","key":"t_uint256","label":"mapping(uint256 => struct Registry.Vouch)","numberOfBytes":"32","value":"t_struct(Vouch)2112_storage"},"t_mapping(t_uint256,t_struct(Vouches)2120_storage)":{"encoding":"mapping","key":"t_uint256","label":"mapping(uint256 => struct Registry.Vouches)","numberOfBytes":"32","value":"t_struct(Vouches)2120_storage"},"t_string_storage":{"encoding":"bytes","label":"string","numberOfBytes":"32"},"t_struct(Account)2129_storage":{"encoding":"inplace","label":"struct Registry.Account","members":[{"astId":2122,"contract":"contracts/Registry.sol:Registry","label":"account","offset":0,"slot":"0","type":"t_address"},{"astId":2124,"contract":"contracts/Registry.sol:Registry","label":"voucher","offset":0,"slot":"1","type":"t_uint256"},{"astId":2126,"contract":"contracts/Registry.sol:Registry","label":"valid","offset":0,"slot":"2","type":"t_bool"},{"astId":2128,"contract":"contracts/Registry.sol:Registry","label":"timesChallenged","offset":0,"slot":"3","type":"t_uint256"}],"numberOfBytes":"128"},"t_struct(Challenge)2146_storage":{"encoding":"inplace","label":"struct Registry.Challenge","members":[{"astId":2131,"contract":"contracts/Registry.sol:Registry","label":"executed","offset":0,"slot":"0","type":"t_bool"},{"astId":2133,"contract":"contracts/Registry.sol:Registry","label":"lastOutcome","offset":1,"slot":"0","type":"t_int8"},{"astId":2135,"contract":"contracts/Registry.sol:Registry","label":"creationDate","offset":0,"slot":"1","type":"t_uint256"},{"astId":2137,"contract":"contracts/Registry.sol:Registry","label":"endDate","offset":0,"slot":"2","type":"t_uint256"},{"astId":2141,"contract":"contracts/Registry.sol:Registry","label":"votes","offset":0,"slot":"3","type":"t_mapping(t_uint256,t_int8)"},{"astId":2143,"contract":"contracts/Registry.sol:Registry","label":"nVoted","offset":0,"slot":"4","type":"t_uint256"},{"astId":2145,"contract":"contracts/Registry.sol:Registry","label":"nFor","offset":0,"slot":"5","type":"t_uint256"}],"numberOfBytes":"192"},"t_struct(Vouch)2112_storage":{"encoding":"inplace","label":"struct Registry.Vouch","members":[{"astId":2109,"contract":"contracts/Registry.sol:Registry","label":"personCid","offset":0,"slot":"0","type":"t_string_storage"},{"astId":2111,"contract":"contracts/Registry.sol:Registry","label":"vouchDate","offset":0,"slot":"1","type":"t_uint256"}],"numberOfBytes":"64"},"t_struct(Vouches)2120_storage":{"encoding":"inplace","label":"struct Registry.Vouches","members":[{"astId":2114,"contract":"contracts/Registry.sol:Registry","label":"number","offset":0,"slot":"0","type":"t_uint256"},{"astId":2119,"contract":"contracts/Registry.sol:Registry","label":"vouches","offset":0,"slot":"1","type":"t_mapping(t_uint256,t_struct(Vouch)2112_storage)"}],"numberOfBytes":"64"},"t_uint256":{"encoding":"inplace","label":"uint256","numberOfBytes":"32"},"t_uint8":{"encoding":"inplace","label":"uint8","numberOfBytes":"1"}}},"userdoc":{"errors":{"ErrorAccountSolidified()":[{"notice":"Errors "}],"PRBMath__MulDivFixedPointOverflow(uint256)":[{"notice":"Emitted when the result overflows uint256."}],"PRBMath__MulDivOverflow(uint256,uint256)":[{"notice":"Emitted when the result overflows uint256."}]},"kind":"user","methods":{"canVote(uint256,uint256)":{"notice":"A tokenId can vote if - The voter account is valid - AND either - voterTokenId was vouched by voucherTokenId (which is the voucher of the challenged tokenId) - OR the voterTokenId is the voucherTokenId themselves.  The FOUNDERS_VOUCHER can, in theory vote on founders challenges, but no address owns that  token and so no problem "},"initRegistry(string,string,address[],string[])":{"notice":"Constructor "},"vouch(address,string)":{"notice":"The msgSender must be a valid account in the registry and vouch for the provided account and personCid pair"}},"version":1}}}}