{
  "_format": "hh-sol-artifact-1",
  "contractName": "RegistryFactory",
  "sourceName": "contracts/RegistryFactory.sol",
  "abi": [
    {
      "inputs": [
        {
          "internalType": "address payable",
          "name": "_master",
          "type": "address"
        }
      ],
      "stateMutability": "nonpayable",
      "type": "constructor"
    },
    {
      "anonymous": false,
      "inputs": [
        {
          "indexed": false,
          "internalType": "address",
          "name": "creator",
          "type": "address"
        },
        {
          "indexed": false,
          "internalType": "address",
          "name": "newRegistry",
          "type": "address"
        },
        {
          "indexed": true,
          "internalType": "uint256",
          "name": "number",
          "type": "uint256"
        }
      ],
      "name": "RegistryCreated",
      "type": "event"
    },
    {
      "inputs": [
        {
          "internalType": "bytes32",
          "name": "salt",
          "type": "bytes32"
        }
      ],
      "name": "contractAddress",
      "outputs": [
        {
          "internalType": "address",
          "name": "",
          "type": "address"
        }
      ],
      "stateMutability": "view",
      "type": "function"
    },
    {
      "inputs": [
        {
          "internalType": "string",
          "name": "__symbol",
          "type": "string"
        },
        {
          "internalType": "string",
          "name": "__name",
          "type": "string"
        },
        {
          "internalType": "address[]",
          "name": "addresses",
          "type": "address[]"
        },
        {
          "internalType": "string[]",
          "name": "foundersCids",
          "type": "string[]"
        },
        {
          "internalType": "string",
          "name": "_statementCid",
          "type": "string"
        },
        {
          "internalType": "bytes32",
          "name": "salt",
          "type": "bytes32"
        }
      ],
      "name": "create",
      "outputs": [
        {
          "internalType": "address payable",
          "name": "proxy",
          "type": "address"
        }
      ],
      "stateMutability": "nonpayable",
      "type": "function"
    },
    {
      "inputs": [],
      "name": "mrCounter",
      "outputs": [
        {
          "internalType": "uint256",
          "name": "",
          "type": "uint256"
        }
      ],
      "stateMutability": "view",
      "type": "function"
    }
  ],
  "bytecode": "0x608060405234801561001057600080fd5b5060405161096938038061096983398101604081905261002f91610057565b600080546001600160a01b0319166001600160a01b0392909216919091178155600155610087565b60006020828403121561006957600080fd5b81516001600160a01b038116811461008057600080fd5b9392505050565b6108d3806100966000396000f3fe608060405234801561001057600080fd5b50600436106100415760003560e01c806359350292146100465780635dbac44614610076578063b2a5f07714610089575b600080fd5b6100596100543660046105b2565b6100a0565b6040516001600160a01b0390911681526020015b60405180910390f35b6100596100843660046105cb565b61010c565b61009260015481565b60405190815260200161006d565b600080546040513060388201526f5af43d82803e903d91602b57fd5bf3ff60248201526001600160a01b039091166014820152733d602d80600a3d3981f3363d3d373d3d3d363d738152605881018390526037600c820120607882015260556043909101205b92915050565b60008054610123906001600160a01b031683610220565b6001805491925060006101358361085e565b91905055506000866101486001546102c1565b6040516020016101599291906106d1565b60408051601f198184030181529082905263925ea2ed60e01b825291506001600160a01b0383169063925ea2ed9061019d908b9085908b908b908b90600401610700565b600060405180830381600087803b1580156101b757600080fd5b505af11580156101cb573d6000803e3d6000fd5b5050600154604080513381526001600160a01b03871660208201529193507f0199b6134da6ed0bbb6c0d2c029f3076e22bac90aba585625b14a4552c367b4d92500160405180910390a2509695505050505050565b6000763d602d80600a3d3981f3363d3d373d3d3d363d730000008360601b60e81c176000526e5af43d82803e903d91602b57fd5bf38360781b1760205281603760096000f590506001600160a01b0381166101065760405162461bcd60e51b815260206004820152601760248201527f455243313136373a2063726561746532206661696c6564000000000000000000604482015260640160405180910390fd5b606060006102ce8361035e565b600101905060008167ffffffffffffffff8111156102ee576102ee610887565b6040519080825280601f01601f191660200182016040528015610318576020820181803683370190505b5090508181016020015b600019016f181899199a1a9b1b9c1cb0b131b232b360811b600a86061a8153600a850494508461035157610356565b610322565b509392505050565b60008072184f03e93ff9f4daa797ed6e38ed64bf6a1f0160401b831061039d5772184f03e93ff9f4daa797ed6e38ed64bf6a1f0160401b830492506040015b6d04ee2d6d415b85acef810000000083106103c9576d04ee2d6d415b85acef8100000000830492506020015b662386f26fc1000083106103e757662386f26fc10000830492506010015b6305f5e10083106103ff576305f5e100830492506008015b612710831061041357612710830492506004015b60648310610425576064830492506002015b600a83106101065760010192915050565b600082601f83011261044757600080fd5b8135602061045c6104578361080a565b6107d9565b80838252828201915082860187848660051b890101111561047c57600080fd5b6000805b868110156104b05782356001600160a01b038116811461049e578283fd5b85529385019391850191600101610480565b509198975050505050505050565b600082601f8301126104cf57600080fd5b813560206104df6104578361080a565b80838252828201915082860187848660051b89010111156104ff57600080fd5b6000805b868110156104b057823567ffffffffffffffff811115610521578283fd5b61052f8b88838d0101610542565b8652509385019391850191600101610503565b600082601f83011261055357600080fd5b813567ffffffffffffffff81111561056d5761056d610887565b610580601f8201601f19166020016107d9565b81815284602083860101111561059557600080fd5b816020850160208301376000918101602001919091529392505050565b6000602082840312156105c457600080fd5b5035919050565b60008060008060008060c087890312156105e457600080fd5b863567ffffffffffffffff808211156105fc57600080fd5b6106088a838b01610542565b9750602089013591508082111561061e57600080fd5b61062a8a838b01610542565b9650604089013591508082111561064057600080fd5b61064c8a838b01610436565b9550606089013591508082111561066257600080fd5b61066e8a838b016104be565b9450608089013591508082111561068457600080fd5b5061069189828a01610542565b92505060a087013590509295509295509295565b600081518084526106bd81602086016020860161082e565b601f01601f19169290920160200192915050565b600083516106e381846020880161082e565b8351908301906106f781836020880161082e565b01949350505050565b60a08152600061071360a08301886106a5565b60208382038185015261072682896106a5565b8481036040860152875180825282890193509082019060005b818110156107645784516001600160a01b03168352938301939183019160010161073f565b5050848103606086015286518082528282019350600581901b8201830183890160005b838110156107b557601f198584030187526107a38383516106a5565b96860196925090850190600101610787565b505086810360808801526107c981896106a5565b9c9b505050505050505050505050565b604051601f8201601f1916810167ffffffffffffffff8111828210171561080257610802610887565b604052919050565b600067ffffffffffffffff82111561082457610824610887565b5060051b60200190565b60005b83811015610849578181015183820152602001610831565b83811115610858576000848401525b50505050565b600060001982141561088057634e487b7160e01b600052601160045260246000fd5b5060010190565b634e487b7160e01b600052604160045260246000fdfea26469706673582212209f310da2f77f062ff8088b1530f8b5987fb41951e8acd30b31f84dd038cd328764736f6c63430008060033",
  "linkReferences": {},
  "deployedLinkReferences": {}
}