{
  "_format": "hh-sol-artifact-1",
  "contractName": "RegistryFactory",
  "sourceName": "contracts/RegistryFactory.sol",
  "abi": [
    {
      "inputs": [
        {
          "internalType": "address payable",
          "name": "_master",
          "type": "address"
        }
      ],
      "stateMutability": "nonpayable",
      "type": "constructor"
    },
    {
      "anonymous": false,
      "inputs": [
        {
          "indexed": false,
          "internalType": "address",
          "name": "creator",
          "type": "address"
        },
        {
          "indexed": false,
          "internalType": "address",
          "name": "newRegistry",
          "type": "address"
        },
        {
          "indexed": false,
          "internalType": "bytes32",
          "name": "salt",
          "type": "bytes32"
        }
      ],
      "name": "RegistryCreated",
      "type": "event"
    },
    {
      "inputs": [
        {
          "internalType": "bytes32",
          "name": "salt",
          "type": "bytes32"
        }
      ],
      "name": "contractAddress",
      "outputs": [
        {
          "internalType": "address",
          "name": "",
          "type": "address"
        }
      ],
      "stateMutability": "view",
      "type": "function"
    },
    {
      "inputs": [
        {
          "internalType": "string",
          "name": "__symbol",
          "type": "string"
        },
        {
          "internalType": "string",
          "name": "__name",
          "type": "string"
        },
        {
          "internalType": "address[]",
          "name": "addresses",
          "type": "address[]"
        },
        {
          "internalType": "string[]",
          "name": "foundersCids",
          "type": "string[]"
        },
        {
          "internalType": "bytes32",
          "name": "salt",
          "type": "bytes32"
        }
      ],
      "name": "create",
      "outputs": [
        {
          "internalType": "address payable",
          "name": "proxy",
          "type": "address"
        }
      ],
      "stateMutability": "nonpayable",
      "type": "function"
    },
    {
      "inputs": [],
      "name": "mrCounter",
      "outputs": [
        {
          "internalType": "uint256",
          "name": "",
          "type": "uint256"
        }
      ],
      "stateMutability": "view",
      "type": "function"
    }
  ],
  "bytecode": "0x608060405234801561001057600080fd5b5060405161092c38038061092c83398101604081905261002f91610057565b600080546001600160a01b0319166001600160a01b0392909216919091178155600155610087565b60006020828403121561006957600080fd5b81516001600160a01b038116811461008057600080fd5b9392505050565b610896806100966000396000f3fe608060405234801561001057600080fd5b50600436106100415760003560e01c80635935029214610046578063b2a5f07714610076578063bdb30d5a1461008d575b600080fd5b61005961005436600461053e565b6100a0565b6040516001600160a01b0390911681526020015b60405180910390f35b61007f60015481565b60405190815260200161006d565b61005961009b366004610557565b61010c565b600080546040513060388201526f5af43d82803e903d91602b57fd5bf3ff60248201526001600160a01b039091166014820152733d602d80600a3d3981f3363d3d373d3d3d363d738152605881018390526037600c820120607882015260556043909101205b92915050565b60008054610123906001600160a01b031683610221565b60018054919250600061013583610821565b91905055506000856101486001546102c2565b6040516020016101599291906106a7565b60408051601f1981840301815290829052631199de3960e11b825291506001600160a01b03831690632333bc729061019b908a9085908a908a906004016106d6565b600060405180830381600087803b1580156101b557600080fd5b505af11580156101c9573d6000803e3d6000fd5b5050604080513381526001600160a01b03861660208201529081018690527f0a2f9ef276a60f709d68ac8db30d29a516ef166855efd596a64f71a89d83259e9250606001905060405180910390a15095945050505050565b6000763d602d80600a3d3981f3363d3d373d3d3d363d730000008360601b60e81c176000526e5af43d82803e903d91602b57fd5bf38360781b1760205281603760096000f590506001600160a01b0381166101065760405162461bcd60e51b815260206004820152601760248201527f455243313136373a2063726561746532206661696c6564000000000000000000604482015260640160405180910390fd5b606060006102cf8361035f565b600101905060008167ffffffffffffffff8111156102ef576102ef61084a565b6040519080825280601f01601f191660200182016040528015610319576020820181803683370190505b5090508181016020015b600019016f181899199a1a9b1b9c1cb0b131b232b360811b600a86061a8153600a850494508461035257610357565b610323565b509392505050565b60008072184f03e93ff9f4daa797ed6e38ed64bf6a1f0160401b831061039e5772184f03e93ff9f4daa797ed6e38ed64bf6a1f0160401b830492506040015b6d04ee2d6d415b85acef810000000083106103ca576d04ee2d6d415b85acef8100000000830492506020015b662386f26fc1000083106103e857662386f26fc10000830492506010015b6305f5e1008310610400576305f5e100830492506008015b612710831061041457612710830492506004015b60648310610426576064830492506002015b600a83106101065760010192915050565b600082601f83011261044857600080fd5b8135602061045d610458836107cd565b61079c565b80838252828201915082860187848660051b890101111561047d57600080fd5b6000805b868110156104c057823567ffffffffffffffff81111561049f578283fd5b6104ad8b88838d01016104ce565b8652509385019391850191600101610481565b509198975050505050505050565b600082601f8301126104df57600080fd5b813567ffffffffffffffff8111156104f9576104f961084a565b61050c601f8201601f191660200161079c565b81815284602083860101111561052157600080fd5b816020850160208301376000918101602001919091529392505050565b60006020828403121561055057600080fd5b5035919050565b600080600080600060a0868803121561056f57600080fd5b853567ffffffffffffffff8082111561058757600080fd5b61059389838a016104ce565b96506020915081880135818111156105aa57600080fd5b6105b68a828b016104ce565b9650506040880135818111156105cb57600080fd5b8801601f81018a136105dc57600080fd5b80356105ea610458826107cd565b8082825285820191508584018d878560051b870101111561060a57600080fd5b600094505b838510156106425780356001600160a01b038116811461062e57600080fd5b83526001949094019391860191860161060f565b509750505050606088013591508082111561065c57600080fd5b5061066988828901610437565b95989497509295608001359392505050565b600081518084526106938160208601602086016107f1565b601f01601f19169290920160200192915050565b600083516106b98184602088016107f1565b8351908301906106cd8183602088016107f1565b01949350505050565b6080815260006106e9608083018761067b565b6020838203818501526106fc828861067b565b8481036040860152865180825282880193509082019060005b8181101561073a5784516001600160a01b031683529383019391830191600101610715565b5050848103606086015285518082528282019350600581901b8201830183880160005b8381101561078b57601f1985840301875261077983835161067b565b9686019692509085019060010161075d565b50909b9a5050505050505050505050565b604051601f8201601f1916810167ffffffffffffffff811182821017156107c5576107c561084a565b604052919050565b600067ffffffffffffffff8211156107e7576107e761084a565b5060051b60200190565b60005b8381101561080c5781810151838201526020016107f4565b8381111561081b576000848401525b50505050565b600060001982141561084357634e487b7160e01b600052601160045260246000fd5b5060010190565b634e487b7160e01b600052604160045260246000fdfea26469706673582212209d7896fce17d7496e1bbc054b6121d33c3ffcb66294d72708fd6856dd26b150464736f6c63430008060033",
  "linkReferences": {},
  "deployedLinkReferences": {}
}