{
  "_format": "hh-sol-artifact-1",
  "contractName": "RegistryFactory",
  "sourceName": "contracts/RegistryFactory.sol",
  "abi": [
    {
      "inputs": [
        {
          "internalType": "address payable",
          "name": "_master",
          "type": "address"
        }
      ],
      "stateMutability": "nonpayable",
      "type": "constructor"
    },
    {
      "anonymous": false,
      "inputs": [
        {
          "indexed": false,
          "internalType": "address",
          "name": "creator",
          "type": "address"
        },
        {
          "indexed": false,
          "internalType": "address",
          "name": "newRegistry",
          "type": "address"
        },
        {
          "indexed": false,
          "internalType": "bytes32",
          "name": "salt",
          "type": "bytes32"
        }
      ],
      "name": "RegistryCreated",
      "type": "event"
    },
    {
      "inputs": [
        {
          "internalType": "bytes32",
          "name": "salt",
          "type": "bytes32"
        }
      ],
      "name": "contractAddress",
      "outputs": [
        {
          "internalType": "address",
          "name": "",
          "type": "address"
        }
      ],
      "stateMutability": "view",
      "type": "function"
    },
    {
      "inputs": [
        {
          "internalType": "string",
          "name": "__symbol",
          "type": "string"
        },
        {
          "internalType": "string",
          "name": "__name",
          "type": "string"
        },
        {
          "internalType": "address[]",
          "name": "addresses",
          "type": "address[]"
        },
        {
          "internalType": "string[]",
          "name": "foundersCids",
          "type": "string[]"
        },
        {
          "internalType": "bytes32",
          "name": "salt",
          "type": "bytes32"
        }
      ],
      "name": "create",
      "outputs": [
        {
          "internalType": "address payable",
          "name": "proxy",
          "type": "address"
        }
      ],
      "stateMutability": "nonpayable",
      "type": "function"
    }
  ],
  "bytecode": "0x608060405234801561001057600080fd5b506040516106e63803806106e683398101604081905261002f91610054565b600080546001600160a01b0319166001600160a01b0392909216919091179055610084565b60006020828403121561006657600080fd5b81516001600160a01b038116811461007d57600080fd5b9392505050565b610653806100936000396000f3fe608060405234801561001057600080fd5b50600436106100365760003560e01c8063593502921461003b578063bdb30d5a1461006a575b600080fd5b61004e610049366004610362565b61007d565b6040516001600160a01b03909116815260200160405180910390f35b61004e61007836600461037b565b6100e9565b600080546040513060388201526f5af43d82803e903d91602b57fd5bf3ff60248201526001600160a01b039091166014820152733d602d80600a3d3981f3363d3d373d3d3d363d738152605881018390526037600c820120607882015260556043909101205b92915050565b60008054610100906001600160a01b0316836101ba565b604051631199de3960e11b81529091506001600160a01b03821690632333bc72906101359089908990899089906004016104ec565b600060405180830381600087803b15801561014f57600080fd5b505af1158015610163573d6000803e3d6000fd5b5050604080513381526001600160a01b03851660208201529081018590527f0a2f9ef276a60f709d68ac8db30d29a516ef166855efd596a64f71a89d83259e9250606001905060405180910390a195945050505050565b6000763d602d80600a3d3981f3363d3d373d3d3d363d730000008360601b60e81c176000526e5af43d82803e903d91602b57fd5bf38360781b1760205281603760096000f590506001600160a01b0381166100e35760405162461bcd60e51b815260206004820152601760248201527f455243313136373a2063726561746532206661696c6564000000000000000000604482015260640160405180910390fd5b600082601f83011261026c57600080fd5b8135602061028161027c836105e3565b6105b2565b80838252828201915082860187848660051b89010111156102a157600080fd5b6000805b868110156102e457823567ffffffffffffffff8111156102c3578283fd5b6102d18b88838d01016102f2565b86525093850193918501916001016102a5565b509198975050505050505050565b600082601f83011261030357600080fd5b813567ffffffffffffffff81111561031d5761031d610607565b610330601f8201601f19166020016105b2565b81815284602083860101111561034557600080fd5b816020850160208301376000918101602001919091529392505050565b60006020828403121561037457600080fd5b5035919050565b600080600080600060a0868803121561039357600080fd5b853567ffffffffffffffff808211156103ab57600080fd5b6103b789838a016102f2565b96506020915081880135818111156103ce57600080fd5b6103da8a828b016102f2565b9650506040880135818111156103ef57600080fd5b8801601f81018a1361040057600080fd5b803561040e61027c826105e3565b8082825285820191508584018d878560051b870101111561042e57600080fd5b600094505b838510156104665780356001600160a01b038116811461045257600080fd5b835260019490940193918601918601610433565b509750505050606088013591508082111561048057600080fd5b5061048d8882890161025b565b95989497509295608001359392505050565b6000815180845260005b818110156104c5576020818501810151868301820152016104a9565b818111156104d7576000602083870101525b50601f01601f19169290920160200192915050565b6080815260006104ff608083018761049f565b602083820381850152610512828861049f565b8481036040860152865180825282880193509082019060005b818110156105505784516001600160a01b03168352938301939183019160010161052b565b5050848103606086015285518082528282019350600581901b8201830183880160005b838110156105a157601f1985840301875261058f83835161049f565b96860196925090850190600101610573565b50909b9a5050505050505050505050565b604051601f8201601f1916810167ffffffffffffffff811182821017156105db576105db610607565b604052919050565b600067ffffffffffffffff8211156105fd576105fd610607565b5060051b60200190565b634e487b7160e01b600052604160045260246000fdfea264697066735822122085ed0af54ed40fd3e2b97c5a680b24266b05aadf3131eb05f89804491dfe4d9564736f6c63430008060033",
  "linkReferences": {},
  "deployedLinkReferences": {}
}